{"abi":[{"type":"function","name":"verifyProof","inputs":[{"name":"_proof","type":"uint256[24]","internalType":"uint256[24]"},{"name":"_pubSignals","type":"uint256[11]","internalType":"uint256[11]"}],"outputs":[{"name":"","type":"bool","internalType":"bool"}],"stateMutability":"view"}],"bytecode":{"object":"0x6080806040523460155761196b908161001a8239f35b5f80fdfe600436101561000c575f80fd5b5f3560e01c63d9b9609c1461001f575f80fd5b346101f0576104603660031901126101f05736610304116101f05736610464116101f0576105006040526100516102f1565b61005961031a565b610061610343565b61006961036c565b610071610395565b6100796103c0565b6100816103eb565b610089610416565b610091610441565b61009c6004356102d3565b6100a76024356102d3565b6100b26044356102d3565b6100bd6064356102d3565b6100c86084356102d3565b6100d360a4356102d3565b6100de60c4356102d3565b6100e960e4356102d3565b6100f5610104356102d3565b610101610124356102d3565b61010d610144356102d3565b610119610164356102d3565b610125610184356102d3565b6101316101a4356102d3565b61013d6101c4356102d3565b6101496101e4356102d3565b610155610204356102d3565b610161610224356102d3565b61016d610244356102d3565b610179610264356102d3565b610185610284356102d3565b6101916102a4356102d3565b61019d6102c4356102d3565b6101a96102e4356102d3565b6101b161046c565b6101b9610a13565b6101c1610e10565b6101c9610ed3565b6101d1611346565b6101d9611552565b6101e1611640565b6101e96116ae565b5f5260205ff35b5f80fd5b5f6001915f5160206119165f395f51905f5290805b61023457506001919250116101f0575f81126102225790565b5f5160206119165f395f51905f520190565b80820584810290930393929091908202900380610209565b604051906101808101815160208301915b8083106102ad575061026e906101f4565b92601f1991820191015b8282116102855750905052565b5f5160206119165f395f51905f5280825186099483519009938252601f199182019101610278565b91939060205f5160206119165f395f51905f52828293855287519009920194019161025d565b5f5160206119165f395f51905f5211156102e957565b5f805260205ff35b6004355f5160206118f65f395f51905f526003818060243580099381818009900908036102e957565b6044355f5160206118f65f395f51905f526003818060643580099381818009900908036102e957565b6084355f5160206118f65f395f51905f526003818060a43580099381818009900908036102e957565b60c4355f5160206118f65f395f51905f526003818060e43580099381818009900908036102e957565b610104355f5160206118f65f395f51905f52600381806101243580099381818009900908036102e957565b610144355f5160206118f65f395f51905f52600381806101643580099381818009900908036102e957565b610184355f5160206118f65f395f51905f52600381806101a43580099381818009900908036102e957565b6101c4355f5160206118f65f395f51905f52600381806101e43580099381818009900908036102e957565b610204355f5160206118f65f395f51905f52600381806102243580099381818009900908036102e957565b6040517f2a751d083b0dacecb51ccfa42af3b984ecce5a529d69a198c39afdb6dd2a1b6b8152602081017f11ce370379fd26b5a27af6040837ea0e6ae45397bdbe9704cf3b0f4294fc508c8152604082017f154a9734e114a39e388902fac7f0d4c52a7fa312ffa19cc8b21a7566ca7ac617815260608301917f1c757549c2235235cb6b1b8cc5af7c0fe34890ae1f9e682e1ad586587ef4cfa58352608084017f157898af59b7acdc281af53dc7adee182a9d208a3f9717e1dd84c7e2c8189a76815260a08501907f0aa913db6ed277c0062152bbc0553dbbc769273109cfc908841ee1057b282b25825260c086017f17dac20e92632a99b1e335d5f049f53b12f432089e4a26c4a19ad1735f1996c9815260e087017f1fbb692a8f53ab4cf661259a80a92e22e33f5037fd7e178fd34daed668cdcc06905261010087017f16cc23aeea3d0696f61e222aefe42026c27153ad5cd98a6336b762680dfda768905261012087017f192c10e4bc14794dcaabf0213fa45a1fa7fce3a397019bfaaf9d31d97680a3c7905261014087017f2964df6ffaf9a7789994269f378ea8229fa5f86622948e6755cdb030a8eade76905261016087017f1c826c44c7211c3802a92c152a9c5ab4d207f2d193b5ea132424a6d1723f52be905261018087017f0bf96ec30550ceb863ce41cc219339d4ca5d49d0f7be658533c9d862d628c99c90526101a087017f0c7594477dafda7fd09b35b633b75d786804c827b0d9579a283b81a27d57d24390526101c087017f0298cf22fd8c4b71ca6b14bb272a987521aae7084e1848d606fadae9b9ccb90990526101e087017f279e33a69e89850d5fd2c1cc2a047b55e908ee292097558ff32e3a1fb274162d905261030435610200880152610324356102208801526103443561024088015261036435610260880152610384356102808801526103a4356102a08801526103c4356102c08801526103e4356102e08801526104043561030088015261042435610320880152610444356103408801526004356103608801526024356103808801526044356103a08801526064356103c08801526084356103e088015260a43561040088015261042087205f5160206119165f395f51905f529006928360a052602060a0205f5160206119165f395f51905f52900660c05283885260c051855260c435865260e4358752608088205f5160206119165f395f51905f529006806080525f5160206119165f395f51905f528180096103405288526101043585526101243586526101443587526101643583526101843581526101a435825260e088205f5160206119165f395f51905f529006928360e0528389526102443586526102643587526102843588526102a43590526102c43590526102e435905260e086205f5160206119165f395f51905f529006918183610140525f5160206119165f395f51905f52910961012052805f5160206119165f395f51905f529109805f5160206119165f395f51905f529109805f5160206119165f395f51905f529109805f5160206119165f395f51905f529109805f5160206119165f395f51905f529109805f5160206119165f395f51905f529109805f5160206119165f395f51905f529109805f5160206119165f395f51905f529109805f5160206119165f395f51905f529109805f5160206119165f395f51905f529109805f5160206119165f395f51905f52910980610100527f30644e72e131a029b85045b68181585d2833e84879b9709143e1f593f0000000015f5160206119165f395f51905f5290068061036052610380525f5160206119165f395f51905f528180098181610160525f5160206119165f395f51905f5291098181610180525f5160206119165f395f51905f52910990816101a0525f5160206119165f395f51905f5291096101c0526101c43584526101e4359052610204359052610224359052608090205f5160206119165f395f51905f5290066101e052565b5f5160206119165f395f51905f52807f272573c088d418d490fd0c627cd70f2bf77806766c726200edba92865506e6b760e05182807f30644e72e131a029b85045b68181585d2833e84879b9709143e1f593f0000000830106610800096103a05282807f2dea18ee476c9bfe044dc5dedc4bfaeb6f72bc3105247fc673d79c9a7965d11f830106610800096103c05282807f296734b17119fc08cc91898ad0f9e679ee796e87d0e698e631e85fb233d1a6ef830106610800096103e05282807f12eead87ab9d649a8e7bb9350a23d769f52b66953f101a05e7b1a5611bb8c063830106610800096104005282807f21466153ea4a70cdb89019a7a3e651e74003be067d41431bbaa775f2a8fea833830106610800096104205282807f070c5f05a668b3398867614e95fdbfbfdd1ba7d4876b4931262159382bd39dbc830106610800096104405282807f0beb5e960ef05f7426f8e9a191f200d0289ec9bc830c975b39e020e39a1c39ad830106610800096104605282807f06bcda193c5474ac5fe6b5f74524881525509376a7361c2d447d551eb317c82f830106610800096104805282807f28b389113b1d1c24c7ca256be24a58acc6baa5f412687e607b4e94027b5a858b830106610800096104a05282807f19a751be229dd99d826d4959f55737f4d56458062852cd7339c933013ea9bab6830106610800096104c0520106610800096104e052610c2761038061024c565b5f5160206119165f395f51905f52806103605181816103a051096103a0528180826103c051097f027a358499c5042bb4027fd7a5355d71b8c12c177494f0cad00a58f9769a2ee2096103c0528180826103e051097f06fd19c17017a420ebbebc2bb08771e339ba79c0a8d2d7ab11f995e1bc2e5912096103e05281808261040051097f1d75a0eb35943b8f29d48c81775d80f3330881b33aa9568b5c305032d4473f9e096104005281808261042051097f0f1ded1ef6e72f5bffc02c0edd9b0675e8302a41fc782d75893a7fa1470157ce096104205281808261044051097f2957ef6d3ac8ecf02fe8e467eb83989d4b184073f24e27601dc09c5bc42c6245096104405281808261046051097f2478efdcd24140b591575c14ef8f578cff951e8bf6acd9360a01d4b055e3c654096104605281808261048051097f29a77459a4dd2b7d58698fbf3c5cd04802e354d1d2835463ff64a0753ce837d209610480528180826104a051097f07b0c561a6148404f086204a9f36ffb0617942546750f230c893619174a57a76096104a0528180826104c051097f16bcfcb4be93c68c35e2fc5c8c2a206852cf90425166a31e0a18c292b156454b096104c0526104e051097f093edab2585d87552753395404aa493130bbe1d20d470e905627630d9af9194a096104e052565b5f5160206119165f395f51905f5280808080808080808080808080808080808080808080610304356103a051095f03010681610324356103c051099003010681610344356103e051099003010681610364356104005109900301068161038435610420510990030106816103a435610440510990030106816103c435610460510990030106816103e43561048051099003010681610404356104a051099003010681610424356104c051099003010681610444356104e051099003010661020052565b5f5160206119165f395f51905f52610200518180610340516103a051099181808060a0518160c051918160805193816102e435938180846102843508938180808381806102c4358909610264350808946102a4359009610244350808090909098103069381030690080861022052565b608060409260208451918451835281850151828401528051868401520151606082015260066107cf195a01fa156102e957565b604051917f2a751d083b0dacecb51ccfa42af3b984ecce5a529d69a198c39afdb6dd2a1b6b83527f11ce370379fd26b5a27af6040837ea0e6ae45397bdbe9704cf3b0f4294fc508c60208401526040830190815260408360608160076107cf195a01fa156102e957815190526020810151606083015260409160809060066107cf195a01fa156102e957565b604051917f154a9734e114a39e388902fac7f0d4c52a7fa312ffa19cc8b21a7566ca7ac61783527f1c757549c2235235cb6b1b8cc5af7c0fe34890ae1f9e682e1ad586587ef4cfa560208401526040830190815260408360608160076107cf195a01fa156102e957815190526020810151606083015260409160809060066107cf195a01fa156102e957565b604051917f157898af59b7acdc281af53dc7adee182a9d208a3f9717e1dd84c7e2c8189a7683527f0aa913db6ed277c0062152bbc0553dbbc769273109cfc908841ee1057b282b2560208401526040830190815260408360608160076107cf195a01fa156102e957815190526020810151606083015260409160809060066107cf195a01fa156102e957565b604051917f17dac20e92632a99b1e335d5f049f53b12f432089e4a26c4a19ad1735f1996c983527f1fbb692a8f53ab4cf661259a80a92e22e33f5037fd7e178fd34daed668cdcc0660208401526040830190815260408360608160076107cf195a01fa156102e957815190526020810151606083015260409160809060066107cf195a01fa156102e957565b604051917f0bf96ec30550ceb863ce41cc219339d4ca5d49d0f7be658533c9d862d628c99c83527f0c7594477dafda7fd09b35b633b75d786804c827b0d9579a283b81a27d57d24360208401526040830190815260408360608160076107cf195a01fa156102e957815190526020810151606083015260409160809060066107cf195a01fa156102e957565b9192909260405193845260208401526040830190815260408360608160076107cf195a01fa156102e957815190526020810151606083015260409160809060066107cf195a01fa156102e957565b60606040928351907f0298cf22fd8c4b71ca6b14bb272a987521aae7084e1848d606fadae9b9ccb90982527f279e33a69e89850d5fd2c1cc2a047b55e908ee292097558ff32e3a1fb274162d60208301528482015260076107cf195a01fa156102e957565b606060409283519060018252600260208301528482015260076107cf195a01fa156102e957565b9190604093606092855192835260208301528482015260076107cf195a01fa156102e957565b6020820151915161134493929161130c565b565b61134460c05161154a5f5160206119165f395f51905f526040519261010084016040526113ba61024060207f192c10e4bc14794dcaabf0213fa45a1fa7fce3a397019bfaaf9d31d97680a3c7917f16cc23aeea3d0696f61e222aefe42026c27153ad5cd98a6336b762680dfda76881520152565b6113cf82610264356102443509610240610f76565b6113de61024435610240611002565b6113ed6102643561024061108e565b6113fc6102843561024061111a565b6114666101205183608051918180610340516103a051098160c08b019561142c8760c4358152602060e435910152565b816101e0519581808c81806003860961028435080891818d8180828180600288096102643508089361024435080809090908089086611332565b8160a05181806102e43581846080510909938180808381806102c4358909610264350808946102a435900961024435080809096114a7604084019182611280565b61154a60808401936114c485610104358152602061012435910152565b6114d961010051610164356101443588611232565b6114fe5f5160206119165f395f51905f526101005180096101a4356101843588611232565b6103605161151460a0830191825188518961130c565b606082015f5160206118f65f395f51905f52815181030690525f5160206118f65f395f51905f5281518103069052610240610f43565b610240610f43565b6102405161028052610260516102a05261157761014051602435600435610280611232565b61158c61016051606435604435610280611232565b6115a16101805160a435608435610280611232565b6101a051610280906040517f2964df6ffaf9a7789994269f378ea8229fa5f86622948e6755cdb030a8eade7681527f1c826c44c7211c3802a92c152a9c5ab4d207f2d193b5ea132424a6d1723f52be60208201526040810191825260408160608160076107cf195a01fa156102e95760808391604093835190526020830151606082015260066107cf195a01fa156102e9576101c051611344916111a6565b6113445f5160206119165f395f51905f5280808080808061022051810306816101405161024435099008816101605161026435099008816101805161028435099008816101a0516102a435099008816101c0516102c435099008816101e0516102e4350990086102c06112e5565b60405161024081016040526118436102c061018083016118196101c085016118136102008701916116ea856101c435815260206101e435910152565b6102043581526102243560208201526117076101e051828a611332565b6117118589610f43565b602088015f5160206118f65f395f51905f52815181030690527f26186a2d65ee4d2f9c9a5b91f86597d35f192cd120caf7e935d8443d1938e23d60408901527f30441fd1b5d3370482c42152a8899027716989a6996c2535bc9f7fee8aaef79e60608901527f1970ea81dd6992adfbc571effb03503adbbb6a857f578403c6c40e22d65b3c0260808901527f054793348f12c0cf5622c340573cb277586319de359ab9389778f689786b1e4860a08901526117d360e05160c08a019687611332565b5f5160206119165f395f51905f527f027a358499c5042bb4027fd7a5355d71b8c12c177494f0cad00a58f9769a2ee28160e0516101e05109099083611332565b82610f43565b61182561028082610f43565b5f5160206118f65f395f51905f526102e0518103066102e052610f43565b7f198e9393920d483a7260bfb731fb5d25f1aa493335a9e71297e485b7aef312c26101008201527f1800deef121f1e76426a00665e5c4479674322d4f75edadd46debd5cd992f6ed6101208201527f090689d0585ff075ec9e99ad690c3395bc4b313370b38ef355acdadcd122975b6101408201527f12c85ea5db8c6deb4aab71808dcb408fe3d1e7690c43d37b4ce6cc0166fa7daa6101608201526020816101808160086107cf195a01fa9051169056fe30644e72e131a029b85045b68181585d97816a916871ca8d3c208c16d87cfd4730644e72e131a029b85045b68181585d2833e84879b9709143e1f593f0000001a2646970667358221220e3e6cfc8fe9e1069cb9604cf027990e56ed31b6577895e31d5791ce0e7f5dc2864736f6c634300081b0033","linkReferences":{}},"methodIdentifiers":{"verifyProof(uint256[24],uint256[11])":"d9b9609c"},"id":44}