{"contracts/Consumer.sol":{"Consumer":{"abi":[{"inputs":[{"internalType":"address","name":"_rand","type":"address"}],"stateMutability":"payable","type":"constructor"},{"inputs":[],"name":"Misconfigured","type":"error"},{"inputs":[],"name":"SecretMismatch","type":"error"},{"anonymous":false,"inputs":[{"indexed":true,"internalType":"bytes32","name":"owner","type":"bytes32"},{"indexed":false,"internalType":"uint256","name":"id","type":"uint256"},{"indexed":false,"internalType":"bytes32","name":"key","type":"bytes32"}],"name":"Chain","type":"event"},{"anonymous":false,"inputs":[{"indexed":false,"internalType":"uint256","name":"id","type":"uint256"},{"indexed":false,"internalType":"bytes32","name":"formerSecret","type":"bytes32"}],"name":"ConsumerReveal","type":"event"},{"anonymous":false,"inputs":[{"indexed":false,"internalType":"uint256","name":"id","type":"uint256"},{"indexed":false,"internalType":"bytes32","name":"preimage","type":"bytes32"}],"name":"Undermine","type":"event"},{"inputs":[{"internalType":"address","name":"owner","type":"address"},{"internalType":"bool","name":"onlySameTx","type":"bool"},{"internalType":"bool","name":"underminable","type":"bool"},{"internalType":"bytes32","name":"preimage","type":"bytes32"}],"name":"chain","outputs":[{"internalType":"uint256","name":"id","type":"uint256"}],"stateMutability":"payable","type":"function"},{"inputs":[{"internalType":"address","name":"owner","type":"address"},{"internalType":"bool","name":"underminable","type":"bool"},{"internalType":"bytes32","name":"preimage","type":"bytes32"},{"internalType":"bytes32","name":"key","type":"bytes32"}],"name":"chainTo","outputs":[{"internalType":"uint256","name":"","type":"uint256"}],"stateMutability":"payable","type":"function"},{"inputs":[],"name":"latestId","outputs":[{"internalType":"uint256","name":"","type":"uint256"}],"stateMutability":"view","type":"function"},{"inputs":[{"internalType":"uint256","name":"idParam","type":"uint256"}],"name":"link","outputs":[{"components":[{"internalType":"uint256","name":"id","type":"uint256"},{"internalType":"address","name":"owner","type":"address"},{"internalType":"bool","name":"underminable","type":"bool"},{"internalType":"bytes32","name":"key","type":"bytes32"},{"internalType":"bytes32","name":"preimage","type":"bytes32"},{"internalType":"bytes32","name":"revealed","type":"bytes32"}],"internalType":"struct Consumer.Link","name":"l","type":"tuple"}],"stateMutability":"view","type":"function"},{"inputs":[{"internalType":"uint256","name":"id","type":"uint256"},{"internalType":"bytes32","name":"revealedSecret","type":"bytes32"}],"name":"tell","outputs":[],"stateMutability":"nonpayable","type":"function"}],"evm":{"bytecode":{"linkReferences":{},"object":"60c0601f6108b738819003918201601f19168301916001600160401b03831184841017609d57808492602094604052833981010312609957516001600160a01b038116810360995760a0525f80527f290decd9548b62a8d60345a988386fc84ba6bc95484008f6362f93160ef3e56360805260405161080590816100b2823960805181610729015260a0518181816101a0015261033d0152f35b5f80fd5b634e487b7160e01b5f52604160045260245ffdfe60806040908082526004361015610014575f80fd5b5f3560e01c9081634283328914610130575080634bfbbe0b1461011357806377b146a5146100db5780637fbf5db0146100bb5763b1a867d514610055575f80fd5b346100b75760203660031901126100b75760c09060a061007660043561057c565b825192815184526001600160a01b036020830151166020850152808201511515908401526060810151606084015260808101516080840152015160a0820152f35b5f80fd5b50346100b7573660031901126100b7576100d960243560043561030f565b005b5060803660031901126100b75760209061010c6100f661028b565b6100fe6102a1565b90606435916044359161062e565b9051908152f35b50346100b7575f3660031901126100b7576020905f549051908152f35b8260803660031901126100b75761014561028b565b61014d6102a1565b6044359182151583036100b75784916001600160a01b0380927f8492c30b0000000000000000000000000000000000000000000000000000000085521660048401521515602483015281604460209687937f0000000000000000000000000000000000000000000000000000000000000000165afa908115610281575f91610254575b50801561024457335f52836e2fd5aeb385d324b580fca7c83823a0803314610232575b506dd9ecebf3c23529de49815dac1c4c80331461021c575b505061010c91606435905f5161062e565b5f8080925afa1561022e57838561020b565b3838fd5b5f8080925afa1561022e5783856101f3565b600483516321f9f13f60e11b8152fd5b90508381813d831161027a575b61026b81836102e0565b810103126100b75751846101d0565b503d610261565b83513d5f823e3d90fd5b600435906001600160a01b03821682036100b757565b6024359081151582036100b757565b60c0810190811067ffffffffffffffff8211176102cc57604052565b634e487b7160e01b5f52604160045260245ffd5b90601f8019910116810190811067ffffffffffffffff8211176102cc57604052565b519081151582036100b757565b9190825f52600492602091848352604092835f20545f5260018152835f2054610574576001600160a01b03807f00000000000000000000000000000000000000000000000000000000000000001690845f5260058352855f20548651907f0cf9dff70000000000000000000000000000000000000000000000000000000082528982015260e081602481865afa9182156104bc575f926104c6575b5050835f52825f209183608083015160248b8a5194859384927fba065e1f0000000000000000000000000000000000000000000000000000000084528301525afa9081156104bc575f91610487575b50610472575b50835f52868252845f2054810361044a577feba21a04f74f42d14fdc4354d1fa447e3086c055a6d8ee314abadd9e75ef0b559596505f526001815281845f20558351928352820152a1565b8685517f162c5b65000000000000000000000000000000000000000000000000000000008152fd5b60c0610481910151828661074f565b5f6103ff565b90508381813d83116104b5575b61049e81836102e0565b810103126100b7576104af90610302565b5f6103f9565b503d610494565b87513d5f823e3d90fd5b90915060e0823d60e01161056c575b816104e260e093836102e0565b810103126100b75786519160e0830183811067ffffffffffffffff821117610559578852805191821682036100b75760c0918352610521858201610302565b858401528781015188840152606081015160608401526080810151608084015260a081015160a0840152015160c08201525f806103aa565b60418b634e487b7160e01b5f525260245ffd5b3d91506104d5565b505050509050565b604080519061058a826102b0565b5f82526020915f838201525f828201525f60608201525f60808201525f60a0820152835f5260058352815f2054908115610626575060048352815f20549160038452805f2054938460a01c155f1461061e575f905b845f52600181526001600160a01b03835f2054968451986105ff8a6102b0565b895216908701521515908501526060840152608083015260a082015290565b6001906105df565b935050505090565b9091939284158015610726575b61071557845f5260209060028252604092835f2054945f14610706576001600160a01b0374010000000000000000000000000000000000000000915b161793805f526004835286845f2054146106f0575b50907f7e0786ff457ce0bc5e3f599bcc220605e18c56cd9ebed35182b29397697ea46c929160015f540191825f558297835f526003825286855f20556004825280855f20556005825282855f20555f526002815282845f20558351928352820152a2565b6003835284845f20540361068c57955050505050565b6001600160a01b035f91610677565b60046040516321f9f13f60e11b8152fd5b507f0000000000000000000000000000000000000000000000000000000000000000851461063b565b9091156107cb57805f526004602052604090815f205483146107c6576003602052815f205460a01c156107b6577fbe48847c637d143d69ac15740d39544624cdfa8d4f6ce738ecf3e35085c1f4d6828051838152856020820152a15f5260046020525f2055565b600482516321f9f13f60e11b8152fd5b505050565b505056fea26469706673582212200f1b6b4111401237fed67f79016e9038eebd21e929e05df1226c6fcfc410dce264736f6c63430008190033","opcodes":"PUSH1 0xC0 PUSH1 0x1F PUSH2 0x8B7 CODESIZE DUP2 SWAP1 SUB SWAP2 DUP3 ADD PUSH1 0x1F NOT AND DUP4 ADD SWAP2 PUSH1 0x1 PUSH1 0x1 PUSH1 0x40 SHL SUB DUP4 GT DUP5 DUP5 LT OR PUSH1 0x9D JUMPI DUP1 DUP5 SWAP3 PUSH1 0x20 SWAP5 PUSH1 0x40 MSTORE DUP4 CODECOPY DUP2 ADD SUB SLT PUSH1 0x99 JUMPI MLOAD PUSH1 0x1 PUSH1 0x1 PUSH1 0xA0 SHL SUB DUP2 AND DUP2 SUB PUSH1 0x99 JUMPI PUSH1 0xA0 MSTORE PUSH0 DUP1 MSTORE PUSH32 0x290DECD9548B62A8D60345A988386FC84BA6BC95484008F6362F93160EF3E563 PUSH1 0x80 MSTORE PUSH1 0x40 MLOAD PUSH2 0x805 SWAP1 DUP2 PUSH2 0xB2 DUP3 CODECOPY PUSH1 0x80 MLOAD DUP2 PUSH2 0x729 ADD MSTORE PUSH1 0xA0 MLOAD DUP2 DUP2 DUP2 PUSH2 0x1A0 ADD MSTORE PUSH2 0x33D ADD MSTORE RETURN JUMPDEST PUSH0 DUP1 REVERT JUMPDEST PUSH4 0x4E487B71 PUSH1 0xE0 SHL PUSH0 MSTORE PUSH1 0x41 PUSH1 0x4 MSTORE PUSH1 0x24 PUSH0 REVERT INVALID PUSH1 0x80 PUSH1 0x40 SWAP1 DUP1 DUP3 MSTORE PUSH1 0x4 CALLDATASIZE LT ISZERO PUSH2 0x14 JUMPI PUSH0 DUP1 REVERT JUMPDEST PUSH0 CALLDATALOAD PUSH1 0xE0 SHR SWAP1 DUP2 PUSH4 0x42833289 EQ PUSH2 0x130 JUMPI POP DUP1 PUSH4 0x4BFBBE0B EQ PUSH2 0x113 JUMPI DUP1 PUSH4 0x77B146A5 EQ PUSH2 0xDB JUMPI DUP1 PUSH4 0x7FBF5DB0 EQ PUSH2 0xBB JUMPI PUSH4 0xB1A867D5 EQ PUSH2 0x55 JUMPI PUSH0 DUP1 REVERT JUMPDEST CALLVALUE PUSH2 0xB7 JUMPI PUSH1 0x20 CALLDATASIZE PUSH1 0x3 NOT ADD SLT PUSH2 0xB7 JUMPI PUSH1 0xC0 SWAP1 PUSH1 0xA0 PUSH2 0x76 PUSH1 0x4 CALLDATALOAD PUSH2 0x57C JUMP JUMPDEST DUP3 MLOAD SWAP3 DUP2 MLOAD DUP5 MSTORE PUSH1 0x1 PUSH1 0x1 PUSH1 0xA0 SHL SUB PUSH1 0x20 DUP4 ADD MLOAD AND PUSH1 0x20 DUP6 ADD MSTORE DUP1 DUP3 ADD MLOAD ISZERO ISZERO SWAP1 DUP5 ADD MSTORE PUSH1 0x60 DUP2 ADD MLOAD PUSH1 0x60 DUP5 ADD MSTORE PUSH1 0x80 DUP2 ADD MLOAD PUSH1 0x80 DUP5 ADD MSTORE ADD MLOAD PUSH1 0xA0 DUP3 ADD MSTORE RETURN JUMPDEST PUSH0 DUP1 REVERT JUMPDEST POP CALLVALUE PUSH2 0xB7 JUMPI CALLDATASIZE PUSH1 0x3 NOT ADD SLT PUSH2 0xB7 JUMPI PUSH2 0xD9 PUSH1 0x24 CALLDATALOAD PUSH1 0x4 CALLDATALOAD PUSH2 0x30F JUMP JUMPDEST STOP JUMPDEST POP PUSH1 0x80 CALLDATASIZE PUSH1 0x3 NOT ADD SLT PUSH2 0xB7 JUMPI PUSH1 0x20 SWAP1 PUSH2 0x10C PUSH2 0xF6 PUSH2 0x28B JUMP JUMPDEST PUSH2 0xFE PUSH2 0x2A1 JUMP JUMPDEST SWAP1 PUSH1 0x64 CALLDATALOAD SWAP2 PUSH1 0x44 CALLDATALOAD SWAP2 PUSH2 0x62E JUMP JUMPDEST SWAP1 MLOAD SWAP1 DUP2 MSTORE RETURN JUMPDEST POP CALLVALUE PUSH2 0xB7 JUMPI PUSH0 CALLDATASIZE PUSH1 0x3 NOT ADD SLT PUSH2 0xB7 JUMPI PUSH1 0x20 SWAP1 PUSH0 SLOAD SWAP1 MLOAD SWAP1 DUP2 MSTORE RETURN JUMPDEST DUP3 PUSH1 0x80 CALLDATASIZE PUSH1 0x3 NOT ADD SLT PUSH2 0xB7 JUMPI PUSH2 0x145 PUSH2 0x28B JUMP JUMPDEST PUSH2 0x14D PUSH2 0x2A1 JUMP JUMPDEST PUSH1 0x44 CALLDATALOAD SWAP2 DUP3 ISZERO ISZERO DUP4 SUB PUSH2 0xB7 JUMPI DUP5 SWAP2 PUSH1 0x1 PUSH1 0x1 PUSH1 0xA0 SHL SUB DUP1 SWAP3 PUSH32 0x8492C30B00000000000000000000000000000000000000000000000000000000 DUP6 MSTORE AND PUSH1 0x4 DUP5 ADD MSTORE ISZERO ISZERO PUSH1 0x24 DUP4 ADD MSTORE DUP2 PUSH1 0x44 PUSH1 0x20 SWAP7 DUP8 SWAP4 PUSH32 0x0 AND GAS STATICCALL SWAP1 DUP2 ISZERO PUSH2 0x281 JUMPI PUSH0 SWAP2 PUSH2 0x254 JUMPI JUMPDEST POP DUP1 ISZERO PUSH2 0x244 JUMPI CALLER PUSH0 MSTORE DUP4 PUSH15 0x2FD5AEB385D324B580FCA7C83823A0 DUP1 CALLER EQ PUSH2 0x232 JUMPI JUMPDEST POP PUSH14 0xD9ECEBF3C23529DE49815DAC1C4C DUP1 CALLER EQ PUSH2 0x21C JUMPI JUMPDEST POP POP PUSH2 0x10C SWAP2 PUSH1 0x64 CALLDATALOAD SWAP1 PUSH0 MLOAD PUSH2 0x62E JUMP JUMPDEST PUSH0 DUP1 DUP1 SWAP3 GAS STATICCALL ISZERO PUSH2 0x22E JUMPI DUP4 DUP6 PUSH2 0x20B JUMP JUMPDEST CODESIZE CODESIZE REVERT JUMPDEST PUSH0 DUP1 DUP1 SWAP3 GAS STATICCALL ISZERO PUSH2 0x22E JUMPI DUP4 DUP6 PUSH2 0x1F3 JUMP JUMPDEST PUSH1 0x4 DUP4 MLOAD PUSH4 0x21F9F13F PUSH1 0xE1 SHL DUP2 MSTORE REVERT JUMPDEST SWAP1 POP DUP4 DUP2 DUP2 RETURNDATASIZE DUP4 GT PUSH2 0x27A JUMPI JUMPDEST PUSH2 0x26B DUP2 DUP4 PUSH2 0x2E0 JUMP JUMPDEST DUP2 ADD SUB SLT PUSH2 0xB7 JUMPI MLOAD DUP5 PUSH2 0x1D0 JUMP JUMPDEST POP RETURNDATASIZE PUSH2 0x261 JUMP JUMPDEST DUP4 MLOAD RETURNDATASIZE PUSH0 DUP3 RETURNDATACOPY RETURNDATASIZE SWAP1 REVERT JUMPDEST PUSH1 0x4 CALLDATALOAD SWAP1 PUSH1 0x1 PUSH1 0x1 PUSH1 0xA0 SHL SUB DUP3 AND DUP3 SUB PUSH2 0xB7 JUMPI JUMP JUMPDEST PUSH1 0x24 CALLDATALOAD SWAP1 DUP2 ISZERO ISZERO DUP3 SUB PUSH2 0xB7 JUMPI JUMP JUMPDEST PUSH1 0xC0 DUP2 ADD SWAP1 DUP2 LT PUSH8 0xFFFFFFFFFFFFFFFF DUP3 GT OR PUSH2 0x2CC JUMPI PUSH1 0x40 MSTORE JUMP JUMPDEST PUSH4 0x4E487B71 PUSH1 0xE0 SHL PUSH0 MSTORE PUSH1 0x41 PUSH1 0x4 MSTORE PUSH1 0x24 PUSH0 REVERT JUMPDEST SWAP1 PUSH1 0x1F DUP1 NOT SWAP2 ADD AND DUP2 ADD SWAP1 DUP2 LT PUSH8 0xFFFFFFFFFFFFFFFF DUP3 GT OR PUSH2 0x2CC JUMPI PUSH1 0x40 MSTORE JUMP JUMPDEST MLOAD SWAP1 DUP2 ISZERO ISZERO DUP3 SUB PUSH2 0xB7 JUMPI JUMP JUMPDEST SWAP2 SWAP1 DUP3 PUSH0 MSTORE PUSH1 0x4 SWAP3 PUSH1 0x20 SWAP2 DUP5 DUP4 MSTORE PUSH1 0x40 SWAP3 DUP4 PUSH0 KECCAK256 SLOAD PUSH0 MSTORE PUSH1 0x1 DUP2 MSTORE DUP4 PUSH0 KECCAK256 SLOAD PUSH2 0x574 JUMPI PUSH1 0x1 PUSH1 0x1 PUSH1 0xA0 SHL SUB DUP1 PUSH32 0x0 AND SWAP1 DUP5 PUSH0 MSTORE PUSH1 0x5 DUP4 MSTORE DUP6 PUSH0 KECCAK256 SLOAD DUP7 MLOAD SWAP1 PUSH32 0xCF9DFF700000000000000000000000000000000000000000000000000000000 DUP3 MSTORE DUP10 DUP3 ADD MSTORE PUSH1 0xE0 DUP2 PUSH1 0x24 DUP2 DUP7 GAS STATICCALL SWAP2 DUP3 ISZERO PUSH2 0x4BC JUMPI PUSH0 SWAP3 PUSH2 0x4C6 JUMPI JUMPDEST POP POP DUP4 PUSH0 MSTORE DUP3 PUSH0 KECCAK256 SWAP2 DUP4 PUSH1 0x80 DUP4 ADD MLOAD PUSH1 0x24 DUP12 DUP11 MLOAD SWAP5 DUP6 SWAP4 DUP5 SWAP3 PUSH32 0xBA065E1F00000000000000000000000000000000000000000000000000000000 DUP5 MSTORE DUP4 ADD MSTORE GAS STATICCALL SWAP1 DUP2 ISZERO PUSH2 0x4BC JUMPI PUSH0 SWAP2 PUSH2 0x487 JUMPI JUMPDEST POP PUSH2 0x472 JUMPI JUMPDEST POP DUP4 PUSH0 MSTORE DUP7 DUP3 MSTORE DUP5 PUSH0 KECCAK256 SLOAD DUP2 SUB PUSH2 0x44A JUMPI PUSH32 0xEBA21A04F74F42D14FDC4354D1FA447E3086C055A6D8EE314ABADD9E75EF0B55 SWAP6 SWAP7 POP PUSH0 MSTORE PUSH1 0x1 DUP2 MSTORE DUP2 DUP5 PUSH0 KECCAK256 SSTORE DUP4 MLOAD SWAP3 DUP4 MSTORE DUP3 ADD MSTORE LOG1 JUMP JUMPDEST DUP7 DUP6 MLOAD PUSH32 0x162C5B6500000000000000000000000000000000000000000000000000000000 DUP2 MSTORE REVERT JUMPDEST PUSH1 0xC0 PUSH2 0x481 SWAP2 ADD MLOAD DUP3 DUP7 PUSH2 0x74F JUMP JUMPDEST PUSH0 PUSH2 0x3FF JUMP JUMPDEST SWAP1 POP DUP4 DUP2 DUP2 RETURNDATASIZE DUP4 GT PUSH2 0x4B5 JUMPI JUMPDEST PUSH2 0x49E DUP2 DUP4 PUSH2 0x2E0 JUMP JUMPDEST DUP2 ADD SUB SLT PUSH2 0xB7 JUMPI PUSH2 0x4AF SWAP1 PUSH2 0x302 JUMP JUMPDEST PUSH0 PUSH2 0x3F9 JUMP JUMPDEST POP RETURNDATASIZE PUSH2 0x494 JUMP JUMPDEST DUP8 MLOAD RETURNDATASIZE PUSH0 DUP3 RETURNDATACOPY RETURNDATASIZE SWAP1 REVERT JUMPDEST SWAP1 SWAP2 POP PUSH1 0xE0 DUP3 RETURNDATASIZE PUSH1 0xE0 GT PUSH2 0x56C JUMPI JUMPDEST DUP2 PUSH2 0x4E2 PUSH1 0xE0 SWAP4 DUP4 PUSH2 0x2E0 JUMP JUMPDEST DUP2 ADD SUB SLT PUSH2 0xB7 JUMPI DUP7 MLOAD SWAP2 PUSH1 0xE0 DUP4 ADD DUP4 DUP2 LT PUSH8 0xFFFFFFFFFFFFFFFF DUP3 GT OR PUSH2 0x559 JUMPI DUP9 MSTORE DUP1 MLOAD SWAP2 DUP3 AND DUP3 SUB PUSH2 0xB7 JUMPI PUSH1 0xC0 SWAP2 DUP4 MSTORE PUSH2 0x521 DUP6 DUP3 ADD PUSH2 0x302 JUMP JUMPDEST DUP6 DUP5 ADD MSTORE DUP8 DUP2 ADD MLOAD DUP9 DUP5 ADD MSTORE PUSH1 0x60 DUP2 ADD MLOAD PUSH1 0x60 DUP5 ADD MSTORE PUSH1 0x80 DUP2 ADD MLOAD PUSH1 0x80 DUP5 ADD MSTORE PUSH1 0xA0 DUP2 ADD MLOAD PUSH1 0xA0 DUP5 ADD MSTORE ADD MLOAD PUSH1 0xC0 DUP3 ADD MSTORE PUSH0 DUP1 PUSH2 0x3AA JUMP JUMPDEST PUSH1 0x41 DUP12 PUSH4 0x4E487B71 PUSH1 0xE0 SHL PUSH0 MSTORE MSTORE PUSH1 0x24 PUSH0 REVERT JUMPDEST RETURNDATASIZE SWAP2 POP PUSH2 0x4D5 JUMP JUMPDEST POP POP POP POP SWAP1 POP JUMP JUMPDEST PUSH1 0x40 DUP1 MLOAD SWAP1 PUSH2 0x58A DUP3 PUSH2 0x2B0 JUMP JUMPDEST PUSH0 DUP3 MSTORE PUSH1 0x20 SWAP2 PUSH0 DUP4 DUP3 ADD MSTORE PUSH0 DUP3 DUP3 ADD MSTORE PUSH0 PUSH1 0x60 DUP3 ADD MSTORE PUSH0 PUSH1 0x80 DUP3 ADD MSTORE PUSH0 PUSH1 0xA0 DUP3 ADD MSTORE DUP4 PUSH0 MSTORE PUSH1 0x5 DUP4 MSTORE DUP2 PUSH0 KECCAK256 SLOAD SWAP1 DUP2 ISZERO PUSH2 0x626 JUMPI POP PUSH1 0x4 DUP4 MSTORE DUP2 PUSH0 KECCAK256 SLOAD SWAP2 PUSH1 0x3 DUP5 MSTORE DUP1 PUSH0 KECCAK256 SLOAD SWAP4 DUP5 PUSH1 0xA0 SHR ISZERO PUSH0 EQ PUSH2 0x61E JUMPI PUSH0 SWAP1 JUMPDEST DUP5 PUSH0 MSTORE PUSH1 0x1 DUP2 MSTORE PUSH1 0x1 PUSH1 0x1 PUSH1 0xA0 SHL SUB DUP4 PUSH0 KECCAK256 SLOAD SWAP7 DUP5 MLOAD SWAP9 PUSH2 0x5FF DUP11 PUSH2 0x2B0 JUMP JUMPDEST DUP10 MSTORE AND SWAP1 DUP8 ADD MSTORE ISZERO ISZERO SWAP1 DUP6 ADD MSTORE PUSH1 0x60 DUP5 ADD MSTORE PUSH1 0x80 DUP4 ADD MSTORE PUSH1 0xA0 DUP3 ADD MSTORE SWAP1 JUMP JUMPDEST PUSH1 0x1 SWAP1 PUSH2 0x5DF JUMP JUMPDEST SWAP4 POP POP POP POP SWAP1 JUMP JUMPDEST SWAP1 SWAP2 SWAP4 SWAP3 DUP5 ISZERO DUP1 ISZERO PUSH2 0x726 JUMPI JUMPDEST PUSH2 0x715 JUMPI DUP5 PUSH0 MSTORE PUSH1 0x20 SWAP1 PUSH1 0x2 DUP3 MSTORE PUSH1 0x40 SWAP3 DUP4 PUSH0 KECCAK256 SLOAD SWAP5 PUSH0 EQ PUSH2 0x706 JUMPI PUSH1 0x1 PUSH1 0x1 PUSH1 0xA0 SHL SUB PUSH21 0x10000000000000000000000000000000000000000 SWAP2 JUMPDEST AND OR SWAP4 DUP1 PUSH0 MSTORE PUSH1 0x4 DUP4 MSTORE DUP7 DUP5 PUSH0 KECCAK256 SLOAD EQ PUSH2 0x6F0 JUMPI JUMPDEST POP SWAP1 PUSH32 0x7E0786FF457CE0BC5E3F599BCC220605E18C56CD9EBED35182B29397697EA46C SWAP3 SWAP2 PUSH1 0x1 PUSH0 SLOAD ADD SWAP2 DUP3 PUSH0 SSTORE DUP3 SWAP8 DUP4 PUSH0 MSTORE PUSH1 0x3 DUP3 MSTORE DUP7 DUP6 PUSH0 KECCAK256 SSTORE PUSH1 0x4 DUP3 MSTORE DUP1 DUP6 PUSH0 KECCAK256 SSTORE PUSH1 0x5 DUP3 MSTORE DUP3 DUP6 PUSH0 KECCAK256 SSTORE PUSH0 MSTORE PUSH1 0x2 DUP2 MSTORE DUP3 DUP5 PUSH0 KECCAK256 SSTORE DUP4 MLOAD SWAP3 DUP4 MSTORE DUP3 ADD MSTORE LOG2 JUMP JUMPDEST PUSH1 0x3 DUP4 MSTORE DUP5 DUP5 PUSH0 KECCAK256 SLOAD SUB PUSH2 0x68C JUMPI SWAP6 POP POP POP POP POP JUMP JUMPDEST PUSH1 0x1 PUSH1 0x1 PUSH1 0xA0 SHL SUB PUSH0 SWAP2 PUSH2 0x677 JUMP JUMPDEST PUSH1 0x4 PUSH1 0x40 MLOAD PUSH4 0x21F9F13F PUSH1 0xE1 SHL DUP2 MSTORE REVERT JUMPDEST POP PUSH32 0x0 DUP6 EQ PUSH2 0x63B JUMP JUMPDEST SWAP1 SWAP2 ISZERO PUSH2 0x7CB JUMPI DUP1 PUSH0 MSTORE PUSH1 0x4 PUSH1 0x20 MSTORE PUSH1 0x40 SWAP1 DUP2 PUSH0 KECCAK256 SLOAD DUP4 EQ PUSH2 0x7C6 JUMPI PUSH1 0x3 PUSH1 0x20 MSTORE DUP2 PUSH0 KECCAK256 SLOAD PUSH1 0xA0 SHR ISZERO PUSH2 0x7B6 JUMPI PUSH32 0xBE48847C637D143D69AC15740D39544624CDFA8D4F6CE738ECF3E35085C1F4D6 DUP3 DUP1 MLOAD DUP4 DUP2 MSTORE DUP6 PUSH1 0x20 DUP3 ADD MSTORE LOG1 PUSH0 MSTORE PUSH1 0x4 PUSH1 0x20 MSTORE PUSH0 KECCAK256 SSTORE JUMP JUMPDEST PUSH1 0x4 DUP3 MLOAD PUSH4 0x21F9F13F PUSH1 0xE1 SHL DUP2 MSTORE REVERT JUMPDEST POP POP POP JUMP JUMPDEST POP POP JUMP INVALID LOG2 PUSH5 0x6970667358 0x22 SLT KECCAK256 0xF SHL PUSH12 0x4111401237FED67F79016E90 CODESIZE 0xEE 0xBD 0x21 0xE9 0x29 0xE0 TSTORE CALL 0x22 PUSH13 0x6FCFC410DCE264736F6C634300 ADDMOD NOT STOP CALLER "},"methodIdentifiers":{"chain(address,bool,bool,bytes32)":"42833289","chainTo(address,bool,bytes32,bytes32)":"77b146a5","latestId()":"4bfbbe0b","link(uint256)":"b1a867d5","tell(uint256,bytes32)":"7fbf5db0"}}}}}