{"contracts/Reader.sol":{"Reader":{"abi":[{"inputs":[{"internalType":"address","name":"_rand","type":"address"}],"stateMutability":"payable","type":"constructor"},{"inputs":[],"name":"IndexOutOfBounds","type":"error"},{"inputs":[],"name":"Misconfigured","type":"error"},{"inputs":[],"name":"SignerMismatch","type":"error"},{"anonymous":false,"inputs":[{"indexed":true,"internalType":"address","name":"provider","type":"address"},{"indexed":false,"internalType":"bytes32","name":"section","type":"bytes32"}],"name":"Ok","type":"event"},{"inputs":[{"components":[{"internalType":"address","name":"provider","type":"address"},{"internalType":"bool","name":"durationIsTimestamp","type":"bool"},{"internalType":"uint256","name":"duration","type":"uint256"},{"internalType":"address","name":"token","type":"address"},{"internalType":"uint256","name":"price","type":"uint256"},{"internalType":"uint256","name":"offset","type":"uint256"},{"internalType":"uint256","name":"index","type":"uint256"}],"internalType":"struct PreimageLocation.Info","name":"info","type":"tuple"}],"name":"at","outputs":[{"internalType":"bytes32","name":"","type":"bytes32"}],"stateMutability":"view","type":"function"},{"inputs":[{"components":[{"internalType":"address","name":"provider","type":"address"},{"internalType":"bool","name":"durationIsTimestamp","type":"bool"},{"internalType":"uint256","name":"duration","type":"uint256"},{"internalType":"address","name":"token","type":"address"},{"internalType":"uint256","name":"price","type":"uint256"},{"internalType":"uint256","name":"offset","type":"uint256"},{"internalType":"uint256","name":"index","type":"uint256"}],"internalType":"struct PreimageLocation.Info","name":"section","type":"tuple"}],"name":"consumed","outputs":[{"internalType":"uint256","name":"len","type":"uint256"},{"internalType":"bytes","name":"indices","type":"bytes"}],"stateMutability":"view","type":"function"},{"inputs":[{"components":[{"internalType":"address","name":"provider","type":"address"},{"internalType":"bool","name":"durationIsTimestamp","type":"bool"},{"internalType":"uint256","name":"duration","type":"uint256"},{"internalType":"address","name":"token","type":"address"},{"internalType":"uint256","name":"price","type":"uint256"},{"internalType":"uint256","name":"offset","type":"uint256"},{"internalType":"uint256","name":"index","type":"uint256"}],"internalType":"struct PreimageLocation.Info[]","name":"infos","type":"tuple[]"}],"name":"ok","outputs":[],"stateMutability":"payable","type":"function"},{"inputs":[{"components":[{"internalType":"address","name":"provider","type":"address"},{"internalType":"bool","name":"durationIsTimestamp","type":"bool"},{"internalType":"uint256","name":"duration","type":"uint256"},{"internalType":"address","name":"token","type":"address"},{"internalType":"uint256","name":"price","type":"uint256"},{"internalType":"uint256","name":"offset","type":"uint256"},{"internalType":"uint256","name":"index","type":"uint256"}],"internalType":"struct PreimageLocation.Info","name":"info","type":"tuple"}],"name":"pointer","outputs":[{"internalType":"bytes","name":"","type":"bytes"}],"stateMutability":"view","type":"function"}],"evm":{"bytecode":{"linkReferences":{},"object":"6080601f6108db38819003918201601f19168301916001600160401b03831184841017606f57808492602094604052833981010312606b57516001600160a01b03811690819003606b575f80546001600160a01b03191691909117905560405161085790816100848239f35b5f80fd5b634e487b7160e01b5f52604160045260245ffdfe60806040526004361015610011575f80fd5b60e05f35811c80633af299ee14610358578063705b013c1461031d57806398e0e114146102575763f16df39114610046575f80fd5b6020806003193601126101f85760043567ffffffffffffffff928382116101f857366023830112156101f85781600401359384116101f8576024820191602436918387020101116101f857335f52826e2fd5aeb385d324b580fca7c83823a0803314610245575b506dd9ecebf3c23529de49815dac1c4c80331461022f575b50505f51925f93600195869460016001600160a01b03809416965b6100e657005b15610226575b5f6100f8888484610694565b358481168091036101f85787036101fc57610114888484610694565b86813603126101f8576040519861012a8a6105ed565b6101338261065b565b808b52878301359283151584036101f85788888c938f9e938f97947f786f6c9fa380484e920dd424c96d0649b4a5abd7cee90c5c1fb6d4502abde81f9585820152604082013580604083015260609178ffffffffff00000000000000000000000000000000000000006101a784860161065b565b9283858401526080978887013594858a86015260a0948589013598898783015260c080910135910152816040519916895216921b161786850152604084015282015220604051908152a201976100e0565b5f80fd5b60046040517f10c74b03000000000000000000000000000000000000000000000000000000008152fd5b8187106100ec57005b5f8080925afa1561024157825f6100c5565b3838fd5b5f8080925afa1561024157825f6100ad565b50346101f8573660031901126101f85761026f6106a4565b60c435908160051b906020928083048414901517156103095782820191828111610309576040908151938591602181601f8801873c86860194855160ff16156102e4575b50108102845283015f85820152019182604052519051908381106102d657508152f35b5f1990840360031b1b168152f35b9092503b8260215f1983019283871c3d3d3e820301828411028803911102915f6102b3565b634e487b7160e01b5f52601160045260245ffd5b50346101f8573660031901126101f85761035461034061033b6106a4565b6107f7565b6040519182916020835260208301906105c9565b0390f35b50346101f857806003193601126101f85761037461033b6106a4565b5190600160078360051c16115f146105c35760015b8260081c016103b061039a8261063f565b916103a8604051938461061d565b80835261063f565b601f19013660208301375f916001936001600160a01b035f5416945b15610598575b5f93826003193601126101f857604051906103ec826105ed565b6001600160a01b0360043516600435036101f85760043582526024351515602435036101f857602435602083015260443560408301526001600160a01b0360643516606435036101f8576064356060830152608435608083015260a43560a08301528060c083015260c0604051927f3af299ee0000000000000000000000000000000000000000000000000000000084526001600160a01b038151166004850152602081015115156024850152604081015160448501526001600160a01b0360608201511660648501526080810151608485015260a081015160a4850152015160c483015260208260e4818a5afa801561058d575f9061054f575b600192506104f7575b01936103cc565b8060031c6105497fff00000000000000000000000000000000000000000000000000000000000000610529838961066f565b5160f89060ff87600788166007031b1690821c17901b165f1a918761066f565b536104f0565b50906020813d602011610585575b8161056a6020938361061d565b810103126101f857519081151582036101f8576001916104e7565b3d915061055d565b6040513d5f823e3d90fd5b8060051c84106103d257905061035460405192839260051c83526040602084015260408301906105c9565b5f610389565b805180835260209291819084018484015e5f828201840152601f01601f1916010190565b60e0810190811067ffffffffffffffff82111761060957604052565b634e487b7160e01b5f52604160045260245ffd5b90601f8019910116810190811067ffffffffffffffff82111761060957604052565b67ffffffffffffffff811161060957601f01601f191660200190565b35906001600160a01b03821682036101f857565b908151811015610680570160200190565b634e487b7160e01b5f52603260045260245ffd5b91908110156106805760e0020190565b6001600160a01b03805f5416604051917f705b013c0000000000000000000000000000000000000000000000000000000083526004358181168091036101f85760048401526024358015158091036101f857602484015260443560448401526064358181168091036101f8576064840152608435608484015260a43560a484015260208360e48160c435958660c48301525afa92831561058d575f936107ba575b5082161561079057813b60051c905f19820191821161030957116107665790565b60046040517f4e23d035000000000000000000000000000000000000000000000000000000008152fd5b60046040517f43f3e27e000000000000000000000000000000000000000000000000000000008152fd5b9092506020813d6020116107ef575b816107d66020938361061d565b810103126101f8575182811681036101f857915f610745565b3d91506107c9565b9060408051809364ffffffffff5f19823b0116905f6021830191601f8501903c808252010160405256fea2646970667358221220f5719d8249b4bf17ac35c7b3d62d9a2669615e7094b4684109862659745db11c64736f6c63430008190033","opcodes":"PUSH1 0x80 PUSH1 0x1F PUSH2 0x8DB CODESIZE DUP2 SWAP1 SUB SWAP2 DUP3 ADD PUSH1 0x1F NOT AND DUP4 ADD SWAP2 PUSH1 0x1 PUSH1 0x1 PUSH1 0x40 SHL SUB DUP4 GT DUP5 DUP5 LT OR PUSH1 0x6F JUMPI DUP1 DUP5 SWAP3 PUSH1 0x20 SWAP5 PUSH1 0x40 MSTORE DUP4 CODECOPY DUP2 ADD SUB SLT PUSH1 0x6B JUMPI MLOAD PUSH1 0x1 PUSH1 0x1 PUSH1 0xA0 SHL SUB DUP2 AND SWAP1 DUP2 SWAP1 SUB PUSH1 0x6B JUMPI PUSH0 DUP1 SLOAD PUSH1 0x1 PUSH1 0x1 PUSH1 0xA0 SHL SUB NOT AND SWAP2 SWAP1 SWAP2 OR SWAP1 SSTORE PUSH1 0x40 MLOAD PUSH2 0x857 SWAP1 DUP2 PUSH2 0x84 DUP3 CODECOPY RETURN JUMPDEST PUSH0 DUP1 REVERT JUMPDEST PUSH4 0x4E487B71 PUSH1 0xE0 SHL PUSH0 MSTORE PUSH1 0x41 PUSH1 0x4 MSTORE PUSH1 0x24 PUSH0 REVERT INVALID PUSH1 0x80 PUSH1 0x40 MSTORE PUSH1 0x4 CALLDATASIZE LT ISZERO PUSH2 0x11 JUMPI PUSH0 DUP1 REVERT JUMPDEST PUSH1 0xE0 PUSH0 CALLDATALOAD DUP2 SHR DUP1 PUSH4 0x3AF299EE EQ PUSH2 0x358 JUMPI DUP1 PUSH4 0x705B013C EQ PUSH2 0x31D JUMPI DUP1 PUSH4 0x98E0E114 EQ PUSH2 0x257 JUMPI PUSH4 0xF16DF391 EQ PUSH2 0x46 JUMPI PUSH0 DUP1 REVERT JUMPDEST PUSH1 0x20 DUP1 PUSH1 0x3 NOT CALLDATASIZE ADD SLT PUSH2 0x1F8 JUMPI PUSH1 0x4 CALLDATALOAD PUSH8 0xFFFFFFFFFFFFFFFF SWAP3 DUP4 DUP3 GT PUSH2 0x1F8 JUMPI CALLDATASIZE PUSH1 0x23 DUP4 ADD SLT ISZERO PUSH2 0x1F8 JUMPI DUP2 PUSH1 0x4 ADD CALLDATALOAD SWAP4 DUP5 GT PUSH2 0x1F8 JUMPI PUSH1 0x24 DUP3 ADD SWAP2 PUSH1 0x24 CALLDATASIZE SWAP2 DUP4 DUP8 MUL ADD ADD GT PUSH2 0x1F8 JUMPI CALLER PUSH0 MSTORE DUP3 PUSH15 0x2FD5AEB385D324B580FCA7C83823A0 DUP1 CALLER EQ PUSH2 0x245 JUMPI JUMPDEST POP PUSH14 0xD9ECEBF3C23529DE49815DAC1C4C DUP1 CALLER EQ PUSH2 0x22F JUMPI JUMPDEST POP POP PUSH0 MLOAD SWAP3 PUSH0 SWAP4 PUSH1 0x1 SWAP6 DUP7 SWAP5 PUSH1 0x1 PUSH1 0x1 PUSH1 0x1 PUSH1 0xA0 SHL SUB DUP1 SWAP5 AND SWAP7 JUMPDEST PUSH2 0xE6 JUMPI STOP JUMPDEST ISZERO PUSH2 0x226 JUMPI JUMPDEST PUSH0 PUSH2 0xF8 DUP9 DUP5 DUP5 PUSH2 0x694 JUMP JUMPDEST CALLDATALOAD DUP5 DUP2 AND DUP1 SWAP2 SUB PUSH2 0x1F8 JUMPI DUP8 SUB PUSH2 0x1FC JUMPI PUSH2 0x114 DUP9 DUP5 DUP5 PUSH2 0x694 JUMP JUMPDEST DUP7 DUP2 CALLDATASIZE SUB SLT PUSH2 0x1F8 JUMPI PUSH1 0x40 MLOAD SWAP9 PUSH2 0x12A DUP11 PUSH2 0x5ED JUMP JUMPDEST PUSH2 0x133 DUP3 PUSH2 0x65B JUMP JUMPDEST DUP1 DUP12 MSTORE DUP8 DUP4 ADD CALLDATALOAD SWAP3 DUP4 ISZERO ISZERO DUP5 SUB PUSH2 0x1F8 JUMPI DUP9 DUP9 DUP13 SWAP4 DUP16 SWAP15 SWAP4 DUP16 SWAP8 SWAP5 PUSH32 0x786F6C9FA380484E920DD424C96D0649B4A5ABD7CEE90C5C1FB6D4502ABDE81F SWAP6 DUP6 DUP3 ADD MSTORE PUSH1 0x40 DUP3 ADD CALLDATALOAD DUP1 PUSH1 0x40 DUP4 ADD MSTORE PUSH1 0x60 SWAP2 PUSH25 0xFFFFFFFFFF0000000000000000000000000000000000000000 PUSH2 0x1A7 DUP5 DUP7 ADD PUSH2 0x65B JUMP JUMPDEST SWAP3 DUP4 DUP6 DUP5 ADD MSTORE PUSH1 0x80 SWAP8 DUP9 DUP8 ADD CALLDATALOAD SWAP5 DUP6 DUP11 DUP7 ADD MSTORE PUSH1 0xA0 SWAP5 DUP6 DUP10 ADD CALLDATALOAD SWAP9 DUP10 DUP8 DUP4 ADD MSTORE PUSH1 0xC0 DUP1 SWAP2 ADD CALLDATALOAD SWAP2 ADD MSTORE DUP2 PUSH1 0x40 MLOAD SWAP10 AND DUP10 MSTORE AND SWAP3 SHL AND OR DUP7 DUP6 ADD MSTORE PUSH1 0x40 DUP5 ADD MSTORE DUP3 ADD MSTORE KECCAK256 PUSH1 0x40 MLOAD SWAP1 DUP2 MSTORE LOG2 ADD SWAP8 PUSH2 0xE0 JUMP JUMPDEST PUSH0 DUP1 REVERT JUMPDEST PUSH1 0x4 PUSH1 0x40 MLOAD PUSH32 0x10C74B0300000000000000000000000000000000000000000000000000000000 DUP2 MSTORE REVERT JUMPDEST DUP2 DUP8 LT PUSH2 0xEC JUMPI STOP JUMPDEST PUSH0 DUP1 DUP1 SWAP3 GAS STATICCALL ISZERO PUSH2 0x241 JUMPI DUP3 PUSH0 PUSH2 0xC5 JUMP JUMPDEST CODESIZE CODESIZE REVERT JUMPDEST PUSH0 DUP1 DUP1 SWAP3 GAS STATICCALL ISZERO PUSH2 0x241 JUMPI DUP3 PUSH0 PUSH2 0xAD JUMP JUMPDEST POP CALLVALUE PUSH2 0x1F8 JUMPI CALLDATASIZE PUSH1 0x3 NOT ADD SLT PUSH2 0x1F8 JUMPI PUSH2 0x26F PUSH2 0x6A4 JUMP JUMPDEST PUSH1 0xC4 CALLDATALOAD SWAP1 DUP2 PUSH1 0x5 SHL SWAP1 PUSH1 0x20 SWAP3 DUP1 DUP4 DIV DUP5 EQ SWAP1 ISZERO OR ISZERO PUSH2 0x309 JUMPI DUP3 DUP3 ADD SWAP2 DUP3 DUP2 GT PUSH2 0x309 JUMPI PUSH1 0x40 SWAP1 DUP2 MLOAD SWAP4 DUP6 SWAP2 PUSH1 0x21 DUP2 PUSH1 0x1F DUP9 ADD DUP8 EXTCODECOPY DUP7 DUP7 ADD SWAP5 DUP6 MLOAD PUSH1 0xFF AND ISZERO PUSH2 0x2E4 JUMPI JUMPDEST POP LT DUP2 MUL DUP5 MSTORE DUP4 ADD PUSH0 DUP6 DUP3 ADD MSTORE ADD SWAP2 DUP3 PUSH1 0x40 MSTORE MLOAD SWAP1 MLOAD SWAP1 DUP4 DUP2 LT PUSH2 0x2D6 JUMPI POP DUP2 MSTORE RETURN JUMPDEST PUSH0 NOT SWAP1 DUP5 SUB PUSH1 0x3 SHL SHL AND DUP2 MSTORE RETURN JUMPDEST SWAP1 SWAP3 POP EXTCODESIZE DUP3 PUSH1 0x21 PUSH0 NOT DUP4 ADD SWAP3 DUP4 DUP8 SHR RETURNDATASIZE RETURNDATASIZE RETURNDATACOPY DUP3 SUB ADD DUP3 DUP5 GT MUL DUP9 SUB SWAP2 GT MUL SWAP2 PUSH0 PUSH2 0x2B3 JUMP JUMPDEST PUSH4 0x4E487B71 PUSH1 0xE0 SHL PUSH0 MSTORE PUSH1 0x11 PUSH1 0x4 MSTORE PUSH1 0x24 PUSH0 REVERT JUMPDEST POP CALLVALUE PUSH2 0x1F8 JUMPI CALLDATASIZE PUSH1 0x3 NOT ADD SLT PUSH2 0x1F8 JUMPI PUSH2 0x354 PUSH2 0x340 PUSH2 0x33B PUSH2 0x6A4 JUMP JUMPDEST PUSH2 0x7F7 JUMP JUMPDEST PUSH1 0x40 MLOAD SWAP2 DUP3 SWAP2 PUSH1 0x20 DUP4 MSTORE PUSH1 0x20 DUP4 ADD SWAP1 PUSH2 0x5C9 JUMP JUMPDEST SUB SWAP1 RETURN JUMPDEST POP CALLVALUE PUSH2 0x1F8 JUMPI DUP1 PUSH1 0x3 NOT CALLDATASIZE ADD SLT PUSH2 0x1F8 JUMPI PUSH2 0x374 PUSH2 0x33B PUSH2 0x6A4 JUMP JUMPDEST MLOAD SWAP1 PUSH1 0x1 PUSH1 0x7 DUP4 PUSH1 0x5 SHR AND GT PUSH0 EQ PUSH2 0x5C3 JUMPI PUSH1 0x1 JUMPDEST DUP3 PUSH1 0x8 SHR ADD PUSH2 0x3B0 PUSH2 0x39A DUP3 PUSH2 0x63F JUMP JUMPDEST SWAP2 PUSH2 0x3A8 PUSH1 0x40 MLOAD SWAP4 DUP5 PUSH2 0x61D JUMP JUMPDEST DUP1 DUP4 MSTORE PUSH2 0x63F JUMP JUMPDEST PUSH1 0x1F NOT ADD CALLDATASIZE PUSH1 0x20 DUP4 ADD CALLDATACOPY PUSH0 SWAP2 PUSH1 0x1 SWAP4 PUSH1 0x1 PUSH1 0x1 PUSH1 0xA0 SHL SUB PUSH0 SLOAD AND SWAP5 JUMPDEST ISZERO PUSH2 0x598 JUMPI JUMPDEST PUSH0 SWAP4 DUP3 PUSH1 0x3 NOT CALLDATASIZE ADD SLT PUSH2 0x1F8 JUMPI PUSH1 0x40 MLOAD SWAP1 PUSH2 0x3EC DUP3 PUSH2 0x5ED JUMP JUMPDEST PUSH1 0x1 PUSH1 0x1 PUSH1 0xA0 SHL SUB PUSH1 0x4 CALLDATALOAD AND PUSH1 0x4 CALLDATALOAD SUB PUSH2 0x1F8 JUMPI PUSH1 0x4 CALLDATALOAD DUP3 MSTORE PUSH1 0x24 CALLDATALOAD ISZERO ISZERO PUSH1 0x24 CALLDATALOAD SUB PUSH2 0x1F8 JUMPI PUSH1 0x24 CALLDATALOAD PUSH1 0x20 DUP4 ADD MSTORE PUSH1 0x44 CALLDATALOAD PUSH1 0x40 DUP4 ADD MSTORE PUSH1 0x1 PUSH1 0x1 PUSH1 0xA0 SHL SUB PUSH1 0x64 CALLDATALOAD AND PUSH1 0x64 CALLDATALOAD SUB PUSH2 0x1F8 JUMPI PUSH1 0x64 CALLDATALOAD PUSH1 0x60 DUP4 ADD MSTORE PUSH1 0x84 CALLDATALOAD PUSH1 0x80 DUP4 ADD MSTORE PUSH1 0xA4 CALLDATALOAD PUSH1 0xA0 DUP4 ADD MSTORE DUP1 PUSH1 0xC0 DUP4 ADD MSTORE PUSH1 0xC0 PUSH1 0x40 MLOAD SWAP3 PUSH32 0x3AF299EE00000000000000000000000000000000000000000000000000000000 DUP5 MSTORE PUSH1 0x1 PUSH1 0x1 PUSH1 0xA0 SHL SUB DUP2 MLOAD AND PUSH1 0x4 DUP6 ADD MSTORE PUSH1 0x20 DUP2 ADD MLOAD ISZERO ISZERO PUSH1 0x24 DUP6 ADD MSTORE PUSH1 0x40 DUP2 ADD MLOAD PUSH1 0x44 DUP6 ADD MSTORE PUSH1 0x1 PUSH1 0x1 PUSH1 0xA0 SHL SUB PUSH1 0x60 DUP3 ADD MLOAD AND PUSH1 0x64 DUP6 ADD MSTORE PUSH1 0x80 DUP2 ADD MLOAD PUSH1 0x84 DUP6 ADD MSTORE PUSH1 0xA0 DUP2 ADD MLOAD PUSH1 0xA4 DUP6 ADD MSTORE ADD MLOAD PUSH1 0xC4 DUP4 ADD MSTORE PUSH1 0x20 DUP3 PUSH1 0xE4 DUP2 DUP11 GAS STATICCALL DUP1 ISZERO PUSH2 0x58D JUMPI PUSH0 SWAP1 PUSH2 0x54F JUMPI JUMPDEST PUSH1 0x1 SWAP3 POP PUSH2 0x4F7 JUMPI JUMPDEST ADD SWAP4 PUSH2 0x3CC JUMP JUMPDEST DUP1 PUSH1 0x3 SHR PUSH2 0x549 PUSH32 0xFF00000000000000000000000000000000000000000000000000000000000000 PUSH2 0x529 DUP4 DUP10 PUSH2 0x66F JUMP JUMPDEST MLOAD PUSH1 0xF8 SWAP1 PUSH1 0xFF DUP8 PUSH1 0x7 DUP9 AND PUSH1 0x7 SUB SHL AND SWAP1 DUP3 SHR OR SWAP1 SHL AND PUSH0 BYTE SWAP2 DUP8 PUSH2 0x66F JUMP JUMPDEST MSTORE8 PUSH2 0x4F0 JUMP JUMPDEST POP SWAP1 PUSH1 0x20 DUP2 RETURNDATASIZE PUSH1 0x20 GT PUSH2 0x585 JUMPI JUMPDEST DUP2 PUSH2 0x56A PUSH1 0x20 SWAP4 DUP4 PUSH2 0x61D JUMP JUMPDEST DUP2 ADD SUB SLT PUSH2 0x1F8 JUMPI MLOAD SWAP1 DUP2 ISZERO ISZERO DUP3 SUB PUSH2 0x1F8 JUMPI PUSH1 0x1 SWAP2 PUSH2 0x4E7 JUMP JUMPDEST RETURNDATASIZE SWAP2 POP PUSH2 0x55D JUMP JUMPDEST PUSH1 0x40 MLOAD RETURNDATASIZE PUSH0 DUP3 RETURNDATACOPY RETURNDATASIZE SWAP1 REVERT JUMPDEST DUP1 PUSH1 0x5 SHR DUP5 LT PUSH2 0x3D2 JUMPI SWAP1 POP PUSH2 0x354 PUSH1 0x40 MLOAD SWAP3 DUP4 SWAP3 PUSH1 0x5 SHR DUP4 MSTORE PUSH1 0x40 PUSH1 0x20 DUP5 ADD MSTORE PUSH1 0x40 DUP4 ADD SWAP1 PUSH2 0x5C9 JUMP JUMPDEST PUSH0 PUSH2 0x389 JUMP JUMPDEST DUP1 MLOAD DUP1 DUP4 MSTORE PUSH1 0x20 SWAP3 SWAP2 DUP2 SWAP1 DUP5 ADD DUP5 DUP5 ADD MCOPY PUSH0 DUP3 DUP3 ADD DUP5 ADD MSTORE PUSH1 0x1F ADD PUSH1 0x1F NOT AND ADD ADD SWAP1 JUMP JUMPDEST PUSH1 0xE0 DUP2 ADD SWAP1 DUP2 LT PUSH8 0xFFFFFFFFFFFFFFFF DUP3 GT OR PUSH2 0x609 JUMPI PUSH1 0x40 MSTORE JUMP JUMPDEST PUSH4 0x4E487B71 PUSH1 0xE0 SHL PUSH0 MSTORE PUSH1 0x41 PUSH1 0x4 MSTORE PUSH1 0x24 PUSH0 REVERT JUMPDEST SWAP1 PUSH1 0x1F DUP1 NOT SWAP2 ADD AND DUP2 ADD SWAP1 DUP2 LT PUSH8 0xFFFFFFFFFFFFFFFF DUP3 GT OR PUSH2 0x609 JUMPI PUSH1 0x40 MSTORE JUMP JUMPDEST PUSH8 0xFFFFFFFFFFFFFFFF DUP2 GT PUSH2 0x609 JUMPI PUSH1 0x1F ADD PUSH1 0x1F NOT AND PUSH1 0x20 ADD SWAP1 JUMP JUMPDEST CALLDATALOAD SWAP1 PUSH1 0x1 PUSH1 0x1 PUSH1 0xA0 SHL SUB DUP3 AND DUP3 SUB PUSH2 0x1F8 JUMPI JUMP JUMPDEST SWAP1 DUP2 MLOAD DUP2 LT ISZERO PUSH2 0x680 JUMPI ADD PUSH1 0x20 ADD SWAP1 JUMP JUMPDEST PUSH4 0x4E487B71 PUSH1 0xE0 SHL PUSH0 MSTORE PUSH1 0x32 PUSH1 0x4 MSTORE PUSH1 0x24 PUSH0 REVERT JUMPDEST SWAP2 SWAP1 DUP2 LT ISZERO PUSH2 0x680 JUMPI PUSH1 0xE0 MUL ADD SWAP1 JUMP JUMPDEST PUSH1 0x1 PUSH1 0x1 PUSH1 0xA0 SHL SUB DUP1 PUSH0 SLOAD AND PUSH1 0x40 MLOAD SWAP2 PUSH32 0x705B013C00000000000000000000000000000000000000000000000000000000 DUP4 MSTORE PUSH1 0x4 CALLDATALOAD DUP2 DUP2 AND DUP1 SWAP2 SUB PUSH2 0x1F8 JUMPI PUSH1 0x4 DUP5 ADD MSTORE PUSH1 0x24 CALLDATALOAD DUP1 ISZERO ISZERO DUP1 SWAP2 SUB PUSH2 0x1F8 JUMPI PUSH1 0x24 DUP5 ADD MSTORE PUSH1 0x44 CALLDATALOAD PUSH1 0x44 DUP5 ADD MSTORE PUSH1 0x64 CALLDATALOAD DUP2 DUP2 AND DUP1 SWAP2 SUB PUSH2 0x1F8 JUMPI PUSH1 0x64 DUP5 ADD MSTORE PUSH1 0x84 CALLDATALOAD PUSH1 0x84 DUP5 ADD MSTORE PUSH1 0xA4 CALLDATALOAD PUSH1 0xA4 DUP5 ADD MSTORE PUSH1 0x20 DUP4 PUSH1 0xE4 DUP2 PUSH1 0xC4 CALLDATALOAD SWAP6 DUP7 PUSH1 0xC4 DUP4 ADD MSTORE GAS STATICCALL SWAP3 DUP4 ISZERO PUSH2 0x58D JUMPI PUSH0 SWAP4 PUSH2 0x7BA JUMPI JUMPDEST POP DUP3 AND ISZERO PUSH2 0x790 JUMPI DUP2 EXTCODESIZE PUSH1 0x5 SHR SWAP1 PUSH0 NOT DUP3 ADD SWAP2 DUP3 GT PUSH2 0x309 JUMPI GT PUSH2 0x766 JUMPI SWAP1 JUMP JUMPDEST PUSH1 0x4 PUSH1 0x40 MLOAD PUSH32 0x4E23D03500000000000000000000000000000000000000000000000000000000 DUP2 MSTORE REVERT JUMPDEST PUSH1 0x4 PUSH1 0x40 MLOAD PUSH32 0x43F3E27E00000000000000000000000000000000000000000000000000000000 DUP2 MSTORE REVERT JUMPDEST SWAP1 SWAP3 POP PUSH1 0x20 DUP2 RETURNDATASIZE PUSH1 0x20 GT PUSH2 0x7EF JUMPI JUMPDEST DUP2 PUSH2 0x7D6 PUSH1 0x20 SWAP4 DUP4 PUSH2 0x61D JUMP JUMPDEST DUP2 ADD SUB SLT PUSH2 0x1F8 JUMPI MLOAD DUP3 DUP2 AND DUP2 SUB PUSH2 0x1F8 JUMPI SWAP2 PUSH0 PUSH2 0x745 JUMP JUMPDEST RETURNDATASIZE SWAP2 POP PUSH2 0x7C9 JUMP JUMPDEST SWAP1 PUSH1 0x40 DUP1 MLOAD DUP1 SWAP4 PUSH5 0xFFFFFFFFFF PUSH0 NOT DUP3 EXTCODESIZE ADD AND SWAP1 PUSH0 PUSH1 0x21 DUP4 ADD SWAP2 PUSH1 0x1F DUP6 ADD SWAP1 EXTCODECOPY DUP1 DUP3 MSTORE ADD ADD PUSH1 0x40 MSTORE JUMP INVALID LOG2 PUSH5 0x6970667358 0x22 SLT KECCAK256 CREATE2 PUSH18 0x9D8249B4BF17AC35C7B3D62D9A2669615E70 SWAP5 0xB4 PUSH9 0x4109862659745DB11C PUSH5 0x736F6C6343 STOP ADDMOD NOT STOP CALLER "},"methodIdentifiers":{"at((address,bool,uint256,address,uint256,uint256,uint256))":"98e0e114","consumed((address,bool,uint256,address,uint256,uint256,uint256))":"3af299ee","ok((address,bool,uint256,address,uint256,uint256,uint256)[])":"f16df391","pointer((address,bool,uint256,address,uint256,uint256,uint256))":"705b013c"}}}}}