{"contracts/Random.sol":{"Random":{"abi":[{"inputs":[],"name":"Misconfigured","type":"error"},{"inputs":[],"name":"MissingPayment","type":"error"},{"inputs":[],"name":"NotInCohort","type":"error"},{"inputs":[],"name":"SecretMismatch","type":"error"},{"inputs":[],"name":"SignerMismatch","type":"error"},{"inputs":[],"name":"UnableToService","type":"error"},{"anonymous":false,"inputs":[{"indexed":true,"internalType":"address","name":"provider","type":"address"},{"indexed":false,"internalType":"bytes32","name":"section","type":"bytes32"}],"name":"Bleach","type":"event"},{"anonymous":false,"inputs":[{"indexed":false,"internalType":"bytes32","name":"key","type":"bytes32"},{"indexed":false,"internalType":"bytes32","name":"seed","type":"bytes32"}],"name":"Cast","type":"event"},{"anonymous":false,"inputs":[{"indexed":false,"internalType":"bytes32","name":"key","type":"bytes32"}],"name":"Chop","type":"event"},{"anonymous":false,"inputs":[{"indexed":false,"internalType":"bytes32","name":"key","type":"bytes32"}],"name":"Expired","type":"event"},{"anonymous":false,"inputs":[{"indexed":true,"internalType":"address","name":"provider","type":"address"},{"indexed":false,"internalType":"bytes32","name":"section","type":"bytes32"},{"indexed":false,"internalType":"uint256","name":"index","type":"uint256"}],"name":"Heat","type":"event"},{"anonymous":false,"inputs":[{"indexed":false,"internalType":"address","name":"sender","type":"address"},{"indexed":true,"internalType":"address","name":"provider","type":"address"},{"indexed":false,"internalType":"bytes32","name":"section","type":"bytes32"},{"indexed":false,"internalType":"uint256","name":"offset","type":"uint256"},{"indexed":false,"internalType":"address","name":"pointer","type":"address"}],"name":"Ink","type":"event"},{"anonymous":false,"inputs":[{"indexed":true,"internalType":"address","name":"provider","type":"address"},{"indexed":false,"internalType":"bytes32","name":"location","type":"bytes32"},{"indexed":false,"internalType":"bytes32","name":"formerSecret","type":"bytes32"}],"name":"Reveal","type":"event"},{"anonymous":false,"inputs":[{"indexed":true,"internalType":"address","name":"owner","type":"address"},{"indexed":false,"internalType":"bytes32","name":"key","type":"bytes32"}],"name":"Start","type":"event"},{"inputs":[{"internalType":"address","name":"account","type":"address"},{"internalType":"address","name":"token","type":"address"}],"name":"balanceOf","outputs":[{"internalType":"uint256","name":"","type":"uint256"}],"stateMutability":"view","type":"function"},{"inputs":[{"components":[{"internalType":"address","name":"provider","type":"address"},{"internalType":"bool","name":"durationIsTimestamp","type":"bool"},{"internalType":"uint256","name":"duration","type":"uint256"},{"internalType":"address","name":"token","type":"address"},{"internalType":"uint256","name":"price","type":"uint256"},{"internalType":"uint256","name":"offset","type":"uint256"},{"internalType":"uint256","name":"index","type":"uint256"}],"internalType":"struct PreimageLocation.Info","name":"info","type":"tuple"}],"name":"bleach","outputs":[],"stateMutability":"payable","type":"function"},{"inputs":[{"internalType":"bytes32","name":"key","type":"bytes32"},{"components":[{"internalType":"address","name":"provider","type":"address"},{"internalType":"bool","name":"durationIsTimestamp","type":"bool"},{"internalType":"uint256","name":"duration","type":"uint256"},{"internalType":"address","name":"token","type":"address"},{"internalType":"uint256","name":"price","type":"uint256"},{"internalType":"uint256","name":"offset","type":"uint256"},{"internalType":"uint256","name":"index","type":"uint256"}],"internalType":"struct PreimageLocation.Info[]","name":"info","type":"tuple[]"},{"internalType":"bytes32[]","name":"revealed","type":"bytes32[]"}],"name":"cast","outputs":[{"internalType":"enum Random.CastState","name":"","type":"uint8"}],"stateMutability":"payable","type":"function"},{"inputs":[{"internalType":"bytes32","name":"key","type":"bytes32"},{"components":[{"internalType":"address","name":"provider","type":"address"},{"internalType":"bool","name":"durationIsTimestamp","type":"bool"},{"internalType":"uint256","name":"duration","type":"uint256"},{"internalType":"address","name":"token","type":"address"},{"internalType":"uint256","name":"price","type":"uint256"},{"internalType":"uint256","name":"offset","type":"uint256"},{"internalType":"uint256","name":"index","type":"uint256"}],"internalType":"struct PreimageLocation.Info[]","name":"info","type":"tuple[]"}],"name":"chop","outputs":[],"stateMutability":"payable","type":"function"},{"inputs":[{"components":[{"internalType":"address","name":"provider","type":"address"},{"internalType":"bool","name":"durationIsTimestamp","type":"bool"},{"internalType":"uint256","name":"duration","type":"uint256"},{"internalType":"address","name":"token","type":"address"},{"internalType":"uint256","name":"price","type":"uint256"},{"internalType":"uint256","name":"offset","type":"uint256"},{"internalType":"uint256","name":"index","type":"uint256"}],"internalType":"struct PreimageLocation.Info","name":"info","type":"tuple"}],"name":"consumed","outputs":[{"internalType":"bool","name":"","type":"bool"}],"stateMutability":"view","type":"function"},{"inputs":[{"internalType":"uint256","name":"timeline","type":"uint256"}],"name":"expired","outputs":[{"internalType":"bool","name":"","type":"bool"}],"stateMutability":"view","type":"function"},{"inputs":[{"internalType":"address","name":"recipient","type":"address"},{"internalType":"address","name":"token","type":"address"},{"internalType":"int256","name":"amount","type":"int256"}],"name":"handoff","outputs":[],"stateMutability":"payable","type":"function"},{"inputs":[{"internalType":"uint256","name":"required","type":"uint256"},{"components":[{"internalType":"address","name":"provider","type":"address"},{"internalType":"bool","name":"durationIsTimestamp","type":"bool"},{"internalType":"uint256","name":"duration","type":"uint256"},{"internalType":"address","name":"token","type":"address"},{"internalType":"uint256","name":"price","type":"uint256"},{"internalType":"uint256","name":"offset","type":"uint256"},{"internalType":"uint256","name":"index","type":"uint256"}],"internalType":"struct PreimageLocation.Info","name":"settings","type":"tuple"},{"components":[{"internalType":"address","name":"provider","type":"address"},{"internalType":"bool","name":"durationIsTimestamp","type":"bool"},{"internalType":"uint256","name":"duration","type":"uint256"},{"internalType":"address","name":"token","type":"address"},{"internalType":"uint256","name":"price","type":"uint256"},{"internalType":"uint256","name":"offset","type":"uint256"},{"internalType":"uint256","name":"index","type":"uint256"}],"internalType":"struct PreimageLocation.Info[]","name":"potentialLocations","type":"tuple[]"}],"name":"heat","outputs":[{"internalType":"bytes32","name":"","type":"bytes32"}],"stateMutability":"payable","type":"function"},{"inputs":[{"components":[{"internalType":"address","name":"provider","type":"address"},{"internalType":"bool","name":"durationIsTimestamp","type":"bool"},{"internalType":"uint256","name":"duration","type":"uint256"},{"internalType":"address","name":"token","type":"address"},{"internalType":"uint256","name":"price","type":"uint256"},{"internalType":"uint256","name":"offset","type":"uint256"},{"internalType":"uint256","name":"index","type":"uint256"}],"internalType":"struct PreimageLocation.Info","name":"info","type":"tuple"},{"internalType":"bytes","name":"data","type":"bytes"}],"name":"ink","outputs":[],"stateMutability":"payable","type":"function"},{"inputs":[{"internalType":"address","name":"owner","type":"address"},{"internalType":"bool","name":"onlySameTx","type":"bool"}],"name":"latest","outputs":[{"internalType":"bytes32","name":"key","type":"bytes32"}],"stateMutability":"view","type":"function"},{"inputs":[{"components":[{"internalType":"address","name":"provider","type":"address"},{"internalType":"bool","name":"durationIsTimestamp","type":"bool"},{"internalType":"uint256","name":"duration","type":"uint256"},{"internalType":"address","name":"token","type":"address"},{"internalType":"uint256","name":"price","type":"uint256"},{"internalType":"uint256","name":"offset","type":"uint256"},{"internalType":"uint256","name":"index","type":"uint256"}],"internalType":"struct PreimageLocation.Info","name":"info","type":"tuple"}],"name":"pointer","outputs":[{"internalType":"address","name":"","type":"address"}],"stateMutability":"view","type":"function"},{"inputs":[{"internalType":"bytes32","name":"key","type":"bytes32"}],"name":"randomness","outputs":[{"components":[{"internalType":"address","name":"owner","type":"address"},{"internalType":"bool","name":"usesTimestamp","type":"bool"},{"internalType":"uint256","name":"duration","type":"uint256"},{"internalType":"uint256","name":"start","type":"uint256"},{"internalType":"uint256","name":"timeline","type":"uint256"},{"internalType":"uint256","name":"contributed","type":"uint256"},{"internalType":"bytes32","name":"seed","type":"bytes32"}],"internalType":"struct IRandom.Randomness","name":"","type":"tuple"}],"stateMutability":"view","type":"function"}],"evm":{"bytecode":{"linkReferences":{},"object":"60808060405234601557611d86908161001a8239f35b5f80fdfe60806040526004361015610011575f80fd5b60e05f35811c90816302a381bf14610ce85781630493b93c146109b65781630cf9dff7146108cd5781632ed8fe33146108935781633af299ee146108655781635b845a80146105ae578163705b013c1461052557816374ad136e14610273575080638492c30b146101e7578063ba065e1f146101bf578063f7888aec146101715763f98dea29146100a0575f80fd5b606036600319011261016d5767ffffffffffffffff60243581811161016d576100cd903690600401610ec2565b60449291923591821161016d573660238301121561016d578160040135926100f48461102c565b926101026040519485610f23565b8484526020946024602086019160051b8301019136831161016d57602401905b82821061015e576101378686866004356112f9565b604051600382101561014a576020918152f35b634e487b7160e01b5f52602160045260245ffd5b81358152908601908601610122565b5f80fd5b3461016d57604036600319011261016d5761018a610e82565b610192610e98565b906001600160a01b038091165f52600360205260405f2091165f52602052602060405f2054604051908152f35b3461016d57602036600319011261016d5760206101dd600435611886565b6040519015158152f35b3461016d57604036600319011261016d57610200610e82565b60243590811515820361016d576001600160a01b031690815f52600960205260405f2061022b611ad6565b5f5260205260405f2054908115610248575b602082604051908152f35b9050610262575f526002602052602060405f20548261023d565b600460405163d3e0741d60e01b8152fd5b36600319011261016d5761028636610f45565b61028e611610565b90346104fb575b6001600160a01b038151166001600160a01b038316036104d157906102d8826001600160a01b03606064ffffffffff60a01b604084015160a01b16920151161790565b6102e28184611a81565b60051c926102ef8161175b565b5f9060a0830151958601905f946001600160a01b038551165f52600660205260405f20905f5260205260405f2060808501515f5260205260405f209460015b1561045b575b5f97811561044c575b8382820111610442575b81610100038160081c5f528760205260405f208054915f19811c9083868601610100031b901c10610380575b505001966101009061032e565b93989194839698919a9360ff87169081898101976101018910156103fc575b5060405f20915f1990610100031c901b81541790559960015b156103e3575b5f9a60018d821c16156103d5575b6001019a6103b8565b60808a0151909a01996103cc565b858b106103be5794509491985096949198508980610373565b5f19821b8f179055890160ff811691505f90600160088b811c91820192901c015b80820361042d57505f528e61039f565b90806001915f525f1960405f2055019061041d565b8084039150610347565b60ff811661010003915061033d565b82881061033457838583898361046d57005b6001600160a01b03916040519081527fbd86c8c76936132dbc24244b04f4607b8bc2b75dd1cb36379bbedeee254b9260602084841692a2165f5260036020526001600160a01b03606060405f20920151165f5260205260405f209081540190555f80f35b60046040517f10c74b03000000000000000000000000000000000000000000000000000000008152fd5b6001600160a01b0382165f52600360205260405f205f805260205260405f20348154019055610295565b3461016d5736600319011261016d576004356001600160a01b0380821680920361016d576020915f526005825260405f2061058661056236610f45565b6001600160a01b03606064ffffffffff60a01b604084015160a01b16920151161790565b5f52825260405f206084355f52825260405f2060a4355f52825260405f205416604051908152f35b61010036600319011261016d576105c436610f45565b60e4359067ffffffffffffffff80831161016d573660238401121561016d57826004013590811161016d57366024828501011161016d578060051c9181158015610859575b61084857610615611610565b923461081e575b6001600160a01b0380941691825f526020936003855260405f20946060830195878751165f52815260405f20546080840196875186028092106107f457865f52600383528860405f209151165f52825260405f2090815403905586835116978815610262576106a9846001600160a01b03606064ffffffffff60a01b604084015160a01b16920151161790565b93895f526004835260405f20855f52835260405f2088515f5283525f836040822054958060246106d8826112dd565b966106e66040519889610f23565b8288520183870137840101528151978860401b6bfe61000180600a3d393df3000161fffe8a11840152600b8901601584015ff09687156107e7577f0a0b08ec1802460e3e5a597cf64a8b64b588d0b0938df0adf5fc125781558d659a60809a6107cd95528c5f526005865260405f20885f52865260405f2083515f52865260405f20875f52865260405f20981697887fffffffffffffffffffffffff00000000000000000000000000000000000000008254161790558501958b5f526004855260405f20905f52845260405f2090515f5283528460405f20558981528360a082015261175b565b90604051958652850152841b1760408301526060820152a2005b63301164255f526004601cfd5b60046040517f62128b04000000000000000000000000000000000000000000000000000000008152fd5b6001600160a01b0384165f52600360205260405f205f805260205260405f2034815401905561061c565b60046040516321f9f13f60e11b8152fd5b50601f82161515610609565b3461016d5736600319011261016d5760206101dd61088561056236610f45565b61088e36610f45565b611a0c565b604036600319011261016d5760243567ffffffffffffffff811161016d576108c26108cb913690600401610ec2565b906004356110d3565b005b3461016d5760208060031936011261016d575f60c06040516108ee81610ef3565b82815282848201528260408201528260608201528260808201528260a082015201526004355f525f815260405f2054908160601c916001825260405f2054916040519061093a82610ef3565b848252808201906001808560081c161482526040830190647fffffffff8560091c168252606084019265ffffffffffff8660301c16845260c0608086019587875260ff60a082019816885201968752604051978852511515908701525160408601525160608501525160808401525160a08301525160c0820152f35b61012036600319011261016d5736602319011261016d576101043567ffffffffffffffff811161016d576109ee903690600401610ec2565b6109f9600435611044565b91610a02611610565b9034610cbe575b6001600160a01b03610a19611076565b161561026257600435158015610cb2575b8015610ca7575b61026257606435647fffffffff811603610848575f925f905f908015610c9357610a5f60608597950161108c565b9360015b15610c81575b5f90610a7681848a6110a0565b6001600160a01b03610a8a6060830161108c565b166001600160a01b0388160361084857602081013580151580910361016d57610ab16110b0565b1515036108485760643560408201351161084857610ad7610ad23683610fb9565b61175b565b610aea81610ae53685610fb9565b6117b6565b610afa575b505060010190610a63565b6001929695916080915f5260c08101356020528b610b1c8860405f20926110bf565b520135019301938460043514610b33578980610aef565b505050919293505b60043511610262578015159182610c6c575b505090506107f457805160051b602080920120610b68611076565b610b706110b0565b15610c65576001905b610b816110b0565b15610c4a576bffffffffffff00000000000065ffffffffff0042935b855f525f875260643560011b1760081b169260301b16906bffffffffffffffffffffffff199060601b16171760405f20556001600160a01b03610bde611076565b16805f526009835260405f20610bf2611ad6565b5f5283528160405f20555f52600282528060405f20556001600160a01b03610c18611076565b167f7a1cb491da9915d087844d867ad00ac476b12041d231adb7a04be595db91e44b83604051848152a2604051908152f35b6bffffffffffff00000000000065ffffffffff004393610b9d565b5f90610b79565b610c7892508193611673565b10808380610b4d565b818110610a6957505091929350610b3b565b634e487b7160e01b5f52603260045260245ffd5b508260043511610a31565b5060ff60043511610a2a565b6001600160a01b0382165f52600360205260405f205f805260205260405f20348154019055610a09565b606036600319011261016d57610cfc610e82565b610d04610e98565b60443591610d10611610565b6001600160a01b0391808316610e7c575080935b5f811215610e65575f03908284169384155f14610d6657505034106107f45734925b165f52600360205260405f20905f5260205260405f209081540190555f80f35b9091610d723083611d22565b9260405190826060523060405260601b80602c526f23b872dd000000000000000000000000600c5260205f6064601c82885af13d1560015f511417165f6060528260405215610dd1575b505050610dca903090611d22565b0392610d46565b86607483015282605483015230603483015260208201526f36c78516000000000000000000000000815260014614908115610e4b575b5f9060846010389201836e22d473030f116ddee9f6b43ac78ba35af11615610e30578080610dbc565b600490677939f4248757f0fd5f5260a01c151560021b601801fd5b6e22d473030f116ddee9f6b43ac78ba33b15159150610e07565b836108cb95949350610e7692611673565b916116dd565b93610d24565b600435906001600160a01b038216820361016d57565b602435906001600160a01b038216820361016d57565b35906001600160a01b038216820361016d57565b9181601f8401121561016d5782359167ffffffffffffffff831161016d5760208085019460e0850201011161016d57565b60e0810190811067ffffffffffffffff821117610f0f57604052565b634e487b7160e01b5f52604160045260245ffd5b90601f8019910116810190811067ffffffffffffffff821117610f0f57604052565b60e090600319011261016d5760405190610f5e82610ef3565b816001600160a01b03600435818116810361016d578252602435801515810361016d5760208301526044356040830152606435908116810361016d576060820152608435608082015260a43560a082015260c060c435910152565b91908260e091031261016d57604051610fd181610ef3565b8092610fdc81610eae565b82526020810135801515810361016d5760c091829160208501526040810135604085015261100c60608201610eae565b60608501526080810135608085015260a081013560a08501520135910152565b67ffffffffffffffff8111610f0f5760051b60200190565b9061104e8261102c565b61105b6040519182610f23565b828152809261106c601f199161102c565b0190602036910137565b6024356001600160a01b038116810361016d5790565b356001600160a01b038116810361016d5790565b9190811015610c935760e0020190565b604435801515810361016d5790565b8051821015610c935760209160051b010190565b919091346112ac575b805f5260019160209260018452604091825f20546112a4575f8552611103835f2054611886565b1561129457835f526008855260ff835f205416611294575f845f93885f9161112a86611044565b926001825b6111bc575b5050505087815160051b910120036111ac57845f5260088652835f20600160ff198254161790555f8652835f20549115610c9357846111a59361119a60607fa1470b3e580ca86a806ba4cff90a8a7327f837f862b313e7c406aa942d62997e9a0161108c565b92019260601c61194a565b51908152a1565b60048451635c49863b60e11b8152fd5b909192979594501561127b575b5f9086886111f86111db8484846110a0565b6111f2610562366111ed8888886110a0565b610fb9565b906118d9565b15611245575b6112278596979860806112178689979661122c966110a0565b0135019a6111ed848c36936110a0565b61192f565b61123682886110bf565b52019190918b928a959461112f565b9661122761122c91608061121786868a9b9c848f848e9c9b611266926110a0565b0135019c9b50965096505050989150506111fe565b888682101561128a57506111c9565b9394969180611134565b6004835163d3e0741d60e01b8152fd5b505050505050565b6001600160a01b036112bc611610565b165f52600360205260405f205f805260205260405f203481540190556110dc565b67ffffffffffffffff8111610f0f57601f01601f191660200190565b9091346115df575b815f526001602091818352604094855f20546115d5576008845260ff865f2054166115c5575f965f61133284611044565b905f915f9187805b6114bf575b505087815160051b91012088036114af57611497575084815160051b910120855f5283855280875f20557f46adc4912184d61bbcd0939b961e9388a3fa9122b827b48b36fdf552759f3e7d8780518881528388820152a15f52828452855f20549186518581019381851067ffffffffffffffff861117610f0f578594895281525f935b61147c575b50806113d49306916110a0565b92805f525f8352845f2054916113e983611886565b611429575b5050506001600160a01b03806114038461108c565b165f52600382526114196060855f20940161108c565b165f52525f209081540190555f90565b9061146e877f3077f64f92ad91c6479071531304fa3c1e0bb9b63e130c746f3a564292f0ddc6949886941c809103988361146560608a0161108c565b9160601c61194a565b8551908152a15f80806113ee565b9250848320928381528482805f030685106113c257506113c7565b9750505050505f918252525f20908154019055600290565b60048951635c49863b60e11b8152fd5b9b88919c156115ad575b5f908d888a6114d8838b6110bf565b511561153257826114ec916114fd936110a0565b6114f6838b6110bf565b5190611b37565b9061150883886110bf565b52611529575b90608061151e85935b8c8c6110a0565b0135019d019161133a565b9583019561150e565b816111f2610562611555868561154f8261155c986115639a6110a0565b956110a0565b3690610fb9565b91896110bf565b528d888a611571838b6110bf565b51156115a3575b826115936112276080946111ed8a989761151e9636936110a0565b61159d828a6110bf565b52611517565b9496508694611578565b9050868c10156115be5787906114c9565b9a8061133f565b6004865163d3e0741d60e01b8152fd5b5050935050505090565b6001600160a01b036115ef611610565b165f52600360205260405f205f805260205260405f20348154019055611301565b335f526e2fd5aeb385d324b580fca7c83823a0803314611660575b506dd9ecebf3c23529de49815dac1c4c803314611649575b505f5190565b5f80806020935afa1561165c575f611643565b3838fd5b5f80806020935afa1561165c575f61162b565b92916001600160a01b0380941693845f52600360205260405f20921691825f5260205260405f2054908181115f146116d7575080915b8294836116b7575b50505050565b5f52600360205260405f20905f526020520360405f20555f8080806116b1565b916116a9565b908215611756576001600160a01b03811661170f57505f80809338935af11561170257565b63b12d13eb5f526004601cfd5b60105f60449260209582956014526034526fa9059cbb00000000000000000000000082525af13d1560015f5114171615611749575f603452565b6390b8ec185f526004601cfd5b505050565b6080906001600160a01b0381511690611792816001600160a01b03606064ffffffffff60a01b604084015160a01b16920151161790565b9060a084820151910151916040519384526020840152604083015260608201522090565b906117df826001600160a01b03606064ffffffffff60a01b604084015160a01b16920151161790565b6117e98184611a0c565b61187f577fed034d9d62bb699c05145f178d69dcac2bbbe1b6ab1bb196ac35b5d0bd00e2d0916001600160a01b03808551165f526006602052604092835f20905f52602052825f2060808601515f52602052825f209060a086019586519260c0820193845101908160081c5f52602052600160ff875f2092161b81541790555116945190510182519182526020820152a2600190565b5050505f90565b60018160081c16155f146118b257435b65ffffffffffff637fffffff8360091c169260301c1690031190565b42611896565b919082018092116118c557565b634e487b7160e01b5f52601160045260245ffd5b906001600160a01b036118eb8361108c565b165f52600760205260405f20905f5260205260405f2060808201355f5260205261192260405f209160a060c08201359101356118b8565b5f5260205260405f205490565b60c061193a8261175b565b910151905f5260205260405f2090565b90926001600160a01b038083165f52600360205260405f20931692835f5260205260405f2061197a8282546118b8565b90556040519260208401947f0e4ee5e10000000000000000000000000000000000000000000000000000000086526024850152604484015260648301526064825260a082019282841067ffffffffffffffff851117610f0f575f809493819460405251925af1503d15611a0a573d6119f1816112dd565b906119ff6040519283610f23565b81525f60203d92013e565b565b611a168282611a81565b60051c9160c08201928351101561084857600192611a69916001600160a01b038451165f52600660205260405f20905f5260205260405f2060808401515f5260205260a060405f209301519051906118b8565b908160081c5f5260205260ff60405f205491161c1690565b6001600160a01b0391828251165f52600560205260405f20905f5260205260405f2060808201515f5260205260a060405f209101515f5260205260405f2054168015610848573b5f1981019081116118c55790565b60405160208101904160601b8252486034820152466054820152426074820152436094820152434060b48201523260601b60d48201523a60e882015260e88152610120810181811067ffffffffffffffff821117610f0f5760405251902090565b90611b456105623684610fb9565b6001600160a01b0380611b578561108c565b165f52602060058152604091825f20845f528252825f2093608087013594855f528352835f209660a081013597885f52845282855f205416958615611d1257875f52845f209660c0830135978860051b9188888401938151948a91602181601f8901873c8b870194855160ff1615611ced575b50108102855284015f8a8201520192838a5251905190888110611cdd575b5003611cb55750611bfc6112273684610fb9565b98611c0784846118d9565b15611c1a57505050505050505050905f90565b7fa8080584ebb92497a93bf0923d88f7a218d6b2b12e73938ec37157d8df9c561e97611ca39486611c4a8661108c565b165f5260078852885f20905f528752875f20835f528752875f2091015f52855287865f205583611c798361108c565b165f5260038552855f2084611c906060850161108c565b165f528552855f2090815401905561108c565b1693825191868352820152a290600190565b807f162c5b650000000000000000000000000000000000000000000000000000000060049252fd5b5f1990890360031b1b165f611be8565b9092503b8260215f1983019283871c3d3d3e820301828411028d03911102915f611bca565b600486516321f9f13f60e11b8152fd5b602460106020939284936014526f70a082310000000000000000000000005f525afa601f3d1116602051029056fea2646970667358221220ac82c022c7df1ca3abdc3b8b54129d311ba403a433486a497473eab672d3330b64736f6c63430008190033","opcodes":"PUSH1 0x80 DUP1 PUSH1 0x40 MSTORE CALLVALUE PUSH1 0x15 JUMPI PUSH2 0x1D86 SWAP1 DUP2 PUSH2 0x1A DUP3 CODECOPY RETURN JUMPDEST PUSH0 DUP1 REVERT INVALID PUSH1 0x80 PUSH1 0x40 MSTORE PUSH1 0x4 CALLDATASIZE LT ISZERO PUSH2 0x11 JUMPI PUSH0 DUP1 REVERT JUMPDEST PUSH1 0xE0 PUSH0 CALLDATALOAD DUP2 SHR SWAP1 DUP2 PUSH4 0x2A381BF EQ PUSH2 0xCE8 JUMPI DUP2 PUSH4 0x493B93C EQ PUSH2 0x9B6 JUMPI DUP2 PUSH4 0xCF9DFF7 EQ PUSH2 0x8CD JUMPI DUP2 PUSH4 0x2ED8FE33 EQ PUSH2 0x893 JUMPI DUP2 PUSH4 0x3AF299EE EQ PUSH2 0x865 JUMPI DUP2 PUSH4 0x5B845A80 EQ PUSH2 0x5AE JUMPI DUP2 PUSH4 0x705B013C EQ PUSH2 0x525 JUMPI DUP2 PUSH4 0x74AD136E EQ PUSH2 0x273 JUMPI POP DUP1 PUSH4 0x8492C30B EQ PUSH2 0x1E7 JUMPI DUP1 PUSH4 0xBA065E1F EQ PUSH2 0x1BF JUMPI DUP1 PUSH4 0xF7888AEC EQ PUSH2 0x171 JUMPI PUSH4 0xF98DEA29 EQ PUSH2 0xA0 JUMPI PUSH0 DUP1 REVERT JUMPDEST PUSH1 0x60 CALLDATASIZE PUSH1 0x3 NOT ADD SLT PUSH2 0x16D JUMPI PUSH8 0xFFFFFFFFFFFFFFFF PUSH1 0x24 CALLDATALOAD DUP2 DUP2 GT PUSH2 0x16D JUMPI PUSH2 0xCD SWAP1 CALLDATASIZE SWAP1 PUSH1 0x4 ADD PUSH2 0xEC2 JUMP JUMPDEST PUSH1 0x44 SWAP3 SWAP2 SWAP3 CALLDATALOAD SWAP2 DUP3 GT PUSH2 0x16D JUMPI CALLDATASIZE PUSH1 0x23 DUP4 ADD SLT ISZERO PUSH2 0x16D JUMPI DUP2 PUSH1 0x4 ADD CALLDATALOAD SWAP3 PUSH2 0xF4 DUP5 PUSH2 0x102C JUMP JUMPDEST SWAP3 PUSH2 0x102 PUSH1 0x40 MLOAD SWAP5 DUP6 PUSH2 0xF23 JUMP JUMPDEST DUP5 DUP5 MSTORE PUSH1 0x20 SWAP5 PUSH1 0x24 PUSH1 0x20 DUP7 ADD SWAP2 PUSH1 0x5 SHL DUP4 ADD ADD SWAP2 CALLDATASIZE DUP4 GT PUSH2 0x16D JUMPI PUSH1 0x24 ADD SWAP1 JUMPDEST DUP3 DUP3 LT PUSH2 0x15E JUMPI PUSH2 0x137 DUP7 DUP7 DUP7 PUSH1 0x4 CALLDATALOAD PUSH2 0x12F9 JUMP JUMPDEST PUSH1 0x40 MLOAD PUSH1 0x3 DUP3 LT ISZERO PUSH2 0x14A JUMPI PUSH1 0x20 SWAP2 DUP2 MSTORE RETURN JUMPDEST PUSH4 0x4E487B71 PUSH1 0xE0 SHL PUSH0 MSTORE PUSH1 0x21 PUSH1 0x4 MSTORE PUSH1 0x24 PUSH0 REVERT JUMPDEST DUP2 CALLDATALOAD DUP2 MSTORE SWAP1 DUP7 ADD SWAP1 DUP7 ADD PUSH2 0x122 JUMP JUMPDEST PUSH0 DUP1 REVERT JUMPDEST CALLVALUE PUSH2 0x16D JUMPI PUSH1 0x40 CALLDATASIZE PUSH1 0x3 NOT ADD SLT PUSH2 0x16D JUMPI PUSH2 0x18A PUSH2 0xE82 JUMP JUMPDEST PUSH2 0x192 PUSH2 0xE98 JUMP JUMPDEST SWAP1 PUSH1 0x1 PUSH1 0x1 PUSH1 0xA0 SHL SUB DUP1 SWAP2 AND PUSH0 MSTORE PUSH1 0x3 PUSH1 0x20 MSTORE PUSH1 0x40 PUSH0 KECCAK256 SWAP2 AND PUSH0 MSTORE PUSH1 0x20 MSTORE PUSH1 0x20 PUSH1 0x40 PUSH0 KECCAK256 SLOAD PUSH1 0x40 MLOAD SWAP1 DUP2 MSTORE RETURN JUMPDEST CALLVALUE PUSH2 0x16D JUMPI PUSH1 0x20 CALLDATASIZE PUSH1 0x3 NOT ADD SLT PUSH2 0x16D JUMPI PUSH1 0x20 PUSH2 0x1DD PUSH1 0x4 CALLDATALOAD PUSH2 0x1886 JUMP JUMPDEST PUSH1 0x40 MLOAD SWAP1 ISZERO ISZERO DUP2 MSTORE RETURN JUMPDEST CALLVALUE PUSH2 0x16D JUMPI PUSH1 0x40 CALLDATASIZE PUSH1 0x3 NOT ADD SLT PUSH2 0x16D JUMPI PUSH2 0x200 PUSH2 0xE82 JUMP JUMPDEST PUSH1 0x24 CALLDATALOAD SWAP1 DUP2 ISZERO ISZERO DUP3 SUB PUSH2 0x16D JUMPI PUSH1 0x1 PUSH1 0x1 PUSH1 0xA0 SHL SUB AND SWAP1 DUP2 PUSH0 MSTORE PUSH1 0x9 PUSH1 0x20 MSTORE PUSH1 0x40 PUSH0 KECCAK256 PUSH2 0x22B PUSH2 0x1AD6 JUMP JUMPDEST PUSH0 MSTORE PUSH1 0x20 MSTORE PUSH1 0x40 PUSH0 KECCAK256 SLOAD SWAP1 DUP2 ISZERO PUSH2 0x248 JUMPI JUMPDEST PUSH1 0x20 DUP3 PUSH1 0x40 MLOAD SWAP1 DUP2 MSTORE RETURN JUMPDEST SWAP1 POP PUSH2 0x262 JUMPI PUSH0 MSTORE PUSH1 0x2 PUSH1 0x20 MSTORE PUSH1 0x20 PUSH1 0x40 PUSH0 KECCAK256 SLOAD DUP3 PUSH2 0x23D JUMP JUMPDEST PUSH1 0x4 PUSH1 0x40 MLOAD PUSH4 0xD3E0741D PUSH1 0xE0 SHL DUP2 MSTORE REVERT JUMPDEST CALLDATASIZE PUSH1 0x3 NOT ADD SLT PUSH2 0x16D JUMPI PUSH2 0x286 CALLDATASIZE PUSH2 0xF45 JUMP JUMPDEST PUSH2 0x28E PUSH2 0x1610 JUMP JUMPDEST SWAP1 CALLVALUE PUSH2 0x4FB JUMPI JUMPDEST PUSH1 0x1 PUSH1 0x1 PUSH1 0xA0 SHL SUB DUP2 MLOAD AND PUSH1 0x1 PUSH1 0x1 PUSH1 0xA0 SHL SUB DUP4 AND SUB PUSH2 0x4D1 JUMPI SWAP1 PUSH2 0x2D8 DUP3 PUSH1 0x1 PUSH1 0x1 PUSH1 0xA0 SHL SUB PUSH1 0x60 PUSH5 0xFFFFFFFFFF PUSH1 0xA0 SHL PUSH1 0x40 DUP5 ADD MLOAD PUSH1 0xA0 SHL AND SWAP3 ADD MLOAD AND OR SWAP1 JUMP JUMPDEST PUSH2 0x2E2 DUP2 DUP5 PUSH2 0x1A81 JUMP JUMPDEST PUSH1 0x5 SHR SWAP3 PUSH2 0x2EF DUP2 PUSH2 0x175B JUMP JUMPDEST PUSH0 SWAP1 PUSH1 0xA0 DUP4 ADD MLOAD SWAP6 DUP7 ADD SWAP1 PUSH0 SWAP5 PUSH1 0x1 PUSH1 0x1 PUSH1 0xA0 SHL SUB DUP6 MLOAD AND PUSH0 MSTORE PUSH1 0x6 PUSH1 0x20 MSTORE PUSH1 0x40 PUSH0 KECCAK256 SWAP1 PUSH0 MSTORE PUSH1 0x20 MSTORE PUSH1 0x40 PUSH0 KECCAK256 PUSH1 0x80 DUP6 ADD MLOAD PUSH0 MSTORE PUSH1 0x20 MSTORE PUSH1 0x40 PUSH0 KECCAK256 SWAP5 PUSH1 0x1 JUMPDEST ISZERO PUSH2 0x45B JUMPI JUMPDEST PUSH0 SWAP8 DUP2 ISZERO PUSH2 0x44C JUMPI JUMPDEST DUP4 DUP3 DUP3 ADD GT PUSH2 0x442 JUMPI JUMPDEST DUP2 PUSH2 0x100 SUB DUP2 PUSH1 0x8 SHR PUSH0 MSTORE DUP8 PUSH1 0x20 MSTORE PUSH1 0x40 PUSH0 KECCAK256 DUP1 SLOAD SWAP2 PUSH0 NOT DUP2 SHR SWAP1 DUP4 DUP7 DUP7 ADD PUSH2 0x100 SUB SHL SWAP1 SHR LT PUSH2 0x380 JUMPI JUMPDEST POP POP ADD SWAP7 PUSH2 0x100 SWAP1 PUSH2 0x32E JUMP JUMPDEST SWAP4 SWAP9 SWAP2 SWAP5 DUP4 SWAP7 SWAP9 SWAP2 SWAP11 SWAP4 PUSH1 0xFF DUP8 AND SWAP1 DUP2 DUP10 DUP2 ADD SWAP8 PUSH2 0x101 DUP10 LT ISZERO PUSH2 0x3FC JUMPI JUMPDEST POP PUSH1 0x40 PUSH0 KECCAK256 SWAP2 PUSH0 NOT SWAP1 PUSH2 0x100 SUB SHR SWAP1 SHL DUP2 SLOAD OR SWAP1 SSTORE SWAP10 PUSH1 0x1 JUMPDEST ISZERO PUSH2 0x3E3 JUMPI JUMPDEST PUSH0 SWAP11 PUSH1 0x1 DUP14 DUP3 SHR AND ISZERO PUSH2 0x3D5 JUMPI JUMPDEST PUSH1 0x1 ADD SWAP11 PUSH2 0x3B8 JUMP JUMPDEST PUSH1 0x80 DUP11 ADD MLOAD SWAP1 SWAP11 ADD SWAP10 PUSH2 0x3CC JUMP JUMPDEST DUP6 DUP12 LT PUSH2 0x3BE JUMPI SWAP5 POP SWAP5 SWAP2 SWAP9 POP SWAP7 SWAP5 SWAP2 SWAP9 POP DUP10 DUP1 PUSH2 0x373 JUMP JUMPDEST PUSH0 NOT DUP3 SHL DUP16 OR SWAP1 SSTORE DUP10 ADD PUSH1 0xFF DUP2 AND SWAP2 POP PUSH0 SWAP1 PUSH1 0x1 PUSH1 0x8 DUP12 DUP2 SHR SWAP2 DUP3 ADD SWAP3 SWAP1 SHR ADD JUMPDEST DUP1 DUP3 SUB PUSH2 0x42D JUMPI POP PUSH0 MSTORE DUP15 PUSH2 0x39F JUMP JUMPDEST SWAP1 DUP1 PUSH1 0x1 SWAP2 PUSH0 MSTORE PUSH0 NOT PUSH1 0x40 PUSH0 KECCAK256 SSTORE ADD SWAP1 PUSH2 0x41D JUMP JUMPDEST DUP1 DUP5 SUB SWAP2 POP PUSH2 0x347 JUMP JUMPDEST PUSH1 0xFF DUP2 AND PUSH2 0x100 SUB SWAP2 POP PUSH2 0x33D JUMP JUMPDEST DUP3 DUP9 LT PUSH2 0x334 JUMPI DUP4 DUP6 DUP4 DUP10 DUP4 PUSH2 0x46D JUMPI STOP JUMPDEST PUSH1 0x1 PUSH1 0x1 PUSH1 0xA0 SHL SUB SWAP2 PUSH1 0x40 MLOAD SWAP1 DUP2 MSTORE PUSH32 0xBD86C8C76936132DBC24244B04F4607B8BC2B75DD1CB36379BBEDEEE254B9260 PUSH1 0x20 DUP5 DUP5 AND SWAP3 LOG2 AND PUSH0 MSTORE PUSH1 0x3 PUSH1 0x20 MSTORE PUSH1 0x1 PUSH1 0x1 PUSH1 0xA0 SHL SUB PUSH1 0x60 PUSH1 0x40 PUSH0 KECCAK256 SWAP3 ADD MLOAD AND PUSH0 MSTORE PUSH1 0x20 MSTORE PUSH1 0x40 PUSH0 KECCAK256 SWAP1 DUP2 SLOAD ADD SWAP1 SSTORE PUSH0 DUP1 RETURN JUMPDEST PUSH1 0x4 PUSH1 0x40 MLOAD PUSH32 0x10C74B0300000000000000000000000000000000000000000000000000000000 DUP2 MSTORE REVERT JUMPDEST PUSH1 0x1 PUSH1 0x1 PUSH1 0xA0 SHL SUB DUP3 AND PUSH0 MSTORE PUSH1 0x3 PUSH1 0x20 MSTORE PUSH1 0x40 PUSH0 KECCAK256 PUSH0 DUP1 MSTORE PUSH1 0x20 MSTORE PUSH1 0x40 PUSH0 KECCAK256 CALLVALUE DUP2 SLOAD ADD SWAP1 SSTORE PUSH2 0x295 JUMP JUMPDEST CALLVALUE PUSH2 0x16D JUMPI CALLDATASIZE PUSH1 0x3 NOT ADD SLT PUSH2 0x16D JUMPI PUSH1 0x4 CALLDATALOAD PUSH1 0x1 PUSH1 0x1 PUSH1 0xA0 SHL SUB DUP1 DUP3 AND DUP1 SWAP3 SUB PUSH2 0x16D JUMPI PUSH1 0x20 SWAP2 PUSH0 MSTORE PUSH1 0x5 DUP3 MSTORE PUSH1 0x40 PUSH0 KECCAK256 PUSH2 0x586 PUSH2 0x562 CALLDATASIZE PUSH2 0xF45 JUMP JUMPDEST PUSH1 0x1 PUSH1 0x1 PUSH1 0xA0 SHL SUB PUSH1 0x60 PUSH5 0xFFFFFFFFFF PUSH1 0xA0 SHL PUSH1 0x40 DUP5 ADD MLOAD PUSH1 0xA0 SHL AND SWAP3 ADD MLOAD AND OR SWAP1 JUMP JUMPDEST PUSH0 MSTORE DUP3 MSTORE PUSH1 0x40 PUSH0 KECCAK256 PUSH1 0x84 CALLDATALOAD PUSH0 MSTORE DUP3 MSTORE PUSH1 0x40 PUSH0 KECCAK256 PUSH1 0xA4 CALLDATALOAD PUSH0 MSTORE DUP3 MSTORE PUSH1 0x40 PUSH0 KECCAK256 SLOAD AND PUSH1 0x40 MLOAD SWAP1 DUP2 MSTORE RETURN JUMPDEST PUSH2 0x100 CALLDATASIZE PUSH1 0x3 NOT ADD SLT PUSH2 0x16D JUMPI PUSH2 0x5C4 CALLDATASIZE PUSH2 0xF45 JUMP JUMPDEST PUSH1 0xE4 CALLDATALOAD SWAP1 PUSH8 0xFFFFFFFFFFFFFFFF DUP1 DUP4 GT PUSH2 0x16D JUMPI CALLDATASIZE PUSH1 0x23 DUP5 ADD SLT ISZERO PUSH2 0x16D JUMPI DUP3 PUSH1 0x4 ADD CALLDATALOAD SWAP1 DUP2 GT PUSH2 0x16D JUMPI CALLDATASIZE PUSH1 0x24 DUP3 DUP6 ADD ADD GT PUSH2 0x16D JUMPI DUP1 PUSH1 0x5 SHR SWAP2 DUP2 ISZERO DUP1 ISZERO PUSH2 0x859 JUMPI JUMPDEST PUSH2 0x848 JUMPI PUSH2 0x615 PUSH2 0x1610 JUMP JUMPDEST SWAP3 CALLVALUE PUSH2 0x81E JUMPI JUMPDEST PUSH1 0x1 PUSH1 0x1 PUSH1 0xA0 SHL SUB DUP1 SWAP5 AND SWAP2 DUP3 PUSH0 MSTORE PUSH1 0x20 SWAP4 PUSH1 0x3 DUP6 MSTORE PUSH1 0x40 PUSH0 KECCAK256 SWAP5 PUSH1 0x60 DUP4 ADD SWAP6 DUP8 DUP8 MLOAD AND PUSH0 MSTORE DUP2 MSTORE PUSH1 0x40 PUSH0 KECCAK256 SLOAD PUSH1 0x80 DUP5 ADD SWAP7 DUP8 MLOAD DUP7 MUL DUP1 SWAP3 LT PUSH2 0x7F4 JUMPI DUP7 PUSH0 MSTORE PUSH1 0x3 DUP4 MSTORE DUP9 PUSH1 0x40 PUSH0 KECCAK256 SWAP2 MLOAD AND PUSH0 MSTORE DUP3 MSTORE PUSH1 0x40 PUSH0 KECCAK256 SWAP1 DUP2 SLOAD SUB SWAP1 SSTORE DUP7 DUP4 MLOAD AND SWAP8 DUP9 ISZERO PUSH2 0x262 JUMPI PUSH2 0x6A9 DUP5 PUSH1 0x1 PUSH1 0x1 PUSH1 0xA0 SHL SUB PUSH1 0x60 PUSH5 0xFFFFFFFFFF PUSH1 0xA0 SHL PUSH1 0x40 DUP5 ADD MLOAD PUSH1 0xA0 SHL AND SWAP3 ADD MLOAD AND OR SWAP1 JUMP JUMPDEST SWAP4 DUP10 PUSH0 MSTORE PUSH1 0x4 DUP4 MSTORE PUSH1 0x40 PUSH0 KECCAK256 DUP6 PUSH0 MSTORE DUP4 MSTORE PUSH1 0x40 PUSH0 KECCAK256 DUP9 MLOAD PUSH0 MSTORE DUP4 MSTORE PUSH0 DUP4 PUSH1 0x40 DUP3 KECCAK256 SLOAD SWAP6 DUP1 PUSH1 0x24 PUSH2 0x6D8 DUP3 PUSH2 0x12DD JUMP JUMPDEST SWAP7 PUSH2 0x6E6 PUSH1 0x40 MLOAD SWAP9 DUP10 PUSH2 0xF23 JUMP JUMPDEST DUP3 DUP9 MSTORE ADD DUP4 DUP8 ADD CALLDATACOPY DUP5 ADD ADD MSTORE DUP2 MLOAD SWAP8 DUP9 PUSH1 0x40 SHL PUSH12 0xFE61000180600A3D393DF300 ADD PUSH2 0xFFFE DUP11 GT DUP5 ADD MSTORE PUSH1 0xB DUP10 ADD PUSH1 0x15 DUP5 ADD PUSH0 CREATE SWAP7 DUP8 ISZERO PUSH2 0x7E7 JUMPI PUSH32 0xA0B08EC1802460E3E5A597CF64A8B64B588D0B0938DF0ADF5FC125781558D65 SWAP11 PUSH1 0x80 SWAP11 PUSH2 0x7CD SWAP6 MSTORE DUP13 PUSH0 MSTORE PUSH1 0x5 DUP7 MSTORE PUSH1 0x40 PUSH0 KECCAK256 DUP9 PUSH0 MSTORE DUP7 MSTORE PUSH1 0x40 PUSH0 KECCAK256 DUP4 MLOAD PUSH0 MSTORE DUP7 MSTORE PUSH1 0x40 PUSH0 KECCAK256 DUP8 PUSH0 MSTORE DUP7 MSTORE PUSH1 0x40 PUSH0 KECCAK256 SWAP9 AND SWAP8 DUP9 PUSH32 0xFFFFFFFFFFFFFFFFFFFFFFFF0000000000000000000000000000000000000000 DUP3 SLOAD AND OR SWAP1 SSTORE DUP6 ADD SWAP6 DUP12 PUSH0 MSTORE PUSH1 0x4 DUP6 MSTORE PUSH1 0x40 PUSH0 KECCAK256 SWAP1 PUSH0 MSTORE DUP5 MSTORE PUSH1 0x40 PUSH0 KECCAK256 SWAP1 MLOAD PUSH0 MSTORE DUP4 MSTORE DUP5 PUSH1 0x40 PUSH0 KECCAK256 SSTORE DUP10 DUP2 MSTORE DUP4 PUSH1 0xA0 DUP3 ADD MSTORE PUSH2 0x175B JUMP JUMPDEST SWAP1 PUSH1 0x40 MLOAD SWAP6 DUP7 MSTORE DUP6 ADD MSTORE DUP5 SHL OR PUSH1 0x40 DUP4 ADD MSTORE PUSH1 0x60 DUP3 ADD MSTORE LOG2 STOP JUMPDEST PUSH4 0x30116425 PUSH0 MSTORE PUSH1 0x4 PUSH1 0x1C REVERT JUMPDEST PUSH1 0x4 PUSH1 0x40 MLOAD PUSH32 0x62128B0400000000000000000000000000000000000000000000000000000000 DUP2 MSTORE REVERT JUMPDEST PUSH1 0x1 PUSH1 0x1 PUSH1 0xA0 SHL SUB DUP5 AND PUSH0 MSTORE PUSH1 0x3 PUSH1 0x20 MSTORE PUSH1 0x40 PUSH0 KECCAK256 PUSH0 DUP1 MSTORE PUSH1 0x20 MSTORE PUSH1 0x40 PUSH0 KECCAK256 CALLVALUE DUP2 SLOAD ADD SWAP1 SSTORE PUSH2 0x61C JUMP JUMPDEST PUSH1 0x4 PUSH1 0x40 MLOAD PUSH4 0x21F9F13F PUSH1 0xE1 SHL DUP2 MSTORE REVERT JUMPDEST POP PUSH1 0x1F DUP3 AND ISZERO ISZERO PUSH2 0x609 JUMP JUMPDEST CALLVALUE PUSH2 0x16D JUMPI CALLDATASIZE PUSH1 0x3 NOT ADD SLT PUSH2 0x16D JUMPI PUSH1 0x20 PUSH2 0x1DD PUSH2 0x885 PUSH2 0x562 CALLDATASIZE PUSH2 0xF45 JUMP JUMPDEST PUSH2 0x88E CALLDATASIZE PUSH2 0xF45 JUMP JUMPDEST PUSH2 0x1A0C JUMP JUMPDEST PUSH1 0x40 CALLDATASIZE PUSH1 0x3 NOT ADD SLT PUSH2 0x16D JUMPI PUSH1 0x24 CALLDATALOAD PUSH8 0xFFFFFFFFFFFFFFFF DUP2 GT PUSH2 0x16D JUMPI PUSH2 0x8C2 PUSH2 0x8CB SWAP2 CALLDATASIZE SWAP1 PUSH1 0x4 ADD PUSH2 0xEC2 JUMP JUMPDEST SWAP1 PUSH1 0x4 CALLDATALOAD PUSH2 0x10D3 JUMP JUMPDEST STOP JUMPDEST CALLVALUE PUSH2 0x16D JUMPI PUSH1 0x20 DUP1 PUSH1 0x3 NOT CALLDATASIZE ADD SLT PUSH2 0x16D JUMPI PUSH0 PUSH1 0xC0 PUSH1 0x40 MLOAD PUSH2 0x8EE DUP2 PUSH2 0xEF3 JUMP JUMPDEST DUP3 DUP2 MSTORE DUP3 DUP5 DUP3 ADD MSTORE DUP3 PUSH1 0x40 DUP3 ADD MSTORE DUP3 PUSH1 0x60 DUP3 ADD MSTORE DUP3 PUSH1 0x80 DUP3 ADD MSTORE DUP3 PUSH1 0xA0 DUP3 ADD MSTORE ADD MSTORE PUSH1 0x4 CALLDATALOAD PUSH0 MSTORE PUSH0 DUP2 MSTORE PUSH1 0x40 PUSH0 KECCAK256 SLOAD SWAP1 DUP2 PUSH1 0x60 SHR SWAP2 PUSH1 0x1 DUP3 MSTORE PUSH1 0x40 PUSH0 KECCAK256 SLOAD SWAP2 PUSH1 0x40 MLOAD SWAP1 PUSH2 0x93A DUP3 PUSH2 0xEF3 JUMP JUMPDEST DUP5 DUP3 MSTORE DUP1 DUP3 ADD SWAP1 PUSH1 0x1 DUP1 DUP6 PUSH1 0x8 SHR AND EQ DUP3 MSTORE PUSH1 0x40 DUP4 ADD SWAP1 PUSH5 0x7FFFFFFFFF DUP6 PUSH1 0x9 SHR AND DUP3 MSTORE PUSH1 0x60 DUP5 ADD SWAP3 PUSH6 0xFFFFFFFFFFFF DUP7 PUSH1 0x30 SHR AND DUP5 MSTORE PUSH1 0xC0 PUSH1 0x80 DUP7 ADD SWAP6 DUP8 DUP8 MSTORE PUSH1 0xFF PUSH1 0xA0 DUP3 ADD SWAP9 AND DUP9 MSTORE ADD SWAP7 DUP8 MSTORE PUSH1 0x40 MLOAD SWAP8 DUP9 MSTORE MLOAD ISZERO ISZERO SWAP1 DUP8 ADD MSTORE MLOAD PUSH1 0x40 DUP7 ADD MSTORE MLOAD PUSH1 0x60 DUP6 ADD MSTORE MLOAD PUSH1 0x80 DUP5 ADD MSTORE MLOAD PUSH1 0xA0 DUP4 ADD MSTORE MLOAD PUSH1 0xC0 DUP3 ADD MSTORE RETURN JUMPDEST PUSH2 0x120 CALLDATASIZE PUSH1 0x3 NOT ADD SLT PUSH2 0x16D JUMPI CALLDATASIZE PUSH1 0x23 NOT ADD SLT PUSH2 0x16D JUMPI PUSH2 0x104 CALLDATALOAD PUSH8 0xFFFFFFFFFFFFFFFF DUP2 GT PUSH2 0x16D JUMPI PUSH2 0x9EE SWAP1 CALLDATASIZE SWAP1 PUSH1 0x4 ADD PUSH2 0xEC2 JUMP JUMPDEST PUSH2 0x9F9 PUSH1 0x4 CALLDATALOAD PUSH2 0x1044 JUMP JUMPDEST SWAP2 PUSH2 0xA02 PUSH2 0x1610 JUMP JUMPDEST SWAP1 CALLVALUE PUSH2 0xCBE JUMPI JUMPDEST PUSH1 0x1 PUSH1 0x1 PUSH1 0xA0 SHL SUB PUSH2 0xA19 PUSH2 0x1076 JUMP JUMPDEST AND ISZERO PUSH2 0x262 JUMPI PUSH1 0x4 CALLDATALOAD ISZERO DUP1 ISZERO PUSH2 0xCB2 JUMPI JUMPDEST DUP1 ISZERO PUSH2 0xCA7 JUMPI JUMPDEST PUSH2 0x262 JUMPI PUSH1 0x64 CALLDATALOAD PUSH5 0x7FFFFFFFFF DUP2 AND SUB PUSH2 0x848 JUMPI PUSH0 SWAP3 PUSH0 SWAP1 PUSH0 SWAP1 DUP1 ISZERO PUSH2 0xC93 JUMPI PUSH2 0xA5F PUSH1 0x60 DUP6 SWAP8 SWAP6 ADD PUSH2 0x108C JUMP JUMPDEST SWAP4 PUSH1 0x1 JUMPDEST ISZERO PUSH2 0xC81 JUMPI JUMPDEST PUSH0 SWAP1 PUSH2 0xA76 DUP2 DUP5 DUP11 PUSH2 0x10A0 JUMP JUMPDEST PUSH1 0x1 PUSH1 0x1 PUSH1 0xA0 SHL SUB PUSH2 0xA8A PUSH1 0x60 DUP4 ADD PUSH2 0x108C JUMP JUMPDEST AND PUSH1 0x1 PUSH1 0x1 PUSH1 0xA0 SHL SUB DUP9 AND SUB PUSH2 0x848 JUMPI PUSH1 0x20 DUP2 ADD CALLDATALOAD DUP1 ISZERO ISZERO DUP1 SWAP2 SUB PUSH2 0x16D JUMPI PUSH2 0xAB1 PUSH2 0x10B0 JUMP JUMPDEST ISZERO ISZERO SUB PUSH2 0x848 JUMPI PUSH1 0x64 CALLDATALOAD PUSH1 0x40 DUP3 ADD CALLDATALOAD GT PUSH2 0x848 JUMPI PUSH2 0xAD7 PUSH2 0xAD2 CALLDATASIZE DUP4 PUSH2 0xFB9 JUMP JUMPDEST PUSH2 0x175B JUMP JUMPDEST PUSH2 0xAEA DUP2 PUSH2 0xAE5 CALLDATASIZE DUP6 PUSH2 0xFB9 JUMP JUMPDEST PUSH2 0x17B6 JUMP JUMPDEST PUSH2 0xAFA JUMPI JUMPDEST POP POP PUSH1 0x1 ADD SWAP1 PUSH2 0xA63 JUMP JUMPDEST PUSH1 0x1 SWAP3 SWAP7 SWAP6 SWAP2 PUSH1 0x80 SWAP2 PUSH0 MSTORE PUSH1 0xC0 DUP2 ADD CALLDATALOAD PUSH1 0x20 MSTORE DUP12 PUSH2 0xB1C DUP9 PUSH1 0x40 PUSH0 KECCAK256 SWAP3 PUSH2 0x10BF JUMP JUMPDEST MSTORE ADD CALLDATALOAD ADD SWAP4 ADD SWAP4 DUP5 PUSH1 0x4 CALLDATALOAD EQ PUSH2 0xB33 JUMPI DUP10 DUP1 PUSH2 0xAEF JUMP JUMPDEST POP POP POP SWAP2 SWAP3 SWAP4 POP JUMPDEST PUSH1 0x4 CALLDATALOAD GT PUSH2 0x262 JUMPI DUP1 ISZERO ISZERO SWAP2 DUP3 PUSH2 0xC6C JUMPI JUMPDEST POP POP SWAP1 POP PUSH2 0x7F4 JUMPI DUP1 MLOAD PUSH1 0x5 SHL PUSH1 0x20 DUP1 SWAP3 ADD KECCAK256 PUSH2 0xB68 PUSH2 0x1076 JUMP JUMPDEST PUSH2 0xB70 PUSH2 0x10B0 JUMP JUMPDEST ISZERO PUSH2 0xC65 JUMPI PUSH1 0x1 SWAP1 JUMPDEST PUSH2 0xB81 PUSH2 0x10B0 JUMP JUMPDEST ISZERO PUSH2 0xC4A JUMPI PUSH12 0xFFFFFFFFFFFF000000000000 PUSH6 0xFFFFFFFFFF00 TIMESTAMP SWAP4 JUMPDEST DUP6 PUSH0 MSTORE PUSH0 DUP8 MSTORE PUSH1 0x64 CALLDATALOAD PUSH1 0x1 SHL OR PUSH1 0x8 SHL AND SWAP3 PUSH1 0x30 SHL AND SWAP1 PUSH12 0xFFFFFFFFFFFFFFFFFFFFFFFF NOT SWAP1 PUSH1 0x60 SHL AND OR OR PUSH1 0x40 PUSH0 KECCAK256 SSTORE PUSH1 0x1 PUSH1 0x1 PUSH1 0xA0 SHL SUB PUSH2 0xBDE PUSH2 0x1076 JUMP JUMPDEST AND DUP1 PUSH0 MSTORE PUSH1 0x9 DUP4 MSTORE PUSH1 0x40 PUSH0 KECCAK256 PUSH2 0xBF2 PUSH2 0x1AD6 JUMP JUMPDEST PUSH0 MSTORE DUP4 MSTORE DUP2 PUSH1 0x40 PUSH0 KECCAK256 SSTORE PUSH0 MSTORE PUSH1 0x2 DUP3 MSTORE DUP1 PUSH1 0x40 PUSH0 KECCAK256 SSTORE PUSH1 0x1 PUSH1 0x1 PUSH1 0xA0 SHL SUB PUSH2 0xC18 PUSH2 0x1076 JUMP JUMPDEST AND PUSH32 0x7A1CB491DA9915D087844D867AD00AC476B12041D231ADB7A04BE595DB91E44B DUP4 PUSH1 0x40 MLOAD DUP5 DUP2 MSTORE LOG2 PUSH1 0x40 MLOAD SWAP1 DUP2 MSTORE RETURN JUMPDEST PUSH12 0xFFFFFFFFFFFF000000000000 PUSH6 0xFFFFFFFFFF00 NUMBER SWAP4 PUSH2 0xB9D JUMP JUMPDEST PUSH0 SWAP1 PUSH2 0xB79 JUMP JUMPDEST PUSH2 0xC78 SWAP3 POP DUP2 SWAP4 PUSH2 0x1673 JUMP JUMPDEST LT DUP1 DUP4 DUP1 PUSH2 0xB4D JUMP JUMPDEST DUP2 DUP2 LT PUSH2 0xA69 JUMPI POP POP SWAP2 SWAP3 SWAP4 POP PUSH2 0xB3B JUMP JUMPDEST PUSH4 0x4E487B71 PUSH1 0xE0 SHL PUSH0 MSTORE PUSH1 0x32 PUSH1 0x4 MSTORE PUSH1 0x24 PUSH0 REVERT JUMPDEST POP DUP3 PUSH1 0x4 CALLDATALOAD GT PUSH2 0xA31 JUMP JUMPDEST POP PUSH1 0xFF PUSH1 0x4 CALLDATALOAD GT PUSH2 0xA2A JUMP JUMPDEST PUSH1 0x1 PUSH1 0x1 PUSH1 0xA0 SHL SUB DUP3 AND PUSH0 MSTORE PUSH1 0x3 PUSH1 0x20 MSTORE PUSH1 0x40 PUSH0 KECCAK256 PUSH0 DUP1 MSTORE PUSH1 0x20 MSTORE PUSH1 0x40 PUSH0 KECCAK256 CALLVALUE DUP2 SLOAD ADD SWAP1 SSTORE PUSH2 0xA09 JUMP JUMPDEST PUSH1 0x60 CALLDATASIZE PUSH1 0x3 NOT ADD SLT PUSH2 0x16D JUMPI PUSH2 0xCFC PUSH2 0xE82 JUMP JUMPDEST PUSH2 0xD04 PUSH2 0xE98 JUMP JUMPDEST PUSH1 0x44 CALLDATALOAD SWAP2 PUSH2 0xD10 PUSH2 0x1610 JUMP JUMPDEST PUSH1 0x1 PUSH1 0x1 PUSH1 0xA0 SHL SUB SWAP2 DUP1 DUP4 AND PUSH2 0xE7C JUMPI POP DUP1 SWAP4 JUMPDEST PUSH0 DUP2 SLT ISZERO PUSH2 0xE65 JUMPI PUSH0 SUB SWAP1 DUP3 DUP5 AND SWAP4 DUP5 ISZERO PUSH0 EQ PUSH2 0xD66 JUMPI POP POP CALLVALUE LT PUSH2 0x7F4 JUMPI CALLVALUE SWAP3 JUMPDEST AND PUSH0 MSTORE PUSH1 0x3 PUSH1 0x20 MSTORE PUSH1 0x40 PUSH0 KECCAK256 SWAP1 PUSH0 MSTORE PUSH1 0x20 MSTORE PUSH1 0x40 PUSH0 KECCAK256 SWAP1 DUP2 SLOAD ADD SWAP1 SSTORE PUSH0 DUP1 RETURN JUMPDEST SWAP1 SWAP2 PUSH2 0xD72 ADDRESS DUP4 PUSH2 0x1D22 JUMP JUMPDEST SWAP3 PUSH1 0x40 MLOAD SWAP1 DUP3 PUSH1 0x60 MSTORE ADDRESS PUSH1 0x40 MSTORE PUSH1 0x60 SHL DUP1 PUSH1 0x2C MSTORE PUSH16 0x23B872DD000000000000000000000000 PUSH1 0xC MSTORE PUSH1 0x20 PUSH0 PUSH1 0x64 PUSH1 0x1C DUP3 DUP9 GAS CALL RETURNDATASIZE ISZERO PUSH1 0x1 PUSH0 MLOAD EQ OR AND PUSH0 PUSH1 0x60 MSTORE DUP3 PUSH1 0x40 MSTORE ISZERO PUSH2 0xDD1 JUMPI JUMPDEST POP POP POP PUSH2 0xDCA SWAP1 ADDRESS SWAP1 PUSH2 0x1D22 JUMP JUMPDEST SUB SWAP3 PUSH2 0xD46 JUMP JUMPDEST DUP7 PUSH1 0x74 DUP4 ADD MSTORE DUP3 PUSH1 0x54 DUP4 ADD MSTORE ADDRESS PUSH1 0x34 DUP4 ADD MSTORE PUSH1 0x20 DUP3 ADD MSTORE PUSH16 0x36C78516000000000000000000000000 DUP2 MSTORE PUSH1 0x1 CHAINID EQ SWAP1 DUP2 ISZERO PUSH2 0xE4B JUMPI JUMPDEST PUSH0 SWAP1 PUSH1 0x84 PUSH1 0x10 CODESIZE SWAP3 ADD DUP4 PUSH15 0x22D473030F116DDEE9F6B43AC78BA3 GAS CALL AND ISZERO PUSH2 0xE30 JUMPI DUP1 DUP1 PUSH2 0xDBC JUMP JUMPDEST PUSH1 0x4 SWAP1 PUSH8 0x7939F4248757F0FD PUSH0 MSTORE PUSH1 0xA0 SHR ISZERO ISZERO PUSH1 0x2 SHL PUSH1 0x18 ADD REVERT JUMPDEST PUSH15 0x22D473030F116DDEE9F6B43AC78BA3 EXTCODESIZE ISZERO ISZERO SWAP2 POP PUSH2 0xE07 JUMP JUMPDEST DUP4 PUSH2 0x8CB SWAP6 SWAP5 SWAP4 POP PUSH2 0xE76 SWAP3 PUSH2 0x1673 JUMP JUMPDEST SWAP2 PUSH2 0x16DD JUMP JUMPDEST SWAP4 PUSH2 0xD24 JUMP JUMPDEST PUSH1 0x4 CALLDATALOAD SWAP1 PUSH1 0x1 PUSH1 0x1 PUSH1 0xA0 SHL SUB DUP3 AND DUP3 SUB PUSH2 0x16D JUMPI JUMP JUMPDEST PUSH1 0x24 CALLDATALOAD SWAP1 PUSH1 0x1 PUSH1 0x1 PUSH1 0xA0 SHL SUB DUP3 AND DUP3 SUB PUSH2 0x16D JUMPI JUMP JUMPDEST CALLDATALOAD SWAP1 PUSH1 0x1 PUSH1 0x1 PUSH1 0xA0 SHL SUB DUP3 AND DUP3 SUB PUSH2 0x16D JUMPI JUMP JUMPDEST SWAP2 DUP2 PUSH1 0x1F DUP5 ADD SLT ISZERO PUSH2 0x16D JUMPI DUP3 CALLDATALOAD SWAP2 PUSH8 0xFFFFFFFFFFFFFFFF DUP4 GT PUSH2 0x16D JUMPI PUSH1 0x20 DUP1 DUP6 ADD SWAP5 PUSH1 0xE0 DUP6 MUL ADD ADD GT PUSH2 0x16D JUMPI JUMP JUMPDEST PUSH1 0xE0 DUP2 ADD SWAP1 DUP2 LT PUSH8 0xFFFFFFFFFFFFFFFF DUP3 GT OR PUSH2 0xF0F JUMPI PUSH1 0x40 MSTORE JUMP JUMPDEST PUSH4 0x4E487B71 PUSH1 0xE0 SHL PUSH0 MSTORE PUSH1 0x41 PUSH1 0x4 MSTORE PUSH1 0x24 PUSH0 REVERT JUMPDEST SWAP1 PUSH1 0x1F DUP1 NOT SWAP2 ADD AND DUP2 ADD SWAP1 DUP2 LT PUSH8 0xFFFFFFFFFFFFFFFF DUP3 GT OR PUSH2 0xF0F JUMPI PUSH1 0x40 MSTORE JUMP JUMPDEST PUSH1 0xE0 SWAP1 PUSH1 0x3 NOT ADD SLT PUSH2 0x16D JUMPI PUSH1 0x40 MLOAD SWAP1 PUSH2 0xF5E DUP3 PUSH2 0xEF3 JUMP JUMPDEST DUP2 PUSH1 0x1 PUSH1 0x1 PUSH1 0xA0 SHL SUB PUSH1 0x4 CALLDATALOAD DUP2 DUP2 AND DUP2 SUB PUSH2 0x16D JUMPI DUP3 MSTORE PUSH1 0x24 CALLDATALOAD DUP1 ISZERO ISZERO DUP2 SUB PUSH2 0x16D JUMPI PUSH1 0x20 DUP4 ADD MSTORE PUSH1 0x44 CALLDATALOAD PUSH1 0x40 DUP4 ADD MSTORE PUSH1 0x64 CALLDATALOAD SWAP1 DUP2 AND DUP2 SUB PUSH2 0x16D JUMPI PUSH1 0x60 DUP3 ADD MSTORE PUSH1 0x84 CALLDATALOAD PUSH1 0x80 DUP3 ADD MSTORE PUSH1 0xA4 CALLDATALOAD PUSH1 0xA0 DUP3 ADD MSTORE PUSH1 0xC0 PUSH1 0xC4 CALLDATALOAD SWAP2 ADD MSTORE JUMP JUMPDEST SWAP2 SWAP1 DUP3 PUSH1 0xE0 SWAP2 SUB SLT PUSH2 0x16D JUMPI PUSH1 0x40 MLOAD PUSH2 0xFD1 DUP2 PUSH2 0xEF3 JUMP JUMPDEST DUP1 SWAP3 PUSH2 0xFDC DUP2 PUSH2 0xEAE JUMP JUMPDEST DUP3 MSTORE PUSH1 0x20 DUP2 ADD CALLDATALOAD DUP1 ISZERO ISZERO DUP2 SUB PUSH2 0x16D JUMPI PUSH1 0xC0 SWAP2 DUP3 SWAP2 PUSH1 0x20 DUP6 ADD MSTORE PUSH1 0x40 DUP2 ADD CALLDATALOAD PUSH1 0x40 DUP6 ADD MSTORE PUSH2 0x100C PUSH1 0x60 DUP3 ADD PUSH2 0xEAE JUMP JUMPDEST PUSH1 0x60 DUP6 ADD MSTORE PUSH1 0x80 DUP2 ADD CALLDATALOAD PUSH1 0x80 DUP6 ADD MSTORE PUSH1 0xA0 DUP2 ADD CALLDATALOAD PUSH1 0xA0 DUP6 ADD MSTORE ADD CALLDATALOAD SWAP2 ADD MSTORE JUMP JUMPDEST PUSH8 0xFFFFFFFFFFFFFFFF DUP2 GT PUSH2 0xF0F JUMPI PUSH1 0x5 SHL PUSH1 0x20 ADD SWAP1 JUMP JUMPDEST SWAP1 PUSH2 0x104E DUP3 PUSH2 0x102C JUMP JUMPDEST PUSH2 0x105B PUSH1 0x40 MLOAD SWAP2 DUP3 PUSH2 0xF23 JUMP JUMPDEST DUP3 DUP2 MSTORE DUP1 SWAP3 PUSH2 0x106C PUSH1 0x1F NOT SWAP2 PUSH2 0x102C JUMP JUMPDEST ADD SWAP1 PUSH1 0x20 CALLDATASIZE SWAP2 ADD CALLDATACOPY JUMP JUMPDEST PUSH1 0x24 CALLDATALOAD PUSH1 0x1 PUSH1 0x1 PUSH1 0xA0 SHL SUB DUP2 AND DUP2 SUB PUSH2 0x16D JUMPI SWAP1 JUMP JUMPDEST CALLDATALOAD PUSH1 0x1 PUSH1 0x1 PUSH1 0xA0 SHL SUB DUP2 AND DUP2 SUB PUSH2 0x16D JUMPI SWAP1 JUMP JUMPDEST SWAP2 SWAP1 DUP2 LT ISZERO PUSH2 0xC93 JUMPI PUSH1 0xE0 MUL ADD SWAP1 JUMP JUMPDEST PUSH1 0x44 CALLDATALOAD DUP1 ISZERO ISZERO DUP2 SUB PUSH2 0x16D JUMPI SWAP1 JUMP JUMPDEST DUP1 MLOAD DUP3 LT ISZERO PUSH2 0xC93 JUMPI PUSH1 0x20 SWAP2 PUSH1 0x5 SHL ADD ADD SWAP1 JUMP JUMPDEST SWAP2 SWAP1 SWAP2 CALLVALUE PUSH2 0x12AC JUMPI JUMPDEST DUP1 PUSH0 MSTORE PUSH1 0x1 SWAP2 PUSH1 0x20 SWAP3 PUSH1 0x1 DUP5 MSTORE PUSH1 0x40 SWAP2 DUP3 PUSH0 KECCAK256 SLOAD PUSH2 0x12A4 JUMPI PUSH0 DUP6 MSTORE PUSH2 0x1103 DUP4 PUSH0 KECCAK256 SLOAD PUSH2 0x1886 JUMP JUMPDEST ISZERO PUSH2 0x1294 JUMPI DUP4 PUSH0 MSTORE PUSH1 0x8 DUP6 MSTORE PUSH1 0xFF DUP4 PUSH0 KECCAK256 SLOAD AND PUSH2 0x1294 JUMPI PUSH0 DUP5 PUSH0 SWAP4 DUP9 PUSH0 SWAP2 PUSH2 0x112A DUP7 PUSH2 0x1044 JUMP JUMPDEST SWAP3 PUSH1 0x1 DUP3 JUMPDEST PUSH2 0x11BC JUMPI JUMPDEST POP POP POP POP DUP8 DUP2 MLOAD PUSH1 0x5 SHL SWAP2 ADD KECCAK256 SUB PUSH2 0x11AC JUMPI DUP5 PUSH0 MSTORE PUSH1 0x8 DUP7 MSTORE DUP4 PUSH0 KECCAK256 PUSH1 0x1 PUSH1 0xFF NOT DUP3 SLOAD AND OR SWAP1 SSTORE PUSH0 DUP7 MSTORE DUP4 PUSH0 KECCAK256 SLOAD SWAP2 ISZERO PUSH2 0xC93 JUMPI DUP5 PUSH2 0x11A5 SWAP4 PUSH2 0x119A PUSH1 0x60 PUSH32 0xA1470B3E580CA86A806BA4CFF90A8A7327F837F862B313E7C406AA942D62997E SWAP11 ADD PUSH2 0x108C JUMP JUMPDEST SWAP3 ADD SWAP3 PUSH1 0x60 SHR PUSH2 0x194A JUMP JUMPDEST MLOAD SWAP1 DUP2 MSTORE LOG1 JUMP JUMPDEST PUSH1 0x4 DUP5 MLOAD PUSH4 0x5C49863B PUSH1 0xE1 SHL DUP2 MSTORE REVERT JUMPDEST SWAP1 SWAP2 SWAP3 SWAP8 SWAP6 SWAP5 POP ISZERO PUSH2 0x127B JUMPI JUMPDEST PUSH0 SWAP1 DUP7 DUP9 PUSH2 0x11F8 PUSH2 0x11DB DUP5 DUP5 DUP5 PUSH2 0x10A0 JUMP JUMPDEST PUSH2 0x11F2 PUSH2 0x562 CALLDATASIZE PUSH2 0x11ED DUP9 DUP9 DUP9 PUSH2 0x10A0 JUMP JUMPDEST PUSH2 0xFB9 JUMP JUMPDEST SWAP1 PUSH2 0x18D9 JUMP JUMPDEST ISZERO PUSH2 0x1245 JUMPI JUMPDEST PUSH2 0x1227 DUP6 SWAP7 SWAP8 SWAP9 PUSH1 0x80 PUSH2 0x1217 DUP7 DUP10 SWAP8 SWAP7 PUSH2 0x122C SWAP7 PUSH2 0x10A0 JUMP JUMPDEST ADD CALLDATALOAD ADD SWAP11 PUSH2 0x11ED DUP5 DUP13 CALLDATASIZE SWAP4 PUSH2 0x10A0 JUMP JUMPDEST PUSH2 0x192F JUMP JUMPDEST PUSH2 0x1236 DUP3 DUP9 PUSH2 0x10BF JUMP JUMPDEST MSTORE ADD SWAP2 SWAP1 SWAP2 DUP12 SWAP3 DUP11 SWAP6 SWAP5 PUSH2 0x112F JUMP JUMPDEST SWAP7 PUSH2 0x1227 PUSH2 0x122C SWAP2 PUSH1 0x80 PUSH2 0x1217 DUP7 DUP7 DUP11 SWAP12 SWAP13 DUP5 DUP16 DUP5 DUP15 SWAP13 SWAP12 PUSH2 0x1266 SWAP3 PUSH2 0x10A0 JUMP JUMPDEST ADD CALLDATALOAD ADD SWAP13 SWAP12 POP SWAP7 POP SWAP7 POP POP POP SWAP9 SWAP2 POP POP PUSH2 0x11FE JUMP JUMPDEST DUP9 DUP7 DUP3 LT ISZERO PUSH2 0x128A JUMPI POP PUSH2 0x11C9 JUMP JUMPDEST SWAP4 SWAP5 SWAP7 SWAP2 DUP1 PUSH2 0x1134 JUMP JUMPDEST PUSH1 0x4 DUP4 MLOAD PUSH4 0xD3E0741D PUSH1 0xE0 SHL DUP2 MSTORE REVERT JUMPDEST POP POP POP POP POP POP JUMP JUMPDEST PUSH1 0x1 PUSH1 0x1 PUSH1 0xA0 SHL SUB PUSH2 0x12BC PUSH2 0x1610 JUMP JUMPDEST AND PUSH0 MSTORE PUSH1 0x3 PUSH1 0x20 MSTORE PUSH1 0x40 PUSH0 KECCAK256 PUSH0 DUP1 MSTORE PUSH1 0x20 MSTORE PUSH1 0x40 PUSH0 KECCAK256 CALLVALUE DUP2 SLOAD ADD SWAP1 SSTORE PUSH2 0x10DC JUMP JUMPDEST PUSH8 0xFFFFFFFFFFFFFFFF DUP2 GT PUSH2 0xF0F JUMPI PUSH1 0x1F ADD PUSH1 0x1F NOT AND PUSH1 0x20 ADD SWAP1 JUMP JUMPDEST SWAP1 SWAP2 CALLVALUE PUSH2 0x15DF JUMPI JUMPDEST DUP2 PUSH0 MSTORE PUSH1 0x1 PUSH1 0x20 SWAP2 DUP2 DUP4 MSTORE PUSH1 0x40 SWAP5 DUP6 PUSH0 KECCAK256 SLOAD PUSH2 0x15D5 JUMPI PUSH1 0x8 DUP5 MSTORE PUSH1 0xFF DUP7 PUSH0 KECCAK256 SLOAD AND PUSH2 0x15C5 JUMPI PUSH0 SWAP7 PUSH0 PUSH2 0x1332 DUP5 PUSH2 0x1044 JUMP JUMPDEST SWAP1 PUSH0 SWAP2 PUSH0 SWAP2 DUP8 DUP1 JUMPDEST PUSH2 0x14BF JUMPI JUMPDEST POP POP DUP8 DUP2 MLOAD PUSH1 0x5 SHL SWAP2 ADD KECCAK256 DUP9 SUB PUSH2 0x14AF JUMPI PUSH2 0x1497 JUMPI POP DUP5 DUP2 MLOAD PUSH1 0x5 SHL SWAP2 ADD KECCAK256 DUP6 PUSH0 MSTORE DUP4 DUP6 MSTORE DUP1 DUP8 PUSH0 KECCAK256 SSTORE PUSH32 0x46ADC4912184D61BBCD0939B961E9388A3FA9122B827B48B36FDF552759F3E7D DUP8 DUP1 MLOAD DUP9 DUP2 MSTORE DUP4 DUP9 DUP3 ADD MSTORE LOG1 PUSH0 MSTORE DUP3 DUP5 MSTORE DUP6 PUSH0 KECCAK256 SLOAD SWAP2 DUP7 MLOAD DUP6 DUP2 ADD SWAP4 DUP2 DUP6 LT PUSH8 0xFFFFFFFFFFFFFFFF DUP7 GT OR PUSH2 0xF0F JUMPI DUP6 SWAP5 DUP10 MSTORE DUP2 MSTORE PUSH0 SWAP4 JUMPDEST PUSH2 0x147C JUMPI JUMPDEST POP DUP1 PUSH2 0x13D4 SWAP4 MOD SWAP2 PUSH2 0x10A0 JUMP JUMPDEST SWAP3 DUP1 PUSH0 MSTORE PUSH0 DUP4 MSTORE DUP5 PUSH0 KECCAK256 SLOAD SWAP2 PUSH2 0x13E9 DUP4 PUSH2 0x1886 JUMP JUMPDEST PUSH2 0x1429 JUMPI JUMPDEST POP POP POP PUSH1 0x1 PUSH1 0x1 PUSH1 0xA0 SHL SUB DUP1 PUSH2 0x1403 DUP5 PUSH2 0x108C JUMP JUMPDEST AND PUSH0 MSTORE PUSH1 0x3 DUP3 MSTORE PUSH2 0x1419 PUSH1 0x60 DUP6 PUSH0 KECCAK256 SWAP5 ADD PUSH2 0x108C JUMP JUMPDEST AND PUSH0 MSTORE MSTORE PUSH0 KECCAK256 SWAP1 DUP2 SLOAD ADD SWAP1 SSTORE PUSH0 SWAP1 JUMP JUMPDEST SWAP1 PUSH2 0x146E DUP8 PUSH32 0x3077F64F92AD91C6479071531304FA3C1E0BB9B63E130C746F3A564292F0DDC6 SWAP5 SWAP9 DUP7 SWAP5 SHR DUP1 SWAP2 SUB SWAP9 DUP4 PUSH2 0x1465 PUSH1 0x60 DUP11 ADD PUSH2 0x108C JUMP JUMPDEST SWAP2 PUSH1 0x60 SHR PUSH2 0x194A JUMP JUMPDEST DUP6 MLOAD SWAP1 DUP2 MSTORE LOG1 PUSH0 DUP1 DUP1 PUSH2 0x13EE JUMP JUMPDEST SWAP3 POP DUP5 DUP4 KECCAK256 SWAP3 DUP4 DUP2 MSTORE DUP5 DUP3 DUP1 PUSH0 SUB MOD DUP6 LT PUSH2 0x13C2 JUMPI POP PUSH2 0x13C7 JUMP JUMPDEST SWAP8 POP POP POP POP POP PUSH0 SWAP2 DUP3 MSTORE MSTORE PUSH0 KECCAK256 SWAP1 DUP2 SLOAD ADD SWAP1 SSTORE PUSH1 0x2 SWAP1 JUMP JUMPDEST PUSH1 0x4 DUP10 MLOAD PUSH4 0x5C49863B PUSH1 0xE1 SHL DUP2 MSTORE REVERT JUMPDEST SWAP12 DUP9 SWAP2 SWAP13 ISZERO PUSH2 0x15AD JUMPI JUMPDEST PUSH0 SWAP1 DUP14 DUP9 DUP11 PUSH2 0x14D8 DUP4 DUP12 PUSH2 0x10BF JUMP JUMPDEST MLOAD ISZERO PUSH2 0x1532 JUMPI DUP3 PUSH2 0x14EC SWAP2 PUSH2 0x14FD SWAP4 PUSH2 0x10A0 JUMP JUMPDEST PUSH2 0x14F6 DUP4 DUP12 PUSH2 0x10BF JUMP JUMPDEST MLOAD SWAP1 PUSH2 0x1B37 JUMP JUMPDEST SWAP1 PUSH2 0x1508 DUP4 DUP9 PUSH2 0x10BF JUMP JUMPDEST MSTORE PUSH2 0x1529 JUMPI JUMPDEST SWAP1 PUSH1 0x80 PUSH2 0x151E DUP6 SWAP4 JUMPDEST DUP13 DUP13 PUSH2 0x10A0 JUMP JUMPDEST ADD CALLDATALOAD ADD SWAP14 ADD SWAP2 PUSH2 0x133A JUMP JUMPDEST SWAP6 DUP4 ADD SWAP6 PUSH2 0x150E JUMP JUMPDEST DUP2 PUSH2 0x11F2 PUSH2 0x562 PUSH2 0x1555 DUP7 DUP6 PUSH2 0x154F DUP3 PUSH2 0x155C SWAP9 PUSH2 0x1563 SWAP11 PUSH2 0x10A0 JUMP JUMPDEST SWAP6 PUSH2 0x10A0 JUMP JUMPDEST CALLDATASIZE SWAP1 PUSH2 0xFB9 JUMP JUMPDEST SWAP2 DUP10 PUSH2 0x10BF JUMP JUMPDEST MSTORE DUP14 DUP9 DUP11 PUSH2 0x1571 DUP4 DUP12 PUSH2 0x10BF JUMP JUMPDEST MLOAD ISZERO PUSH2 0x15A3 JUMPI JUMPDEST DUP3 PUSH2 0x1593 PUSH2 0x1227 PUSH1 0x80 SWAP5 PUSH2 0x11ED DUP11 SWAP9 SWAP8 PUSH2 0x151E SWAP7 CALLDATASIZE SWAP4 PUSH2 0x10A0 JUMP JUMPDEST PUSH2 0x159D DUP3 DUP11 PUSH2 0x10BF JUMP JUMPDEST MSTORE PUSH2 0x1517 JUMP JUMPDEST SWAP5 SWAP7 POP DUP7 SWAP5 PUSH2 0x1578 JUMP JUMPDEST SWAP1 POP DUP7 DUP13 LT ISZERO PUSH2 0x15BE JUMPI DUP8 SWAP1 PUSH2 0x14C9 JUMP JUMPDEST SWAP11 DUP1 PUSH2 0x133F JUMP JUMPDEST PUSH1 0x4 DUP7 MLOAD PUSH4 0xD3E0741D PUSH1 0xE0 SHL DUP2 MSTORE REVERT JUMPDEST POP POP SWAP4 POP POP POP POP SWAP1 JUMP JUMPDEST PUSH1 0x1 PUSH1 0x1 PUSH1 0xA0 SHL SUB PUSH2 0x15EF PUSH2 0x1610 JUMP JUMPDEST AND PUSH0 MSTORE PUSH1 0x3 PUSH1 0x20 MSTORE PUSH1 0x40 PUSH0 KECCAK256 PUSH0 DUP1 MSTORE PUSH1 0x20 MSTORE PUSH1 0x40 PUSH0 KECCAK256 CALLVALUE DUP2 SLOAD ADD SWAP1 SSTORE PUSH2 0x1301 JUMP JUMPDEST CALLER PUSH0 MSTORE PUSH15 0x2FD5AEB385D324B580FCA7C83823A0 DUP1 CALLER EQ PUSH2 0x1660 JUMPI JUMPDEST POP PUSH14 0xD9ECEBF3C23529DE49815DAC1C4C DUP1 CALLER EQ PUSH2 0x1649 JUMPI JUMPDEST POP PUSH0 MLOAD SWAP1 JUMP JUMPDEST PUSH0 DUP1 DUP1 PUSH1 0x20 SWAP4 GAS STATICCALL ISZERO PUSH2 0x165C JUMPI PUSH0 PUSH2 0x1643 JUMP JUMPDEST CODESIZE CODESIZE REVERT JUMPDEST PUSH0 DUP1 DUP1 PUSH1 0x20 SWAP4 GAS STATICCALL ISZERO PUSH2 0x165C JUMPI PUSH0 PUSH2 0x162B JUMP JUMPDEST SWAP3 SWAP2 PUSH1 0x1 PUSH1 0x1 PUSH1 0xA0 SHL SUB DUP1 SWAP5 AND SWAP4 DUP5 PUSH0 MSTORE PUSH1 0x3 PUSH1 0x20 MSTORE PUSH1 0x40 PUSH0 KECCAK256 SWAP3 AND SWAP2 DUP3 PUSH0 MSTORE PUSH1 0x20 MSTORE PUSH1 0x40 PUSH0 KECCAK256 SLOAD SWAP1 DUP2 DUP2 GT PUSH0 EQ PUSH2 0x16D7 JUMPI POP DUP1 SWAP2 JUMPDEST DUP3 SWAP5 DUP4 PUSH2 0x16B7 JUMPI JUMPDEST POP POP POP POP JUMP JUMPDEST PUSH0 MSTORE PUSH1 0x3 PUSH1 0x20 MSTORE PUSH1 0x40 PUSH0 KECCAK256 SWAP1 PUSH0 MSTORE PUSH1 0x20 MSTORE SUB PUSH1 0x40 PUSH0 KECCAK256 SSTORE PUSH0 DUP1 DUP1 DUP1 PUSH2 0x16B1 JUMP JUMPDEST SWAP2 PUSH2 0x16A9 JUMP JUMPDEST SWAP1 DUP3 ISZERO PUSH2 0x1756 JUMPI PUSH1 0x1 PUSH1 0x1 PUSH1 0xA0 SHL SUB DUP2 AND PUSH2 0x170F JUMPI POP PUSH0 DUP1 DUP1 SWAP4 CODESIZE SWAP4 GAS CALL ISZERO PUSH2 0x1702 JUMPI JUMP JUMPDEST PUSH4 0xB12D13EB PUSH0 MSTORE PUSH1 0x4 PUSH1 0x1C REVERT JUMPDEST PUSH1 0x10 PUSH0 PUSH1 0x44 SWAP3 PUSH1 0x20 SWAP6 DUP3 SWAP6 PUSH1 0x14 MSTORE PUSH1 0x34 MSTORE PUSH16 0xA9059CBB000000000000000000000000 DUP3 MSTORE GAS CALL RETURNDATASIZE ISZERO PUSH1 0x1 PUSH0 MLOAD EQ OR AND ISZERO PUSH2 0x1749 JUMPI PUSH0 PUSH1 0x34 MSTORE JUMP JUMPDEST PUSH4 0x90B8EC18 PUSH0 MSTORE PUSH1 0x4 PUSH1 0x1C REVERT JUMPDEST POP POP POP JUMP JUMPDEST PUSH1 0x80 SWAP1 PUSH1 0x1 PUSH1 0x1 PUSH1 0xA0 SHL SUB DUP2 MLOAD AND SWAP1 PUSH2 0x1792 DUP2 PUSH1 0x1 PUSH1 0x1 PUSH1 0xA0 SHL SUB PUSH1 0x60 PUSH5 0xFFFFFFFFFF PUSH1 0xA0 SHL PUSH1 0x40 DUP5 ADD MLOAD PUSH1 0xA0 SHL AND SWAP3 ADD MLOAD AND OR SWAP1 JUMP JUMPDEST SWAP1 PUSH1 0xA0 DUP5 DUP3 ADD MLOAD SWAP2 ADD MLOAD SWAP2 PUSH1 0x40 MLOAD SWAP4 DUP5 MSTORE PUSH1 0x20 DUP5 ADD MSTORE PUSH1 0x40 DUP4 ADD MSTORE PUSH1 0x60 DUP3 ADD MSTORE KECCAK256 SWAP1 JUMP JUMPDEST SWAP1 PUSH2 0x17DF DUP3 PUSH1 0x1 PUSH1 0x1 PUSH1 0xA0 SHL SUB PUSH1 0x60 PUSH5 0xFFFFFFFFFF PUSH1 0xA0 SHL PUSH1 0x40 DUP5 ADD MLOAD PUSH1 0xA0 SHL AND SWAP3 ADD MLOAD AND OR SWAP1 JUMP JUMPDEST PUSH2 0x17E9 DUP2 DUP5 PUSH2 0x1A0C JUMP JUMPDEST PUSH2 0x187F JUMPI PUSH32 0xED034D9D62BB699C05145F178D69DCAC2BBBE1B6AB1BB196AC35B5D0BD00E2D0 SWAP2 PUSH1 0x1 PUSH1 0x1 PUSH1 0xA0 SHL SUB DUP1 DUP6 MLOAD AND PUSH0 MSTORE PUSH1 0x6 PUSH1 0x20 MSTORE PUSH1 0x40 SWAP3 DUP4 PUSH0 KECCAK256 SWAP1 PUSH0 MSTORE PUSH1 0x20 MSTORE DUP3 PUSH0 KECCAK256 PUSH1 0x80 DUP7 ADD MLOAD PUSH0 MSTORE PUSH1 0x20 MSTORE DUP3 PUSH0 KECCAK256 SWAP1 PUSH1 0xA0 DUP7 ADD SWAP6 DUP7 MLOAD SWAP3 PUSH1 0xC0 DUP3 ADD SWAP4 DUP5 MLOAD ADD SWAP1 DUP2 PUSH1 0x8 SHR PUSH0 MSTORE PUSH1 0x20 MSTORE PUSH1 0x1 PUSH1 0xFF DUP8 PUSH0 KECCAK256 SWAP3 AND SHL DUP2 SLOAD OR SWAP1 SSTORE MLOAD AND SWAP5 MLOAD SWAP1 MLOAD ADD DUP3 MLOAD SWAP2 DUP3 MSTORE PUSH1 0x20 DUP3 ADD MSTORE LOG2 PUSH1 0x1 SWAP1 JUMP JUMPDEST POP POP POP PUSH0 SWAP1 JUMP JUMPDEST PUSH1 0x1 DUP2 PUSH1 0x8 SHR AND ISZERO PUSH0 EQ PUSH2 0x18B2 JUMPI NUMBER JUMPDEST PUSH6 0xFFFFFFFFFFFF PUSH4 0x7FFFFFFF DUP4 PUSH1 0x9 SHR AND SWAP3 PUSH1 0x30 SHR AND SWAP1 SUB GT SWAP1 JUMP JUMPDEST TIMESTAMP PUSH2 0x1896 JUMP JUMPDEST SWAP2 SWAP1 DUP3 ADD DUP1 SWAP3 GT PUSH2 0x18C5 JUMPI JUMP JUMPDEST PUSH4 0x4E487B71 PUSH1 0xE0 SHL PUSH0 MSTORE PUSH1 0x11 PUSH1 0x4 MSTORE PUSH1 0x24 PUSH0 REVERT JUMPDEST SWAP1 PUSH1 0x1 PUSH1 0x1 PUSH1 0xA0 SHL SUB PUSH2 0x18EB DUP4 PUSH2 0x108C JUMP JUMPDEST AND PUSH0 MSTORE PUSH1 0x7 PUSH1 0x20 MSTORE PUSH1 0x40 PUSH0 KECCAK256 SWAP1 PUSH0 MSTORE PUSH1 0x20 MSTORE PUSH1 0x40 PUSH0 KECCAK256 PUSH1 0x80 DUP3 ADD CALLDATALOAD PUSH0 MSTORE PUSH1 0x20 MSTORE PUSH2 0x1922 PUSH1 0x40 PUSH0 KECCAK256 SWAP2 PUSH1 0xA0 PUSH1 0xC0 DUP3 ADD CALLDATALOAD SWAP2 ADD CALLDATALOAD PUSH2 0x18B8 JUMP JUMPDEST PUSH0 MSTORE PUSH1 0x20 MSTORE PUSH1 0x40 PUSH0 KECCAK256 SLOAD SWAP1 JUMP JUMPDEST PUSH1 0xC0 PUSH2 0x193A DUP3 PUSH2 0x175B JUMP JUMPDEST SWAP2 ADD MLOAD SWAP1 PUSH0 MSTORE PUSH1 0x20 MSTORE PUSH1 0x40 PUSH0 KECCAK256 SWAP1 JUMP JUMPDEST SWAP1 SWAP3 PUSH1 0x1 PUSH1 0x1 PUSH1 0xA0 SHL SUB DUP1 DUP4 AND PUSH0 MSTORE PUSH1 0x3 PUSH1 0x20 MSTORE PUSH1 0x40 PUSH0 KECCAK256 SWAP4 AND SWAP3 DUP4 PUSH0 MSTORE PUSH1 0x20 MSTORE PUSH1 0x40 PUSH0 KECCAK256 PUSH2 0x197A DUP3 DUP3 SLOAD PUSH2 0x18B8 JUMP JUMPDEST SWAP1 SSTORE PUSH1 0x40 MLOAD SWAP3 PUSH1 0x20 DUP5 ADD SWAP5 PUSH32 0xE4EE5E100000000000000000000000000000000000000000000000000000000 DUP7 MSTORE PUSH1 0x24 DUP6 ADD MSTORE PUSH1 0x44 DUP5 ADD MSTORE PUSH1 0x64 DUP4 ADD MSTORE PUSH1 0x64 DUP3 MSTORE PUSH1 0xA0 DUP3 ADD SWAP3 DUP3 DUP5 LT PUSH8 0xFFFFFFFFFFFFFFFF DUP6 GT OR PUSH2 0xF0F JUMPI PUSH0 DUP1 SWAP5 SWAP4 DUP2 SWAP5 PUSH1 0x40 MSTORE MLOAD SWAP3 GAS CALL POP RETURNDATASIZE ISZERO PUSH2 0x1A0A JUMPI RETURNDATASIZE PUSH2 0x19F1 DUP2 PUSH2 0x12DD JUMP JUMPDEST SWAP1 PUSH2 0x19FF PUSH1 0x40 MLOAD SWAP3 DUP4 PUSH2 0xF23 JUMP JUMPDEST DUP2 MSTORE PUSH0 PUSH1 0x20 RETURNDATASIZE SWAP3 ADD RETURNDATACOPY JUMP JUMPDEST JUMP JUMPDEST PUSH2 0x1A16 DUP3 DUP3 PUSH2 0x1A81 JUMP JUMPDEST PUSH1 0x5 SHR SWAP2 PUSH1 0xC0 DUP3 ADD SWAP3 DUP4 MLOAD LT ISZERO PUSH2 0x848 JUMPI PUSH1 0x1 SWAP3 PUSH2 0x1A69 SWAP2 PUSH1 0x1 PUSH1 0x1 PUSH1 0xA0 SHL SUB DUP5 MLOAD AND PUSH0 MSTORE PUSH1 0x6 PUSH1 0x20 MSTORE PUSH1 0x40 PUSH0 KECCAK256 SWAP1 PUSH0 MSTORE PUSH1 0x20 MSTORE PUSH1 0x40 PUSH0 KECCAK256 PUSH1 0x80 DUP5 ADD MLOAD PUSH0 MSTORE PUSH1 0x20 MSTORE PUSH1 0xA0 PUSH1 0x40 PUSH0 KECCAK256 SWAP4 ADD MLOAD SWAP1 MLOAD SWAP1 PUSH2 0x18B8 JUMP JUMPDEST SWAP1 DUP2 PUSH1 0x8 SHR PUSH0 MSTORE PUSH1 0x20 MSTORE PUSH1 0xFF PUSH1 0x40 PUSH0 KECCAK256 SLOAD SWAP2 AND SHR AND SWAP1 JUMP JUMPDEST PUSH1 0x1 PUSH1 0x1 PUSH1 0xA0 SHL SUB SWAP2 DUP3 DUP3 MLOAD AND PUSH0 MSTORE PUSH1 0x5 PUSH1 0x20 MSTORE PUSH1 0x40 PUSH0 KECCAK256 SWAP1 PUSH0 MSTORE PUSH1 0x20 MSTORE PUSH1 0x40 PUSH0 KECCAK256 PUSH1 0x80 DUP3 ADD MLOAD PUSH0 MSTORE PUSH1 0x20 MSTORE PUSH1 0xA0 PUSH1 0x40 PUSH0 KECCAK256 SWAP2 ADD MLOAD PUSH0 MSTORE PUSH1 0x20 MSTORE PUSH1 0x40 PUSH0 KECCAK256 SLOAD AND DUP1 ISZERO PUSH2 0x848 JUMPI EXTCODESIZE PUSH0 NOT DUP2 ADD SWAP1 DUP2 GT PUSH2 0x18C5 JUMPI SWAP1 JUMP JUMPDEST PUSH1 0x40 MLOAD PUSH1 0x20 DUP2 ADD SWAP1 COINBASE PUSH1 0x60 SHL DUP3 MSTORE BASEFEE PUSH1 0x34 DUP3 ADD MSTORE CHAINID PUSH1 0x54 DUP3 ADD MSTORE TIMESTAMP PUSH1 0x74 DUP3 ADD MSTORE NUMBER PUSH1 0x94 DUP3 ADD MSTORE NUMBER BLOCKHASH PUSH1 0xB4 DUP3 ADD MSTORE ORIGIN PUSH1 0x60 SHL PUSH1 0xD4 DUP3 ADD MSTORE GASPRICE PUSH1 0xE8 DUP3 ADD MSTORE PUSH1 0xE8 DUP2 MSTORE PUSH2 0x120 DUP2 ADD DUP2 DUP2 LT PUSH8 0xFFFFFFFFFFFFFFFF DUP3 GT OR PUSH2 0xF0F JUMPI PUSH1 0x40 MSTORE MLOAD SWAP1 KECCAK256 SWAP1 JUMP JUMPDEST SWAP1 PUSH2 0x1B45 PUSH2 0x562 CALLDATASIZE DUP5 PUSH2 0xFB9 JUMP JUMPDEST PUSH1 0x1 PUSH1 0x1 PUSH1 0xA0 SHL SUB DUP1 PUSH2 0x1B57 DUP6 PUSH2 0x108C JUMP JUMPDEST AND PUSH0 MSTORE PUSH1 0x20 PUSH1 0x5 DUP2 MSTORE PUSH1 0x40 SWAP2 DUP3 PUSH0 KECCAK256 DUP5 PUSH0 MSTORE DUP3 MSTORE DUP3 PUSH0 KECCAK256 SWAP4 PUSH1 0x80 DUP8 ADD CALLDATALOAD SWAP5 DUP6 PUSH0 MSTORE DUP4 MSTORE DUP4 PUSH0 KECCAK256 SWAP7 PUSH1 0xA0 DUP2 ADD CALLDATALOAD SWAP8 DUP9 PUSH0 MSTORE DUP5 MSTORE DUP3 DUP6 PUSH0 KECCAK256 SLOAD AND SWAP6 DUP7 ISZERO PUSH2 0x1D12 JUMPI DUP8 PUSH0 MSTORE DUP5 PUSH0 KECCAK256 SWAP7 PUSH1 0xC0 DUP4 ADD CALLDATALOAD SWAP8 DUP9 PUSH1 0x5 SHL SWAP2 DUP9 DUP9 DUP5 ADD SWAP4 DUP2 MLOAD SWAP5 DUP11 SWAP2 PUSH1 0x21 DUP2 PUSH1 0x1F DUP10 ADD DUP8 EXTCODECOPY DUP12 DUP8 ADD SWAP5 DUP6 MLOAD PUSH1 0xFF AND ISZERO PUSH2 0x1CED JUMPI JUMPDEST POP LT DUP2 MUL DUP6 MSTORE DUP5 ADD PUSH0 DUP11 DUP3 ADD MSTORE ADD SWAP3 DUP4 DUP11 MSTORE MLOAD SWAP1 MLOAD SWAP1 DUP9 DUP2 LT PUSH2 0x1CDD JUMPI JUMPDEST POP SUB PUSH2 0x1CB5 JUMPI POP PUSH2 0x1BFC PUSH2 0x1227 CALLDATASIZE DUP5 PUSH2 0xFB9 JUMP JUMPDEST SWAP9 PUSH2 0x1C07 DUP5 DUP5 PUSH2 0x18D9 JUMP JUMPDEST ISZERO PUSH2 0x1C1A JUMPI POP POP POP POP POP POP POP POP POP SWAP1 PUSH0 SWAP1 JUMP JUMPDEST PUSH32 0xA8080584EBB92497A93BF0923D88F7A218D6B2B12E73938EC37157D8DF9C561E SWAP8 PUSH2 0x1CA3 SWAP5 DUP7 PUSH2 0x1C4A DUP7 PUSH2 0x108C JUMP JUMPDEST AND PUSH0 MSTORE PUSH1 0x7 DUP9 MSTORE DUP9 PUSH0 KECCAK256 SWAP1 PUSH0 MSTORE DUP8 MSTORE DUP8 PUSH0 KECCAK256 DUP4 PUSH0 MSTORE DUP8 MSTORE DUP8 PUSH0 KECCAK256 SWAP2 ADD PUSH0 MSTORE DUP6 MSTORE DUP8 DUP7 PUSH0 KECCAK256 SSTORE DUP4 PUSH2 0x1C79 DUP4 PUSH2 0x108C JUMP JUMPDEST AND PUSH0 MSTORE PUSH1 0x3 DUP6 MSTORE DUP6 PUSH0 KECCAK256 DUP5 PUSH2 0x1C90 PUSH1 0x60 DUP6 ADD PUSH2 0x108C JUMP JUMPDEST AND PUSH0 MSTORE DUP6 MSTORE DUP6 PUSH0 KECCAK256 SWAP1 DUP2 SLOAD ADD SWAP1 SSTORE PUSH2 0x108C JUMP JUMPDEST AND SWAP4 DUP3 MLOAD SWAP2 DUP7 DUP4 MSTORE DUP3 ADD MSTORE LOG2 SWAP1 PUSH1 0x1 SWAP1 JUMP JUMPDEST DUP1 PUSH32 0x162C5B6500000000000000000000000000000000000000000000000000000000 PUSH1 0x4 SWAP3 MSTORE REVERT JUMPDEST PUSH0 NOT SWAP1 DUP10 SUB PUSH1 0x3 SHL SHL AND PUSH0 PUSH2 0x1BE8 JUMP JUMPDEST SWAP1 SWAP3 POP EXTCODESIZE DUP3 PUSH1 0x21 PUSH0 NOT DUP4 ADD SWAP3 DUP4 DUP8 SHR RETURNDATASIZE RETURNDATASIZE RETURNDATACOPY DUP3 SUB ADD DUP3 DUP5 GT MUL DUP14 SUB SWAP2 GT MUL SWAP2 PUSH0 PUSH2 0x1BCA JUMP JUMPDEST PUSH1 0x4 DUP7 MLOAD PUSH4 0x21F9F13F PUSH1 0xE1 SHL DUP2 MSTORE REVERT JUMPDEST PUSH1 0x24 PUSH1 0x10 PUSH1 0x20 SWAP4 SWAP3 DUP5 SWAP4 PUSH1 0x14 MSTORE PUSH16 0x70A08231000000000000000000000000 PUSH0 MSTORE GAS STATICCALL PUSH1 0x1F RETURNDATASIZE GT AND PUSH1 0x20 MLOAD MUL SWAP1 JUMP INVALID LOG2 PUSH5 0x6970667358 0x22 SLT KECCAK256 0xAC DUP3 0xC0 0x22 0xC7 0xDF SHR LOG3 0xAB 0xDC EXTCODESIZE DUP12 SLOAD SLT SWAP14 BALANCE SHL LOG4 SUB LOG4 CALLER BASEFEE PUSH11 0x497473EAB672D3330B6473 PUSH16 0x6C634300081900330000000000000000 "},"methodIdentifiers":{"balanceOf(address,address)":"f7888aec","bleach((address,bool,uint256,address,uint256,uint256,uint256))":"74ad136e","cast(bytes32,(address,bool,uint256,address,uint256,uint256,uint256)[],bytes32[])":"f98dea29","chop(bytes32,(address,bool,uint256,address,uint256,uint256,uint256)[])":"2ed8fe33","consumed((address,bool,uint256,address,uint256,uint256,uint256))":"3af299ee","expired(uint256)":"ba065e1f","handoff(address,address,int256)":"02a381bf","heat(uint256,(address,bool,uint256,address,uint256,uint256,uint256),(address,bool,uint256,address,uint256,uint256,uint256)[])":"0493b93c","ink((address,bool,uint256,address,uint256,uint256,uint256),bytes)":"5b845a80","latest(address,bool)":"8492c30b","pointer((address,bool,uint256,address,uint256,uint256,uint256))":"705b013c","randomness(bytes32)":"0cf9dff7"}}}}}