{"multicaller/src/MulticallerWithSigner.sol":{"MulticallerWithSigner":{"abi":[{"inputs":[],"stateMutability":"payable","type":"constructor"},{"inputs":[],"name":"ArrayLengthsMismatch","type":"error"},{"inputs":[],"name":"InvalidSignature","type":"error"},{"inputs":[],"name":"Reentrancy","type":"error"},{"anonymous":false,"inputs":[{"indexed":true,"internalType":"address","name":"signer","type":"address"},{"indexed":false,"internalType":"uint256","name":"newNonceSalt","type":"uint256"}],"name":"NonceSaltIncremented","type":"event"},{"anonymous":false,"inputs":[{"indexed":true,"internalType":"address","name":"signer","type":"address"},{"indexed":false,"internalType":"uint256[]","name":"nonces","type":"uint256[]"}],"name":"NoncesInvalidated","type":"event"},{"inputs":[{"internalType":"address[]","name":"targets","type":"address[]"},{"internalType":"bytes[]","name":"data","type":"bytes[]"},{"internalType":"uint256[]","name":"values","type":"uint256[]"},{"internalType":"uint256","name":"nonce","type":"uint256"},{"internalType":"address","name":"signer","type":"address"},{"internalType":"bytes","name":"signature","type":"bytes"}],"name":"aggregateWithSigner","outputs":[{"internalType":"bytes[]","name":"","type":"bytes[]"}],"stateMutability":"payable","type":"function"},{"inputs":[],"name":"eip712Domain","outputs":[{"internalType":"bytes1","name":"fields","type":"bytes1"},{"internalType":"string","name":"name","type":"string"},{"internalType":"string","name":"version","type":"string"},{"internalType":"uint256","name":"chainId","type":"uint256"},{"internalType":"address","name":"verifyingContract","type":"address"},{"internalType":"bytes32","name":"salt","type":"bytes32"},{"internalType":"uint256[]","name":"extensions","type":"uint256[]"}],"stateMutability":"view","type":"function"},{"inputs":[],"name":"incrementNonceSalt","outputs":[{"internalType":"uint256","name":"","type":"uint256"}],"stateMutability":"nonpayable","type":"function"},{"inputs":[{"internalType":"address","name":"signer","type":"address"},{"internalType":"bytes","name":"signature","type":"bytes"}],"name":"incrementNonceSaltForSigner","outputs":[{"internalType":"uint256","name":"","type":"uint256"}],"stateMutability":"nonpayable","type":"function"},{"inputs":[{"internalType":"uint256[]","name":"nonces","type":"uint256[]"}],"name":"invalidateNonces","outputs":[],"stateMutability":"nonpayable","type":"function"},{"inputs":[{"internalType":"uint256[]","name":"nonces","type":"uint256[]"},{"internalType":"address","name":"signer","type":"address"},{"internalType":"bytes","name":"signature","type":"bytes"}],"name":"invalidateNoncesForSigner","outputs":[],"stateMutability":"nonpayable","type":"function"},{"inputs":[{"internalType":"address","name":"signer","type":"address"}],"name":"nonceSaltOf","outputs":[{"internalType":"uint256","name":"","type":"uint256"}],"stateMutability":"view","type":"function"},{"inputs":[{"internalType":"address","name":"signer","type":"address"},{"internalType":"uint256[]","name":"nonces","type":"uint256[]"}],"name":"noncesInvalidated","outputs":[{"internalType":"bool[]","name":"","type":"bool[]"}],"stateMutability":"view","type":"function"},{"stateMutability":"payable","type":"receive"}],"evm":{"bytecode":{"linkReferences":{},"object":"60808060405260013d55610b5b90816100168239f3fe604060806040526004361015610020575b50361561001b575f80fd5b610b1b565b5f3560e01c90816317447cf1146100a7575080632eb48a80146100a25780633aeb22061461009d57806356b1a87f1461009857806384b0196e1461009357806387ec11ca1461008e578063ad3aacb8146100895763f0c60f1a14610084575f610010565b6107ed565b610745565b6104fd565b6104a9565b610289565b610238565b61019d565b34610122576040366003190112610122576100c0610126565b60243567ffffffffffffffff8111610122576100e090369060040161016c565b915f528160051b925f5b8481036101015750505060205f526020526040015ff35b80602091840135808352603f5f20549060ff161c60011681840152016100ea565b5f80fd5b6004359073ffffffffffffffffffffffffffffffffffffffff8216820361012257565b6024359073ffffffffffffffffffffffffffffffffffffffff8216820361012257565b9181601f840112156101225782359167ffffffffffffffff8311610122576020808501948460051b01011161012257565b34610122576020806003193601126101225760043567ffffffffffffffff8111610122576101cf90369060040161016c565b90335f528160051b915f5b838103610219575082935060205f526020526040377fc45e3a0dd412bcad8d62398d74d66b1c8449f38beb10da275e4da0c6d3a811a433916040015fa2005b8085918401358083526001603f5f209160ff161b8154179055016101da565b3461012257602036600319011261012257610251610126565b3001543d5260203df35b9181601f840112156101225782359167ffffffffffffffff8311610122576020838186019501011161012257565b3461012257604080600319360112610122576102a3610126565b60249160243567ffffffffffffffff8111610122576102c8600491369060040161025b565b919094308501938454937ffa181078c7d1d4d369301511d3c5611e9367d0cebbf65eefdee9dfc75849c1d33d5282602098899289845287855260609460603d2081527f8b73c3c69bb8fe3d512ecc4cf759cc79239f7b179b0ffacaa9a75d522b39400f6060528460807f301013e8a31863902646dc218ecd889c37491c2967a8104d5ff1cf42af0f9ea46080527fc89efdaa54c0f20c7adf612882df0950f5a951637e0307cdcb4c672f298b8bc660a0524660c0523060e05260a060602082526119013d526042601e2097838514610454575b5060418414610415575b5050630b135d3f60e11b95865f528852835280604452806064928337015f895afa915114161561040a57506001905b5f1943014060e01c01018091555f527f997a42216df16c8b9e7caf2fc71c59dba956f1f2b12320f87a80a5879464217d825fa25ff35b638baa579f5f52601cfd5b909192939450863d528385843780513d1a82526001905f825afa518a183d1517156104455790859291845f6103a5565b505050505050506001906103d4565b91509192939450863d526001600160ff1b0386860135601b8160ff1c01885286358552169052846001825f825afa518b183d151715610499579084879493925f61039b565b50505050505050506001906103d4565b34610122575f36600319011261012257600f3d5360e060205275154d756c746963616c6c6572576974685369676e657260f55261012060405261013161012152466060523060805261016060c0526101803df35b346101225760608060031936011261012257600480359167ffffffffffffffff928381116101225761053390369060040161016c565b929061053d610149565b936044956044359081116101225761055990369060040161025b565b8260059592951b957f12b047058eea3df4085cdc159a103d9c100c4e78cfb7029cc39d02cb8b9e48f53d526020809989825260409789888a378989208952308b0154606052826080803d208b527f8b73c3c69bb8fe3d512ecc4cf759cc79239f7b179b0ffacaa9a75d522b39400f6060527f301013e8a31863902646dc218ecd889c37491c2967a8104d5ff1cf42af0f9ea46080527fc89efdaa54c0f20c7adf612882df0950f5a951637e0307cdcb4c672f298b8bc660a0524660c0523060e05260a060602082526119013d526042601e20958b88146106fc575b50604187146106cb575b5050630b135d3f60e11b93845f5286528460249586938b855252806064928337015f8b5afa915114161561040a57505b845f525f5b8481036106ac5750908391867fc45e3a0dd412bcad8d62398d74d66b1c8449f38beb10da275e4da0c6d3a811a496975f52528237015fa2005b8087918401358083526001603f5f209160ff161b815417905501610673565b853d5286838c3780513d1a82526001905f825afa518b183d1517156106f157825f61063e565b50505050505061066e565b909150853d526001600160ff1b0385840135601b8160ff1c01875284358d52169052836001825f825afa518c183d1517156107395783905f610634565b5050505050505061066e565b60c03660031901126101225767ffffffffffffffff6004358181116101225761077290369060040161016c565b90916024358181116101225761078c90369060040161016c565b604494919435838111610122576107a790369060040161016c565b916084359473ffffffffffffffffffffffffffffffffffffffff861686036101225760a435908111610122576107e190369060040161025b565b9790966064359561083e565b34610122575f36600319011261012257303301600181545f1943014060e01c01018091555f52337f997a42216df16c8b9e7caf2fc71c59dba956f1f2b12320f87a80a5879464217d60205fa260205ff35b979591949692909681148188141615610b0e573d5460011615610b015760051b9182843d37823d20903d5b848103610ae55750833d2091848a3d37843d209a7ffb989fd34c8af81a76f18167f528fc7315f92cacc19a0e63215abd54633f8a283d52602098838a5260409c8d5260609485526080926080528560a0523084015460c05260e03d208d527f8b73c3c69bb8fe3d512ecc4cf759cc79239f7b179b0ffacaa9a75d522b39400f85527f301013e8a31863902646dc218ecd889c37491c2967a8104d5ff1cf42af0f9ea46080527fc89efdaa54c0f20c7adf612882df0950f5a951637e0307cdcb4c672f298b8bc660a0524660c0523060e05260a085208a526119013d52898d6042601e2094818514610aa9575b848460418214610a7b575b505050630b135d3f60e11b92835f5260049586526024948592835280604452806064928337015f875afa915114161561040a57505b808752828a52603f92603f882090600182549160ff161b90808216610a6e57179055865f5260018752807fc45e3a0dd412bcad8d62398d74d66b1c8449f38beb10da275e4da0c6d3a811a4835fa28315610a6757819895981b5f55889280898b37808a01955b8a5f808a8d89510193860193803591829101853783603f19808b8d010135908b880101355af115610a5f578289918d9488523d90523d5f8683013e85601f19913d010116950199878b14610a5257999491506109fb565b82868b8b5260015f55015ff35b3d5f803e3d5ffd5b898488525ff35b638baa579f5f526004601cfd5b600193883d523780513d1a83525f825afa5184183d151715610aa157898d5f8484610960565b505050610995565b853d526001600160ff1b0383850135601b8160ff1c01855285358452168852826001825f825afa5187183d151761095557505050505050610995565b8060208092890135890180359182910183378120815201610869565b63ab143c063d526004601cfd5b633b800a463d526004601cfd5b3d54600c5260203df3fea264697066735822122086850f71d04fd3f8ac75147a218ed3387c698cb3539fa794b47bfa8b8ebadaf064736f6c63430008190033","opcodes":"PUSH1 0x80 DUP1 PUSH1 0x40 MSTORE PUSH1 0x1 RETURNDATASIZE SSTORE PUSH2 0xB5B SWAP1 DUP2 PUSH2 0x16 DUP3 CODECOPY RETURN INVALID PUSH1 0x40 PUSH1 0x80 PUSH1 0x40 MSTORE PUSH1 0x4 CALLDATASIZE LT ISZERO PUSH2 0x20 JUMPI JUMPDEST POP CALLDATASIZE ISZERO PUSH2 0x1B JUMPI PUSH0 DUP1 REVERT JUMPDEST PUSH2 0xB1B JUMP JUMPDEST PUSH0 CALLDATALOAD PUSH1 0xE0 SHR SWAP1 DUP2 PUSH4 0x17447CF1 EQ PUSH2 0xA7 JUMPI POP DUP1 PUSH4 0x2EB48A80 EQ PUSH2 0xA2 JUMPI DUP1 PUSH4 0x3AEB2206 EQ PUSH2 0x9D JUMPI DUP1 PUSH4 0x56B1A87F EQ PUSH2 0x98 JUMPI DUP1 PUSH4 0x84B0196E EQ PUSH2 0x93 JUMPI DUP1 PUSH4 0x87EC11CA EQ PUSH2 0x8E JUMPI DUP1 PUSH4 0xAD3AACB8 EQ PUSH2 0x89 JUMPI PUSH4 0xF0C60F1A EQ PUSH2 0x84 JUMPI PUSH0 PUSH2 0x10 JUMP JUMPDEST PUSH2 0x7ED JUMP JUMPDEST PUSH2 0x745 JUMP JUMPDEST PUSH2 0x4FD JUMP JUMPDEST PUSH2 0x4A9 JUMP JUMPDEST PUSH2 0x289 JUMP JUMPDEST PUSH2 0x238 JUMP JUMPDEST PUSH2 0x19D JUMP JUMPDEST CALLVALUE PUSH2 0x122 JUMPI PUSH1 0x40 CALLDATASIZE PUSH1 0x3 NOT ADD SLT PUSH2 0x122 JUMPI PUSH2 0xC0 PUSH2 0x126 JUMP JUMPDEST PUSH1 0x24 CALLDATALOAD PUSH8 0xFFFFFFFFFFFFFFFF DUP2 GT PUSH2 0x122 JUMPI PUSH2 0xE0 SWAP1 CALLDATASIZE SWAP1 PUSH1 0x4 ADD PUSH2 0x16C JUMP JUMPDEST SWAP2 PUSH0 MSTORE DUP2 PUSH1 0x5 SHL SWAP3 PUSH0 JUMPDEST DUP5 DUP2 SUB PUSH2 0x101 JUMPI POP POP POP PUSH1 0x20 PUSH0 MSTORE PUSH1 0x20 MSTORE PUSH1 0x40 ADD PUSH0 RETURN JUMPDEST DUP1 PUSH1 0x20 SWAP2 DUP5 ADD CALLDATALOAD DUP1 DUP4 MSTORE PUSH1 0x3F PUSH0 KECCAK256 SLOAD SWAP1 PUSH1 0xFF AND SHR PUSH1 0x1 AND DUP2 DUP5 ADD MSTORE ADD PUSH2 0xEA JUMP JUMPDEST PUSH0 DUP1 REVERT JUMPDEST PUSH1 0x4 CALLDATALOAD SWAP1 PUSH20 0xFFFFFFFFFFFFFFFFFFFFFFFFFFFFFFFFFFFFFFFF DUP3 AND DUP3 SUB PUSH2 0x122 JUMPI JUMP JUMPDEST PUSH1 0x24 CALLDATALOAD SWAP1 PUSH20 0xFFFFFFFFFFFFFFFFFFFFFFFFFFFFFFFFFFFFFFFF DUP3 AND DUP3 SUB PUSH2 0x122 JUMPI JUMP JUMPDEST SWAP2 DUP2 PUSH1 0x1F DUP5 ADD SLT ISZERO PUSH2 0x122 JUMPI DUP3 CALLDATALOAD SWAP2 PUSH8 0xFFFFFFFFFFFFFFFF DUP4 GT PUSH2 0x122 JUMPI PUSH1 0x20 DUP1 DUP6 ADD SWAP5 DUP5 PUSH1 0x5 SHL ADD ADD GT PUSH2 0x122 JUMPI JUMP JUMPDEST CALLVALUE PUSH2 0x122 JUMPI PUSH1 0x20 DUP1 PUSH1 0x3 NOT CALLDATASIZE ADD SLT PUSH2 0x122 JUMPI PUSH1 0x4 CALLDATALOAD PUSH8 0xFFFFFFFFFFFFFFFF DUP2 GT PUSH2 0x122 JUMPI PUSH2 0x1CF SWAP1 CALLDATASIZE SWAP1 PUSH1 0x4 ADD PUSH2 0x16C JUMP JUMPDEST SWAP1 CALLER PUSH0 MSTORE DUP2 PUSH1 0x5 SHL SWAP2 PUSH0 JUMPDEST DUP4 DUP2 SUB PUSH2 0x219 JUMPI POP DUP3 SWAP4 POP PUSH1 0x20 PUSH0 MSTORE PUSH1 0x20 MSTORE PUSH1 0x40 CALLDATACOPY PUSH32 0xC45E3A0DD412BCAD8D62398D74D66B1C8449F38BEB10DA275E4DA0C6D3A811A4 CALLER SWAP2 PUSH1 0x40 ADD PUSH0 LOG2 STOP JUMPDEST DUP1 DUP6 SWAP2 DUP5 ADD CALLDATALOAD DUP1 DUP4 MSTORE PUSH1 0x1 PUSH1 0x3F PUSH0 KECCAK256 SWAP2 PUSH1 0xFF AND SHL DUP2 SLOAD OR SWAP1 SSTORE ADD PUSH2 0x1DA JUMP JUMPDEST CALLVALUE PUSH2 0x122 JUMPI PUSH1 0x20 CALLDATASIZE PUSH1 0x3 NOT ADD SLT PUSH2 0x122 JUMPI PUSH2 0x251 PUSH2 0x126 JUMP JUMPDEST ADDRESS ADD SLOAD RETURNDATASIZE MSTORE PUSH1 0x20 RETURNDATASIZE RETURN JUMPDEST SWAP2 DUP2 PUSH1 0x1F DUP5 ADD SLT ISZERO PUSH2 0x122 JUMPI DUP3 CALLDATALOAD SWAP2 PUSH8 0xFFFFFFFFFFFFFFFF DUP4 GT PUSH2 0x122 JUMPI PUSH1 0x20 DUP4 DUP2 DUP7 ADD SWAP6 ADD ADD GT PUSH2 0x122 JUMPI JUMP JUMPDEST CALLVALUE PUSH2 0x122 JUMPI PUSH1 0x40 DUP1 PUSH1 0x3 NOT CALLDATASIZE ADD SLT PUSH2 0x122 JUMPI PUSH2 0x2A3 PUSH2 0x126 JUMP JUMPDEST PUSH1 0x24 SWAP2 PUSH1 0x24 CALLDATALOAD PUSH8 0xFFFFFFFFFFFFFFFF DUP2 GT PUSH2 0x122 JUMPI PUSH2 0x2C8 PUSH1 0x4 SWAP2 CALLDATASIZE SWAP1 PUSH1 0x4 ADD PUSH2 0x25B JUMP JUMPDEST SWAP2 SWAP1 SWAP5 ADDRESS DUP6 ADD SWAP4 DUP5 SLOAD SWAP4 PUSH32 0xFA181078C7D1D4D369301511D3C5611E9367D0CEBBF65EEFDEE9DFC75849C1D3 RETURNDATASIZE MSTORE DUP3 PUSH1 0x20 SWAP9 DUP10 SWAP3 DUP10 DUP5 MSTORE DUP8 DUP6 MSTORE PUSH1 0x60 SWAP5 PUSH1 0x60 RETURNDATASIZE KECCAK256 DUP2 MSTORE PUSH32 0x8B73C3C69BB8FE3D512ECC4CF759CC79239F7B179B0FFACAA9A75D522B39400F PUSH1 0x60 MSTORE DUP5 PUSH1 0x80 PUSH32 0x301013E8A31863902646DC218ECD889C37491C2967A8104D5FF1CF42AF0F9EA4 PUSH1 0x80 MSTORE PUSH32 0xC89EFDAA54C0F20C7ADF612882DF0950F5A951637E0307CDCB4C672F298B8BC6 PUSH1 0xA0 MSTORE CHAINID PUSH1 0xC0 MSTORE ADDRESS PUSH1 0xE0 MSTORE PUSH1 0xA0 PUSH1 0x60 KECCAK256 DUP3 MSTORE PUSH2 0x1901 RETURNDATASIZE MSTORE PUSH1 0x42 PUSH1 0x1E KECCAK256 SWAP8 DUP4 DUP6 EQ PUSH2 0x454 JUMPI JUMPDEST POP PUSH1 0x41 DUP5 EQ PUSH2 0x415 JUMPI JUMPDEST POP POP PUSH4 0xB135D3F PUSH1 0xE1 SHL SWAP6 DUP7 PUSH0 MSTORE DUP9 MSTORE DUP4 MSTORE DUP1 PUSH1 0x44 MSTORE DUP1 PUSH1 0x64 SWAP3 DUP4 CALLDATACOPY ADD PUSH0 DUP10 GAS STATICCALL SWAP2 MLOAD EQ AND ISZERO PUSH2 0x40A JUMPI POP PUSH1 0x1 SWAP1 JUMPDEST PUSH0 NOT NUMBER ADD BLOCKHASH PUSH1 0xE0 SHR ADD ADD DUP1 SWAP2 SSTORE PUSH0 MSTORE PUSH32 0x997A42216DF16C8B9E7CAF2FC71C59DBA956F1F2B12320F87A80A5879464217D DUP3 PUSH0 LOG2 PUSH0 RETURN JUMPDEST PUSH4 0x8BAA579F PUSH0 MSTORE PUSH1 0x1C REVERT JUMPDEST SWAP1 SWAP2 SWAP3 SWAP4 SWAP5 POP DUP7 RETURNDATASIZE MSTORE DUP4 DUP6 DUP5 CALLDATACOPY DUP1 MLOAD RETURNDATASIZE BYTE DUP3 MSTORE PUSH1 0x1 SWAP1 PUSH0 DUP3 GAS STATICCALL MLOAD DUP11 XOR RETURNDATASIZE ISZERO OR ISZERO PUSH2 0x445 JUMPI SWAP1 DUP6 SWAP3 SWAP2 DUP5 PUSH0 PUSH2 0x3A5 JUMP JUMPDEST POP POP POP POP POP POP POP PUSH1 0x1 SWAP1 PUSH2 0x3D4 JUMP JUMPDEST SWAP2 POP SWAP2 SWAP3 SWAP4 SWAP5 POP DUP7 RETURNDATASIZE MSTORE PUSH1 0x1 PUSH1 0x1 PUSH1 0xFF SHL SUB DUP7 DUP7 ADD CALLDATALOAD PUSH1 0x1B DUP2 PUSH1 0xFF SHR ADD DUP9 MSTORE DUP7 CALLDATALOAD DUP6 MSTORE AND SWAP1 MSTORE DUP5 PUSH1 0x1 DUP3 PUSH0 DUP3 GAS STATICCALL MLOAD DUP12 XOR RETURNDATASIZE ISZERO OR ISZERO PUSH2 0x499 JUMPI SWAP1 DUP5 DUP8 SWAP5 SWAP4 SWAP3 PUSH0 PUSH2 0x39B JUMP JUMPDEST POP POP POP POP POP POP POP POP PUSH1 0x1 SWAP1 PUSH2 0x3D4 JUMP JUMPDEST CALLVALUE PUSH2 0x122 JUMPI PUSH0 CALLDATASIZE PUSH1 0x3 NOT ADD SLT PUSH2 0x122 JUMPI PUSH1 0xF RETURNDATASIZE MSTORE8 PUSH1 0xE0 PUSH1 0x20 MSTORE PUSH22 0x154D756C746963616C6C6572576974685369676E6572 PUSH1 0xF5 MSTORE PUSH2 0x120 PUSH1 0x40 MSTORE PUSH2 0x131 PUSH2 0x121 MSTORE CHAINID PUSH1 0x60 MSTORE ADDRESS PUSH1 0x80 MSTORE PUSH2 0x160 PUSH1 0xC0 MSTORE PUSH2 0x180 RETURNDATASIZE RETURN JUMPDEST CALLVALUE PUSH2 0x122 JUMPI PUSH1 0x60 DUP1 PUSH1 0x3 NOT CALLDATASIZE ADD SLT PUSH2 0x122 JUMPI PUSH1 0x4 DUP1 CALLDATALOAD SWAP2 PUSH8 0xFFFFFFFFFFFFFFFF SWAP3 DUP4 DUP2 GT PUSH2 0x122 JUMPI PUSH2 0x533 SWAP1 CALLDATASIZE SWAP1 PUSH1 0x4 ADD PUSH2 0x16C JUMP JUMPDEST SWAP3 SWAP1 PUSH2 0x53D PUSH2 0x149 JUMP JUMPDEST SWAP4 PUSH1 0x44 SWAP6 PUSH1 0x44 CALLDATALOAD SWAP1 DUP2 GT PUSH2 0x122 JUMPI PUSH2 0x559 SWAP1 CALLDATASIZE SWAP1 PUSH1 0x4 ADD PUSH2 0x25B JUMP JUMPDEST DUP3 PUSH1 0x5 SWAP6 SWAP3 SWAP6 SHL SWAP6 PUSH32 0x12B047058EEA3DF4085CDC159A103D9C100C4E78CFB7029CC39D02CB8B9E48F5 RETURNDATASIZE MSTORE PUSH1 0x20 DUP1 SWAP10 DUP10 DUP3 MSTORE PUSH1 0x40 SWAP8 DUP10 DUP9 DUP11 CALLDATACOPY DUP10 DUP10 KECCAK256 DUP10 MSTORE ADDRESS DUP12 ADD SLOAD PUSH1 0x60 MSTORE DUP3 PUSH1 0x80 DUP1 RETURNDATASIZE KECCAK256 DUP12 MSTORE PUSH32 0x8B73C3C69BB8FE3D512ECC4CF759CC79239F7B179B0FFACAA9A75D522B39400F PUSH1 0x60 MSTORE PUSH32 0x301013E8A31863902646DC218ECD889C37491C2967A8104D5FF1CF42AF0F9EA4 PUSH1 0x80 MSTORE PUSH32 0xC89EFDAA54C0F20C7ADF612882DF0950F5A951637E0307CDCB4C672F298B8BC6 PUSH1 0xA0 MSTORE CHAINID PUSH1 0xC0 MSTORE ADDRESS PUSH1 0xE0 MSTORE PUSH1 0xA0 PUSH1 0x60 KECCAK256 DUP3 MSTORE PUSH2 0x1901 RETURNDATASIZE MSTORE PUSH1 0x42 PUSH1 0x1E KECCAK256 SWAP6 DUP12 DUP9 EQ PUSH2 0x6FC JUMPI JUMPDEST POP PUSH1 0x41 DUP8 EQ PUSH2 0x6CB JUMPI JUMPDEST POP POP PUSH4 0xB135D3F PUSH1 0xE1 SHL SWAP4 DUP5 PUSH0 MSTORE DUP7 MSTORE DUP5 PUSH1 0x24 SWAP6 DUP7 SWAP4 DUP12 DUP6 MSTORE MSTORE DUP1 PUSH1 0x64 SWAP3 DUP4 CALLDATACOPY ADD PUSH0 DUP12 GAS STATICCALL SWAP2 MLOAD EQ AND ISZERO PUSH2 0x40A JUMPI POP JUMPDEST DUP5 PUSH0 MSTORE PUSH0 JUMPDEST DUP5 DUP2 SUB PUSH2 0x6AC JUMPI POP SWAP1 DUP4 SWAP2 DUP7 PUSH32 0xC45E3A0DD412BCAD8D62398D74D66B1C8449F38BEB10DA275E4DA0C6D3A811A4 SWAP7 SWAP8 PUSH0 MSTORE MSTORE DUP3 CALLDATACOPY ADD PUSH0 LOG2 STOP JUMPDEST DUP1 DUP8 SWAP2 DUP5 ADD CALLDATALOAD DUP1 DUP4 MSTORE PUSH1 0x1 PUSH1 0x3F PUSH0 KECCAK256 SWAP2 PUSH1 0xFF AND SHL DUP2 SLOAD OR SWAP1 SSTORE ADD PUSH2 0x673 JUMP JUMPDEST DUP6 RETURNDATASIZE MSTORE DUP7 DUP4 DUP13 CALLDATACOPY DUP1 MLOAD RETURNDATASIZE BYTE DUP3 MSTORE PUSH1 0x1 SWAP1 PUSH0 DUP3 GAS STATICCALL MLOAD DUP12 XOR RETURNDATASIZE ISZERO OR ISZERO PUSH2 0x6F1 JUMPI DUP3 PUSH0 PUSH2 0x63E JUMP JUMPDEST POP POP POP POP POP POP PUSH2 0x66E JUMP JUMPDEST SWAP1 SWAP2 POP DUP6 RETURNDATASIZE MSTORE PUSH1 0x1 PUSH1 0x1 PUSH1 0xFF SHL SUB DUP6 DUP5 ADD CALLDATALOAD PUSH1 0x1B DUP2 PUSH1 0xFF SHR ADD DUP8 MSTORE DUP5 CALLDATALOAD DUP14 MSTORE AND SWAP1 MSTORE DUP4 PUSH1 0x1 DUP3 PUSH0 DUP3 GAS STATICCALL MLOAD DUP13 XOR RETURNDATASIZE ISZERO OR ISZERO PUSH2 0x739 JUMPI DUP4 SWAP1 PUSH0 PUSH2 0x634 JUMP JUMPDEST POP POP POP POP POP POP POP PUSH2 0x66E JUMP JUMPDEST PUSH1 0xC0 CALLDATASIZE PUSH1 0x3 NOT ADD SLT PUSH2 0x122 JUMPI PUSH8 0xFFFFFFFFFFFFFFFF PUSH1 0x4 CALLDATALOAD DUP2 DUP2 GT PUSH2 0x122 JUMPI PUSH2 0x772 SWAP1 CALLDATASIZE SWAP1 PUSH1 0x4 ADD PUSH2 0x16C JUMP JUMPDEST SWAP1 SWAP2 PUSH1 0x24 CALLDATALOAD DUP2 DUP2 GT PUSH2 0x122 JUMPI PUSH2 0x78C SWAP1 CALLDATASIZE SWAP1 PUSH1 0x4 ADD PUSH2 0x16C JUMP JUMPDEST PUSH1 0x44 SWAP5 SWAP2 SWAP5 CALLDATALOAD DUP4 DUP2 GT PUSH2 0x122 JUMPI PUSH2 0x7A7 SWAP1 CALLDATASIZE SWAP1 PUSH1 0x4 ADD PUSH2 0x16C JUMP JUMPDEST SWAP2 PUSH1 0x84 CALLDATALOAD SWAP5 PUSH20 0xFFFFFFFFFFFFFFFFFFFFFFFFFFFFFFFFFFFFFFFF DUP7 AND DUP7 SUB PUSH2 0x122 JUMPI PUSH1 0xA4 CALLDATALOAD SWAP1 DUP2 GT PUSH2 0x122 JUMPI PUSH2 0x7E1 SWAP1 CALLDATASIZE SWAP1 PUSH1 0x4 ADD PUSH2 0x25B JUMP JUMPDEST SWAP8 SWAP1 SWAP7 PUSH1 0x64 CALLDATALOAD SWAP6 PUSH2 0x83E JUMP JUMPDEST CALLVALUE PUSH2 0x122 JUMPI PUSH0 CALLDATASIZE PUSH1 0x3 NOT ADD SLT PUSH2 0x122 JUMPI ADDRESS CALLER ADD PUSH1 0x1 DUP2 SLOAD PUSH0 NOT NUMBER ADD BLOCKHASH PUSH1 0xE0 SHR ADD ADD DUP1 SWAP2 SSTORE PUSH0 MSTORE CALLER PUSH32 0x997A42216DF16C8B9E7CAF2FC71C59DBA956F1F2B12320F87A80A5879464217D PUSH1 0x20 PUSH0 LOG2 PUSH1 0x20 PUSH0 RETURN JUMPDEST SWAP8 SWAP6 SWAP2 SWAP5 SWAP7 SWAP3 SWAP1 SWAP7 DUP2 EQ DUP2 DUP9 EQ AND ISZERO PUSH2 0xB0E JUMPI RETURNDATASIZE SLOAD PUSH1 0x1 AND ISZERO PUSH2 0xB01 JUMPI PUSH1 0x5 SHL SWAP2 DUP3 DUP5 RETURNDATASIZE CALLDATACOPY DUP3 RETURNDATASIZE KECCAK256 SWAP1 RETURNDATASIZE JUMPDEST DUP5 DUP2 SUB PUSH2 0xAE5 JUMPI POP DUP4 RETURNDATASIZE KECCAK256 SWAP2 DUP5 DUP11 RETURNDATASIZE CALLDATACOPY DUP5 RETURNDATASIZE KECCAK256 SWAP11 PUSH32 0xFB989FD34C8AF81A76F18167F528FC7315F92CACC19A0E63215ABD54633F8A28 RETURNDATASIZE MSTORE PUSH1 0x20 SWAP9 DUP4 DUP11 MSTORE PUSH1 0x40 SWAP13 DUP14 MSTORE PUSH1 0x60 SWAP5 DUP6 MSTORE PUSH1 0x80 SWAP3 PUSH1 0x80 MSTORE DUP6 PUSH1 0xA0 MSTORE ADDRESS DUP5 ADD SLOAD PUSH1 0xC0 MSTORE PUSH1 0xE0 RETURNDATASIZE KECCAK256 DUP14 MSTORE PUSH32 0x8B73C3C69BB8FE3D512ECC4CF759CC79239F7B179B0FFACAA9A75D522B39400F DUP6 MSTORE PUSH32 0x301013E8A31863902646DC218ECD889C37491C2967A8104D5FF1CF42AF0F9EA4 PUSH1 0x80 MSTORE PUSH32 0xC89EFDAA54C0F20C7ADF612882DF0950F5A951637E0307CDCB4C672F298B8BC6 PUSH1 0xA0 MSTORE CHAINID PUSH1 0xC0 MSTORE ADDRESS PUSH1 0xE0 MSTORE PUSH1 0xA0 DUP6 KECCAK256 DUP11 MSTORE PUSH2 0x1901 RETURNDATASIZE MSTORE DUP10 DUP14 PUSH1 0x42 PUSH1 0x1E KECCAK256 SWAP5 DUP2 DUP6 EQ PUSH2 0xAA9 JUMPI JUMPDEST DUP5 DUP5 PUSH1 0x41 DUP3 EQ PUSH2 0xA7B JUMPI JUMPDEST POP POP POP PUSH4 0xB135D3F PUSH1 0xE1 SHL SWAP3 DUP4 PUSH0 MSTORE PUSH1 0x4 SWAP6 DUP7 MSTORE PUSH1 0x24 SWAP5 DUP6 SWAP3 DUP4 MSTORE DUP1 PUSH1 0x44 MSTORE DUP1 PUSH1 0x64 SWAP3 DUP4 CALLDATACOPY ADD PUSH0 DUP8 GAS STATICCALL SWAP2 MLOAD EQ AND ISZERO PUSH2 0x40A JUMPI POP JUMPDEST DUP1 DUP8 MSTORE DUP3 DUP11 MSTORE PUSH1 0x3F SWAP3 PUSH1 0x3F DUP9 KECCAK256 SWAP1 PUSH1 0x1 DUP3 SLOAD SWAP2 PUSH1 0xFF AND SHL SWAP1 DUP1 DUP3 AND PUSH2 0xA6E JUMPI OR SWAP1 SSTORE DUP7 PUSH0 MSTORE PUSH1 0x1 DUP8 MSTORE DUP1 PUSH32 0xC45E3A0DD412BCAD8D62398D74D66B1C8449F38BEB10DA275E4DA0C6D3A811A4 DUP4 PUSH0 LOG2 DUP4 ISZERO PUSH2 0xA67 JUMPI DUP2 SWAP9 SWAP6 SWAP9 SHL PUSH0 SSTORE DUP9 SWAP3 DUP1 DUP10 DUP12 CALLDATACOPY DUP1 DUP11 ADD SWAP6 JUMPDEST DUP11 PUSH0 DUP1 DUP11 DUP14 DUP10 MLOAD ADD SWAP4 DUP7 ADD SWAP4 DUP1 CALLDATALOAD SWAP2 DUP3 SWAP2 ADD DUP6 CALLDATACOPY DUP4 PUSH1 0x3F NOT DUP1 DUP12 DUP14 ADD ADD CALLDATALOAD SWAP1 DUP12 DUP9 ADD ADD CALLDATALOAD GAS CALL ISZERO PUSH2 0xA5F JUMPI DUP3 DUP10 SWAP2 DUP14 SWAP5 DUP9 MSTORE RETURNDATASIZE SWAP1 MSTORE RETURNDATASIZE PUSH0 DUP7 DUP4 ADD RETURNDATACOPY DUP6 PUSH1 0x1F NOT SWAP2 RETURNDATASIZE ADD ADD AND SWAP6 ADD SWAP10 DUP8 DUP12 EQ PUSH2 0xA52 JUMPI SWAP10 SWAP5 SWAP2 POP PUSH2 0x9FB JUMP JUMPDEST DUP3 DUP7 DUP12 DUP12 MSTORE PUSH1 0x1 PUSH0 SSTORE ADD PUSH0 RETURN JUMPDEST RETURNDATASIZE PUSH0 DUP1 RETURNDATACOPY RETURNDATASIZE PUSH0 REVERT JUMPDEST DUP10 DUP5 DUP9 MSTORE PUSH0 RETURN JUMPDEST PUSH4 0x8BAA579F PUSH0 MSTORE PUSH1 0x4 PUSH1 0x1C REVERT JUMPDEST PUSH1 0x1 SWAP4 DUP9 RETURNDATASIZE MSTORE CALLDATACOPY DUP1 MLOAD RETURNDATASIZE BYTE DUP4 MSTORE PUSH0 DUP3 GAS STATICCALL MLOAD DUP5 XOR RETURNDATASIZE ISZERO OR ISZERO PUSH2 0xAA1 JUMPI DUP10 DUP14 PUSH0 DUP5 DUP5 PUSH2 0x960 JUMP JUMPDEST POP POP POP PUSH2 0x995 JUMP JUMPDEST DUP6 RETURNDATASIZE MSTORE PUSH1 0x1 PUSH1 0x1 PUSH1 0xFF SHL SUB DUP4 DUP6 ADD CALLDATALOAD PUSH1 0x1B DUP2 PUSH1 0xFF SHR ADD DUP6 MSTORE DUP6 CALLDATALOAD DUP5 MSTORE AND DUP9 MSTORE DUP3 PUSH1 0x1 DUP3 PUSH0 DUP3 GAS STATICCALL MLOAD DUP8 XOR RETURNDATASIZE ISZERO OR PUSH2 0x955 JUMPI POP POP POP POP POP POP PUSH2 0x995 JUMP JUMPDEST DUP1 PUSH1 0x20 DUP1 SWAP3 DUP10 ADD CALLDATALOAD DUP10 ADD DUP1 CALLDATALOAD SWAP2 DUP3 SWAP2 ADD DUP4 CALLDATACOPY DUP2 KECCAK256 DUP2 MSTORE ADD PUSH2 0x869 JUMP JUMPDEST PUSH4 0xAB143C06 RETURNDATASIZE MSTORE PUSH1 0x4 PUSH1 0x1C REVERT JUMPDEST PUSH4 0x3B800A46 RETURNDATASIZE MSTORE PUSH1 0x4 PUSH1 0x1C REVERT JUMPDEST RETURNDATASIZE SLOAD PUSH1 0xC MSTORE PUSH1 0x20 RETURNDATASIZE RETURN INVALID LOG2 PUSH5 0x6970667358 0x22 SLT KECCAK256 DUP7 DUP6 0xF PUSH18 0xD04FD3F8AC75147A218ED3387C698CB3539F 0xA7 SWAP5 0xB4 PUSH28 0xFA8B8EBADAF064736F6C634300081900330000000000000000000000 "},"methodIdentifiers":{"aggregateWithSigner(address[],bytes[],uint256[],uint256,address,bytes)":"ad3aacb8","eip712Domain()":"84b0196e","incrementNonceSalt()":"f0c60f1a","incrementNonceSaltForSigner(address,bytes)":"56b1a87f","invalidateNonces(uint256[])":"2eb48a80","invalidateNoncesForSigner(uint256[],address,bytes)":"87ec11ca","nonceSaltOf(address)":"3aeb2206","noncesInvalidated(address,uint256[])":"17447cf1"}}}}}