{"contracts/test/ERC20.sol":{"ERC20":{"abi":[{"inputs":[{"internalType":"bool","name":"shouldBurn","type":"bool"}],"stateMutability":"payable","type":"constructor"},{"inputs":[],"name":"AllowanceOverflow","type":"error"},{"inputs":[],"name":"AllowanceUnderflow","type":"error"},{"inputs":[],"name":"InsufficientAllowance","type":"error"},{"inputs":[],"name":"InsufficientBalance","type":"error"},{"inputs":[],"name":"InvalidPermit","type":"error"},{"inputs":[],"name":"PermitExpired","type":"error"},{"inputs":[],"name":"TotalSupplyOverflow","type":"error"},{"anonymous":false,"inputs":[{"indexed":true,"internalType":"address","name":"owner","type":"address"},{"indexed":true,"internalType":"address","name":"spender","type":"address"},{"indexed":false,"internalType":"uint256","name":"amount","type":"uint256"}],"name":"Approval","type":"event"},{"anonymous":false,"inputs":[{"indexed":true,"internalType":"address","name":"from","type":"address"},{"indexed":true,"internalType":"address","name":"to","type":"address"},{"indexed":false,"internalType":"uint256","name":"amount","type":"uint256"}],"name":"Transfer","type":"event"},{"inputs":[],"name":"DOMAIN_SEPARATOR","outputs":[{"internalType":"bytes32","name":"result","type":"bytes32"}],"stateMutability":"view","type":"function"},{"inputs":[{"internalType":"address","name":"owner","type":"address"},{"internalType":"address","name":"spender","type":"address"}],"name":"allowance","outputs":[{"internalType":"uint256","name":"result","type":"uint256"}],"stateMutability":"view","type":"function"},{"inputs":[{"internalType":"address","name":"spender","type":"address"},{"internalType":"uint256","name":"amount","type":"uint256"}],"name":"approve","outputs":[{"internalType":"bool","name":"","type":"bool"}],"stateMutability":"nonpayable","type":"function"},{"inputs":[{"internalType":"address","name":"owner","type":"address"}],"name":"balanceOf","outputs":[{"internalType":"uint256","name":"result","type":"uint256"}],"stateMutability":"view","type":"function"},{"inputs":[],"name":"decimals","outputs":[{"internalType":"uint8","name":"","type":"uint8"}],"stateMutability":"view","type":"function"},{"inputs":[{"internalType":"address","name":"recipient","type":"address"},{"internalType":"uint256","name":"amount","type":"uint256"}],"name":"mint","outputs":[],"stateMutability":"nonpayable","type":"function"},{"inputs":[],"name":"name","outputs":[{"internalType":"string","name":"","type":"string"}],"stateMutability":"pure","type":"function"},{"inputs":[{"internalType":"address","name":"owner","type":"address"}],"name":"nonces","outputs":[{"internalType":"uint256","name":"result","type":"uint256"}],"stateMutability":"view","type":"function"},{"inputs":[{"internalType":"address","name":"owner","type":"address"},{"internalType":"address","name":"spender","type":"address"},{"internalType":"uint256","name":"value","type":"uint256"},{"internalType":"uint256","name":"deadline","type":"uint256"},{"internalType":"uint8","name":"v","type":"uint8"},{"internalType":"bytes32","name":"r","type":"bytes32"},{"internalType":"bytes32","name":"s","type":"bytes32"}],"name":"permit","outputs":[],"stateMutability":"nonpayable","type":"function"},{"inputs":[],"name":"symbol","outputs":[{"internalType":"string","name":"","type":"string"}],"stateMutability":"pure","type":"function"},{"inputs":[],"name":"taxRatio","outputs":[{"internalType":"uint256","name":"","type":"uint256"}],"stateMutability":"pure","type":"function"},{"inputs":[],"name":"totalSupply","outputs":[{"internalType":"uint256","name":"result","type":"uint256"}],"stateMutability":"view","type":"function"},{"inputs":[{"internalType":"address","name":"to","type":"address"},{"internalType":"uint256","name":"amount","type":"uint256"}],"name":"transfer","outputs":[{"internalType":"bool","name":"","type":"bool"}],"stateMutability":"nonpayable","type":"function"},{"inputs":[{"internalType":"address","name":"from","type":"address"},{"internalType":"address","name":"to","type":"address"},{"internalType":"uint256","name":"amount","type":"uint256"}],"name":"transferFrom","outputs":[{"internalType":"bool","name":"","type":"bool"}],"stateMutability":"nonpayable","type":"function"}],"evm":{"bytecode":{"linkReferences":{},"object":"60a0601f6108d738819003918201601f19168301916001600160401b03831184841017605f57808492602094604052833981010312605b57518015158103605b57608052604051610863908161007482396080518161070c0152f35b5f80fd5b634e487b7160e01b5f52604160045260245ffdfe604060808152600480361015610013575f80fd5b5f3560e01c90816306fdde031461065c578163095ea7b3146105f457816318160ddd146105ce57816323b872dd146104f4578163313ce567146104d95781633644e5151461045257816340c10f19146103bf57816370a082311461038c578163779156391461036a5781637ecebe001461033757816395d89b4114610332578163a9059cbb1461029b578163d505accf146100f7575063dd62ed3e146100b7575f80fd5b346100f357806003193601126100f3576020906100d26106a4565b6100da6106ba565b8352637f5e9f20600c525f526034600c20549051908152f35b5f80fd5b82346100f35760e03660031901126100f3576101116106a4565b6101196106ba565b60443590606435916084359460ff861686036100f3576101376106d0565b93845160208096012081421161028f5782519760c06001600160a01b03809916988997169965383775081901600e52875f5288600c2094855480957f8b73c3c69bb8fe3d512ecc4cf759cc79239f7b179b0ffacaa9a75d522b39400f84528b84019081528d8985017fc89efdaa54c0f20c7adf612882df0950f5a951637e0307cdcb4c672f298b8bc68152606086019c8d469052608087019330855260a08820602e527f6e71edae12b1b97f4d1f60370fef10105fa2faae0126114a169c64845d6126c988525252898b525260a082015220604e526042602c205f5260ff16865260a435835260c435606052858060805f60015afa90873d5103610283577f8c5be1e5ebec7d5bd14f71427d1e84f3dd0314c0f7b2291e5b200ac8c7c3b9259798995001905586777f5e9f2000000000000000000000000000000000000000001790526034602c2055a3005b8963ddafbaef5f52601cfd5b88631a15a3cc5f52601cfd5b82346100f357806003193601126100f3576102b46106a4565b906024356387a211a2600c52335f5260209283600c20805495868411610327575082610320949596039055805f5284600c20828154019055818552600c5160601c337fddf252ad1be2c89b69c2b068fc378daa952ba7f163c4a11628f55a4df523b3ef8780a333610707565b5160018152f35b63f4d678b85f52601cfd5b61065c565b82346100f35760203660031901126100f3576020906103546106a4565b6338377508600c525f5281600c20549051908152f35b82346100f3575f3660031901126100f35760209051670dbd2fc137a300008152f35b82346100f35760203660031901126100f3576020906103a96106a4565b6387a211a2600c525f5281600c20549051908152f35b82346100f3573660031901126100f3576103d76106a4565b602435906805345cdf77eb68f44c805490838201918210610446576104449450556387a211a2600c52805f526020600c2082815401905581602052600c5160601c5f7fddf252ad1be2c89b69c2b068fc378daa952ba7f163c4a11628f55a4df523b3ef602080a35f610707565b005b8463e5cfe9575f52601cfd5b82346100f3575f3660031901126100f35760209060a06104706106d0565b8381519101208251907f8b73c3c69bb8fe3d512ecc4cf759cc79239f7b179b0ffacaa9a75d522b39400f8252848201527fc89efdaa54c0f20c7adf612882df0950f5a951637e0307cdcb4c672f298b8bc683820152466060820152306080820152209051908152f35b82346100f3575f3660031901126100f3576020905160128152f35b82346100f35760603660031901126100f35761050e6106a4565b906105176106ba565b604435908360601b93602094338652600c90637f5e9f20811782526034822090815491600183016105ab575b506387a211a217825250858120805497888611610327575084610320969798039055825f528681208481540190558387525160601c6001600160a01b0382167fddf252ad1be2c89b69c2b068fc378daa952ba7f163c4a11628f55a4df523b3ef8880a3610707565b8287116105c257866387a211a29303905589610543565b896313be252b5f52601cfd5b82346100f3575f3660031901126100f3576020906805345cdf77eb68f44c549051908152f35b82346100f357806003193601126100f3576020906106106106a4565b602435908352637f5e9f20600c52335f52806034600c20555f52602c5160601c337f8c5be1e5ebec7d5bd14f71427d1e84f3dd0314c0f7b2291e5b200ac8c7c3b925845fa35160018152f35b346100f3575f3660031901126100f357602060406106786106d0565b815192839181835280519182918282860152018484015e5f828201840152601f01601f19168101030190f35b600435906001600160a01b03821682036100f357565b602435906001600160a01b03821682036100f357565b604051906020820182811067ffffffffffffffff8211176106f3576040525f8252565b634e487b7160e01b5f52604160045260245ffd5b9190917f0000000000000000000000000000000000000000000000000000000000000000908161079f575b508061078d575b610741575050565b670dbd2fc137a3000080820290828204148215171561077957670de0b6b3a76400009004810390811161077957610777916107b2565b565b634e487b7160e01b5f52601160045260245ffd5b506001600160a01b0382161515610739565b6001600160a01b0391501615155f610732565b906387a211a2600c52815f526020600c20918254908183116108205761077793835f930390556805345cdf77eb68f44c838154039055828252816001600160a01b0382167fddf252ad1be2c89b69c2b068fc378daa952ba7f163c4a11628f55a4df523b3ef602083a3610707565b63f4d678b85f526004601cfdfea2646970667358221220d0ada222b874a0c8ea8a407416275eaa0d9e3b4ff9297698bb02b7ff10854da864736f6c63430008190033","opcodes":"PUSH1 0xA0 PUSH1 0x1F PUSH2 0x8D7 CODESIZE DUP2 SWAP1 SUB SWAP2 DUP3 ADD PUSH1 0x1F NOT AND DUP4 ADD SWAP2 PUSH1 0x1 PUSH1 0x1 PUSH1 0x40 SHL SUB DUP4 GT DUP5 DUP5 LT OR PUSH1 0x5F JUMPI DUP1 DUP5 SWAP3 PUSH1 0x20 SWAP5 PUSH1 0x40 MSTORE DUP4 CODECOPY DUP2 ADD SUB SLT PUSH1 0x5B JUMPI MLOAD DUP1 ISZERO ISZERO DUP2 SUB PUSH1 0x5B JUMPI PUSH1 0x80 MSTORE PUSH1 0x40 MLOAD PUSH2 0x863 SWAP1 DUP2 PUSH2 0x74 DUP3 CODECOPY PUSH1 0x80 MLOAD DUP2 PUSH2 0x70C ADD MSTORE RETURN JUMPDEST PUSH0 DUP1 REVERT JUMPDEST PUSH4 0x4E487B71 PUSH1 0xE0 SHL PUSH0 MSTORE PUSH1 0x41 PUSH1 0x4 MSTORE PUSH1 0x24 PUSH0 REVERT INVALID PUSH1 0x40 PUSH1 0x80 DUP2 MSTORE PUSH1 0x4 DUP1 CALLDATASIZE LT ISZERO PUSH2 0x13 JUMPI PUSH0 DUP1 REVERT JUMPDEST PUSH0 CALLDATALOAD PUSH1 0xE0 SHR SWAP1 DUP2 PUSH4 0x6FDDE03 EQ PUSH2 0x65C JUMPI DUP2 PUSH4 0x95EA7B3 EQ PUSH2 0x5F4 JUMPI DUP2 PUSH4 0x18160DDD EQ PUSH2 0x5CE JUMPI DUP2 PUSH4 0x23B872DD EQ PUSH2 0x4F4 JUMPI DUP2 PUSH4 0x313CE567 EQ PUSH2 0x4D9 JUMPI DUP2 PUSH4 0x3644E515 EQ PUSH2 0x452 JUMPI DUP2 PUSH4 0x40C10F19 EQ PUSH2 0x3BF JUMPI DUP2 PUSH4 0x70A08231 EQ PUSH2 0x38C JUMPI DUP2 PUSH4 0x77915639 EQ PUSH2 0x36A JUMPI DUP2 PUSH4 0x7ECEBE00 EQ PUSH2 0x337 JUMPI DUP2 PUSH4 0x95D89B41 EQ PUSH2 0x332 JUMPI DUP2 PUSH4 0xA9059CBB EQ PUSH2 0x29B JUMPI DUP2 PUSH4 0xD505ACCF EQ PUSH2 0xF7 JUMPI POP PUSH4 0xDD62ED3E EQ PUSH2 0xB7 JUMPI PUSH0 DUP1 REVERT JUMPDEST CALLVALUE PUSH2 0xF3 JUMPI DUP1 PUSH1 0x3 NOT CALLDATASIZE ADD SLT PUSH2 0xF3 JUMPI PUSH1 0x20 SWAP1 PUSH2 0xD2 PUSH2 0x6A4 JUMP JUMPDEST PUSH2 0xDA PUSH2 0x6BA JUMP JUMPDEST DUP4 MSTORE PUSH4 0x7F5E9F20 PUSH1 0xC MSTORE PUSH0 MSTORE PUSH1 0x34 PUSH1 0xC KECCAK256 SLOAD SWAP1 MLOAD SWAP1 DUP2 MSTORE RETURN JUMPDEST PUSH0 DUP1 REVERT JUMPDEST DUP3 CALLVALUE PUSH2 0xF3 JUMPI PUSH1 0xE0 CALLDATASIZE PUSH1 0x3 NOT ADD SLT PUSH2 0xF3 JUMPI PUSH2 0x111 PUSH2 0x6A4 JUMP JUMPDEST PUSH2 0x119 PUSH2 0x6BA JUMP JUMPDEST PUSH1 0x44 CALLDATALOAD SWAP1 PUSH1 0x64 CALLDATALOAD SWAP2 PUSH1 0x84 CALLDATALOAD SWAP5 PUSH1 0xFF DUP7 AND DUP7 SUB PUSH2 0xF3 JUMPI PUSH2 0x137 PUSH2 0x6D0 JUMP JUMPDEST SWAP4 DUP5 MLOAD PUSH1 0x20 DUP1 SWAP7 ADD KECCAK256 DUP2 TIMESTAMP GT PUSH2 0x28F JUMPI DUP3 MLOAD SWAP8 PUSH1 0xC0 PUSH1 0x1 PUSH1 0x1 PUSH1 0xA0 SHL SUB DUP1 SWAP10 AND SWAP9 DUP10 SWAP8 AND SWAP10 PUSH6 0x383775081901 PUSH1 0xE MSTORE DUP8 PUSH0 MSTORE DUP9 PUSH1 0xC KECCAK256 SWAP5 DUP6 SLOAD DUP1 SWAP6 PUSH32 0x8B73C3C69BB8FE3D512ECC4CF759CC79239F7B179B0FFACAA9A75D522B39400F DUP5 MSTORE DUP12 DUP5 ADD SWAP1 DUP2 MSTORE DUP14 DUP10 DUP6 ADD PUSH32 0xC89EFDAA54C0F20C7ADF612882DF0950F5A951637E0307CDCB4C672F298B8BC6 DUP2 MSTORE PUSH1 0x60 DUP7 ADD SWAP13 DUP14 CHAINID SWAP1 MSTORE PUSH1 0x80 DUP8 ADD SWAP4 ADDRESS DUP6 MSTORE PUSH1 0xA0 DUP9 KECCAK256 PUSH1 0x2E MSTORE PUSH32 0x6E71EDAE12B1B97F4D1F60370FEF10105FA2FAAE0126114A169C64845D6126C9 DUP9 MSTORE MSTORE MSTORE DUP10 DUP12 MSTORE MSTORE PUSH1 0xA0 DUP3 ADD MSTORE KECCAK256 PUSH1 0x4E MSTORE PUSH1 0x42 PUSH1 0x2C KECCAK256 PUSH0 MSTORE PUSH1 0xFF AND DUP7 MSTORE PUSH1 0xA4 CALLDATALOAD DUP4 MSTORE PUSH1 0xC4 CALLDATALOAD PUSH1 0x60 MSTORE DUP6 DUP1 PUSH1 0x80 PUSH0 PUSH1 0x1 GAS STATICCALL SWAP1 DUP8 RETURNDATASIZE MLOAD SUB PUSH2 0x283 JUMPI PUSH32 0x8C5BE1E5EBEC7D5BD14F71427D1E84F3DD0314C0F7B2291E5B200AC8C7C3B925 SWAP8 SWAP9 SWAP10 POP ADD SWAP1 SSTORE DUP7 PUSH24 0x7F5E9F200000000000000000000000000000000000000000 OR SWAP1 MSTORE PUSH1 0x34 PUSH1 0x2C KECCAK256 SSTORE LOG3 STOP JUMPDEST DUP10 PUSH4 0xDDAFBAEF PUSH0 MSTORE PUSH1 0x1C REVERT JUMPDEST DUP9 PUSH4 0x1A15A3CC PUSH0 MSTORE PUSH1 0x1C REVERT JUMPDEST DUP3 CALLVALUE PUSH2 0xF3 JUMPI DUP1 PUSH1 0x3 NOT CALLDATASIZE ADD SLT PUSH2 0xF3 JUMPI PUSH2 0x2B4 PUSH2 0x6A4 JUMP JUMPDEST SWAP1 PUSH1 0x24 CALLDATALOAD PUSH4 0x87A211A2 PUSH1 0xC MSTORE CALLER PUSH0 MSTORE PUSH1 0x20 SWAP3 DUP4 PUSH1 0xC KECCAK256 DUP1 SLOAD SWAP6 DUP7 DUP5 GT PUSH2 0x327 JUMPI POP DUP3 PUSH2 0x320 SWAP5 SWAP6 SWAP7 SUB SWAP1 SSTORE DUP1 PUSH0 MSTORE DUP5 PUSH1 0xC KECCAK256 DUP3 DUP2 SLOAD ADD SWAP1 SSTORE DUP2 DUP6 MSTORE PUSH1 0xC MLOAD PUSH1 0x60 SHR CALLER PUSH32 0xDDF252AD1BE2C89B69C2B068FC378DAA952BA7F163C4A11628F55A4DF523B3EF DUP8 DUP1 LOG3 CALLER PUSH2 0x707 JUMP JUMPDEST MLOAD PUSH1 0x1 DUP2 MSTORE RETURN JUMPDEST PUSH4 0xF4D678B8 PUSH0 MSTORE PUSH1 0x1C REVERT JUMPDEST PUSH2 0x65C JUMP JUMPDEST DUP3 CALLVALUE PUSH2 0xF3 JUMPI PUSH1 0x20 CALLDATASIZE PUSH1 0x3 NOT ADD SLT PUSH2 0xF3 JUMPI PUSH1 0x20 SWAP1 PUSH2 0x354 PUSH2 0x6A4 JUMP JUMPDEST PUSH4 0x38377508 PUSH1 0xC MSTORE PUSH0 MSTORE DUP2 PUSH1 0xC KECCAK256 SLOAD SWAP1 MLOAD SWAP1 DUP2 MSTORE RETURN JUMPDEST DUP3 CALLVALUE PUSH2 0xF3 JUMPI PUSH0 CALLDATASIZE PUSH1 0x3 NOT ADD SLT PUSH2 0xF3 JUMPI PUSH1 0x20 SWAP1 MLOAD PUSH8 0xDBD2FC137A30000 DUP2 MSTORE RETURN JUMPDEST DUP3 CALLVALUE PUSH2 0xF3 JUMPI PUSH1 0x20 CALLDATASIZE PUSH1 0x3 NOT ADD SLT PUSH2 0xF3 JUMPI PUSH1 0x20 SWAP1 PUSH2 0x3A9 PUSH2 0x6A4 JUMP JUMPDEST PUSH4 0x87A211A2 PUSH1 0xC MSTORE PUSH0 MSTORE DUP2 PUSH1 0xC KECCAK256 SLOAD SWAP1 MLOAD SWAP1 DUP2 MSTORE RETURN JUMPDEST DUP3 CALLVALUE PUSH2 0xF3 JUMPI CALLDATASIZE PUSH1 0x3 NOT ADD SLT PUSH2 0xF3 JUMPI PUSH2 0x3D7 PUSH2 0x6A4 JUMP JUMPDEST PUSH1 0x24 CALLDATALOAD SWAP1 PUSH9 0x5345CDF77EB68F44C DUP1 SLOAD SWAP1 DUP4 DUP3 ADD SWAP2 DUP3 LT PUSH2 0x446 JUMPI PUSH2 0x444 SWAP5 POP SSTORE PUSH4 0x87A211A2 PUSH1 0xC MSTORE DUP1 PUSH0 MSTORE PUSH1 0x20 PUSH1 0xC KECCAK256 DUP3 DUP2 SLOAD ADD SWAP1 SSTORE DUP2 PUSH1 0x20 MSTORE PUSH1 0xC MLOAD PUSH1 0x60 SHR PUSH0 PUSH32 0xDDF252AD1BE2C89B69C2B068FC378DAA952BA7F163C4A11628F55A4DF523B3EF PUSH1 0x20 DUP1 LOG3 PUSH0 PUSH2 0x707 JUMP JUMPDEST STOP JUMPDEST DUP5 PUSH4 0xE5CFE957 PUSH0 MSTORE PUSH1 0x1C REVERT JUMPDEST DUP3 CALLVALUE PUSH2 0xF3 JUMPI PUSH0 CALLDATASIZE PUSH1 0x3 NOT ADD SLT PUSH2 0xF3 JUMPI PUSH1 0x20 SWAP1 PUSH1 0xA0 PUSH2 0x470 PUSH2 0x6D0 JUMP JUMPDEST DUP4 DUP2 MLOAD SWAP2 ADD KECCAK256 DUP3 MLOAD SWAP1 PUSH32 0x8B73C3C69BB8FE3D512ECC4CF759CC79239F7B179B0FFACAA9A75D522B39400F DUP3 MSTORE DUP5 DUP3 ADD MSTORE PUSH32 0xC89EFDAA54C0F20C7ADF612882DF0950F5A951637E0307CDCB4C672F298B8BC6 DUP4 DUP3 ADD MSTORE CHAINID PUSH1 0x60 DUP3 ADD MSTORE ADDRESS PUSH1 0x80 DUP3 ADD MSTORE KECCAK256 SWAP1 MLOAD SWAP1 DUP2 MSTORE RETURN JUMPDEST DUP3 CALLVALUE PUSH2 0xF3 JUMPI PUSH0 CALLDATASIZE PUSH1 0x3 NOT ADD SLT PUSH2 0xF3 JUMPI PUSH1 0x20 SWAP1 MLOAD PUSH1 0x12 DUP2 MSTORE RETURN JUMPDEST DUP3 CALLVALUE PUSH2 0xF3 JUMPI PUSH1 0x60 CALLDATASIZE PUSH1 0x3 NOT ADD SLT PUSH2 0xF3 JUMPI PUSH2 0x50E PUSH2 0x6A4 JUMP JUMPDEST SWAP1 PUSH2 0x517 PUSH2 0x6BA JUMP JUMPDEST PUSH1 0x44 CALLDATALOAD SWAP1 DUP4 PUSH1 0x60 SHL SWAP4 PUSH1 0x20 SWAP5 CALLER DUP7 MSTORE PUSH1 0xC SWAP1 PUSH4 0x7F5E9F20 DUP2 OR DUP3 MSTORE PUSH1 0x34 DUP3 KECCAK256 SWAP1 DUP2 SLOAD SWAP2 PUSH1 0x1 DUP4 ADD PUSH2 0x5AB JUMPI JUMPDEST POP PUSH4 0x87A211A2 OR DUP3 MSTORE POP DUP6 DUP2 KECCAK256 DUP1 SLOAD SWAP8 DUP9 DUP7 GT PUSH2 0x327 JUMPI POP DUP5 PUSH2 0x320 SWAP7 SWAP8 SWAP9 SUB SWAP1 SSTORE DUP3 PUSH0 MSTORE DUP7 DUP2 KECCAK256 DUP5 DUP2 SLOAD ADD SWAP1 SSTORE DUP4 DUP8 MSTORE MLOAD PUSH1 0x60 SHR PUSH1 0x1 PUSH1 0x1 PUSH1 0xA0 SHL SUB DUP3 AND PUSH32 0xDDF252AD1BE2C89B69C2B068FC378DAA952BA7F163C4A11628F55A4DF523B3EF DUP9 DUP1 LOG3 PUSH2 0x707 JUMP JUMPDEST DUP3 DUP8 GT PUSH2 0x5C2 JUMPI DUP7 PUSH4 0x87A211A2 SWAP4 SUB SWAP1 SSTORE DUP10 PUSH2 0x543 JUMP JUMPDEST DUP10 PUSH4 0x13BE252B PUSH0 MSTORE PUSH1 0x1C REVERT JUMPDEST DUP3 CALLVALUE PUSH2 0xF3 JUMPI PUSH0 CALLDATASIZE PUSH1 0x3 NOT ADD SLT PUSH2 0xF3 JUMPI PUSH1 0x20 SWAP1 PUSH9 0x5345CDF77EB68F44C SLOAD SWAP1 MLOAD SWAP1 DUP2 MSTORE RETURN JUMPDEST DUP3 CALLVALUE PUSH2 0xF3 JUMPI DUP1 PUSH1 0x3 NOT CALLDATASIZE ADD SLT PUSH2 0xF3 JUMPI PUSH1 0x20 SWAP1 PUSH2 0x610 PUSH2 0x6A4 JUMP JUMPDEST PUSH1 0x24 CALLDATALOAD SWAP1 DUP4 MSTORE PUSH4 0x7F5E9F20 PUSH1 0xC MSTORE CALLER PUSH0 MSTORE DUP1 PUSH1 0x34 PUSH1 0xC KECCAK256 SSTORE PUSH0 MSTORE PUSH1 0x2C MLOAD PUSH1 0x60 SHR CALLER PUSH32 0x8C5BE1E5EBEC7D5BD14F71427D1E84F3DD0314C0F7B2291E5B200AC8C7C3B925 DUP5 PUSH0 LOG3 MLOAD PUSH1 0x1 DUP2 MSTORE RETURN JUMPDEST CALLVALUE PUSH2 0xF3 JUMPI PUSH0 CALLDATASIZE PUSH1 0x3 NOT ADD SLT PUSH2 0xF3 JUMPI PUSH1 0x20 PUSH1 0x40 PUSH2 0x678 PUSH2 0x6D0 JUMP JUMPDEST DUP2 MLOAD SWAP3 DUP4 SWAP2 DUP2 DUP4 MSTORE DUP1 MLOAD SWAP2 DUP3 SWAP2 DUP3 DUP3 DUP7 ADD MSTORE ADD DUP5 DUP5 ADD MCOPY PUSH0 DUP3 DUP3 ADD DUP5 ADD MSTORE PUSH1 0x1F ADD PUSH1 0x1F NOT AND DUP2 ADD SUB ADD SWAP1 RETURN JUMPDEST PUSH1 0x4 CALLDATALOAD SWAP1 PUSH1 0x1 PUSH1 0x1 PUSH1 0xA0 SHL SUB DUP3 AND DUP3 SUB PUSH2 0xF3 JUMPI JUMP JUMPDEST PUSH1 0x24 CALLDATALOAD SWAP1 PUSH1 0x1 PUSH1 0x1 PUSH1 0xA0 SHL SUB DUP3 AND DUP3 SUB PUSH2 0xF3 JUMPI JUMP JUMPDEST PUSH1 0x40 MLOAD SWAP1 PUSH1 0x20 DUP3 ADD DUP3 DUP2 LT PUSH8 0xFFFFFFFFFFFFFFFF DUP3 GT OR PUSH2 0x6F3 JUMPI PUSH1 0x40 MSTORE PUSH0 DUP3 MSTORE JUMP JUMPDEST PUSH4 0x4E487B71 PUSH1 0xE0 SHL PUSH0 MSTORE PUSH1 0x41 PUSH1 0x4 MSTORE PUSH1 0x24 PUSH0 REVERT JUMPDEST SWAP2 SWAP1 SWAP2 PUSH32 0x0 SWAP1 DUP2 PUSH2 0x79F JUMPI JUMPDEST POP DUP1 PUSH2 0x78D JUMPI JUMPDEST PUSH2 0x741 JUMPI POP POP JUMP JUMPDEST PUSH8 0xDBD2FC137A30000 DUP1 DUP3 MUL SWAP1 DUP3 DUP3 DIV EQ DUP3 ISZERO OR ISZERO PUSH2 0x779 JUMPI PUSH8 0xDE0B6B3A7640000 SWAP1 DIV DUP2 SUB SWAP1 DUP2 GT PUSH2 0x779 JUMPI PUSH2 0x777 SWAP2 PUSH2 0x7B2 JUMP JUMPDEST JUMP JUMPDEST PUSH4 0x4E487B71 PUSH1 0xE0 SHL PUSH0 MSTORE PUSH1 0x11 PUSH1 0x4 MSTORE PUSH1 0x24 PUSH0 REVERT JUMPDEST POP PUSH1 0x1 PUSH1 0x1 PUSH1 0xA0 SHL SUB DUP3 AND ISZERO ISZERO PUSH2 0x739 JUMP JUMPDEST PUSH1 0x1 PUSH1 0x1 PUSH1 0xA0 SHL SUB SWAP2 POP AND ISZERO ISZERO PUSH0 PUSH2 0x732 JUMP JUMPDEST SWAP1 PUSH4 0x87A211A2 PUSH1 0xC MSTORE DUP2 PUSH0 MSTORE PUSH1 0x20 PUSH1 0xC KECCAK256 SWAP2 DUP3 SLOAD SWAP1 DUP2 DUP4 GT PUSH2 0x820 JUMPI PUSH2 0x777 SWAP4 DUP4 PUSH0 SWAP4 SUB SWAP1 SSTORE PUSH9 0x5345CDF77EB68F44C DUP4 DUP2 SLOAD SUB SWAP1 SSTORE DUP3 DUP3 MSTORE DUP2 PUSH1 0x1 PUSH1 0x1 PUSH1 0xA0 SHL SUB DUP3 AND PUSH32 0xDDF252AD1BE2C89B69C2B068FC378DAA952BA7F163C4A11628F55A4DF523B3EF PUSH1 0x20 DUP4 LOG3 PUSH2 0x707 JUMP JUMPDEST PUSH4 0xF4D678B8 PUSH0 MSTORE PUSH1 0x4 PUSH1 0x1C REVERT INVALID LOG2 PUSH5 0x6970667358 0x22 SLT KECCAK256 0xD0 0xAD LOG2 0x22 0xB8 PUSH21 0xA0C8EA8A407416275EAA0D9E3B4FF9297698BB02B7 SELFDESTRUCT LT DUP6 0x4D 0xA8 PUSH5 0x736F6C6343 STOP ADDMOD NOT STOP CALLER "},"methodIdentifiers":{"DOMAIN_SEPARATOR()":"3644e515","allowance(address,address)":"dd62ed3e","approve(address,uint256)":"095ea7b3","balanceOf(address)":"70a08231","decimals()":"313ce567","mint(address,uint256)":"40c10f19","name()":"06fdde03","nonces(address)":"7ecebe00","permit(address,address,uint256,uint256,uint8,bytes32,bytes32)":"d505accf","symbol()":"95d89b41","taxRatio()":"77915639","totalSupply()":"18160ddd","transfer(address,uint256)":"a9059cbb","transferFrom(address,address,uint256)":"23b872dd"}}}}}