{"multicaller/src/Multicaller.sol":{"Multicaller":{"abi":[{"inputs":[],"name":"ArrayLengthsMismatch","type":"error"},{"stateMutability":"payable","type":"fallback"},{"inputs":[{"internalType":"address[]","name":"targets","type":"address[]"},{"internalType":"bytes[]","name":"data","type":"bytes[]"},{"internalType":"uint256[]","name":"values","type":"uint256[]"},{"internalType":"address","name":"refundTo","type":"address"}],"name":"aggregate","outputs":[{"internalType":"bytes[]","name":"","type":"bytes[]"}],"stateMutability":"payable","type":"function"},{"stateMutability":"payable","type":"receive"}],"evm":{"bytecode":{"linkReferences":{},"object":"6080806040523460155761029a908161001a8239f35b5f80fdfe60806040526004361015610015575b366101dd57005b5f3560e01c63991f255f0361000e5760803660031901126100ac5767ffffffffffffffff6004358181116100ac576100519036906004016100b0565b6024929192358281116100ac5761006c9036906004016100b0565b90926044359081116100ac576100869036906004016100b0565b9390926064359573ffffffffffffffffffffffffffffffffffffffff87168703156100e1575b5f80fd5b9181601f840112156100ac5782359167ffffffffffffffff83116100ac576020808501948460051b0101116100ac57565b9295939094861486861416156101d057859260409661014f575b5050505080610110575b5060205f526020525ff35b4715610105573381186001821402185f3881804785620186a0f1610105575f526073600b5360ff6020536016600b47f01561014b575f610105565b3838fd5b91939592839060051b9283868637838501935b82518701908681015f808435806020809701853783603f19808a8c010135908a8a0101355af1156101c8578185523d90523d5f606083013e603f601f19913d010116920195888588146101b757509591610162565b9650505091505001925f80806100fb565b3d5f803e3d5ffd5b633b800a463d526004601cfd5b3d356366e0daa08160e01c146101f1573d3dfd5b193d5260043d815b80923682101561024c578135831a60018093019481156102205750815301905b90916101f9565b3d19835260020194607f9150353d1a81811115610241575b16010190610219565b838101388439610238565b5f809181305af43d5f803e15610260573d5ff35b3d5ffdfea2646970667358221220327716b645b0e3d25956b90eb57d8b1e65df75475140427355416b586118410764736f6c63430008190033","opcodes":"PUSH1 0x80 DUP1 PUSH1 0x40 MSTORE CALLVALUE PUSH1 0x15 JUMPI PUSH2 0x29A SWAP1 DUP2 PUSH2 0x1A DUP3 CODECOPY RETURN JUMPDEST PUSH0 DUP1 REVERT INVALID PUSH1 0x80 PUSH1 0x40 MSTORE PUSH1 0x4 CALLDATASIZE LT ISZERO PUSH2 0x15 JUMPI JUMPDEST CALLDATASIZE PUSH2 0x1DD JUMPI STOP JUMPDEST PUSH0 CALLDATALOAD PUSH1 0xE0 SHR PUSH4 0x991F255F SUB PUSH2 0xE JUMPI PUSH1 0x80 CALLDATASIZE PUSH1 0x3 NOT ADD SLT PUSH2 0xAC JUMPI PUSH8 0xFFFFFFFFFFFFFFFF PUSH1 0x4 CALLDATALOAD DUP2 DUP2 GT PUSH2 0xAC JUMPI PUSH2 0x51 SWAP1 CALLDATASIZE SWAP1 PUSH1 0x4 ADD PUSH2 0xB0 JUMP JUMPDEST PUSH1 0x24 SWAP3 SWAP2 SWAP3 CALLDATALOAD DUP3 DUP2 GT PUSH2 0xAC JUMPI PUSH2 0x6C SWAP1 CALLDATASIZE SWAP1 PUSH1 0x4 ADD PUSH2 0xB0 JUMP JUMPDEST SWAP1 SWAP3 PUSH1 0x44 CALLDATALOAD SWAP1 DUP2 GT PUSH2 0xAC JUMPI PUSH2 0x86 SWAP1 CALLDATASIZE SWAP1 PUSH1 0x4 ADD PUSH2 0xB0 JUMP JUMPDEST SWAP4 SWAP1 SWAP3 PUSH1 0x64 CALLDATALOAD SWAP6 PUSH20 0xFFFFFFFFFFFFFFFFFFFFFFFFFFFFFFFFFFFFFFFF DUP8 AND DUP8 SUB ISZERO PUSH2 0xE1 JUMPI JUMPDEST PUSH0 DUP1 REVERT JUMPDEST SWAP2 DUP2 PUSH1 0x1F DUP5 ADD SLT ISZERO PUSH2 0xAC JUMPI DUP3 CALLDATALOAD SWAP2 PUSH8 0xFFFFFFFFFFFFFFFF DUP4 GT PUSH2 0xAC JUMPI PUSH1 0x20 DUP1 DUP6 ADD SWAP5 DUP5 PUSH1 0x5 SHL ADD ADD GT PUSH2 0xAC JUMPI JUMP JUMPDEST SWAP3 SWAP6 SWAP4 SWAP1 SWAP5 DUP7 EQ DUP7 DUP7 EQ AND ISZERO PUSH2 0x1D0 JUMPI DUP6 SWAP3 PUSH1 0x40 SWAP7 PUSH2 0x14F JUMPI JUMPDEST POP POP POP POP DUP1 PUSH2 0x110 JUMPI JUMPDEST POP PUSH1 0x20 PUSH0 MSTORE PUSH1 0x20 MSTORE PUSH0 RETURN JUMPDEST SELFBALANCE ISZERO PUSH2 0x105 JUMPI CALLER DUP2 XOR PUSH1 0x1 DUP3 EQ MUL XOR PUSH0 CODESIZE DUP2 DUP1 SELFBALANCE DUP6 PUSH3 0x186A0 CALL PUSH2 0x105 JUMPI PUSH0 MSTORE PUSH1 0x73 PUSH1 0xB MSTORE8 PUSH1 0xFF PUSH1 0x20 MSTORE8 PUSH1 0x16 PUSH1 0xB SELFBALANCE CREATE ISZERO PUSH2 0x14B JUMPI PUSH0 PUSH2 0x105 JUMP JUMPDEST CODESIZE CODESIZE REVERT JUMPDEST SWAP2 SWAP4 SWAP6 SWAP3 DUP4 SWAP1 PUSH1 0x5 SHL SWAP3 DUP4 DUP7 DUP7 CALLDATACOPY DUP4 DUP6 ADD SWAP4 JUMPDEST DUP3 MLOAD DUP8 ADD SWAP1 DUP7 DUP2 ADD PUSH0 DUP1 DUP5 CALLDATALOAD DUP1 PUSH1 0x20 DUP1 SWAP8 ADD DUP6 CALLDATACOPY DUP4 PUSH1 0x3F NOT DUP1 DUP11 DUP13 ADD ADD CALLDATALOAD SWAP1 DUP11 DUP11 ADD ADD CALLDATALOAD GAS CALL ISZERO PUSH2 0x1C8 JUMPI DUP2 DUP6 MSTORE RETURNDATASIZE SWAP1 MSTORE RETURNDATASIZE PUSH0 PUSH1 0x60 DUP4 ADD RETURNDATACOPY PUSH1 0x3F PUSH1 0x1F NOT SWAP2 RETURNDATASIZE ADD ADD AND SWAP3 ADD SWAP6 DUP9 DUP6 DUP9 EQ PUSH2 0x1B7 JUMPI POP SWAP6 SWAP2 PUSH2 0x162 JUMP JUMPDEST SWAP7 POP POP POP SWAP2 POP POP ADD SWAP3 PUSH0 DUP1 DUP1 PUSH2 0xFB JUMP JUMPDEST RETURNDATASIZE PUSH0 DUP1 RETURNDATACOPY RETURNDATASIZE PUSH0 REVERT JUMPDEST PUSH4 0x3B800A46 RETURNDATASIZE MSTORE PUSH1 0x4 PUSH1 0x1C REVERT JUMPDEST RETURNDATASIZE CALLDATALOAD PUSH4 0x66E0DAA0 DUP2 PUSH1 0xE0 SHR EQ PUSH2 0x1F1 JUMPI RETURNDATASIZE RETURNDATASIZE REVERT JUMPDEST NOT RETURNDATASIZE MSTORE PUSH1 0x4 RETURNDATASIZE DUP2 JUMPDEST DUP1 SWAP3 CALLDATASIZE DUP3 LT ISZERO PUSH2 0x24C JUMPI DUP2 CALLDATALOAD DUP4 BYTE PUSH1 0x1 DUP1 SWAP4 ADD SWAP5 DUP2 ISZERO PUSH2 0x220 JUMPI POP DUP2 MSTORE8 ADD SWAP1 JUMPDEST SWAP1 SWAP2 PUSH2 0x1F9 JUMP JUMPDEST RETURNDATASIZE NOT DUP4 MSTORE PUSH1 0x2 ADD SWAP5 PUSH1 0x7F SWAP2 POP CALLDATALOAD RETURNDATASIZE BYTE DUP2 DUP2 GT ISZERO PUSH2 0x241 JUMPI JUMPDEST AND ADD ADD SWAP1 PUSH2 0x219 JUMP JUMPDEST DUP4 DUP2 ADD CODESIZE DUP5 CODECOPY PUSH2 0x238 JUMP JUMPDEST PUSH0 DUP1 SWAP2 DUP2 ADDRESS GAS DELEGATECALL RETURNDATASIZE PUSH0 DUP1 RETURNDATACOPY ISZERO PUSH2 0x260 JUMPI RETURNDATASIZE PUSH0 RETURN JUMPDEST RETURNDATASIZE PUSH0 REVERT INVALID LOG2 PUSH5 0x6970667358 0x22 SLT KECCAK256 ORIGIN PUSH24 0x16B645B0E3D25956B90EB57D8B1E65DF7547514042735541 PUSH12 0x586118410764736F6C634300 ADDMOD NOT STOP CALLER "},"methodIdentifiers":{"aggregate(address[],bytes[],uint256[],address)":"991f255f"}}}}}