{"multicaller/src/MulticallerWithSender.sol":{"MulticallerWithSender":{"abi":[{"inputs":[],"stateMutability":"payable","type":"constructor"},{"inputs":[],"name":"ArrayLengthsMismatch","type":"error"},{"inputs":[],"name":"Reentrancy","type":"error"},{"inputs":[{"internalType":"address[]","name":"targets","type":"address[]"},{"internalType":"bytes[]","name":"data","type":"bytes[]"},{"internalType":"uint256[]","name":"values","type":"uint256[]"}],"name":"aggregateWithSender","outputs":[{"internalType":"bytes[]","name":"","type":"bytes[]"}],"stateMutability":"payable","type":"function"},{"stateMutability":"payable","type":"receive"}],"evm":{"bytecode":{"linkReferences":{},"object":"60806040819052600160a01b3d556101ee908161001a8239f3fe604060808152600480361015610021575b5050361561001c575f80fd5b610199565b5f3560e01c63d985f1e8036100105760609060606003193601126101645767ffffffffffffffff81358181116101645761005e9036908401610168565b919093602435828111610164576100789036908601610168565b92909360443591821161016457610093849236908801610168565b94909794811491141615610158577401000000000000000000000000000000000000000094853d54161561014d5750602090813d52808252801561014957959392333d55879660051b9485858a37858901955b88518601925f80868d850196803591829101883786863585355af11561014157848080920193019982815201923d90523d5f8683013e3d01603f01601f191694868310156101385794979091976100e6565b8986895f55015ff35b3d5f803e3d5ffd5b873df35b63ab143c063d52601cfd5b84633b800a463d52601cfd5b5f80fd5b9181601f840112156101645782359167ffffffffffffffff8311610164576020808501948460051b01011161016457565b3d5473ffffffffffffffffffffffffffffffffffffffff163d5260203df3fea26469706673582212201021169c8f8b75d1fda54df28d92c42dc767a52d797c5160c6cc06b1fb25cde164736f6c63430008190033","opcodes":"PUSH1 0x80 PUSH1 0x40 DUP2 SWAP1 MSTORE PUSH1 0x1 PUSH1 0xA0 SHL RETURNDATASIZE SSTORE PUSH2 0x1EE SWAP1 DUP2 PUSH2 0x1A DUP3 CODECOPY RETURN INVALID PUSH1 0x40 PUSH1 0x80 DUP2 MSTORE PUSH1 0x4 DUP1 CALLDATASIZE LT ISZERO PUSH2 0x21 JUMPI JUMPDEST POP POP CALLDATASIZE ISZERO PUSH2 0x1C JUMPI PUSH0 DUP1 REVERT JUMPDEST PUSH2 0x199 JUMP JUMPDEST PUSH0 CALLDATALOAD PUSH1 0xE0 SHR PUSH4 0xD985F1E8 SUB PUSH2 0x10 JUMPI PUSH1 0x60 SWAP1 PUSH1 0x60 PUSH1 0x3 NOT CALLDATASIZE ADD SLT PUSH2 0x164 JUMPI PUSH8 0xFFFFFFFFFFFFFFFF DUP2 CALLDATALOAD DUP2 DUP2 GT PUSH2 0x164 JUMPI PUSH2 0x5E SWAP1 CALLDATASIZE SWAP1 DUP5 ADD PUSH2 0x168 JUMP JUMPDEST SWAP2 SWAP1 SWAP4 PUSH1 0x24 CALLDATALOAD DUP3 DUP2 GT PUSH2 0x164 JUMPI PUSH2 0x78 SWAP1 CALLDATASIZE SWAP1 DUP7 ADD PUSH2 0x168 JUMP JUMPDEST SWAP3 SWAP1 SWAP4 PUSH1 0x44 CALLDATALOAD SWAP2 DUP3 GT PUSH2 0x164 JUMPI PUSH2 0x93 DUP5 SWAP3 CALLDATASIZE SWAP1 DUP9 ADD PUSH2 0x168 JUMP JUMPDEST SWAP5 SWAP1 SWAP8 SWAP5 DUP2 EQ SWAP2 EQ AND ISZERO PUSH2 0x158 JUMPI PUSH21 0x10000000000000000000000000000000000000000 SWAP5 DUP6 RETURNDATASIZE SLOAD AND ISZERO PUSH2 0x14D JUMPI POP PUSH1 0x20 SWAP1 DUP2 RETURNDATASIZE MSTORE DUP1 DUP3 MSTORE DUP1 ISZERO PUSH2 0x149 JUMPI SWAP6 SWAP4 SWAP3 CALLER RETURNDATASIZE SSTORE DUP8 SWAP7 PUSH1 0x5 SHL SWAP5 DUP6 DUP6 DUP11 CALLDATACOPY DUP6 DUP10 ADD SWAP6 JUMPDEST DUP9 MLOAD DUP7 ADD SWAP3 PUSH0 DUP1 DUP7 DUP14 DUP6 ADD SWAP7 DUP1 CALLDATALOAD SWAP2 DUP3 SWAP2 ADD DUP9 CALLDATACOPY DUP7 DUP7 CALLDATALOAD DUP6 CALLDATALOAD GAS CALL ISZERO PUSH2 0x141 JUMPI DUP5 DUP1 DUP1 SWAP3 ADD SWAP4 ADD SWAP10 DUP3 DUP2 MSTORE ADD SWAP3 RETURNDATASIZE SWAP1 MSTORE RETURNDATASIZE PUSH0 DUP7 DUP4 ADD RETURNDATACOPY RETURNDATASIZE ADD PUSH1 0x3F ADD PUSH1 0x1F NOT AND SWAP5 DUP7 DUP4 LT ISZERO PUSH2 0x138 JUMPI SWAP5 SWAP8 SWAP1 SWAP2 SWAP8 PUSH2 0xE6 JUMP JUMPDEST DUP10 DUP7 DUP10 PUSH0 SSTORE ADD PUSH0 RETURN JUMPDEST RETURNDATASIZE PUSH0 DUP1 RETURNDATACOPY RETURNDATASIZE PUSH0 REVERT JUMPDEST DUP8 RETURNDATASIZE RETURN JUMPDEST PUSH4 0xAB143C06 RETURNDATASIZE MSTORE PUSH1 0x1C REVERT JUMPDEST DUP5 PUSH4 0x3B800A46 RETURNDATASIZE MSTORE PUSH1 0x1C REVERT JUMPDEST PUSH0 DUP1 REVERT JUMPDEST SWAP2 DUP2 PUSH1 0x1F DUP5 ADD SLT ISZERO PUSH2 0x164 JUMPI DUP3 CALLDATALOAD SWAP2 PUSH8 0xFFFFFFFFFFFFFFFF DUP4 GT PUSH2 0x164 JUMPI PUSH1 0x20 DUP1 DUP6 ADD SWAP5 DUP5 PUSH1 0x5 SHL ADD ADD GT PUSH2 0x164 JUMPI JUMP JUMPDEST RETURNDATASIZE SLOAD PUSH20 0xFFFFFFFFFFFFFFFFFFFFFFFFFFFFFFFFFFFFFFFF AND RETURNDATASIZE MSTORE PUSH1 0x20 RETURNDATASIZE RETURN INVALID LOG2 PUSH5 0x6970667358 0x22 SLT KECCAK256 LT 0x21 AND SWAP13 DUP16 DUP12 PUSH22 0xD1FDA54DF28D92C42DC767A52D797C5160C6CC06B1FB 0x25 0xCD 0xE1 PUSH5 0x736F6C6343 STOP ADDMOD NOT STOP CALLER "},"methodIdentifiers":{"aggregateWithSender(address[],bytes[],uint256[])":"d985f1e8"}}}}}