{"contracts/test/Etcher.sol":{"Etcher":{"abi":[{"inputs":[],"name":"multicallerWithSender","outputs":[],"stateMutability":"nonpayable","type":"function"}],"evm":{"bytecode":{"linkReferences":{},"object":"60808060405234601557610ed8908161001a8239f35b5f80fdfe6080600436101561000e575f80fd5b5f3560e01c63d6fc31d914610021575f80fd5b34610e5b575f366003190112610e5b576e2fd5aeb385d324b580fca7c83823a090813b1561004b57005b6102a0810181811067ffffffffffffffff821117610e755760405261026181527f60806040819052600160a01b3d55610247908161001a8239f3fe60406080815260208201527f60049081361015610023575b5050361561001e57600080fd5b6101f2565b600060408201527f91823560e01c63d985f1e81461003b5750610011565b606090817fffffffffff60608201526503c9feed9efe1960808201527fb85767ffffffffffffffff81358181116101b45761008690369084016101bc5660a08201527f5b916024358181116101b05761009e90369086016101bc565b9590936044359260c08201527f83116101ac576100b98793369088016101bc565b9390938114911416156101a060e08201527f577401000000000000000000000000000000000000000094853d5416156101956101008201527f5750602090813d52868252861561019157333d55929560051b939192879291856101208201527f838537858901955b84518401988b80848d85019c8d81359283920190378c8a356101408201527f85355af115610188577fffffffffffffffffffffffffffffffffffffffffffff6101608201527fffffffffffffffffffe091838080603f9401990197828152019a3d90523d8d866101808201527f83013e3d010116928689101561017f57929793949761010d565b878b55838a016101a08201527f8bf35b8b3d81803e3d90fd5b873df35b63ab143c063d52601cfd5b84633b800a6101c08201527f463d52601cfd5b8880fd5b8780fd5b8580fd5b8380fd5b9181601f84011215616101e08201527f01ed5782359167ffffffffffffffff83116101ed576020808501948460051b016102008201527f01116101ed57565b600080fd5b3d5473ffffffffffffffffffffffffffffffff6102208201527fffffffff163d5260203df3fea2646970667358221220802fc1f04a279628c7746102408201527f38e5942439f44c7eaf734a7dca754fef889a35be139764736f6c6343000812006102608201527f33000000000000000000000000000000000000000000000000000000000000006102808201526effe8b47b3e2130213b8022124394973b1561048a575b60405190818151916364e0308782526b6bfa48b413e5be01a8e9fe0c60208301526040808301528260608301525f5b838110610472575050606460209201601c82015f6effe8b47b3e2130213b8022124394975af11561046a575173ffffffffffffffffffffffffffffffffffffffff16036103e657005b60846040517f08c379a000000000000000000000000000000000000000000000000000000000815260206004820152602560248201527f556e61626c6520746f2065746368204d756c746963616c6c657257697468536560448201527f6e6465722e0000000000000000000000000000000000000000000000000000006064820152fd5b3d81803e3d90fd5b6020828201810151608087840101528593500161039d565b6040518061086081011067ffffffffffffffff61086083011117610e7557610860810160405261083381527f60806040526004361061003f5760003560e01c806308508b8f1461004457806360208201527f64e030871461009857806385cf97ab14610138578063a49a7c90146101bc575b60408201527f600080fd5b34801561005057600080fd5b50610084600480360360208110156160608201527e6757600080fd5b503573ffffffffffffffffffffffffffffffffffffffff1660808201527f6101ec565b604080519115158252519081900360200190f35b61010f6004803660a08201527f0360408110156100ae57600080fd5b813591908101906040810160208201356460c08201527f01000000008111156100d057600080fd5b8201836020820111156100e257600060e08201527f80fd5b80359060200191846001830284011164010000000083111715610104576101008201527f600080fd5b509092509050610217565b6040805173ffffffffffffffffffffff6101208201527fffffffffffffffffff9092168252519081900360200190f35b348015610144576101408201527f600080fd5b5061010f6004803603604081101561015b57600080fd5b813591906101608201527f81019060408101602082013564010000000081111561017d57600080fd5b82016101808201527f8360208201111561018f57600080fd5b803590602001918460018302840111646101a08201527f0100000000831117156101b157600080fd5b509092509050610592565b3480156101c08201527f6101c857600080fd5b5061010f600480360360408110156101df57600080fd5b6101e08201527f508035906020013561069e565b73ffffffffffffffffffffffffffffffffffff6102008201527fffff1660009081526020819052604090205460ff1690565b600083606081901c6102208201527f33148061024c57507fffffffffffffffffffffffffffffffffffffffff000000610240820152768116155b6102a1576040517f08c379a0000000000000006102608201526a81526004018080602001826102808201527f81038252604581526020018061077460459139606001915050604051809103906102a08201527ffd5b606084848080601f016020809104026020016040519081016040528093926102c08201527f91908181526020018383808284376000920182905250604051855195965090946102e08201527f3094508b93508692506020918201918291908401908083835b602083106103356103008201527f57805182527fffffffffffffffffffffffffffffffffffffffffffffffffffff6103208201527fffffffffffe090920191602091820191016102f8565b518151602093840361016103408201527e0a7fffffffffffffffffffffffffffffffffffffffffffffffffffffffffff6103608201527fffffff018019909216911617905260408051929094018281037fffffffffffff610380820152661ffe7cad7f7aad196103a08201527f8251928201929092207fff0000000000000000000000000000000000000000006103c0820152758383015260609890981b7fffffffffffffffffffffff6103e08201527fffffffffffffffffff00000000000000000000000016602183015260358201966104008201527f90965260558082019790975282518082039097018752607501825250845194846104208201527f019490942073ffffffffffffffffffffffffffffffffffffffff8116600090816104408201527f52938490529390922054929350505060ff16156104a7576040517f08c379a0006104608201526481526004016104808201527f80806020018281038252603f815260200180610735603f9139604001915050606104a08201527f405180910390fd5b81602001825188818334f5955050508073ffffffffffffff6104c08201527fffffffffffffffffffffffffff168473ffffffffffffffffffffffffffffffff6104e08201527fffffffff161461053a576040517f08c379a00000000000000000000000000000610500820152718152600401808060200182810382526046816105208201527f52602001806107b96046913960600191505060405180910390fd5b50505073ff6105408201526c7ee99fff6f7ead9fdf7e6fad9f196105608201527f40902080547fffffffffffffffffffffffffffffffffffffffffffffffffffff6105808201527fffffffffff001660011790559392505050565b600030848484604051602001806105a08201527f83838082843760408051919093018181037fffffffffffffffffffffffffffff6105c08201526e1ffe7dad7f7bad7eae9fdf6d7cfedf196105e08201527f7fff0000000000000000000000000000000000000000000000000000000000006106008201527e8383015260609990991b7fffffffffffffffffffffffffffffffffffffffff6106208201527316602182015260358101979097526055808801986106408201527f90985282518088039098018852607590960182525085519585019590952073ff6106608201526c7ee99fff6f7ead6b7a6fad6b6f196106808201527f932054939450505060ff909116159050610697575060005b9392505050565b606106a08201527f4080517fff0000000000000000000000000000000000000000000000000000006106c08201527b6020808301919091523060601b6021830152603582018590526055806106e08201527f83018590528351808403909101815260759092018352815191810191909120736107008201526b7ee99fff6f7ead6e7d6fad6e196107208201527f90205460ff161561072e575060005b9291505056fe496e76616c696420636f6e6107408201527f7472616374206372656174696f6e202d20636f6e74726163742068617320616c6107608201527f7265616479206265656e206465706c6f7965642e496e76616c69642073616c746107808201527f202d206669727374203230206279746573206f66207468652073616c74206d756107a08201527f7374206d617463682063616c6c696e6720616464726573732e4661696c6564206107c08201527f746f206465706c6f7920636f6e7472616374207573696e672070726f766964656107e08201527f642073616c7420616e6420696e697469616c697a6174696f6e20636f64652ea26108008201527f65627a7a723058202bdc55310d97c4088f18acf04253db593f0914059f0c781a6108208201527f9df3624dcef0d1cf64736f6c634300050a0032000000000000000000000000006108408201526040519063b4d6c78282526effe8b47b3e2130213b80221243949760208301526040808301528051908160608401525f5b828110610e5f5750505f91601c6064849301910182737109709ecfa91a80626ff3989d68f67f5b1dd12d5af161036e575b5f80fd5b6020818301015160808286010152602001610e2a565b7f4e487b71000000000000000000000000000000000000000000000000000000005f52604160045260245ffdfea26469706673582212208515a51adcbc1838cdb396d5dbd727ebac0c944997544356f43eb1a811a78d8c64736f6c63430008190033","opcodes":"PUSH1 0x80 DUP1 PUSH1 0x40 MSTORE CALLVALUE PUSH1 0x15 JUMPI PUSH2 0xED8 SWAP1 DUP2 PUSH2 0x1A DUP3 CODECOPY RETURN JUMPDEST PUSH0 DUP1 REVERT INVALID PUSH1 0x80 PUSH1 0x4 CALLDATASIZE LT ISZERO PUSH2 0xE JUMPI PUSH0 DUP1 REVERT JUMPDEST PUSH0 CALLDATALOAD PUSH1 0xE0 SHR PUSH4 0xD6FC31D9 EQ PUSH2 0x21 JUMPI PUSH0 DUP1 REVERT JUMPDEST CALLVALUE PUSH2 0xE5B JUMPI PUSH0 CALLDATASIZE PUSH1 0x3 NOT ADD SLT PUSH2 0xE5B JUMPI PUSH15 0x2FD5AEB385D324B580FCA7C83823A0 SWAP1 DUP2 EXTCODESIZE ISZERO PUSH2 0x4B JUMPI STOP JUMPDEST PUSH2 0x2A0 DUP2 ADD DUP2 DUP2 LT PUSH8 0xFFFFFFFFFFFFFFFF DUP3 GT OR PUSH2 0xE75 JUMPI PUSH1 0x40 MSTORE PUSH2 0x261 DUP2 MSTORE PUSH32 0x60806040819052600160A01B3D55610247908161001A8239F3FE604060808152 PUSH1 0x20 DUP3 ADD MSTORE PUSH32 0x60049081361015610023575B5050361561001E57600080FD5B6101F2565B6000 PUSH1 0x40 DUP3 ADD MSTORE PUSH32 0x91823560E01C63D985F1E81461003B5750610011565B606090817FFFFFFFFFFF PUSH1 0x60 DUP3 ADD MSTORE PUSH6 0x3C9FEED9EFE NOT PUSH1 0x80 DUP3 ADD MSTORE PUSH32 0xB85767FFFFFFFFFFFFFFFF81358181116101B45761008690369084016101BC56 PUSH1 0xA0 DUP3 ADD MSTORE PUSH32 0x5B916024358181116101B05761009E90369086016101BC565B95909360443592 PUSH1 0xC0 DUP3 ADD MSTORE PUSH32 0x83116101AC576100B98793369088016101BC565B9390938114911416156101A0 PUSH1 0xE0 DUP3 ADD MSTORE PUSH32 0x577401000000000000000000000000000000000000000094853D541615610195 PUSH2 0x100 DUP3 ADD MSTORE PUSH32 0x5750602090813D52868252861561019157333D55929560051B93919287929185 PUSH2 0x120 DUP3 ADD MSTORE PUSH32 0x838537858901955B84518401988B80848D85019C8D81359283920190378C8A35 PUSH2 0x140 DUP3 ADD MSTORE PUSH32 0x85355AF115610188577FFFFFFFFFFFFFFFFFFFFFFFFFFFFFFFFFFFFFFFFFFFFF PUSH2 0x160 DUP3 ADD MSTORE PUSH32 0xFFFFFFFFFFFFFFFFFFE091838080603F9401990197828152019A3D90523D8D86 PUSH2 0x180 DUP3 ADD MSTORE PUSH32 0x83013E3D010116928689101561017F57929793949761010D565B878B55838A01 PUSH2 0x1A0 DUP3 ADD MSTORE PUSH32 0x8BF35B8B3D81803E3D90FD5B873DF35B63AB143C063D52601CFD5B84633B800A PUSH2 0x1C0 DUP3 ADD MSTORE PUSH32 0x463D52601CFD5B8880FD5B8780FD5B8580FD5B8380FD5B9181601F8401121561 PUSH2 0x1E0 DUP3 ADD MSTORE PUSH32 0x1ED5782359167FFFFFFFFFFFFFFFF83116101ED576020808501948460051B01 PUSH2 0x200 DUP3 ADD MSTORE PUSH32 0x1116101ED57565B600080FD5B3D5473FFFFFFFFFFFFFFFFFFFFFFFFFFFFFFFF PUSH2 0x220 DUP3 ADD MSTORE PUSH32 0xFFFFFFFF163D5260203DF3FEA2646970667358221220802FC1F04A279628C774 PUSH2 0x240 DUP3 ADD MSTORE PUSH32 0x38E5942439F44C7EAF734A7DCA754FEF889A35BE139764736F6C634300081200 PUSH2 0x260 DUP3 ADD MSTORE PUSH32 0x3300000000000000000000000000000000000000000000000000000000000000 PUSH2 0x280 DUP3 ADD MSTORE PUSH15 0xFFE8B47B3E2130213B802212439497 EXTCODESIZE ISZERO PUSH2 0x48A JUMPI JUMPDEST PUSH1 0x40 MLOAD SWAP1 DUP2 DUP2 MLOAD SWAP2 PUSH4 0x64E03087 DUP3 MSTORE PUSH12 0x6BFA48B413E5BE01A8E9FE0C PUSH1 0x20 DUP4 ADD MSTORE PUSH1 0x40 DUP1 DUP4 ADD MSTORE DUP3 PUSH1 0x60 DUP4 ADD MSTORE PUSH0 JUMPDEST DUP4 DUP2 LT PUSH2 0x472 JUMPI POP POP PUSH1 0x64 PUSH1 0x20 SWAP3 ADD PUSH1 0x1C DUP3 ADD PUSH0 PUSH15 0xFFE8B47B3E2130213B802212439497 GAS CALL ISZERO PUSH2 0x46A JUMPI MLOAD PUSH20 0xFFFFFFFFFFFFFFFFFFFFFFFFFFFFFFFFFFFFFFFF AND SUB PUSH2 0x3E6 JUMPI STOP JUMPDEST PUSH1 0x84 PUSH1 0x40 MLOAD PUSH32 0x8C379A000000000000000000000000000000000000000000000000000000000 DUP2 MSTORE PUSH1 0x20 PUSH1 0x4 DUP3 ADD MSTORE PUSH1 0x25 PUSH1 0x24 DUP3 ADD MSTORE PUSH32 0x556E61626C6520746F2065746368204D756C746963616C6C6572576974685365 PUSH1 0x44 DUP3 ADD MSTORE PUSH32 0x6E6465722E000000000000000000000000000000000000000000000000000000 PUSH1 0x64 DUP3 ADD MSTORE REVERT JUMPDEST RETURNDATASIZE DUP2 DUP1 RETURNDATACOPY RETURNDATASIZE SWAP1 REVERT JUMPDEST PUSH1 0x20 DUP3 DUP3 ADD DUP2 ADD MLOAD PUSH1 0x80 DUP8 DUP5 ADD ADD MSTORE DUP6 SWAP4 POP ADD PUSH2 0x39D JUMP JUMPDEST PUSH1 0x40 MLOAD DUP1 PUSH2 0x860 DUP2 ADD LT PUSH8 0xFFFFFFFFFFFFFFFF PUSH2 0x860 DUP4 ADD GT OR PUSH2 0xE75 JUMPI PUSH2 0x860 DUP2 ADD PUSH1 0x40 MSTORE PUSH2 0x833 DUP2 MSTORE PUSH32 0x60806040526004361061003F5760003560E01C806308508B8F14610044578063 PUSH1 0x20 DUP3 ADD MSTORE PUSH32 0x64E030871461009857806385CF97AB14610138578063A49A7C90146101BC575B PUSH1 0x40 DUP3 ADD MSTORE PUSH32 0x600080FD5B34801561005057600080FD5B506100846004803603602081101561 PUSH1 0x60 DUP3 ADD MSTORE PUSH31 0x6757600080FD5B503573FFFFFFFFFFFFFFFFFFFFFFFFFFFFFFFFFFFFFFFF16 PUSH1 0x80 DUP3 ADD MSTORE PUSH32 0x6101EC565B604080519115158252519081900360200190F35B61010F60048036 PUSH1 0xA0 DUP3 ADD MSTORE PUSH32 0x360408110156100AE57600080FD5B8135919081019060408101602082013564 PUSH1 0xC0 DUP3 ADD MSTORE PUSH32 0x1000000008111156100D057600080FD5B8201836020820111156100E2576000 PUSH1 0xE0 DUP3 ADD MSTORE PUSH32 0x80FD5B8035906020019184600183028401116401000000008311171561010457 PUSH2 0x100 DUP3 ADD MSTORE PUSH32 0x600080FD5B509092509050610217565B6040805173FFFFFFFFFFFFFFFFFFFFFF PUSH2 0x120 DUP3 ADD MSTORE PUSH32 0xFFFFFFFFFFFFFFFFFF9092168252519081900360200190F35B34801561014457 PUSH2 0x140 DUP3 ADD MSTORE PUSH32 0x600080FD5B5061010F6004803603604081101561015B57600080FD5B81359190 PUSH2 0x160 DUP3 ADD MSTORE PUSH32 0x81019060408101602082013564010000000081111561017D57600080FD5B8201 PUSH2 0x180 DUP3 ADD MSTORE PUSH32 0x8360208201111561018F57600080FD5B80359060200191846001830284011164 PUSH2 0x1A0 DUP3 ADD MSTORE PUSH32 0x100000000831117156101B157600080FD5B509092509050610592565B348015 PUSH2 0x1C0 DUP3 ADD MSTORE PUSH32 0x6101C857600080FD5B5061010F600480360360408110156101DF57600080FD5B PUSH2 0x1E0 DUP3 ADD MSTORE PUSH32 0x508035906020013561069E565B73FFFFFFFFFFFFFFFFFFFFFFFFFFFFFFFFFFFF PUSH2 0x200 DUP3 ADD MSTORE PUSH32 0xFFFF1660009081526020819052604090205460FF1690565B600083606081901C PUSH2 0x220 DUP3 ADD MSTORE PUSH32 0x33148061024C57507FFFFFFFFFFFFFFFFFFFFFFFFFFFFFFFFFFFFFFFFF000000 PUSH2 0x240 DUP3 ADD MSTORE PUSH23 0x8116155B6102A1576040517F08C379A000000000000000 PUSH2 0x260 DUP3 ADD MSTORE PUSH11 0x8152600401808060200182 PUSH2 0x280 DUP3 ADD MSTORE PUSH32 0x8103825260458152602001806107746045913960600191505060405180910390 PUSH2 0x2A0 DUP3 ADD MSTORE PUSH32 0xFD5B606084848080601F01602080910402602001604051908101604052809392 PUSH2 0x2C0 DUP3 ADD MSTORE PUSH32 0x9190818152602001838380828437600092018290525060405185519596509094 PUSH2 0x2E0 DUP3 ADD MSTORE PUSH32 0x3094508B93508692506020918201918291908401908083835B60208310610335 PUSH2 0x300 DUP3 ADD MSTORE PUSH32 0x57805182527FFFFFFFFFFFFFFFFFFFFFFFFFFFFFFFFFFFFFFFFFFFFFFFFFFFFF PUSH2 0x320 DUP3 ADD MSTORE PUSH32 0xFFFFFFFFFFE090920191602091820191016102F8565B51815160209384036101 PUSH2 0x340 DUP3 ADD MSTORE PUSH31 0xA7FFFFFFFFFFFFFFFFFFFFFFFFFFFFFFFFFFFFFFFFFFFFFFFFFFFFFFFFFFF PUSH2 0x360 DUP3 ADD MSTORE PUSH32 0xFFFFFF018019909216911617905260408051929094018281037FFFFFFFFFFFFF PUSH2 0x380 DUP3 ADD MSTORE PUSH7 0x1FFE7CAD7F7AAD NOT PUSH2 0x3A0 DUP3 ADD MSTORE PUSH32 0x8251928201929092207FFF000000000000000000000000000000000000000000 PUSH2 0x3C0 DUP3 ADD MSTORE PUSH22 0x8383015260609890981B7FFFFFFFFFFFFFFFFFFFFFFF PUSH2 0x3E0 DUP3 ADD MSTORE PUSH32 0xFFFFFFFFFFFFFFFFFF0000000000000000000000001660218301526035820196 PUSH2 0x400 DUP3 ADD MSTORE PUSH32 0x9096526055808201979097528251808203909701875260750182525084519484 PUSH2 0x420 DUP3 ADD MSTORE PUSH32 0x19490942073FFFFFFFFFFFFFFFFFFFFFFFFFFFFFFFFFFFFFFFF811660009081 PUSH2 0x440 DUP3 ADD MSTORE PUSH32 0x52938490529390922054929350505060FF16156104A7576040517F08C379A000 PUSH2 0x460 DUP3 ADD MSTORE PUSH5 0x8152600401 PUSH2 0x480 DUP3 ADD MSTORE PUSH32 0x80806020018281038252603F815260200180610735603F913960400191505060 PUSH2 0x4A0 DUP3 ADD MSTORE PUSH32 0x405180910390FD5B81602001825188818334F5955050508073FFFFFFFFFFFFFF PUSH2 0x4C0 DUP3 ADD MSTORE PUSH32 0xFFFFFFFFFFFFFFFFFFFFFFFFFF168473FFFFFFFFFFFFFFFFFFFFFFFFFFFFFFFF PUSH2 0x4E0 DUP3 ADD MSTORE PUSH32 0xFFFFFFFF161461053A576040517F08C379A00000000000000000000000000000 PUSH2 0x500 DUP3 ADD MSTORE PUSH18 0x815260040180806020018281038252604681 PUSH2 0x520 DUP3 ADD MSTORE PUSH32 0x52602001806107B96046913960600191505060405180910390FD5B50505073FF PUSH2 0x540 DUP3 ADD MSTORE PUSH13 0x7EE99FFF6F7EAD9FDF7E6FAD9F NOT PUSH2 0x560 DUP3 ADD MSTORE PUSH32 0x40902080547FFFFFFFFFFFFFFFFFFFFFFFFFFFFFFFFFFFFFFFFFFFFFFFFFFFFF PUSH2 0x580 DUP3 ADD MSTORE PUSH32 0xFFFFFFFFFF001660011790559392505050565B60003084848460405160200180 PUSH2 0x5A0 DUP3 ADD MSTORE PUSH32 0x83838082843760408051919093018181037FFFFFFFFFFFFFFFFFFFFFFFFFFFFF PUSH2 0x5C0 DUP3 ADD MSTORE PUSH15 0x1FFE7DAD7F7BAD7EAE9FDF6D7CFEDF NOT PUSH2 0x5E0 DUP3 ADD MSTORE PUSH32 0x7FFF000000000000000000000000000000000000000000000000000000000000 PUSH2 0x600 DUP3 ADD MSTORE PUSH31 0x8383015260609990991B7FFFFFFFFFFFFFFFFFFFFFFFFFFFFFFFFFFFFFFFFF PUSH2 0x620 DUP3 ADD MSTORE PUSH20 0x1660218201526035810197909752605580880198 PUSH2 0x640 DUP3 ADD MSTORE PUSH32 0x90985282518088039098018852607590960182525085519585019590952073FF PUSH2 0x660 DUP3 ADD MSTORE PUSH13 0x7EE99FFF6F7EAD6B7A6FAD6B6F NOT PUSH2 0x680 DUP3 ADD MSTORE PUSH32 0x932054939450505060FF909116159050610697575060005B9392505050565B60 PUSH2 0x6A0 DUP3 ADD MSTORE PUSH32 0x4080517FFF000000000000000000000000000000000000000000000000000000 PUSH2 0x6C0 DUP3 ADD MSTORE PUSH28 0x6020808301919091523060601B602183015260358201859052605580 PUSH2 0x6E0 DUP3 ADD MSTORE PUSH32 0x8301859052835180840390910181526075909201835281519181019190912073 PUSH2 0x700 DUP3 ADD MSTORE PUSH12 0x7EE99FFF6F7EAD6E7D6FAD6E NOT PUSH2 0x720 DUP3 ADD MSTORE PUSH32 0x90205460FF161561072E575060005B9291505056FE496E76616C696420636F6E PUSH2 0x740 DUP3 ADD MSTORE PUSH32 0x7472616374206372656174696F6E202D20636F6E74726163742068617320616C PUSH2 0x760 DUP3 ADD MSTORE PUSH32 0x7265616479206265656E206465706C6F7965642E496E76616C69642073616C74 PUSH2 0x780 DUP3 ADD MSTORE PUSH32 0x202D206669727374203230206279746573206F66207468652073616C74206D75 PUSH2 0x7A0 DUP3 ADD MSTORE PUSH32 0x7374206D617463682063616C6C696E6720616464726573732E4661696C656420 PUSH2 0x7C0 DUP3 ADD MSTORE PUSH32 0x746F206465706C6F7920636F6E7472616374207573696E672070726F76696465 PUSH2 0x7E0 DUP3 ADD MSTORE PUSH32 0x642073616C7420616E6420696E697469616C697A6174696F6E20636F64652EA2 PUSH2 0x800 DUP3 ADD MSTORE PUSH32 0x65627A7A723058202BDC55310D97C4088F18ACF04253DB593F0914059F0C781A PUSH2 0x820 DUP3 ADD MSTORE PUSH32 0x9DF3624DCEF0D1CF64736F6C634300050A003200000000000000000000000000 PUSH2 0x840 DUP3 ADD MSTORE PUSH1 0x40 MLOAD SWAP1 PUSH4 0xB4D6C782 DUP3 MSTORE PUSH15 0xFFE8B47B3E2130213B802212439497 PUSH1 0x20 DUP4 ADD MSTORE PUSH1 0x40 DUP1 DUP4 ADD MSTORE DUP1 MLOAD SWAP1 DUP2 PUSH1 0x60 DUP5 ADD MSTORE PUSH0 JUMPDEST DUP3 DUP2 LT PUSH2 0xE5F JUMPI POP POP PUSH0 SWAP2 PUSH1 0x1C PUSH1 0x64 DUP5 SWAP4 ADD SWAP2 ADD DUP3 PUSH20 0x7109709ECFA91A80626FF3989D68F67F5B1DD12D GAS CALL PUSH2 0x36E JUMPI JUMPDEST PUSH0 DUP1 REVERT JUMPDEST PUSH1 0x20 DUP2 DUP4 ADD ADD MLOAD PUSH1 0x80 DUP3 DUP7 ADD ADD MSTORE PUSH1 0x20 ADD PUSH2 0xE2A JUMP JUMPDEST PUSH32 0x4E487B7100000000000000000000000000000000000000000000000000000000 PUSH0 MSTORE PUSH1 0x41 PUSH1 0x4 MSTORE PUSH1 0x24 PUSH0 REVERT INVALID LOG2 PUSH5 0x6970667358 0x22 SLT KECCAK256 DUP6 ISZERO 0xA5 BYTE 0xDC 0xBC XOR CODESIZE 0xCD 0xB3 SWAP7 0xD5 0xDB 0xD7 0x27 0xEB 0xAC 0xC SWAP5 BLOBHASH SWAP8 SLOAD NUMBER JUMP DELEGATECALL RETURNDATACOPY 0xB1 0xA8 GT 0xA7 DUP14 DUP13 PUSH5 0x736F6C6343 STOP ADDMOD NOT STOP CALLER "},"methodIdentifiers":{"multicallerWithSender()":"d6fc31d9"}}}}}