{"abi":[{"type":"function","name":"verifyProof","inputs":[{"name":"_proof","type":"uint256[24]","internalType":"uint256[24]"},{"name":"_pubSignals","type":"uint256[4]","internalType":"uint256[4]"}],"outputs":[{"name":"","type":"bool","internalType":"bool"}],"stateMutability":"view"}],"bytecode":{"object":"0x60808060405234601557611674908161001a8239f35b5f80fdfe600436101561000c575f80fd5b5f3560e01c636183f6b41461001f575f80fd5b346101f0576103803660031901126101f05736610304116101f05736610384116101f0576104206040526100516102f0565b610059610319565b610061610342565b61006961036b565b610071610394565b6100796103bf565b6100816103ea565b610089610415565b610091610440565b61009c6004356102d2565b6100a76024356102d2565b6100b26044356102d2565b6100bd6064356102d2565b6100c86084356102d2565b6100d360a4356102d2565b6100de60c4356102d2565b6100e960e4356102d2565b6100f5610104356102d2565b610101610124356102d2565b61010d610144356102d2565b610119610164356102d2565b610125610184356102d2565b6101316101a4356102d2565b61013d6101c4356102d2565b6101496101e4356102d2565b610155610204356102d2565b610161610224356102d2565b61016d610244356102d2565b610179610264356102d2565b610185610284356102d2565b6101916102a4356102d2565b61019d6102c4356102d2565b6101a96102e4356102d2565b6101b161046b565b6101b9610a10565b6101c1610b89565b6101c9610bdc565b6101d161104f565b6101d961125b565b6101e1611349565b6101e96113b7565b5f5260205ff35b5f80fd5b5f6001915f51602061161f5f395f51905f5290805b61023457506001919250116101f0575f81126102225790565b5f51602061161f5f395f51905f520190565b80820584810290930393929091908202900380610209565b6040519060a08101815160208301915b8083106102ac575061026d906101f4565b92601f1991820191015b8282116102845750905052565b5f51602061161f5f395f51905f5280825186099483519009938252601f199182019101610277565b91939060205f51602061161f5f395f51905f52828293855287519009920194019161025c565b5f51602061161f5f395f51905f5211156102e857565b5f805260205ff35b6004355f5160206115ff5f395f51905f526003818060243580099381818009900908036102e857565b6044355f5160206115ff5f395f51905f526003818060643580099381818009900908036102e857565b6084355f5160206115ff5f395f51905f526003818060a43580099381818009900908036102e857565b60c4355f5160206115ff5f395f51905f526003818060e43580099381818009900908036102e857565b610104355f5160206115ff5f395f51905f52600381806101243580099381818009900908036102e857565b610144355f5160206115ff5f395f51905f52600381806101643580099381818009900908036102e857565b610184355f5160206115ff5f395f51905f52600381806101a43580099381818009900908036102e857565b6101c4355f5160206115ff5f395f51905f52600381806101e43580099381818009900908036102e857565b610204355f5160206115ff5f395f51905f52600381806102243580099381818009900908036102e857565b6040517f2736d678fff6189b5c381f35025e582f374d447ba0ee3f4fe769228b14fa6a038152602081017f0f88bd5736c9ffc0307ab4fcc13e7e0f4b484d1106138819cca1e6ae571099748152604082017f1c8890439de7213e565a5c528821556d2bf0558f967e228a017a5b6aa2b8336a815260608301917f2a1f3c17cf8447359cc8ca855012872cfe2a9b0d779c85770373d2cf4b9559648352608084017f0fefdaeb9e138a25ff149f359bf53d62b8e9c31119d518bbd2e8501a9859c3e3815260a08501907f06089adbc9eb5e76a7c9073814937de6e46dacf97a67f325e455034dbab50c7c825260c086017f06af574137944f3c5582e72b9cc084cd31ece5a66a326c7c177c63660706eee9815260e087017f16e86313a95edb5b81f062633bfe67982d727c6a1262891032fc9ec86eceadc2905261010087017f116eea21ee71c21985a00a44e324ef759a40ec3be0e7d8d6d137ef5bede2efec905261012087017f07055d7e1673cd5681e5814b8a95d42ed09e39de638a5fcc169c5692e6e52240905261014087017f2592eca0dbac70fd5118f4a4d4e8341bb9d19722c327ce01910a14a0357f55cc905261016087017f273bbc8c08f9685ef199c050fae4635e517741ea2459690f6aec7878f50641e4905261018087017f2d545e0d2cd0a773535ea2e26968f77acaa52a7041fb1b69ddc1b4765d2a1bfe90526101a087017f1ede148106ccf10e48297d2549710735e514faef51e3ac5e788a917a2252c35b90526101c087017f062d6b1935a09584c691e97787f381fbdd1472ce28bdced289a8565016952bde90526101e087017f18379704d4aa13a2860cfa32a789b3d60d9e1f696674ce0b32f11942935bb1529052610304356102008801526103243561022088015261034435610240880152610364356102608801526004356102808801526024356102a08801526044356102c08801526064356102e088015260843561030088015260a43561032088015261034087205f51602061161f5f395f51905f529006928360a052602060a0205f51602061161f5f395f51905f52900660c05283885260c051855260c435865260e4358752608088205f51602061161f5f395f51905f529006806080525f51602061161f5f395f51905f528180096103405288526101043585526101243586526101443587526101643583526101843581526101a435825260e088205f51602061161f5f395f51905f529006928360e0528389526102443586526102643587526102843588526102a43590526102c43590526102e435905260e086205f51602061161f5f395f51905f529006918183610140525f51602061161f5f395f51905f52910961012052805f51602061161f5f395f51905f529109805f51602061161f5f395f51905f529109805f51602061161f5f395f51905f529109805f51602061161f5f395f51905f529109805f51602061161f5f395f51905f529109805f51602061161f5f395f51905f529109805f51602061161f5f395f51905f529109805f51602061161f5f395f51905f529109805f51602061161f5f395f51905f529109805f51602061161f5f395f51905f529109805f51602061161f5f395f51905f529109805f51602061161f5f395f51905f529109805f51602061161f5f395f51905f529109805f51602061161f5f395f51905f529109805f51602061161f5f395f51905f52910980610100527f30644e72e131a029b85045b68181585d2833e84879b9709143e1f593f0000000015f51602061161f5f395f51905f5290068061036052610380525f51602061161f5f395f51905f528180098181610160525f51602061161f5f395f51905f5291098181610180525f51602061161f5f395f51905f52910990816101a0525f51602061161f5f395f51905f5291096101c0526101c43584526101e4359052610204359052610224359052608090205f51602061161f5f395f51905f5290066101e052565b5f51602061161f5f395f51905f52807f2d8b0d5b1419e3388f406f3a806bfa89202c62ca7a6f1685f61b79a44755cb0460e05182807f30644e72e131a029b85045b68181585d2833e84879b9709143e1f593f0000000830106618000096103a05282807f0348a80387efc398b6ded3bc17952c8d2609be1b38a3d0879aad9c96a1d91306830106618000096103c05282807f02cdf8211357bba89901f3fe73a4afb4738aa9670598c5aa9637f3d18e83917c830106618000096103e05201066180000961040052610ae261038061024c565b5f51602061161f5f395f51905f52806103605181816103a051096103a0528180826103c051097f2d1ba66f5941dc91017171fa69ec2bd0022a2a2d4115a009a93458fd4e26ecfb096103c0528180826103e051097f2d965651cdd9e4811f4e51b80ddca8a8b4a93ee17420aae6adaa01c2617c6e85096103e05261040051097f02d94117cd17bcf1290fd67c01155dd40807857dff4a5a0b4dc67befa8aa34fd0961040052565b5f51602061161f5f395f51905f528080808080808080610304356103a051095f03010681610324356103c051099003010681610344356103e0510990030106816103643561040051099003010661020052565b5f51602061161f5f395f51905f52610200518180610340516103a051099181808060a0518160c051918160805193816102e435938180846102843508938180808381806102c4358909610264350808946102a4359009610244350808090909098103069381030690080861022052565b608060409260208451918451835281850151828401528051868401520151606082015260066107cf195a01fa156102e857565b604051917f2736d678fff6189b5c381f35025e582f374d447ba0ee3f4fe769228b14fa6a0383527f0f88bd5736c9ffc0307ab4fcc13e7e0f4b484d1106138819cca1e6ae5710997460208401526040830190815260408360608160076107cf195a01fa156102e857815190526020810151606083015260409160809060066107cf195a01fa156102e857565b604051917f1c8890439de7213e565a5c528821556d2bf0558f967e228a017a5b6aa2b8336a83527f2a1f3c17cf8447359cc8ca855012872cfe2a9b0d779c85770373d2cf4b95596460208401526040830190815260408360608160076107cf195a01fa156102e857815190526020810151606083015260409160809060066107cf195a01fa156102e857565b604051917f0fefdaeb9e138a25ff149f359bf53d62b8e9c31119d518bbd2e8501a9859c3e383527f06089adbc9eb5e76a7c9073814937de6e46dacf97a67f325e455034dbab50c7c60208401526040830190815260408360608160076107cf195a01fa156102e857815190526020810151606083015260409160809060066107cf195a01fa156102e857565b604051917f06af574137944f3c5582e72b9cc084cd31ece5a66a326c7c177c63660706eee983527f16e86313a95edb5b81f062633bfe67982d727c6a1262891032fc9ec86eceadc260208401526040830190815260408360608160076107cf195a01fa156102e857815190526020810151606083015260409160809060066107cf195a01fa156102e857565b604051917f2d545e0d2cd0a773535ea2e26968f77acaa52a7041fb1b69ddc1b4765d2a1bfe83527f1ede148106ccf10e48297d2549710735e514faef51e3ac5e788a917a2252c35b60208401526040830190815260408360608160076107cf195a01fa156102e857815190526020810151606083015260409160809060066107cf195a01fa156102e857565b9192909260405193845260208401526040830190815260408360608160076107cf195a01fa156102e857815190526020810151606083015260409160809060066107cf195a01fa156102e857565b60606040928351907f062d6b1935a09584c691e97787f381fbdd1472ce28bdced289a8565016952bde82527f18379704d4aa13a2860cfa32a789b3d60d9e1f696674ce0b32f11942935bb15260208301528482015260076107cf195a01fa156102e857565b606060409283519060018252600260208301528482015260076107cf195a01fa156102e857565b9190604093606092855192835260208301528482015260076107cf195a01fa156102e857565b6020820151915161104d939291611015565b565b61104d60c0516112535f51602061161f5f395f51905f526040519261010084016040526110c361024060207f07055d7e1673cd5681e5814b8a95d42ed09e39de638a5fcc169c5692e6e52240917f116eea21ee71c21985a00a44e324ef759a40ec3be0e7d8d6d137ef5bede2efec81520152565b6110d882610264356102443509610240610c7f565b6110e761024435610240610d0b565b6110f661026435610240610d97565b61110561028435610240610e23565b61116f6101205183608051918180610340516103a051098160c08b01956111358760c4358152602060e435910152565b816101e0519581808c81806003860961028435080891818d818082818060028809610264350808936102443508080909090808908661103b565b8160a05181806102e43581846080510909938180808381806102c4358909610264350808946102a435900961024435080809096111b0604084019182610f89565b61125360808401936111cd85610104358152602061012435910152565b6111e261010051610164356101443588610f3b565b6112075f51602061161f5f395f51905f526101005180096101a4356101843588610f3b565b6103605161121d60a08301918251885189611015565b606082015f5160206115ff5f395f51905f52815181030690525f5160206115ff5f395f51905f5281518103069052610240610c4c565b610240610c4c565b6102405161028052610260516102a05261128061014051602435600435610280610f3b565b61129561016051606435604435610280610f3b565b6112aa6101805160a435608435610280610f3b565b6101a051610280906040517f2592eca0dbac70fd5118f4a4d4e8341bb9d19722c327ce01910a14a0357f55cc81527f273bbc8c08f9685ef199c050fae4635e517741ea2459690f6aec7878f50641e460208201526040810191825260408160608160076107cf195a01fa156102e85760808391604093835190526020830151606082015260066107cf195a01fa156102e8576101c05161104d91610eaf565b61104d5f51602061161f5f395f51905f5280808080808061022051810306816101405161024435099008816101605161026435099008816101805161028435099008816101a0516102a435099008816101c0516102c435099008816101e0516102e4350990086102c0610fee565b604051610240810160405261154c6102c061018083016115226101c0850161151c6102008701916113f3856101c435815260206101e435910152565b6102043581526102243560208201526114106101e051828a61103b565b61141a8589610c4c565b602088015f5160206115ff5f395f51905f52815181030690527f26186a2d65ee4d2f9c9a5b91f86597d35f192cd120caf7e935d8443d1938e23d60408901527f30441fd1b5d3370482c42152a8899027716989a6996c2535bc9f7fee8aaef79e60608901527f1970ea81dd6992adfbc571effb03503adbbb6a857f578403c6c40e22d65b3c0260808901527f054793348f12c0cf5622c340573cb277586319de359ab9389778f689786b1e4860a08901526114dc60e05160c08a01968761103b565b5f51602061161f5f395f51905f527f2d1ba66f5941dc91017171fa69ec2bd0022a2a2d4115a009a93458fd4e26ecfb8160e0516101e0510909908361103b565b82610c4c565b61152e61028082610c4c565b5f5160206115ff5f395f51905f526102e0518103066102e052610c4c565b7f198e9393920d483a7260bfb731fb5d25f1aa493335a9e71297e485b7aef312c26101008201527f1800deef121f1e76426a00665e5c4479674322d4f75edadd46debd5cd992f6ed6101208201527f090689d0585ff075ec9e99ad690c3395bc4b313370b38ef355acdadcd122975b6101408201527f12c85ea5db8c6deb4aab71808dcb408fe3d1e7690c43d37b4ce6cc0166fa7daa6101608201526020816101808160086107cf195a01fa9051169056fe30644e72e131a029b85045b68181585d97816a916871ca8d3c208c16d87cfd4730644e72e131a029b85045b68181585d2833e84879b9709143e1f593f0000001a26469706673582212209336c7d51ff6ac1f1cfc000b54229f7ce81ef53c2328cae95bf2bc3c29f066b664736f6c634300081b0033","linkReferences":{}},"methodIdentifiers":{"verifyProof(uint256[24],uint256[4])":"6183f6b4"},"id":43}