{"abi":[{"type":"constructor","inputs":[{"name":"verifier_","type":"address","internalType":"address"},{"name":"solveVerifier_","type":"address","internalType":"address"}],"stateMutability":"nonpayable"},{"type":"function","name":"checkClue","inputs":[{"name":"proof","type":"uint256[24]","internalType":"uint256[24]"},{"name":"commit","type":"uint256","internalType":"uint256"},{"name":"guess","type":"uint256[5]","internalType":"uint256[5]"},{"name":"clue","type":"uint256[5]","internalType":"uint256[5]"}],"outputs":[{"name":"","type":"bool","internalType":"bool"}],"stateMutability":"view"},{"type":"function","name":"checkSolve","inputs":[{"name":"proof","type":"uint256[24]","internalType":"uint256[24]"},{"name":"commit","type":"uint256","internalType":"uint256"},{"name":"guessesCommit","type":"uint256","internalType":"uint256"},{"name":"dictRoot","type":"uint256","internalType":"uint256"},{"name":"guessesUsed","type":"uint256","internalType":"uint256"}],"outputs":[{"name":"","type":"bool","internalType":"bool"}],"stateMutability":"view"},{"type":"function","name":"solveVerifier","inputs":[],"outputs":[{"name":"","type":"address","internalType":"contract WordleSolvePlonkVerifier"}],"stateMutability":"view"},{"type":"function","name":"verifier","inputs":[],"outputs":[{"name":"","type":"address","internalType":"contract WordleCluePlonkVerifier"}],"stateMutability":"view"},{"type":"function","name":"verifyClue","inputs":[{"name":"proof","type":"uint256[24]","internalType":"uint256[24]"},{"name":"pub","type":"uint256[11]","internalType":"uint256[11]"}],"outputs":[{"name":"","type":"bool","internalType":"bool"}],"stateMutability":"view"}],"bytecode":{"object":"0x60c03461009957601f61053f38819003918201601f19168301916001600160401b0383118484101761009d57808492604094855283398101031261009957610052602061004b836100b1565b92016100b1565b6001600160a01b039182166080521660a05260405161047990816100c682396080518181816101d7015281816102fa01526103ac015260a05181818160f3015261036b0152f35b5f80fd5b634e487b7160e01b5f52604160045260245ffd5b51906001600160a01b03821682036100995756fe6080806040526004361015610012575f80fd5b5f3560e01c9081632b7ac3f31461038f5750806333b42d8b1461034c5780637de4eb7b14610213578063fcf0ec43146101825763fdae72a514610053575f80fd5b3461017e5761038036600319011261017e57366103041161017e5760405161007c6080826103d0565b6080368237610304358152610324356020820152610344356040820152610364356060820152604051907f6183f6b40000000000000000000000000000000000000000000000000000000082526103006004808401375f61030483015b600482106101685783602081610384816001600160a01b037f0000000000000000000000000000000000000000000000000000000000000000165afa801561015d576020915f91610130575b506040519015158152f35b6101509150823d8411610156575b61014881836103d0565b81019061042b565b82610125565b503d61013e565b6040513d5f823e3d90fd5b60208060019285518152019301910190916100d9565b5f80fd5b3461017e5761046036600319011261017e57366103041161017e57366104641161017e5760405163366e582760e21b815261030060048083013761016061030480830137602081610464816001600160a01b037f0000000000000000000000000000000000000000000000000000000000000000165afa801561015d576020915f9161013057506040519015158152f35b3461017e5761046036600319011261017e57366103041161017e57366103c41161017e57366104641161017e5760405161016061025081836103d0565b3682376103043581525f5b60058110156102c1578060051b80610324018260010190816001116102ad5761028690359185610406565b526103c4019080600601806006116102ad576102a6600193359185610406565b520161025b565b634e487b7160e01b5f52601160045260245ffd5b506040519063366e582760e21b82526103006004808401375f61030483015b600b82106103365783602081610464816001600160a01b037f0000000000000000000000000000000000000000000000000000000000000000165afa801561015d576020915f9161013057506040519015158152f35b60208060019285518152019301910190916102e0565b3461017e575f36600319011261017e5760206040516001600160a01b037f0000000000000000000000000000000000000000000000000000000000000000168152f35b3461017e575f36600319011261017e576020906001600160a01b037f0000000000000000000000000000000000000000000000000000000000000000168152f35b90601f8019910116810190811067ffffffffffffffff8211176103f257604052565b634e487b7160e01b5f52604160045260245ffd5b90600b8110156104175760051b0190565b634e487b7160e01b5f52603260045260245ffd5b9081602091031261017e5751801515810361017e579056fea2646970667358221220b2899f878363395f99524b2d9a310eec83fca1c9f379243f56477d0af85a0fee64736f6c634300081b0033","linkReferences":{}},"methodIdentifiers":{"checkClue(uint256[24],uint256,uint256[5],uint256[5])":"7de4eb7b","checkSolve(uint256[24],uint256,uint256,uint256,uint256)":"fdae72a5","solveVerifier()":"33b42d8b","verifier()":"2b7ac3f3","verifyClue(uint256[24],uint256[11])":"fcf0ec43"},"id":42}