{
  "_format": "hh-sol-artifact-1",
  "contractName": "Consumer",
  "sourceName": "contracts/Consumer.sol",
  "abi": [
    {
      "inputs": [
        {
          "internalType": "address",
          "name": "_rand",
          "type": "address"
        }
      ],
      "stateMutability": "payable",
      "type": "constructor"
    },
    {
      "inputs": [],
      "name": "Misconfigured",
      "type": "error"
    },
    {
      "inputs": [],
      "name": "SecretMismatch",
      "type": "error"
    },
    {
      "anonymous": false,
      "inputs": [
        {
          "indexed": true,
          "internalType": "bytes32",
          "name": "owner",
          "type": "bytes32"
        },
        {
          "indexed": false,
          "internalType": "uint256",
          "name": "id",
          "type": "uint256"
        },
        {
          "indexed": false,
          "internalType": "bytes32",
          "name": "key",
          "type": "bytes32"
        }
      ],
      "name": "Chain",
      "type": "event"
    },
    {
      "anonymous": false,
      "inputs": [
        {
          "indexed": false,
          "internalType": "uint256",
          "name": "id",
          "type": "uint256"
        },
        {
          "indexed": false,
          "internalType": "bytes32",
          "name": "formerSecret",
          "type": "bytes32"
        }
      ],
      "name": "Reveal",
      "type": "event"
    },
    {
      "anonymous": false,
      "inputs": [
        {
          "indexed": false,
          "internalType": "uint256",
          "name": "id",
          "type": "uint256"
        },
        {
          "indexed": false,
          "internalType": "bytes32",
          "name": "preimage",
          "type": "bytes32"
        }
      ],
      "name": "Undermine",
      "type": "event"
    },
    {
      "inputs": [
        {
          "internalType": "address",
          "name": "owner",
          "type": "address"
        },
        {
          "internalType": "bool",
          "name": "onlySameTx",
          "type": "bool"
        },
        {
          "internalType": "bool",
          "name": "underminable",
          "type": "bool"
        },
        {
          "internalType": "bytes32",
          "name": "preimage",
          "type": "bytes32"
        }
      ],
      "name": "chain",
      "outputs": [
        {
          "internalType": "uint256",
          "name": "id",
          "type": "uint256"
        }
      ],
      "stateMutability": "payable",
      "type": "function"
    },
    {
      "inputs": [
        {
          "internalType": "address",
          "name": "owner",
          "type": "address"
        },
        {
          "internalType": "bool",
          "name": "underminable",
          "type": "bool"
        },
        {
          "internalType": "bytes32",
          "name": "preimage",
          "type": "bytes32"
        },
        {
          "internalType": "bytes32",
          "name": "key",
          "type": "bytes32"
        }
      ],
      "name": "chainTo",
      "outputs": [
        {
          "internalType": "uint256",
          "name": "",
          "type": "uint256"
        }
      ],
      "stateMutability": "payable",
      "type": "function"
    },
    {
      "inputs": [],
      "name": "latestId",
      "outputs": [
        {
          "internalType": "uint256",
          "name": "",
          "type": "uint256"
        }
      ],
      "stateMutability": "view",
      "type": "function"
    },
    {
      "inputs": [
        {
          "internalType": "uint256",
          "name": "idParam",
          "type": "uint256"
        }
      ],
      "name": "link",
      "outputs": [
        {
          "components": [
            {
              "internalType": "uint256",
              "name": "id",
              "type": "uint256"
            },
            {
              "internalType": "address",
              "name": "owner",
              "type": "address"
            },
            {
              "internalType": "bool",
              "name": "underminable",
              "type": "bool"
            },
            {
              "internalType": "bytes32",
              "name": "key",
              "type": "bytes32"
            },
            {
              "internalType": "bytes32",
              "name": "preimage",
              "type": "bytes32"
            },
            {
              "internalType": "bytes32",
              "name": "revealed",
              "type": "bytes32"
            }
          ],
          "internalType": "struct Consumer.Link",
          "name": "l",
          "type": "tuple"
        }
      ],
      "stateMutability": "view",
      "type": "function"
    },
    {
      "inputs": [
        {
          "internalType": "uint256",
          "name": "id",
          "type": "uint256"
        },
        {
          "internalType": "bytes32",
          "name": "revealedSecret",
          "type": "bytes32"
        }
      ],
      "name": "tell",
      "outputs": [],
      "stateMutability": "nonpayable",
      "type": "function"
    }
  ],
  "bytecode": "0x60c060405261001461000f610106565b61017c565b61001c61004a565b6112e16101b382396080518161111e015260a05181818161056b015281816108ef015261096901526112e190f35b60405190565b601f801991011690565b634e487b7160e01b5f52604160045260245ffd5b9061007890610050565b810190811060018060401b0382111761009057604052565b61005a565b906100a86100a161004a565b928361006e565b565b5f80fd5b60018060a01b031690565b6100c2906100ae565b90565b6100ce816100b9565b036100d557565b5f80fd5b905051906100e6826100c5565b565b90602082820312610101576100fe915f016100d9565b90565b6100aa565b6101246114948038038061011981610095565b9283398101906100e8565b90565b90565b90565b90565b61014461013f61014992610127565b61012d565b61012a565b90565b6101555f610130565b90565b90565b5f1b90565b61017461016f6101799261012a565b61015b565b610158565b90565b60a05261019761019261018d61014c565b610160565b6101a0565b608052565b5f90565b6101a861019c565b505f5260205f209056fe60806040526004361015610013575b6103ec565b61001d5f3561006c565b806342833289146100675780634bfbbe0b1461006257806377b146a51461005d5780637fbf5db0146100585763b1a867d50361000e576103b7565b6102b0565b61022c565b6101b1565b61016f565b60e01c90565b60405190565b5f80fd5b60018060a01b031690565b6100909061007c565b90565b61009c81610087565b036100a357565b5f80fd5b905035906100b482610093565b565b151590565b6100c4816100b6565b036100cb57565b5f80fd5b905035906100dc826100bb565b565b90565b6100ea816100de565b036100f157565b5f80fd5b90503590610102826100e1565b565b6080818303126101455761011a825f83016100a7565b9261014261012b84602085016100cf565b9361013981604086016100cf565b936060016100f5565b90565b610078565b90565b6101569061014a565b9052565b919061016d905f6020850194019061014d565b565b61019a610189610180366004610104565b92919091610556565b610191610072565b9182918261015a565b0390f35b5f80fd5b5f9103126101ac57565b610078565b346101e1576101c13660046101a2565b6101dd6101cc610692565b6101d4610072565b9182918261015a565b0390f35b61019e565b608081830312610227576101fc825f83016100a7565b9261022461020d84602085016100cf565b9361021b81604086016100f5565b936060016100f5565b90565b610078565b61025761024661023d3660046101e6565b929190916106a7565b61024e610072565b9182918261015a565b0390f35b6102648161014a565b0361026b57565b5f80fd5b9050359061027c8261025b565b565b91906040838203126102a6578061029a6102a3925f860161026f565b936020016100f5565b90565b610078565b5f0190565b346102df576102c96102c336600461027e565b90610881565b6102d1610072565b806102db816102ab565b0390f35b61019e565b906020828203126102fd576102fa915f0161026f565b90565b610078565b61030b9061014a565b9052565b61031890610087565b9052565b610325906100b6565b9052565b610332906100de565b9052565b9060a0806103a09361034e5f8201515f860190610302565b6103606020820151602086019061030f565b6103726040820151604086019061031c565b61038460608201516060860190610329565b61039660808201516080860190610329565b0151910190610329565b565b91906103b5905f60c08501940190610336565b565b346103e7576103e36103d26103cd3660046102e4565b610ccd565b6103da610072565b918291826103a2565b0390f35b61019e565b5f80fd5b5f90565b90565b61040b6104066104109261007c565b6103f4565b61007c565b90565b61041c906103f7565b90565b61042890610413565b90565b610434906103f7565b90565b6104409061042b565b90565b601f801991011690565b634e487b7160e01b5f52604160045260245ffd5b9061046b90610443565b810190811067ffffffffffffffff82111761048557604052565b61044d565b60e01b90565b9050519061049d826100e1565b565b906020828203126104b8576104b5915f01610490565b90565b610078565b6104c690610087565b9052565b6104d3906100b6565b9052565b9160206104f89294936104f160408201965f8301906104bd565b01906104ca565b565b610502610072565b3d5f823e3d90fd5b90565b61052161051c6105269261050a565b6103f4565b61014a565b90565b6105325f61050d565b90565b5f1b90565b61054e6105496105539261014a565b610535565b6100de565b90565b906020906105626103f0565b5061059461058f7f000000000000000000000000000000000000000000000000000000000000000061041f565b610437565b6105b6638492c30b9492946105c16105aa610072565b9687958694859461048a565b8452600484016104d7565b03915afa908115610664575f91610636575b50806105f66105f06105eb6105e6610529565b61053a565b6100de565b916100de565b146106135761061092610607610e08565b92909192610f3d565b90565b61061b610072565b6321f9f13f60e11b815280610632600482016102ab565b0390fd5b610657915060203d811161065d575b61064f8183610461565b81019061049f565b5f6105d3565b503d610645565b6104fa565b5f1c90565b90565b61067d61068291610669565b61066e565b90565b61068f9054610671565b90565b61069a6103f0565b506106a45f610685565b90565b916106c09391926106b66103f0565b5092909192610f3d565b90565b6106d76106d26106dc9261014a565b6103f4565b61014a565b90565b906106e9906106c3565b5f5260205260405f2090565b90565b61070461070991610669565b6106f5565b90565b61071690546106f8565b90565b610722906100de565b90565b9061072f90610719565b5f5260205260405f2090565b5f80fd5b9061075261074b610072565b9283610461565b565b905051906107618261025b565b565b919060408382031261079d576107969061077d604061073f565b9361078a825f8301610754565b5f860152602001610490565b6020830152565b61073b565b906040828203126107bb576107b8915f01610763565b90565b610078565b6107c9906100de565b9052565b91906107e0905f602085019401906107c0565b565b6107ec905161014a565b90565b905051906107fc826100bb565b565b9060208282031261081757610814915f016107ef565b90565b610078565b906108285f1991610535565b9181191691161790565b61083b90610669565b90565b9061085361084e61085a92610719565b610832565b825461081c565b9055565b91602061087f92949361087860408201965f83019061014d565b01906107c0565b565b6108a86108a3600161089d610898600486906106df565b61070c565b90610725565b61070c565b6108c96108c36108be6108b9610529565b61053a565b6100de565b916100de565b03610af85761093f60406108e76108e2600585906106df565b61070c565b6109186109137f000000000000000000000000000000000000000000000000000000000000000061041f565b610437565b610934630cf9dff7610928610072565b9586948593849361048a565b8352600483016107cd565b03915afa908115610af3575f91610ac5575b5061095b83611152565b906109c6602061099261098d7f000000000000000000000000000000000000000000000000000000000000000061041f565b610437565b63ba065e1f906109bb6109a65f87016107e2565b926109af610072565b9586948593849361048a565b83526004830161015a565b03915afa908115610ac0575f91610a92575b50610a7e575b5080610a056109ff6109fa6109f5600487906106df565b61070c565b6100de565b916100de565b03610a5b57610a1f90610a1a84916001610725565b61083e565b907f517252ac860052b1823fd92961e2f6d30a8d2bb826f16e4a6f982160e21928cb91610a56610a4d610072565b9283928361085e565b0390a1565b610a63610072565b63162c5b6560e01b815280610a7a600482016102ab565b0390fd5b610a8c908390839091611185565b5f6109de565b610ab3915060203d8111610ab9575b610aab8183610461565b8101906107fe565b5f6109d8565b503d610aa1565b6104fa565b610ae6915060403d8111610aec575b610ade8183610461565b8101906107a2565b5f610951565b503d610ad4565b6104fa565b5050565b610b0660c061073f565b90565b5f90565b5f90565b5f90565b5f90565b610b21610afc565b906020808080808087610b32610b09565b815201610b3d610b0d565b815201610b48610b11565b815201610b53610b15565b815201610b5e610b15565b815201610b69610b15565b81525050565b610b77610b19565b90565b90565b610b91610b8c610b9692610b7a565b6103f4565b61014a565b90565b610ba36060610b7d565b90565b1b90565b610bc990610bc3610bbd610bce9461014a565b916100de565b90610ba6565b6100de565b90565b6bffffffffffffffffffffffff191690565b610bec90610bd1565b90565b60601c90565b610c01610c0691610bef565b6103f7565b90565b610c1290610bf5565b90565b90565b610c2c610c27610c3192610c15565b6103f4565b61014a565b90565b610c3e60a0610c18565b90565b1c90565b610c6490610c5e610c58610c699461014a565b916100de565b90610c41565b6100de565b90565b610c80610c7b610c859261050a565b610535565b6100de565b90565b610c9260c061073f565b90565b90610c9f9061014a565b9052565b90610cad90610087565b9052565b90610cbb906100b6565b9052565b90610cc9906100de565b9052565b610cd5610b6f565b90610cea610ce5600583906106df565b61070c565b9182610d0d610d07610d02610cfd610529565b61053a565b6100de565b916100de565b14610dfe5750610df190610de8610d2e610d29600484906106df565b61070c565b610ddf610d45610d40600386906106df565b61070c565b9395610d7b610d6c610d67610d6288610d5c610b99565b90610baa565b610be3565b610c09565b95610d75610c34565b90610c45565b610d8d610d875f610c6c565b916100de565b145f14610df457610dd65f5b610dcd610daf610daa876001610725565b61070c565b97610dc4610dbb610c88565b9b5f8d01610c95565b60208b01610ca3565b60408901610cb1565b60608701610cbf565b60808501610cbf565b60a08301610cbf565b90565b610dd66001610d99565b91505090565b5f90565b610e10610e04565b50335f526e2fd5aeb385d324b580fca7c83823a0803314610e62575b506dd9ecebf3c23529de49815dac1c4c803314610e4a575b505f5190565b5f8060209238905afa15610e5e575f610e44565b3838fd5b5f8060209238905afa15610e76575f610e2c565b3838fd5b90610e8490610719565b5f5260205260405f2090565b90565b610ea7610ea2610eac92610e90565b6103f4565b61014a565b90565b610eb96001610e93565b90565b610edb90610ed5610ecf610ee09461014a565b9161014a565b90610ba6565b61014a565b90565b610eec906103f7565b90565b610f03610efe610f089261007c565b6103f4565b61014a565b90565b6001610f17910161014a565b90565b90565b90610f32610f2d610f39926106c3565b610f1a565b825461081c565b9055565b93929193610f496103f0565b5084610f6c610f66610f61610f5c610529565b61053a565b6100de565b916100de565b148015611114575b6110f157610fc890610f90610f8b60028890610e7a565b610685565b925f146110de57610fc2610fbd610fb6610fa8610eaf565b610fb0610c34565b90610ebc565b5b92610ee3565b610eef565b1761053a565b90610fdd610fd8600483906106df565b61070c565b610fef610fe9876100de565b916100de565b146110ab575b5061106561100a6110055f610685565b610f0b565b611014815f610f1d565b9461102a83611025600389906106df565b61083e565b61103f8161103a600489906106df565b61083e565b6110548461104f600589906106df565b61083e565b61106086916002610e7a565b610f1d565b83916110917f7e0786ff457ce0bc5e3f599bcc220605e18c56cd9ebed35182b29397697ea46c92610719565b926110a661109d610072565b9283928361085e565b0390a2565b6110bf6110ba600383906106df565b61070c565b6110d16110cb846100de565b916100de565b03610ff557929350505090565b610fc2610fbd6110ec610529565b610fb7565b6110f9610072565b6321f9f13f60e11b815280611110600482016102ab565b0390fd5b50846111486111427f00000000000000000000000000000000000000000000000000000000000000006100de565b916100de565b14610f74565b5f90565b61115a61114e565b505f5260205f2090565b61116e90516100de565b90565b61117d61118291610669565b6106c3565b90565b909160206111939101611164565b6111b46111ae6111a96111a4610529565b61053a565b6100de565b916100de565b146112a757816111df6111d96111d46111cf600486906106df565b61070c565b6100de565b916100de565b146112a35761121161120c6111fe6111f9600385906106df565b61070c565b611206610c34565b90610c45565b611171565b61122a61122461121f610529565b61014a565b9161014a565b146112805761127961127e9282817fbe48847c637d143d69ac15740d39544624cdfa8d4f6ce738ecf3e35085c1f4d69161126e611265610072565b9283928361085e565b0390a19160046106df565b61083e565b565b611288610072565b6321f9f13f60e11b81528061129f600482016102ab565b0390fd5b5050565b505056fea2646970667358221220a6869c4056bb23e25f4131c65282fce5515f77a57e87fe753a4745a011e1b6b064736f6c63430008190033",
  "linkReferences": {},
  "deployedLinkReferences": {}
}