{
  "_format": "hh-sol-artifact-1",
  "contractName": "Random",
  "sourceName": "contracts/Random.sol",
  "abi": [
    {
      "inputs": [],
      "name": "Misconfigured",
      "type": "error"
    },
    {
      "inputs": [],
      "name": "MissingPayment",
      "type": "error"
    },
    {
      "inputs": [],
      "name": "NotInCohort",
      "type": "error"
    },
    {
      "inputs": [],
      "name": "SecretMismatch",
      "type": "error"
    },
    {
      "inputs": [],
      "name": "SignerMismatch",
      "type": "error"
    },
    {
      "inputs": [],
      "name": "UnableToService",
      "type": "error"
    },
    {
      "anonymous": false,
      "inputs": [
        {
          "indexed": true,
          "internalType": "address",
          "name": "provider",
          "type": "address"
        },
        {
          "indexed": false,
          "internalType": "bytes32",
          "name": "section",
          "type": "bytes32"
        }
      ],
      "name": "Bleach",
      "type": "event"
    },
    {
      "anonymous": false,
      "inputs": [
        {
          "indexed": false,
          "internalType": "bytes32",
          "name": "key",
          "type": "bytes32"
        },
        {
          "indexed": false,
          "internalType": "bytes32",
          "name": "seed",
          "type": "bytes32"
        }
      ],
      "name": "Cast",
      "type": "event"
    },
    {
      "anonymous": false,
      "inputs": [
        {
          "indexed": false,
          "internalType": "bytes32",
          "name": "key",
          "type": "bytes32"
        }
      ],
      "name": "Chop",
      "type": "event"
    },
    {
      "anonymous": false,
      "inputs": [
        {
          "indexed": false,
          "internalType": "bytes32",
          "name": "key",
          "type": "bytes32"
        }
      ],
      "name": "Expired",
      "type": "event"
    },
    {
      "anonymous": false,
      "inputs": [
        {
          "indexed": true,
          "internalType": "address",
          "name": "provider",
          "type": "address"
        },
        {
          "indexed": false,
          "internalType": "bytes32",
          "name": "section",
          "type": "bytes32"
        },
        {
          "indexed": false,
          "internalType": "uint256",
          "name": "index",
          "type": "uint256"
        }
      ],
      "name": "Heat",
      "type": "event"
    },
    {
      "anonymous": false,
      "inputs": [
        {
          "indexed": true,
          "internalType": "address",
          "name": "provider",
          "type": "address"
        },
        {
          "indexed": false,
          "internalType": "uint256",
          "name": "offset",
          "type": "uint256"
        },
        {
          "indexed": false,
          "internalType": "address",
          "name": "pointer",
          "type": "address"
        }
      ],
      "name": "Ink",
      "type": "event"
    },
    {
      "anonymous": false,
      "inputs": [
        {
          "indexed": true,
          "internalType": "address",
          "name": "provider",
          "type": "address"
        },
        {
          "indexed": false,
          "internalType": "bytes32",
          "name": "location",
          "type": "bytes32"
        },
        {
          "indexed": false,
          "internalType": "bytes32",
          "name": "formerSecret",
          "type": "bytes32"
        }
      ],
      "name": "Reveal",
      "type": "event"
    },
    {
      "anonymous": false,
      "inputs": [
        {
          "indexed": true,
          "internalType": "address",
          "name": "owner",
          "type": "address"
        },
        {
          "indexed": false,
          "internalType": "bytes32",
          "name": "key",
          "type": "bytes32"
        }
      ],
      "name": "Start",
      "type": "event"
    },
    {
      "inputs": [
        {
          "internalType": "address",
          "name": "account",
          "type": "address"
        },
        {
          "internalType": "address",
          "name": "token",
          "type": "address"
        }
      ],
      "name": "balanceOf",
      "outputs": [
        {
          "internalType": "uint256",
          "name": "",
          "type": "uint256"
        }
      ],
      "stateMutability": "view",
      "type": "function"
    },
    {
      "inputs": [
        {
          "components": [
            {
              "internalType": "address",
              "name": "provider",
              "type": "address"
            },
            {
              "internalType": "bool",
              "name": "durationIsTimestamp",
              "type": "bool"
            },
            {
              "internalType": "uint256",
              "name": "duration",
              "type": "uint256"
            },
            {
              "internalType": "address",
              "name": "token",
              "type": "address"
            },
            {
              "internalType": "uint256",
              "name": "price",
              "type": "uint256"
            },
            {
              "internalType": "uint256",
              "name": "offset",
              "type": "uint256"
            },
            {
              "internalType": "uint256",
              "name": "index",
              "type": "uint256"
            }
          ],
          "internalType": "struct PreimageLocation.Info",
          "name": "info",
          "type": "tuple"
        }
      ],
      "name": "bleach",
      "outputs": [],
      "stateMutability": "payable",
      "type": "function"
    },
    {
      "inputs": [
        {
          "internalType": "bytes32",
          "name": "key",
          "type": "bytes32"
        },
        {
          "components": [
            {
              "internalType": "address",
              "name": "provider",
              "type": "address"
            },
            {
              "internalType": "bool",
              "name": "durationIsTimestamp",
              "type": "bool"
            },
            {
              "internalType": "uint256",
              "name": "duration",
              "type": "uint256"
            },
            {
              "internalType": "address",
              "name": "token",
              "type": "address"
            },
            {
              "internalType": "uint256",
              "name": "price",
              "type": "uint256"
            },
            {
              "internalType": "uint256",
              "name": "offset",
              "type": "uint256"
            },
            {
              "internalType": "uint256",
              "name": "index",
              "type": "uint256"
            }
          ],
          "internalType": "struct PreimageLocation.Info[]",
          "name": "info",
          "type": "tuple[]"
        },
        {
          "internalType": "bytes32[]",
          "name": "revealed",
          "type": "bytes32[]"
        }
      ],
      "name": "cast",
      "outputs": [
        {
          "internalType": "enum Random.CastState",
          "name": "",
          "type": "uint8"
        }
      ],
      "stateMutability": "payable",
      "type": "function"
    },
    {
      "inputs": [
        {
          "internalType": "bytes32",
          "name": "key",
          "type": "bytes32"
        },
        {
          "components": [
            {
              "internalType": "address",
              "name": "provider",
              "type": "address"
            },
            {
              "internalType": "bool",
              "name": "durationIsTimestamp",
              "type": "bool"
            },
            {
              "internalType": "uint256",
              "name": "duration",
              "type": "uint256"
            },
            {
              "internalType": "address",
              "name": "token",
              "type": "address"
            },
            {
              "internalType": "uint256",
              "name": "price",
              "type": "uint256"
            },
            {
              "internalType": "uint256",
              "name": "offset",
              "type": "uint256"
            },
            {
              "internalType": "uint256",
              "name": "index",
              "type": "uint256"
            }
          ],
          "internalType": "struct PreimageLocation.Info[]",
          "name": "info",
          "type": "tuple[]"
        }
      ],
      "name": "chop",
      "outputs": [],
      "stateMutability": "payable",
      "type": "function"
    },
    {
      "inputs": [
        {
          "components": [
            {
              "internalType": "address",
              "name": "provider",
              "type": "address"
            },
            {
              "internalType": "bool",
              "name": "durationIsTimestamp",
              "type": "bool"
            },
            {
              "internalType": "uint256",
              "name": "duration",
              "type": "uint256"
            },
            {
              "internalType": "address",
              "name": "token",
              "type": "address"
            },
            {
              "internalType": "uint256",
              "name": "price",
              "type": "uint256"
            },
            {
              "internalType": "uint256",
              "name": "offset",
              "type": "uint256"
            },
            {
              "internalType": "uint256",
              "name": "index",
              "type": "uint256"
            }
          ],
          "internalType": "struct PreimageLocation.Info",
          "name": "info",
          "type": "tuple"
        }
      ],
      "name": "consumed",
      "outputs": [
        {
          "internalType": "bool",
          "name": "",
          "type": "bool"
        }
      ],
      "stateMutability": "view",
      "type": "function"
    },
    {
      "inputs": [
        {
          "internalType": "uint256",
          "name": "timeline",
          "type": "uint256"
        }
      ],
      "name": "expired",
      "outputs": [
        {
          "internalType": "bool",
          "name": "",
          "type": "bool"
        }
      ],
      "stateMutability": "view",
      "type": "function"
    },
    {
      "inputs": [
        {
          "internalType": "address",
          "name": "recipient",
          "type": "address"
        },
        {
          "internalType": "address",
          "name": "token",
          "type": "address"
        },
        {
          "internalType": "int256",
          "name": "amount",
          "type": "int256"
        }
      ],
      "name": "handoff",
      "outputs": [],
      "stateMutability": "payable",
      "type": "function"
    },
    {
      "inputs": [
        {
          "internalType": "uint256",
          "name": "required",
          "type": "uint256"
        },
        {
          "components": [
            {
              "internalType": "address",
              "name": "provider",
              "type": "address"
            },
            {
              "internalType": "bool",
              "name": "durationIsTimestamp",
              "type": "bool"
            },
            {
              "internalType": "uint256",
              "name": "duration",
              "type": "uint256"
            },
            {
              "internalType": "address",
              "name": "token",
              "type": "address"
            },
            {
              "internalType": "uint256",
              "name": "price",
              "type": "uint256"
            },
            {
              "internalType": "uint256",
              "name": "offset",
              "type": "uint256"
            },
            {
              "internalType": "uint256",
              "name": "index",
              "type": "uint256"
            }
          ],
          "internalType": "struct PreimageLocation.Info",
          "name": "settings",
          "type": "tuple"
        },
        {
          "components": [
            {
              "internalType": "address",
              "name": "provider",
              "type": "address"
            },
            {
              "internalType": "bool",
              "name": "durationIsTimestamp",
              "type": "bool"
            },
            {
              "internalType": "uint256",
              "name": "duration",
              "type": "uint256"
            },
            {
              "internalType": "address",
              "name": "token",
              "type": "address"
            },
            {
              "internalType": "uint256",
              "name": "price",
              "type": "uint256"
            },
            {
              "internalType": "uint256",
              "name": "offset",
              "type": "uint256"
            },
            {
              "internalType": "uint256",
              "name": "index",
              "type": "uint256"
            }
          ],
          "internalType": "struct PreimageLocation.Info[]",
          "name": "potentialLocations",
          "type": "tuple[]"
        }
      ],
      "name": "heat",
      "outputs": [
        {
          "internalType": "bytes32",
          "name": "",
          "type": "bytes32"
        }
      ],
      "stateMutability": "payable",
      "type": "function"
    },
    {
      "inputs": [
        {
          "components": [
            {
              "internalType": "address",
              "name": "provider",
              "type": "address"
            },
            {
              "internalType": "bool",
              "name": "durationIsTimestamp",
              "type": "bool"
            },
            {
              "internalType": "uint256",
              "name": "duration",
              "type": "uint256"
            },
            {
              "internalType": "address",
              "name": "token",
              "type": "address"
            },
            {
              "internalType": "uint256",
              "name": "price",
              "type": "uint256"
            },
            {
              "internalType": "uint256",
              "name": "offset",
              "type": "uint256"
            },
            {
              "internalType": "uint256",
              "name": "index",
              "type": "uint256"
            }
          ],
          "internalType": "struct PreimageLocation.Info",
          "name": "info",
          "type": "tuple"
        },
        {
          "internalType": "bytes",
          "name": "data",
          "type": "bytes"
        }
      ],
      "name": "ink",
      "outputs": [],
      "stateMutability": "payable",
      "type": "function"
    },
    {
      "inputs": [
        {
          "internalType": "address",
          "name": "owner",
          "type": "address"
        },
        {
          "internalType": "bool",
          "name": "onlySameTx",
          "type": "bool"
        }
      ],
      "name": "latest",
      "outputs": [
        {
          "internalType": "bytes32",
          "name": "key",
          "type": "bytes32"
        }
      ],
      "stateMutability": "view",
      "type": "function"
    },
    {
      "inputs": [
        {
          "components": [
            {
              "internalType": "address",
              "name": "provider",
              "type": "address"
            },
            {
              "internalType": "bool",
              "name": "durationIsTimestamp",
              "type": "bool"
            },
            {
              "internalType": "uint256",
              "name": "duration",
              "type": "uint256"
            },
            {
              "internalType": "address",
              "name": "token",
              "type": "address"
            },
            {
              "internalType": "uint256",
              "name": "price",
              "type": "uint256"
            },
            {
              "internalType": "uint256",
              "name": "offset",
              "type": "uint256"
            },
            {
              "internalType": "uint256",
              "name": "index",
              "type": "uint256"
            }
          ],
          "internalType": "struct PreimageLocation.Info",
          "name": "info",
          "type": "tuple"
        }
      ],
      "name": "pointer",
      "outputs": [
        {
          "internalType": "address",
          "name": "",
          "type": "address"
        }
      ],
      "stateMutability": "view",
      "type": "function"
    },
    {
      "inputs": [
        {
          "internalType": "bytes32",
          "name": "key",
          "type": "bytes32"
        }
      ],
      "name": "randomness",
      "outputs": [
        {
          "components": [
            {
              "internalType": "address",
              "name": "owner",
              "type": "address"
            },
            {
              "internalType": "bool",
              "name": "usesTimestamp",
              "type": "bool"
            },
            {
              "internalType": "uint256",
              "name": "duration",
              "type": "uint256"
            },
            {
              "internalType": "uint256",
              "name": "start",
              "type": "uint256"
            },
            {
              "internalType": "uint256",
              "name": "timeline",
              "type": "uint256"
            },
            {
              "internalType": "uint256",
              "name": "contributed",
              "type": "uint256"
            },
            {
              "internalType": "bytes32",
              "name": "seed",
              "type": "bytes32"
            }
          ],
          "internalType": "struct IRandom.Randomness",
          "name": "",
          "type": "tuple"
        }
      ],
      "stateMutability": "view",
      "type": "function"
    }
  ],
  "bytecode": "0x60808060405234601557611d2c908161001a8239f35b5f80fdfe60806040526004361015610011575f80fd5b60e05f35811c90816302a381bf14610c845781630493b93c146109525781630cf9dff7146108695781632ed8fe331461082f5781633af299ee146108015781635b845a8014610572578163705b013c146104e957816374ad136e14610280575080638492c30b146101e7578063ba065e1f146101bf578063f7888aec146101715763f98dea29146100a0575f80fd5b606036600319011261016d5767ffffffffffffffff60243581811161016d576100cd903690600401610e5e565b60449291923591821161016d573660238301121561016d578160040135926100f484610fc8565b926101026040519485610ebf565b8484526020946024602086019160051b8301019136831161016d57602401905b82821061015e576101378686866004356112df565b604051600382101561014a576020918152f35b634e487b7160e01b5f52602160045260245ffd5b81358152908601908601610122565b5f80fd5b3461016d57604036600319011261016d5761018a610e1e565b610192610e34565b906001600160a01b038091165f52600360205260405f2091165f52602052602060405f2054604051908152f35b3461016d57602036600319011261016d5760206101dd600435611871565b6040519015158152f35b3461016d57604036600319011261016d57610200610e1e565b602435801515810361016d5761022e61021761108b565b80516020918201205f19015f9081522060ff191690565b825f5260205260405f205c90811561024c575b602082604051908152f35b905061026f576001600160a01b03165f526002602052602060405f205482610241565b600460405163d3e0741d60e01b8152fd5b36600319011261016d5761029336610ee1565b61029b6115f6565b346104bf575b6001600160a01b038251166001600160a01b03821603610495576102e3826001600160a01b03606064ffffffffff60a01b604084015160a01b16920151161790565b6102ed8184611a88565b60051c926102fa81611741565b6040519081527fbd86c8c76936132dbc24244b04f4607b8bc2b75dd1cb36379bbedeee254b926060206001600160a01b03861692a25f9160a0820151948501945f9160015b15610455575b5f968315610446575b808484011161043c575b6001600160a01b038551165f52600660205260405f20825f5260205260405f2060808601515f5260205260405f208360081c5f5260205260405f2054976001600160a01b038651165f52600660205260405f20835f5260205260405f2060808701515f5260205260405f208460081c5f526020525f1960ff85161b85610100031c891760405f2055608086015196858802019560ff85169860015b1561041e575b5f998960018d831b60ff1c14610414575b50600101996103f3565b909803978961040a565b868a106103f95792995091975094955093610100939092019161033f565b8281039350610358565b60ff831661010003935061034e565b868210610345575050506001600160a01b0383165f5260036020526001600160a01b03606060405f20920151165f5260205260405f209081540190555f80f35b60046040517f10c74b03000000000000000000000000000000000000000000000000000000008152fd5b6001600160a01b0381165f52600360205260405f205f805260205260405f203481540190556102a1565b3461016d5736600319011261016d576004356001600160a01b0380821680920361016d576020915f526005825260405f2061054a61052636610ee1565b6001600160a01b03606064ffffffffff60a01b604084015160a01b16920151161790565b5f52825260405f206084355f52825260405f2060a4355f52825260405f205416604051908152f35b61010036600319011261016d5761058836610ee1565b67ffffffffffffffff60e43581811161016d573660238201121561016d57806004013591821161016d57366024838301011161016d578160051c91801580156107f5575b6107e4576105d86115f6565b346107ba575b6001600160a01b03809116805f526020906003825260405f206060880190848251165f52835260405f205490608089019283518902809310610790575f52600384528460405f209151165f52835260405f209081540390558287511696871561026f57610669906001600160a01b03606064ffffffffff60a01b604084015160a01b16920151161790565b90875f526004835260405f20825f52835260405f2081515f5283525f836040822054968060246106988261106f565b9a6106a66040519c8d610ebf565b828c5201838b0137880101528551968760401b6bfe61000180600a3d393df3000161fffe8911880152600b8801601588015ff0948515610783577f4a9be6e850eedc66e4825f5b36116362dc33883bde2f20bfd7e22c8f6c8712029860409852895f5260058552875f20845f528552875f2083515f528552875f20875f528552875f20951694857fffffffffffffffffffffffff0000000000000000000000000000000000000000825416179055850191885f5260048452865f20905f528352855f2090515f52825280855f205584519360801b178352820152a2005b63301164255f526004601cfd5b60046040517f62128b04000000000000000000000000000000000000000000000000000000008152fd5b6001600160a01b0381165f52600360205260405f205f805260205260405f203481540190556105de565b60046040516321f9f13f60e11b8152fd5b50601f811615156105cc565b3461016d5736600319011261016d5760206101dd61082161052636610ee1565b61082a36610ee1565b6119f7565b604036600319011261016d5760243567ffffffffffffffff811161016d5761085e610867913690600401610e5e565b906004356110d5565b005b3461016d5760208060031936011261016d575f60c060405161088a81610e8f565b82815282848201528260408201528260608201528260808201528260a082015201526004355f525f815260405f2054908160601c916001825260405f205491604051906108d682610e8f565b848252808201906001808560081c161482526040830190647fffffffff8560091c168252606084019265ffffffffffff8660301c16845260c0608086019587875260ff60a082019816885201968752604051978852511515908701525160408601525160608501525160808401525160a08301525160c0820152f35b61012036600319011261016d5736602319011261016d576101043567ffffffffffffffff811161016d5761098a903690600401610e5e565b610995600435610fe0565b9161099e6115f6565b9034610c5a575b6001600160a01b036109b5611012565b161561026f57600435158015610c4e575b8015610c43575b61026f57606435647fffffffff8116036107e4575f925f905f908015610c2f576109fb606085979501611028565b9360015b15610c1d575b5f90610a1281848a61103c565b6001600160a01b03610a2660608301611028565b166001600160a01b038816036107e457602081013580151580910361016d57610a4d61104c565b1515036107e4576064356040820135116107e457610a73610a6e3683610f55565b611741565b610a8681610a813685610f55565b61179c565b610a96575b5050600101906109ff565b6001929695916080915f5260c08101356020528b610ab88860405f209261105b565b520135019301938460043514610acf578980610a8b565b505050919293505b6004351161026f578015159182610c08575b5050905061079057805160051b602080920120610b04611012565b610b0c61104c565b15610c01576001905b610b1d61104c565b15610be6576bffffffffffff00000000000065ffffffffff0042935b855f525f875260643560011b1760081b169260301b16906bffffffffffffffffffffffff199060601b16171760405f2055610b7561021761108b565b610b7d611012565b5f5282528060405f205d6001600160a01b03610b97611012565b165f52600282528060405f20556001600160a01b03610bb4611012565b167f7a1cb491da9915d087844d867ad00ac476b12041d231adb7a04be595db91e44b83604051848152a2604051908152f35b6bffffffffffff00000000000065ffffffffff004393610b39565b5f90610b15565b610c1492508193611659565b10808380610ae9565b818110610a0557505091929350610ad7565b634e487b7160e01b5f52603260045260245ffd5b5082600435116109cd565b5060ff600435116109c6565b6001600160a01b0382165f52600360205260405f205f805260205260405f203481540190556109a5565b606036600319011261016d57610c98610e1e565b610ca0610e34565b60443591610cac6115f6565b6001600160a01b0391808316610e18575080935b5f811215610e01575f03908284169384155f14610d0257505034106107905734925b165f52600360205260405f20905f5260205260405f209081540190555f80f35b9091610d0e3083611cc8565b9260405190826060523060405260601b80602c526f23b872dd000000000000000000000000600c5260205f6064601c82885af13d1560015f511417165f6060528260405215610d6d575b505050610d66903090611cc8565b0392610ce2565b86607483015282605483015230603483015260208201526f36c78516000000000000000000000000815260014614908115610de7575b5f9060846010389201836e22d473030f116ddee9f6b43ac78ba35af11615610dcc578080610d58565b600490677939f4248757f0fd5f5260a01c151560021b601801fd5b6e22d473030f116ddee9f6b43ac78ba33b15159150610da3565b8361086795949350610e1292611659565b916116c3565b93610cc0565b600435906001600160a01b038216820361016d57565b602435906001600160a01b038216820361016d57565b35906001600160a01b038216820361016d57565b9181601f8401121561016d5782359167ffffffffffffffff831161016d5760208085019460e0850201011161016d57565b60e0810190811067ffffffffffffffff821117610eab57604052565b634e487b7160e01b5f52604160045260245ffd5b90601f8019910116810190811067ffffffffffffffff821117610eab57604052565b60e090600319011261016d5760405190610efa82610e8f565b816001600160a01b03600435818116810361016d578252602435801515810361016d5760208301526044356040830152606435908116810361016d576060820152608435608082015260a43560a082015260c060c435910152565b91908260e091031261016d57604051610f6d81610e8f565b8092610f7881610e4a565b82526020810135801515810361016d5760c0918291602085015260408101356040850152610fa860608201610e4a565b60608501526080810135608085015260a081013560a08501520135910152565b67ffffffffffffffff8111610eab5760051b60200190565b90610fea82610fc8565b610ff76040519182610ebf565b8281528092611008601f1991610fc8565b0190602036910137565b6024356001600160a01b038116810361016d5790565b356001600160a01b038116810361016d5790565b9190811015610c2f5760e0020190565b604435801515810361016d5790565b8051821015610c2f5760209160051b010190565b67ffffffffffffffff8111610eab57601f01601f191660200190565b604051906040820182811067ffffffffffffffff821117610eab57604052600682527f72616e646f6d00000000000000000000000000000000000000000000000000006020830152565b919091346112ae575b805f5260019160209260018452604091825f20546112a6575f8552611105835f2054611871565b1561129657835f526008855260ff835f205416611296575f845f93885f9161112c86610fe0565b926001825b6111be575b5050505087815160051b910120036111ae57845f5260088652835f20600160ff198254161790555f8652835f20549115610c2f57846111a79361119c60607fa1470b3e580ca86a806ba4cff90a8a7327f837f862b313e7c406aa942d62997e9a01611028565b92019260601c611935565b51908152a1565b60048451635c49863b60e11b8152fd5b909192979594501561127d575b5f9086886111fa6111dd84848461103c565b6111f4610526366111ef88888861103c565b610f55565b906118c4565b15611247575b6112298596979860806112198689979661122e9661103c565b0135019a6111ef848c369361103c565b61191a565b611238828861105b565b52019190918b928a9594611131565b9661122961122e91608061121986868a9b9c848f848e9c9b6112689261103c565b0135019c9b5096509650505098915050611200565b888682101561128c57506111cb565b9394969180611136565b6004835163d3e0741d60e01b8152fd5b505050505050565b6001600160a01b036112be6115f6565b165f52600360205260405f205f805260205260405f203481540190556110de565b9091346115c5575b815f526001602091818352604094855f20546115bb576008845260ff865f2054166115ab575f965f61131884610fe0565b905f915f9187805b6114a5575b505087815160051b91012088036114955761147d575084815160051b910120855f5283855280875f20557f46adc4912184d61bbcd0939b961e9388a3fa9122b827b48b36fdf552759f3e7d8780518881528388820152a15f52828452855f20549186518581019381851067ffffffffffffffff861117610eab578594895281525f935b611462575b50806113ba93069161103c565b92805f525f8352845f2054916113cf83611871565b61140f575b5050506001600160a01b03806113e984611028565b165f52600382526113ff6060855f209401611028565b165f52525f209081540190555f90565b90611454877f3077f64f92ad91c6479071531304fa3c1e0bb9b63e130c746f3a564292f0ddc6949886941c809103988361144b60608a01611028565b9160601c611935565b8551908152a15f80806113d4565b9250848320928381528482805f030685106113a857506113ad565b9750505050505f918252525f20908154019055600290565b60048951635c49863b60e11b8152fd5b9b88919c15611593575b5f908d888a6114be838b61105b565b511561151857826114d2916114e39361103c565b6114dc838b61105b565b5190611add565b906114ee838861105b565b5261150f575b90608061150485935b8c8c61103c565b0135019d0191611320565b958301956114f4565b816111f461052661153b868561153582611542986115499a61103c565b9561103c565b3690610f55565b918961105b565b528d888a611557838b61105b565b5115611589575b826115796112296080946111ef8a989761150496369361103c565b611583828a61105b565b526114fd565b949650869461155e565b9050868c10156115a45787906114af565b9a80611325565b6004865163d3e0741d60e01b8152fd5b5050935050505090565b6001600160a01b036115d56115f6565b165f52600360205260405f205f805260205260405f203481540190556112e7565b335f526e2fd5aeb385d324b580fca7c83823a0803314611646575b506dd9ecebf3c23529de49815dac1c4c80331461162f575b505f5190565b5f80806020935afa15611642575f611629565b3838fd5b5f80806020935afa15611642575f611611565b92916001600160a01b0380941693845f52600360205260405f20921691825f5260205260405f2054908181115f146116bd575080915b82948361169d575b50505050565b5f52600360205260405f20905f526020520360405f20555f808080611697565b9161168f565b90821561173c576001600160a01b0381166116f557505f80809338935af1156116e857565b63b12d13eb5f526004601cfd5b60105f60449260209582956014526034526fa9059cbb00000000000000000000000082525af13d1560015f511417161561172f575f603452565b6390b8ec185f526004601cfd5b505050565b6080906001600160a01b0381511690611778816001600160a01b03606064ffffffffff60a01b604084015160a01b16920151161790565b9060a084820151910151916040519384526020840152604083015260608201522090565b906117c5826001600160a01b03606064ffffffffff60a01b604084015160a01b16920151161790565b6117cf81846119f7565b61186a577fed034d9d62bb699c05145f178d69dcac2bbbe1b6ab1bb196ac35b5d0bd00e2d09160a0840193845190600161010060c0830193845190081b906001600160a01b0391828251165f526006602052604095865f20905f52602052855f2060808301515f52602052855f20885185510160081c5f52602052855f209081541790555116945190510182519182526020820152a2600190565b5050505f90565b60018160081c16155f1461189d57435b65ffffffffffff637fffffff8360091c169260301c1690031190565b42611881565b919082018092116118b057565b634e487b7160e01b5f52601160045260245ffd5b906001600160a01b036118d683611028565b165f52600760205260405f20905f5260205260405f2060808201355f5260205261190d60405f209160a060c08201359101356118a3565b5f5260205260405f205490565b60c061192582611741565b910151905f5260205260405f2090565b90926001600160a01b038083165f52600360205260405f20931692835f5260205260405f206119658282546118a3565b90556040519260208401947f0e4ee5e10000000000000000000000000000000000000000000000000000000086526024850152604484015260648301526064825260a082019282841067ffffffffffffffff851117610eab575f809493819460405251925af1503d156119f5573d6119dc8161106f565b906119ea6040519283610ebf565b81525f60203d92013e565b565b611a018282611a88565b60051c9160c0820192835110156107e45781611a70916001600160a01b0360ff9451165f52600660205260405f20905f5260205260405f2060808201515f5260205260405f20611a5960a086519301928351906118a3565b60081c5f5260205260405f205493519051906118a3565b1660ff039060ff82116118b0576001911b60ff1c1490565b6001600160a01b0391828251165f52600560205260405f20905f5260205260405f2060808201515f5260205260a060405f209101515f5260205260405f20541680156107e4573b5f1981019081116118b05790565b90611aeb6105263684610f55565b6001600160a01b0380611afd85611028565b165f52602060058152604091825f20845f528252825f2093608087013594855f528352835f209660a081013597885f52845282855f205416958615611cb857875f52845f209660c0830135978860051b9188888401938151948a91602181601f8901873c8b870194855160ff1615611c93575b50108102855284015f8a8201520192838a5251905190888110611c83575b5003611c5b5750611ba26112293684610f55565b98611bad84846118c4565b15611bc057505050505050505050905f90565b7fa8080584ebb92497a93bf0923d88f7a218d6b2b12e73938ec37157d8df9c561e97611c499486611bf086611028565b165f5260078852885f20905f528752875f20835f528752875f2091015f52855287865f205583611c1f83611028565b165f5260038552855f2084611c3660608501611028565b165f528552855f20908154019055611028565b1693825191868352820152a290600190565b807f162c5b650000000000000000000000000000000000000000000000000000000060049252fd5b5f1990890360031b1b165f611b8e565b9092503b8260215f1983019283871c3d3d3e820301828411028d03911102915f611b70565b600486516321f9f13f60e11b8152fd5b602460106020939284936014526f70a082310000000000000000000000005f525afa601f3d1116602051029056fea264697066735822122067794e4bad8602a19da5a52324ce815b312e4a4a4ffa59a7036f55b2ceda70c964736f6c63430008190033",
  "linkReferences": {},
  "deployedLinkReferences": {}
}