{
  "_format": "hh-sol-artifact-1",
  "contractName": "Random",
  "sourceName": "contracts/Random.sol",
  "abi": [
    {
      "inputs": [],
      "name": "Misconfigured",
      "type": "error"
    },
    {
      "inputs": [],
      "name": "MissingPayment",
      "type": "error"
    },
    {
      "inputs": [],
      "name": "NotInCohort",
      "type": "error"
    },
    {
      "inputs": [],
      "name": "SecretMismatch",
      "type": "error"
    },
    {
      "inputs": [],
      "name": "SignerMismatch",
      "type": "error"
    },
    {
      "inputs": [],
      "name": "UnableToService",
      "type": "error"
    },
    {
      "anonymous": false,
      "inputs": [
        {
          "indexed": true,
          "internalType": "address",
          "name": "provider",
          "type": "address"
        },
        {
          "indexed": false,
          "internalType": "bytes32",
          "name": "section",
          "type": "bytes32"
        }
      ],
      "name": "Bleach",
      "type": "event"
    },
    {
      "anonymous": false,
      "inputs": [
        {
          "indexed": false,
          "internalType": "bytes32",
          "name": "key",
          "type": "bytes32"
        },
        {
          "indexed": false,
          "internalType": "bytes32",
          "name": "seed",
          "type": "bytes32"
        }
      ],
      "name": "Cast",
      "type": "event"
    },
    {
      "anonymous": false,
      "inputs": [
        {
          "indexed": false,
          "internalType": "bytes32",
          "name": "key",
          "type": "bytes32"
        }
      ],
      "name": "Chop",
      "type": "event"
    },
    {
      "anonymous": false,
      "inputs": [
        {
          "indexed": true,
          "internalType": "address",
          "name": "recipient",
          "type": "address"
        },
        {
          "indexed": true,
          "internalType": "address",
          "name": "ender",
          "type": "address"
        },
        {
          "indexed": false,
          "internalType": "bytes32",
          "name": "key",
          "type": "bytes32"
        }
      ],
      "name": "Expired",
      "type": "event"
    },
    {
      "anonymous": false,
      "inputs": [
        {
          "indexed": true,
          "internalType": "address",
          "name": "provider",
          "type": "address"
        },
        {
          "indexed": false,
          "internalType": "bytes32",
          "name": "section",
          "type": "bytes32"
        },
        {
          "indexed": false,
          "internalType": "uint256",
          "name": "index",
          "type": "uint256"
        }
      ],
      "name": "Heat",
      "type": "event"
    },
    {
      "anonymous": false,
      "inputs": [
        {
          "indexed": true,
          "internalType": "address",
          "name": "provider",
          "type": "address"
        },
        {
          "indexed": false,
          "internalType": "uint256",
          "name": "offset",
          "type": "uint256"
        },
        {
          "indexed": false,
          "internalType": "address",
          "name": "pointer",
          "type": "address"
        }
      ],
      "name": "Ink",
      "type": "event"
    },
    {
      "anonymous": false,
      "inputs": [
        {
          "indexed": true,
          "internalType": "address",
          "name": "provider",
          "type": "address"
        },
        {
          "indexed": false,
          "internalType": "bytes32",
          "name": "location",
          "type": "bytes32"
        },
        {
          "indexed": false,
          "internalType": "bytes32",
          "name": "formerSecret",
          "type": "bytes32"
        }
      ],
      "name": "Reveal",
      "type": "event"
    },
    {
      "anonymous": false,
      "inputs": [
        {
          "indexed": true,
          "internalType": "address",
          "name": "owner",
          "type": "address"
        },
        {
          "indexed": false,
          "internalType": "bytes32",
          "name": "key",
          "type": "bytes32"
        }
      ],
      "name": "Start",
      "type": "event"
    },
    {
      "inputs": [
        {
          "components": [
            {
              "internalType": "address",
              "name": "provider",
              "type": "address"
            },
            {
              "internalType": "address",
              "name": "token",
              "type": "address"
            },
            {
              "internalType": "uint256",
              "name": "price",
              "type": "uint256"
            },
            {
              "internalType": "uint256",
              "name": "offset",
              "type": "uint256"
            },
            {
              "internalType": "uint256",
              "name": "index",
              "type": "uint256"
            }
          ],
          "internalType": "struct PreimageLocation.Info",
          "name": "info",
          "type": "tuple"
        }
      ],
      "name": "bleach",
      "outputs": [],
      "stateMutability": "payable",
      "type": "function"
    },
    {
      "inputs": [
        {
          "internalType": "bytes32",
          "name": "key",
          "type": "bytes32"
        },
        {
          "components": [
            {
              "internalType": "address",
              "name": "provider",
              "type": "address"
            },
            {
              "internalType": "address",
              "name": "token",
              "type": "address"
            },
            {
              "internalType": "uint256",
              "name": "price",
              "type": "uint256"
            },
            {
              "internalType": "uint256",
              "name": "offset",
              "type": "uint256"
            },
            {
              "internalType": "uint256",
              "name": "index",
              "type": "uint256"
            }
          ],
          "internalType": "struct PreimageLocation.Info[]",
          "name": "preimageInfo",
          "type": "tuple[]"
        },
        {
          "internalType": "bytes32[]",
          "name": "revealed",
          "type": "bytes32[]"
        }
      ],
      "name": "cast",
      "outputs": [
        {
          "internalType": "bool",
          "name": "",
          "type": "bool"
        }
      ],
      "stateMutability": "payable",
      "type": "function"
    },
    {
      "inputs": [
        {
          "internalType": "bytes32",
          "name": "key",
          "type": "bytes32"
        },
        {
          "components": [
            {
              "internalType": "address",
              "name": "provider",
              "type": "address"
            },
            {
              "internalType": "address",
              "name": "token",
              "type": "address"
            },
            {
              "internalType": "uint256",
              "name": "price",
              "type": "uint256"
            },
            {
              "internalType": "uint256",
              "name": "offset",
              "type": "uint256"
            },
            {
              "internalType": "uint256",
              "name": "index",
              "type": "uint256"
            }
          ],
          "internalType": "struct PreimageLocation.Info[]",
          "name": "preimageInfo",
          "type": "tuple[]"
        }
      ],
      "name": "chop",
      "outputs": [],
      "stateMutability": "payable",
      "type": "function"
    },
    {
      "inputs": [
        {
          "components": [
            {
              "internalType": "address",
              "name": "provider",
              "type": "address"
            },
            {
              "internalType": "address",
              "name": "token",
              "type": "address"
            },
            {
              "internalType": "uint256",
              "name": "price",
              "type": "uint256"
            },
            {
              "internalType": "uint256",
              "name": "offset",
              "type": "uint256"
            },
            {
              "internalType": "uint256",
              "name": "index",
              "type": "uint256"
            }
          ],
          "internalType": "struct PreimageLocation.Info",
          "name": "nfo",
          "type": "tuple"
        }
      ],
      "name": "consumed",
      "outputs": [
        {
          "internalType": "bool",
          "name": "",
          "type": "bool"
        }
      ],
      "stateMutability": "view",
      "type": "function"
    },
    {
      "inputs": [
        {
          "internalType": "uint256",
          "name": "timeline",
          "type": "uint256"
        }
      ],
      "name": "expired",
      "outputs": [
        {
          "internalType": "bool",
          "name": "",
          "type": "bool"
        }
      ],
      "stateMutability": "view",
      "type": "function"
    },
    {
      "inputs": [
        {
          "components": [
            {
              "internalType": "address",
              "name": "provider",
              "type": "address"
            },
            {
              "internalType": "address",
              "name": "token",
              "type": "address"
            },
            {
              "internalType": "uint256",
              "name": "price",
              "type": "uint256"
            },
            {
              "internalType": "uint256",
              "name": "offset",
              "type": "uint256"
            },
            {
              "internalType": "uint256",
              "name": "index",
              "type": "uint256"
            }
          ],
          "internalType": "struct PreimageLocation.Info",
          "name": "nfo",
          "type": "tuple"
        },
        {
          "internalType": "bytes32",
          "name": "formerSecret",
          "type": "bytes32"
        }
      ],
      "name": "flick",
      "outputs": [
        {
          "internalType": "bytes32",
          "name": "",
          "type": "bytes32"
        },
        {
          "internalType": "bool",
          "name": "",
          "type": "bool"
        }
      ],
      "stateMutability": "payable",
      "type": "function"
    },
    {
      "inputs": [
        {
          "internalType": "address",
          "name": "token",
          "type": "address"
        },
        {
          "internalType": "address",
          "name": "recipient",
          "type": "address"
        },
        {
          "internalType": "int256",
          "name": "amount",
          "type": "int256"
        }
      ],
      "name": "handoff",
      "outputs": [],
      "stateMutability": "payable",
      "type": "function"
    },
    {
      "inputs": [
        {
          "internalType": "uint256",
          "name": "required",
          "type": "uint256"
        },
        {
          "internalType": "uint256",
          "name": "expiryOffset",
          "type": "uint256"
        },
        {
          "internalType": "address",
          "name": "token",
          "type": "address"
        },
        {
          "components": [
            {
              "internalType": "address",
              "name": "provider",
              "type": "address"
            },
            {
              "internalType": "address",
              "name": "token",
              "type": "address"
            },
            {
              "internalType": "uint256",
              "name": "price",
              "type": "uint256"
            },
            {
              "internalType": "uint256",
              "name": "offset",
              "type": "uint256"
            },
            {
              "internalType": "uint256",
              "name": "index",
              "type": "uint256"
            }
          ],
          "internalType": "struct PreimageLocation.Info[]",
          "name": "potentialLocations",
          "type": "tuple[]"
        }
      ],
      "name": "heat",
      "outputs": [
        {
          "internalType": "bytes32",
          "name": "",
          "type": "bytes32"
        }
      ],
      "stateMutability": "payable",
      "type": "function"
    },
    {
      "inputs": [
        {
          "internalType": "address",
          "name": "token",
          "type": "address"
        },
        {
          "internalType": "uint256",
          "name": "price",
          "type": "uint256"
        },
        {
          "internalType": "bytes",
          "name": "data",
          "type": "bytes"
        }
      ],
      "name": "ink",
      "outputs": [],
      "stateMutability": "payable",
      "type": "function"
    },
    {
      "inputs": [
        {
          "internalType": "address",
          "name": "owner",
          "type": "address"
        },
        {
          "internalType": "bool",
          "name": "onlySameTx",
          "type": "bool"
        }
      ],
      "name": "latest",
      "outputs": [
        {
          "internalType": "bytes32",
          "name": "key",
          "type": "bytes32"
        }
      ],
      "stateMutability": "view",
      "type": "function"
    },
    {
      "inputs": [
        {
          "components": [
            {
              "internalType": "address",
              "name": "provider",
              "type": "address"
            },
            {
              "internalType": "address",
              "name": "token",
              "type": "address"
            },
            {
              "internalType": "uint256",
              "name": "price",
              "type": "uint256"
            },
            {
              "internalType": "uint256",
              "name": "offset",
              "type": "uint256"
            },
            {
              "internalType": "uint256",
              "name": "index",
              "type": "uint256"
            }
          ],
          "internalType": "struct PreimageLocation.Info",
          "name": "info",
          "type": "tuple"
        }
      ],
      "name": "pointer",
      "outputs": [
        {
          "internalType": "address",
          "name": "",
          "type": "address"
        }
      ],
      "stateMutability": "view",
      "type": "function"
    },
    {
      "inputs": [
        {
          "internalType": "bytes32",
          "name": "key",
          "type": "bytes32"
        }
      ],
      "name": "randomness",
      "outputs": [
        {
          "components": [
            {
              "internalType": "uint256",
              "name": "timeline",
              "type": "uint256"
            },
            {
              "internalType": "bytes32",
              "name": "seed",
              "type": "bytes32"
            }
          ],
          "internalType": "struct IRandom.Randomness",
          "name": "",
          "type": "tuple"
        }
      ],
      "stateMutability": "view",
      "type": "function"
    }
  ],
  "bytecode": "0x608060405234601c57600e6020565b6134ba61002b82396134ba90f35b6026565b60405190565b5f80fdfe60806040526004361015610013575b61090c565b61001d5f356100dc565b806302a381bf146100d757806307bbadd7146100d25780630cf9dff7146100cd5780631ff3434f146100c85780635312f336146100c357806358e5abde146100be57806362fd0d1f146100b957806364e9fcde146100b45780638492c30b146100af578063870c096a146100aa578063ba065e1f146100a55763c464e6280361000e576108e3565b6107bb565b610768565b610710565b610693565b610616565b610556565b610487565b61040c565b6103a2565b6102fb565b61018f565b60e01c90565b60405190565b5f80fd5b5f80fd5b60018060a01b031690565b610104906100f0565b90565b610110816100fb565b0361011757565b5f80fd5b9050359061012882610107565b565b90565b6101368161012a565b0361013d57565b5f80fd5b9050359061014e8261012d565b565b90916060828403126101855761018261016b845f850161011b565b93610179816020860161011b565b93604001610141565b90565b6100e8565b5f0190565b6101a361019d366004610150565b91610a75565b6101ab6100e2565b806101b58161018a565b0390f35b90565b6101c5816101b9565b036101cc57565b5f80fd5b905035906101dd826101bc565b565b5f80fd5b5f80fd5b5f80fd5b909182601f830112156102255781359167ffffffffffffffff8311610220576020019260a0830284011161021b57565b6101e7565b6101e3565b6101df565b909182601f830112156102645781359167ffffffffffffffff831161025f57602001926020830284011161025a57565b6101e7565b6101e3565b6101df565b6060818303126102cf5761027f825f83016101d0565b92602082013567ffffffffffffffff81116102ca57836102a09184016101eb565b929093604082013567ffffffffffffffff81116102c5576102c1920161022a565b9091565b6100ec565b6100ec565b6100e8565b151590565b6102e2906102d4565b9052565b91906102f9905f602085019401906102d9565b565b61032661031561030c366004610269565b93929092610be9565b61031d6100e2565b918291826102e6565b0390f35b5f80fd5b9060208282031261034757610344915f016101d0565b90565b6100e8565b90565b6103589061034c565b9052565b610365906101b9565b9052565b9060208061038b936103815f8201515f86019061034f565b015191019061035c565b565b91906103a0905f60408501940190610369565b565b346103d2576103ce6103bd6103b836600461032e565b610d0f565b6103c56100e2565b9182918261038d565b0390f35b61032a565b5f80fd5b908160a09103126103e95790565b6103d7565b9060a08282031261040757610404915f016103db565b90565b6100e8565b3461043c576104386104276104223660046103ee565b610d6f565b61042f6100e2565b918291826102e6565b0390f35b61032a565b9190916040818403126104825761045a835f83016101d0565b92602082013567ffffffffffffffff811161047d5761047992016101eb565b9091565b6100ec565b6100e8565b61049b610495366004610441565b91610e75565b6104a36100e2565b806104ad8161018a565b0390f35b6104ba8161034c565b036104c157565b5f80fd5b905035906104d2826104b1565b565b9060808282031261052f576104eb815f84016104c5565b926104f982602085016104c5565b92610507836040830161011b565b92606082013567ffffffffffffffff811161052a5761052692016101eb565b9091565b6100ec565b6100e8565b61053d906101b9565b9052565b9190610554905f60208501940190610534565b565b6105816105706105673660046104d4565b939290926111d6565b6105786100e2565b91829182610541565b0390f35b909182601f830112156105bf5781359167ffffffffffffffff83116105ba5760200192600183028401116105b557565b6101e7565b6101e3565b6101df565b91606083830312610611576105db825f850161011b565b926105e983602083016104c5565b92604082013567ffffffffffffffff811161060c576106089201610585565b9091565b6100ec565b6100e8565b61062d6106243660046105c4565b929190916117da565b6106356100e2565b8061063f8161018a565b0390f35b919060c08382031261066b578061065f610668925f86016103db565b9360a0016101d0565b90565b6100e8565b91602061069192949361068a60408201965f830190610534565b01906102d9565b565b6106a76106a1366004610643565b9061199d565b906106bc6106b36100e2565b92839283610670565b0390f35b6106c9816102d4565b036106d057565b5f80fd5b905035906106e1826106c0565b565b919060408382031261070b57806106ff610708925f860161011b565b936020016106d4565b90565b6100e8565b346107415761073d61072c6107263660046106e3565b906119f4565b6107346100e2565b91829182610541565b0390f35b61032a565b61074f906100fb565b9052565b9190610766905f60208501940190610746565b565b346107985761079461078361077e3660046103ee565b611acd565b61078b6100e2565b91829182610753565b0390f35b61032a565b906020828203126107b6576107b3915f016104c5565b90565b6100e8565b346107eb576107e76107d66107d136600461079d565b611b37565b6107de6100e2565b918291826102e6565b0390f35b61032a565b5f80fd5b601f801991011690565b634e487b7160e01b5f52604160045260245ffd5b9061081c906107f4565b810190811067ffffffffffffffff82111761083657604052565b6107fe565b9061084e6108476100e2565b9283610812565b565b919060a0838203126108c0576108b99061086a60a061083b565b93610877825f830161011b565b5f860152610888826020830161011b565b602086015261089a82604083016104c5565b60408601526108ac82606083016104c5565b60608601526080016104c5565b6080830152565b6107f0565b9060a0828203126108de576108db915f01610850565b90565b6100e8565b6108f66108f13660046108c5565b611b59565b6108fe6100e2565b806109088161018a565b0390f35b5f80fd5b90565b90565b61092a61092561092f92610910565b610913565b6100f0565b90565b61093b90610916565b90565b61095261094d61095792610910565b610913565b61012a565b90565b61096e6109696109739261012a565b610913565b61034c565b90565b610981905f0361012a565b90565b61099861099361099d926100f0565b610913565b6100f0565b90565b6109a990610984565b90565b6109b5906109a0565b90565b906109c2906109ac565b5f5260205260405f2090565b906109d8906109ac565b5f5260205260405f2090565b5f1c90565b90565b6109f86109fd916109e4565b6109e9565b90565b610a0a90546109ec565b90565b90610a18910161034c565b90565b5f1b90565b90610a2c5f1991610a1b565b9181191691161790565b610a4a610a45610a4f9261034c565b610913565b61034c565b90565b90565b90610a6a610a65610a7192610a36565b610a52565b8254610a20565b9055565b91610a7e611c85565b9180610a9a610a94610a8f5f610932565b6100fb565b916100fb565b145f14610b365750815b9181610ab8610ab25f61093e565b9161012a565b125f14610b0f57610b0c93610af2610aea610b0694610af79490610ae4610adf8692610976565b61095a565b91611e1a565b9460036109b8565b6109ce565b91610b0183610a00565b610a0d565b90610a55565b5b565b9083610b2b91610b25610b31969594929161095a565b91611d05565b91611da7565b610b0d565b610aa4565b5f90565b610b53610b4e610b5892610910565b610913565b61034c565b90565b610b645f610b3f565b90565b67ffffffffffffffff8111610b7f5760208091020190565b6107fe565b90929192610b99610b9482610b67565b61083b565b9381855260208086019202830192818411610bd657915b838310610bbd5750505050565b60208091610bcb84866101d0565b815201920191610bb0565b6101e7565b610be6913691610b84565b90565b610c2c94610c269194939294610bfd610b3b565b5034610c18610c12610c0d610b5b565b61034c565b9161034c565b11610c2f575b949293610bdb565b92611f80565b90565b610c3f610c3a611c85565b611ed1565b610c1e565b610c4e604061083b565b90565b5f90565b5f90565b610c61610c44565b9060208083610c6e610c51565b815201610c79610c55565b81525050565b610c87610c59565b90565b610c93906101b9565b90565b90610ca090610c8a565b5f5260205260405f2090565b90610cb690610c8a565b5f5260205260405f2090565b90565b610cd1610cd6916109e4565b610cc2565b90565b610ce39054610cc5565b90565b610cf0604061083b565b90565b90610cfd9061034c565b9052565b90610d0b906101b9565b9052565b610d17610c7f565b50610d5e610d41610d3c610d34610d2f5f8690610c96565b610a00565b936001610cac565b610cd9565b610d55610d4c610ce6565b935f8501610cf3565b60208301610d01565b90565b610d6c903690610850565b90565b610d84610d8991610d7e610b3b565b50610d61565b612395565b90565b90565b610da3610d9e610da892610d8c565b610913565b61034c565b90565b610db56060610d8f565b90565b1c90565b610ddb90610dd5610dcf610de09461034c565b9161034c565b90610db8565b61034c565b90565b610df7610df2610dfc9261034c565b610913565b6100f0565b90565b610e13610e0e610e189261034c565b610a1b565b6101b9565b90565b5f90565b5090565b634e487b7160e01b5f52603260045260245ffd5b9190811015610e475760a0020190565b610e23565b35610e56816104b1565b90565b6001610e65910161034c565b90565b35610e7281610107565b90565b929190610e80611c85565b9283610ec7610ec1610ebc610eb7610eb2610ea4610e9f5f8d90610c96565b610a00565b610eac610dab565b90610dbc565b610de3565b6109a0565b6100fb565b916100fb565b0361101f57610ed584611ed1565b610ee9610ee460018790610cac565b610cd9565b610f0a610f04610eff610efa610b5b565b610dff565b6101b9565b916101b9565b03611018575f94939450610f1c610e1b565b93610f25610e1b565b95610f31848690610e1f565b60015b15610f70575b610f67610f615f98610f5b6040610f558d8b908d9091610e37565b01610e4c565b90610a0d565b98610e59565b96979697610f34565b87610f83610f7d8361034c565b9161034c565b10610f3a575092610fd7929650610fc26020610fbc610fdd97610fac610fc8969a9860036109b8565b9490610fb6610b5b565b91610e37565b01610e68565b906109ce565b91610fd283610a00565b610a0d565b90610a55565b6110137fa1470b3e580ca86a806ba4cff90a8a7327f837f862b313e7c406aa942d62997e9161100a6100e2565b91829182610541565b0390a1565b9350505050565b6110276100e2565b6310c74b0360e01b81528061103e6004820161018a565b0390fd5b5f90565b9061105861105383610b67565b61083b565b918252565b369037565b9061108761106f83611046565b9260208061107d8693610b67565b920191039061105d565b565b90565b6110a061109b6110a592611089565b610913565b61034c565b90565b6110b260ff61108c565b90565b5190565b906110c3826110b5565b8110156110d4576020809102010190565b610e23565b1b90565b6110fc906110f66110f06111019461034c565b9161034c565b906110d9565b61034c565b90565b67ffffffffffffffff81116111225761111e6020916107f4565b0190565b6107fe565b9061113961113483611104565b61083b565b918252565b5f7f72616e646f6d0000000000000000000000000000000000000000000000000000910152565b61116f6006611127565b9061117c6020830161113e565b565b611186611165565b90565b61119161117e565b90565b9061119e906109ac565b5f5260205260405f2090565b6111b3906109e4565b90565b906111cb6111c66111d292610c8a565b6111aa565b8254610a20565b9055565b919290926111e2611042565b506111ec83611062565b916111f5611c85565b936111ff85611ed1565b8061121961121361120e610b5b565b61034c565b9161034c565b148015611587575b8015611563575b61154057611237828890610e1f565b61123f610e1b565b97611248610e1b565b93611251610e1b565b9260015b15611512575b5f9a8761128661128061127b6020611275888a8891610e37565b01610e68565b6100fb565b916100fb565b14806114d3575b6112a1575b61129b90610e59565b9a611255565b95936112f96112ff916112dc6112ca6112c56112c0888d8b9091610e37565b610d61565b612733565b6112d78d918a90926110b9565b610d01565b6112f360406112ed87898d91610e37565b01610e4c565b90610a0d565b94610e59565b958561131361130d8961034c565b9161034c565b03611292575050505092939495965090611331611337915b9261034c565b9161034c565b106114b0578061135661135061134b610b5b565b61034c565b9161034c565b119182611485575b5050611462576113c36113868261138061137a6113d3956127ce565b916110b5565b90612862565b93839061139b816113956110a8565b906110dd565b6113b46113ae6113a9610b5b565b61034c565b9161034c565b145f1461145b5743915b612954565b6113ce5f8590610c96565b610a55565b6113ff6113f86113f36113ec6113e7611189565b6129ca565b84906129eb565b612a05565b8390612a1a565b6114148261140f60028490611194565b6111b6565b81906114556114437f7a1cb491da9915d087844d867ad00ac476b12041d231adb7a04be595db91e44b926109ac565b9261144c6100e2565b91829182610541565b0390a290565b42916113be565b61146a6100e2565b631884a2c160e21b8152806114816004820161018a565b0390fd5b81925061149d6114a2916114a8939487919091611d05565b61034c565b9161034c565b115f8061135e565b6114b86100e2565b63d3e0741d60e01b8152806114cf6004820161018a565b0390fd5b5061150d6114e384868491610e37565b6115086115026114fd6114f8888a8891610e37565b610d61565b612526565b91610d61565b6125cf565b61128d565b8a61152561151f8361034c565b9161034c565b1061125b57505050929394959650906113316113379161132b565b6115486100e2565b63d3e0741d60e01b81528061155f6004820161018a565b0390fd5b508061158161157b611576858b90610e1f565b61034c565b9161034c565b11611228565b50806115a261159c6115976110a8565b61034c565b9161034c565b11611221565b5090565b90565b6115c36115be6115c8926115ac565b610913565b61034c565b90565b6115d560206115af565b90565b634e487b7160e01b5f52601260045260245ffd5b6115f86115fe9161034c565b9161034c565b908115611609570490565b6115d8565b61161a6116209161034c565b9161034c565b90811561162b570690565b6115d8565b9061163a906109ac565b5f5260205260405f2090565b90611650906109ac565b5f5260205260405f2090565b9061166690610a36565b5f5260205260405f2090565b5f80fd5b67ffffffffffffffff8111611694576116906020916107f4565b0190565b6107fe565b90825f939282370152565b909291926116b96116b482611676565b61083b565b938185526020850190828401116116d5576116d392611699565b565b611672565b6116e59136916116a4565b90565b906116f2906109ac565b5f5260205260405f2090565b90611708906109ac565b5f5260205260405f2090565b9061171e90610a36565b5f5260205260405f2090565b9061173490610a36565b5f5260205260405f2090565b9061175160018060a01b0391610a1b565b9181191691161790565b90565b9061177361176e61177a926109ac565b61175b565b8254611740565b9055565b90565b61179561179061179a9261177e565b610913565b61034c565b90565b6117a76080611781565b90565b6117b39061034c565b9052565b9160206117d89294936117d160408201965f8301906117aa565b0190610746565b565b929190926117fa6117ec8385906115a8565b6117f46115cb565b906115ec565b926118068382906115a8565b61181f611819611814610b5b565b61034c565b9161034c565b148015611960575b61193d576118de6118f7926118d961188061187b611843611c85565b9561184d87611ed1565b61187561187061186961186260048b90611630565b8890611646565b8d9061165c565b610a00565b986116da565b612a1d565b976118b4896118af6118a86118a161189a60058b906116e8565b88906116fe565b8590611714565b8a9061172a565b61175e565b6118d46118c2888a90610a0d565b936118cf60048890611630565b611646565b61165c565b610a55565b926118f1836118eb61179d565b906110dd565b92610a0d565b17916119237f4a9be6e850eedc66e4825f5b36116362dc33883bde2f20bfd7e22c8f6c871202926109ac565b9261193861192f6100e2565b928392836117b7565b0390a2565b6119456100e2565b6321f9f13f60e11b81528061195c6004820161018a565b0390fd5b5061197d61196f8483906115a8565b6119776115cb565b9061160e565b61199661199061198b610b5b565b61034c565b9161034c565b1415611827565b906119d9916119aa611042565b506119b3610b3b565b50346119ce6119c86119c3610b5b565b61034c565b9161034c565b116119df575b612b15565b91909190565b6119ef6119ea611c85565b611ed1565b6119d4565b9190916119ff611042565b50611a2a611a25611a20611a19611a14611189565b6129ca565b84906129eb565b612a05565b612d77565b9283611a4d611a47611a42611a3d610b5b565b610dff565b6101b9565b916101b9565b14611a57575b5050565b90919250611a7a57611a6d611a72916002611194565b610cd9565b905f80611a53565b611a826100e2565b63d3e0741d60e01b815280611a996004820161018a565b0390fd5b5f90565b60018060a01b031690565b611ab8611abd916109e4565b611aa1565b90565b611aca9054611aac565b90565b611b2f611b3491611adc611a9d565b50611b296060611b22611b10611afe6005611af85f8801610e68565b906116e8565b611b0a60208701610e68565b906116fe565b611b1c60408601610e4c565b90611714565b9201610e4c565b9061172a565b611ac0565b90565b611b4990611b43610b3b565b50612dab565b90565b611b5690516100fb565b90565b90611b62611c85565b91611b6c83611ed1565b82611b89611b83611b7e5f8501611b4c565b6100fb565b916100fb565b03611c6257611bb9611bab611b9d83612e95565b611ba56115cb565b906115ec565b611bb36115cb565b906115ec565b91611bc382612526565b938490611c05611bf37fbd86c8c76936132dbc24244b04f4607b8bc2b75dd1cb36379bbedeee254b9260926109ac565b92611bfc6100e2565b91829182610541565b0390a2611c10610e1b565b9260015b15611c43575b611c3d5f94611c2c8160808701610cf3565b611c378588906125cf565b50610e59565b93611c14565b83611c56611c508361034c565b9161034c565b10611c1a575092505050565b611c6a6100e2565b6310c74b0360e01b815280611c816004820161018a565b0390fd5b611c8d611a9d565b50335f526e2fd5aeb385d324b580fca7c83823a0803314611cdf575b506dd9ecebf3c23529de49815dac1c4c803314611cc7575b505f5190565b5f8060209238905afa15611cdb575f611cc1565b3838fd5b5f8060209238905afa15611cf3575f611ca9565b3838fd5b90611d02910361034c565b90565b929192611d10610e1b565b50611d2f611d2a611d23600384906109b8565b84906109ce565b610a00565b9380611d43611d3d8761034c565b9161034c565b115f14611da25750835b9384611d68611d62611d5d610b5b565b61034c565b9161034c565b11611d73575b505050565b611d9a92611d90611d88611d95938890611cf7565b9360036109b8565b6109ce565b610a55565b5f8080611d6e565b611d4d565b919081611dc3611dbd611db8610b5b565b61034c565b9161034c565b14611e095782611de3611ddd611dd85f610932565b6100fb565b916100fb565b145f14611df757611df49250612f81565b5b565b90611e0492919091612f43565b611df5565b505050565b611e17906109a0565b90565b611e22610e1b565b5081611e3e611e38611e335f610932565b6100fb565b916100fb565b145f14611e86575050611e59611e533461034c565b9161034c565b11611e6357345b90565b611e6b6100e2565b631884a2c160e21b815280611e826004820161018a565b0390fd5b81611eb8611ec792611ea5611ecc9695611e9f30611e0e565b90612f9f565b948391611eb130611e0e565b9192612fcd565b611ec130611e0e565b90612f9f565b611cf7565b611e60565b34611eeb611ee5611ee0610b5b565b61034c565b9161034c565b11611ef4575b50565b611f2e90611f28611f19611f0a349360036109b8565b611f135f610932565b906109ce565b91611f2383610a00565b610a0d565b90610a55565b5f611ef1565b611f3e90516101b9565b90565b611f55611f50611f5a92610910565b610a1b565b6101b9565b90565b916020611f7e929493611f7760408201965f830190610534565b0190610534565b565b909192611f8b610b3b565b50611f94610e1b565b93611fa0848290610e1f565b93611fb5611fb060018690610cac565b610cd9565b611fd6611fd0611fcb611fc6610b5b565b610dff565b6101b9565b916101b9565b0361226357611fe485611062565b93611fed610e1b565b95611ff6610b3b565b50611fff610b3b565b9060015b15612126575b5f9861201e6120198883906110b9565b611f34565b61203861203261202d5f611f41565b6101b9565b916101b9565b14155f146120ab5761208161206b61205287898591610e37565b6120656120608b86906110b9565b611f34565b90612b15565b61207c8b93929391859094926110b9565b610d01565b612096575b612090905b610e59565b98612003565b976120a361209091610e59565b989050612086565b6120d46120c26120bd87898591610e37565b613008565b6120cf89918490926110b9565b610d01565b6120e76120e28883906110b9565b611f34565b6121086121026120fd6120f8610b5b565b610dff565b6101b9565b916101b9565b14612117575b6120909061208b565b9150612090600192905061210e565b886121396121338361034c565b9161034c565b1061200957509093965094919390946122325761217a61217461216f8593612169612163826127ce565b916110b5565b90612862565b6101b9565b916101b9565b0361220f5761220a946121ad6121b2926121a76121985f8790610c96565b916121a283610a00565b610a0d565b90610a55565b6127ce565b6121c7816121c260018590610cac565b6111b6565b81907f46adc4912184d61bbcd0939b961e9388a3fa9122b827b48b36fdf552759f3e7d916121ff6121f66100e2565b92839283611f5d565b0390a19190916130a7565b600190565b6122176100e2565b635c49863b60e11b81528061222e6004820161018a565b0390fd5b5061225f945061224a9193506122599250925f610c96565b9161225483610a00565b610a0d565b90610a55565b5f90565b5050505050505f90565b634e487b7160e01b5f52601160045260245ffd5b61228d6122939161034c565b9161034c565b90811561229e570490565b6115d8565b6122ad905161034c565b90565b906122ba906109ac565b5f5260205260405f2090565b906122d0906109ac565b5f5260205260405f2090565b906122e690610a36565b5f5260205260405f2090565b6123016123079193929361034c565b9261034c565b820180921161231257565b61226d565b90565b61232e61232961233392612317565b610913565b61034c565b90565b61234161010061231a565b90565b6123536123599193929361034c565b9261034c565b820391821161236457565b61226d565b90565b61238061237b61238592612369565b610913565b61034c565b90565b612392600161236c565b90565b61239d610b3b565b506123b86123aa82612e95565b6123b26115cb565b90612281565b6123d56123cf6123ca608085016122a3565b61034c565b9161034c565b11156124db576124b06124be916124aa61246861246361242b61241961240760066124015f8901611b4c565b906122b0565b61241360208801611b4c565b906122c6565b612425604087016122a3565b906122dc565b61245d61244f61243d608088016122a3565b612449606089016122a3565b906122f2565b612457612336565b90612281565b9061165c565b610a00565b916124a46124966124776110a8565b926124906060612489608084016122a3565b92016122a3565b906122f2565b61249e612336565b9061160e565b90612344565b906110dd565b6124b86110a8565b90610dbc565b6124d76124d16124cc612388565b61034c565b9161034c565b1490565b6124e36100e2565b6321f9f13f60e11b8152806124fa6004820161018a565b0390fd5b61250790610984565b90565b61251e612519612523926100f0565b610913565b61034c565b90565b6125a990612532611042565b5061255661255161254c6125475f8501611b4c565b6124fe565b61250a565b610dff565b9061257b61257661257161256c60208501611b4c565b6124fe565b61250a565b610dff565b6125a361259e6060612597612592604087016122a3565b610dff565b94016122a3565b610dff565b9261325f565b90565b9160206125cd9294936125c660408201965f830190610534565b01906117aa565b565b906125d8610b3b565b506125e282612395565b61272d576126b861262c6125f4612388565b612626612618612606606088016122a3565b612612608089016122a3565b90610a0d565b612620612336565b9061160e565b906110dd565b6126a761266f61265d61264b60066126455f8a01611b4c565b906122b0565b61265760208901611b4c565b906122c6565b612669604088016122a3565b906122dc565b6126a1612693612681606089016122a3565b61268d60808a016122a3565b90610a0d565b61269b612336565b906115ec565b9061165c565b906126b182610a00565b1790610a55565b6126e66126c65f8401611b4c565b91926126e060806126d9606084016122a3565b92016122a3565b90610a0d565b6127107fed034d9d62bb699c05145f178d69dcac2bbbe1b6ab1bb196ac35b5d0bd00e2d0926109ac565b9261272561271c6100e2565b928392836125ac565b0390a2600190565b50505f90565b6127cb9061273f611042565b5061276361275e6127596127545f8501611b4c565b6124fe565b61250a565b610dff565b9061278861278361277e61277960208501611b4c565b6124fe565b61250a565b610dff565b61279c612797604084016122a3565b610dff565b906127c56127c060806127b96127b4606088016122a3565b610dff565b95016122a3565b610dff565b93613286565b90565b6127d6611042565b506020815160051b91012090565b6127f06127f5916109e4565b610a36565b90565b90565b61280f61280a612814926127f8565b610913565b61034c565b90565b61282160086127fb565b90565b60ff1690565b61283e6128396128439261034c565b610913565b612824565b90565b61285a61285561285f92612824565b610913565b61034c565b90565b9061289a61289561288f6128816128a09561287b611042565b506127e4565b612889612817565b906110dd565b9261282a565b612846565b17610dff565b90565b65ffffffffffff1690565b6128c26128bd6128c79261034c565b610913565b6128a3565b90565b6128de6128d96128e3926128a3565b610913565b61034c565b90565b90565b6128fd6128f8612902926128e6565b610913565b61034c565b90565b61290f60306128e9565b90565b64ffffffffff1690565b61293061292b6129359261034c565b610913565b612912565b90565b61294c61294761295192612912565b610913565b61034c565b90565b6129b36129c692936129ac61299e6129996129936129856129806129b89861297a610e1b565b506124fe565b61250a565b61298d610dab565b906110dd565b936128ae565b6128ca565b6129a6612905565b906110dd565b179361291c565b612938565b6129c0612817565b906110dd565b1790565b6001906129d5611042565b5060208151910120035f5260ff1960205f201690565b906129f4611042565b505f5260205260405f2090565b5f90565b612a1790612a11612a01565b50610c8a565b90565b5d565b90612a26611a9d565b5081518060401b6bfe61000180600a3d393df3000161fffe8211840152600b8101601584015ff0928315612a575752565b63301164255f526004601cfd5b90612a6f910261034c565b90565b5190565b60200190565b612a96612a91612a8b83612a72565b92612a76565b611f34565b9060208110612aa4575b5090565b612ab6905f19906020036008026110d9565b165f612aa0565b90612ac7906109ac565b5f5260205260405f2090565b90612add906109ac565b5f5260205260405f2090565b90612af390610a36565b5f5260205260405f2090565b90612b0990610a36565b5f5260205260405f2090565b90612b1e611042565b50612b27610b3b565b50612b85612b80612b6e612b5c612b4a6005612b445f8901610e68565b906116e8565b612b5660208801610e68565b906116fe565b612b6860408701610e4c565b90611714565b612b7a60608601610e4c565b9061172a565b611ac0565b80612ba0612b9a612b955f610932565b6100fb565b916100fb565b14612d5457612c1c612c16612c11612c0c612bba866132b4565b94612bd8612bca60808a01610e4c565b612bd26115cb565b90612a64565b612c06612bf8612bea60808c01610e4c565b612bf26115cb565b90612a64565b612c006115cb565b90610a0d565b916132cb565b612a7c565b6101b9565b916101b9565b03612d3157612c32612c2d83610d61565b612733565b91612c3c81613008565b612c5d612c57612c52612c4d610b5b565b610dff565b6101b9565b916101b9565b14612c69575050905f90565b5f612ce791612ce184612cdc612cb5612ca3612c916007612c8b898901610e68565b90612abd565b612c9d60208801610e68565b90612ad3565b612caf60408701610e4c565b90612ae9565b612cd6612cc460608701610e4c565b612cd060808801610e4c565b90610a0d565b90612aff565b6111b6565b01610e68565b8291612d137fa8080584ebb92497a93bf0923d88f7a218d6b2b12e73938ec37157d8df9c561e926109ac565b92612d28612d1f6100e2565b92839283611f5d565b0390a290600190565b612d396100e2565b63162c5b6560e01b815280612d506004820161018a565b0390fd5b612d5c6100e2565b6321f9f13f60e11b815280612d736004820161018a565b0390fd5b612d7f611042565b505c90565b612da390612d9d612d97612da89461034c565b91612912565b90610db8565b612912565b90565b612db3610b3b565b50612de8612dda82612dd4612dc66110a8565b612dce612817565b90611cf7565b906110dd565b612de26110a8565b90610dbc565b612e01612dfb612df6610b5b565b61034c565b9161034c565b145f14612e7d57612e79612e73612e6e612e69612e4a612e44435b612e3e612e39612e348a612e2e612905565b90610dbc565b6128ae565b6128ca565b90611cf7565b9561291c565b612e63612e55612817565b612e5d612388565b90610a0d565b90612d84565b612938565b61034c565b9161034c565b1190565b612e79612e73612e6e612e69612e4a612e4442612e1c565b612ef7612efc91612ea4610e1b565b50612ef16060612eea612ed8612ec66005612ec05f8801611b4c565b906116e8565b612ed260208701611b4c565b906116fe565b612ee4604086016122a3565b90611714565b92016122a3565b9061172a565b611ac0565b80612f17612f11612f0c5f610932565b6100fb565b916100fb565b14612f20573b90565b612f286100e2565b6321f9f13f60e11b815280612f3f6004820161018a565b0390fd5b60105f604492602095829560145260345263a9059cbb60601b82525af13d1560015f5114171615612f74575f603452565b6390b8ec185f526004601cfd5b905f8092389238915af115612f9257565b63b12d13eb5f526004601cfd5b60246010602093928493612fb1610e1b565b506014526370a0823160601b5f525afa601f3d11166020510290565b929091612fe7612fe1858584908692613336565b156102d4565b612ff2575b50505050565b612fff939290919261337d565b5f808080612fec565b61308061308591613017611042565b5061307a61305b61304961303760076130315f8701610e68565b90612abd565b61304360208601610e68565b90612ad3565b61305560408501610e4c565b90612ae9565b91613074608061306d60608401610e4c565b9201610e4c565b906122f2565b90612aff565b610cd9565b90565b90565b61309f61309a6130a492613088565b610913565b61034c565b90565b916130cd909391936130ba858290610e1f565b94906130c7858790613417565b91610e37565b906130d6610e1b565b926130df610e1b565b9460015b15613112575b6131096131035f966130fd60408801610e4c565b90610a0d565b96610e59565b949594956130e3565b8561312561311f8361034c565b9161034c565b106130e95750613192919450613198936131839161315461314f61314a5f8490610c96565b610a00565b612dab565b61319a575b509261317d602061317660036131705f8601610e68565b906109b8565b9201610e68565b906109ce565b9161318d83610a00565b610a0d565b90610a55565b565b906131ff6131a6611c85565b916131bb816131b5600261308b565b906115ec565b6131f9816131f36131e48b6131de60206131d760038c906109b8565b9201610e68565b906109ce565b916131ee83610a00565b610a0d565b90610a55565b90611cf7565b9161320b5f8701610e68565b91909161325661324461323e7f3781e851432a339d869c35381daaa3d38116d4c213be17a65bd47ca16c450409936109ac565b936109ac565b9361324d6100e2565b91829182610541565b0390a35f613159565b916080939161326c611042565b506040519384526020840152604083015260608201522090565b92909160a09492613295611042565b5060405194855260208501526040840152606083015260808201522090565b6132bc611042565b505f5260205f2090565b606090565b9092916132d66132c6565b506040519380820361ffff16926001840182601f8801833c8386015160ff1615613313575b5010810283525f816020850101526040830101604052565b9060018194923b03918260401c3d3d3e828403838511029003911102915f6132fb565b601c5f606492819460209698979861334c610b3b565b506040519960605260405260601b602c526323b872dd60601b600c525af13d1560015f51141716915f606052604052565b916040519260601b60601c6074840152836054840152603483015260601b6020820152631b63c28b60611b81526e22d473030f116ddee9f6b43ac78ba390600146149081156133f9575b60845f9293836010389401915af116156133de5750565b600490677939f4248757f0fd5f5260a01c151560021b601801fd5b5f91506084833b15159250506133c7565b613414602061083b565b90565b9061343f61343a6134356134589461342d610e1b565b506001610cac565b610cd9565b6127e4565b61345361344a61340a565b915f8301610cf3565b61345b565b90565b613463610e1b565b505b6020812080825282805f030681101561347e5750613465565b9050069056fea264697066735822122071173775d2187ea1274f8f63a0cc1a7a41aa1003c67d55f3c11dbcc6f322bb6864736f6c63430008190033",
  "linkReferences": {},
  "deployedLinkReferences": {}
}