{
  "_format": "hh-sol-artifact-1",
  "contractName": "Reader",
  "sourceName": "contracts/Reader.sol",
  "abi": [
    {
      "inputs": [
        {
          "internalType": "address",
          "name": "_rand",
          "type": "address"
        }
      ],
      "stateMutability": "payable",
      "type": "constructor"
    },
    {
      "inputs": [],
      "name": "IndexOutOfBounds",
      "type": "error"
    },
    {
      "inputs": [],
      "name": "Misconfigured",
      "type": "error"
    },
    {
      "inputs": [],
      "name": "SignerMismatch",
      "type": "error"
    },
    {
      "anonymous": false,
      "inputs": [
        {
          "indexed": true,
          "internalType": "address",
          "name": "provider",
          "type": "address"
        },
        {
          "indexed": false,
          "internalType": "bytes32",
          "name": "section",
          "type": "bytes32"
        }
      ],
      "name": "Ok",
      "type": "event"
    },
    {
      "inputs": [
        {
          "components": [
            {
              "internalType": "address",
              "name": "provider",
              "type": "address"
            },
            {
              "internalType": "address",
              "name": "token",
              "type": "address"
            },
            {
              "internalType": "uint256",
              "name": "price",
              "type": "uint256"
            },
            {
              "internalType": "uint256",
              "name": "offset",
              "type": "uint256"
            },
            {
              "internalType": "uint256",
              "name": "index",
              "type": "uint256"
            }
          ],
          "internalType": "struct PreimageLocation.Info",
          "name": "info",
          "type": "tuple"
        }
      ],
      "name": "at",
      "outputs": [
        {
          "internalType": "bytes32",
          "name": "",
          "type": "bytes32"
        }
      ],
      "stateMutability": "view",
      "type": "function"
    },
    {
      "inputs": [
        {
          "components": [
            {
              "internalType": "address",
              "name": "provider",
              "type": "address"
            },
            {
              "internalType": "address",
              "name": "token",
              "type": "address"
            },
            {
              "internalType": "uint256",
              "name": "price",
              "type": "uint256"
            },
            {
              "internalType": "uint256",
              "name": "offset",
              "type": "uint256"
            },
            {
              "internalType": "uint256",
              "name": "index",
              "type": "uint256"
            }
          ],
          "internalType": "struct PreimageLocation.Info[]",
          "name": "infos",
          "type": "tuple[]"
        }
      ],
      "name": "ok",
      "outputs": [],
      "stateMutability": "payable",
      "type": "function"
    },
    {
      "inputs": [
        {
          "components": [
            {
              "internalType": "address",
              "name": "provider",
              "type": "address"
            },
            {
              "internalType": "address",
              "name": "token",
              "type": "address"
            },
            {
              "internalType": "uint256",
              "name": "price",
              "type": "uint256"
            },
            {
              "internalType": "uint256",
              "name": "offset",
              "type": "uint256"
            },
            {
              "internalType": "uint256",
              "name": "index",
              "type": "uint256"
            }
          ],
          "internalType": "struct PreimageLocation.Info",
          "name": "info",
          "type": "tuple"
        }
      ],
      "name": "pointer",
      "outputs": [
        {
          "internalType": "bytes",
          "name": "",
          "type": "bytes"
        }
      ],
      "stateMutability": "view",
      "type": "function"
    },
    {
      "inputs": [
        {
          "components": [
            {
              "internalType": "address",
              "name": "provider",
              "type": "address"
            },
            {
              "internalType": "address",
              "name": "token",
              "type": "address"
            },
            {
              "internalType": "uint256",
              "name": "price",
              "type": "uint256"
            },
            {
              "internalType": "uint256",
              "name": "offset",
              "type": "uint256"
            },
            {
              "internalType": "uint256",
              "name": "index",
              "type": "uint256"
            }
          ],
          "internalType": "struct PreimageLocation.Info",
          "name": "info",
          "type": "tuple"
        }
      ],
      "name": "unused",
      "outputs": [
        {
          "components": [
            {
              "internalType": "address",
              "name": "provider",
              "type": "address"
            },
            {
              "internalType": "address",
              "name": "token",
              "type": "address"
            },
            {
              "internalType": "uint256",
              "name": "price",
              "type": "uint256"
            },
            {
              "internalType": "uint256",
              "name": "offset",
              "type": "uint256"
            },
            {
              "internalType": "uint256",
              "name": "index",
              "type": "uint256"
            }
          ],
          "internalType": "struct PreimageLocation.Info[]",
          "name": "providerKeyWithIndices",
          "type": "tuple[]"
        }
      ],
      "stateMutability": "view",
      "type": "function"
    }
  ],
  "bytecode": "0x608060405261001461000f6100e6565b610181565b61001c61002a565b6110e661018e82396110e690f35b60405190565b601f801991011690565b634e487b7160e01b5f52604160045260245ffd5b9061005890610030565b810190811060018060401b0382111761007057604052565b61003a565b9061008861008161002a565b928361004e565b565b5f80fd5b60018060a01b031690565b6100a29061008e565b90565b6100ae81610099565b036100b557565b5f80fd5b905051906100c6826100a5565b565b906020828203126100e1576100de915f016100b9565b90565b61008a565b610104611274803803806100f981610075565b9283398101906100c8565b90565b5f1b90565b9061011d60018060a01b0391610107565b9181191691161790565b90565b61013e6101396101439261008e565b610127565b61008e565b90565b61014f9061012a565b90565b61015b90610146565b90565b90565b9061017661017161017d92610152565b61015e565b825461010c565b9055565b61018b905f610161565b56fe60806040526004361015610013575b6103a8565b61001d5f3561005c565b80636cf36e5714610057578063870c096a14610052578063924262611461004d5763bf7638120361000e57610373565b610229565b61016e565b6100ce565b60e01c90565b60405190565b5f80fd5b5f80fd5b5f80fd5b5f80fd5b908160a09103126100865790565b610074565b9060a0828203126100a4576100a1915f01610078565b90565b61006c565b90565b6100b5906100a9565b9052565b91906100cc905f602085019401906100ac565b565b346100fe576100fa6100e96100e436600461008b565b6104c6565b6100f1610062565b918291826100b9565b0390f35b610068565b5190565b60209181520190565b90825f9392825e0152565b601f801991011690565b61014461014d6020936101529361013b81610103565b93848093610107565b95869101610110565b61011b565b0190565b61016b9160208201915f818403910152610125565b90565b3461019e5761019a61018961018436600461008b565b61053d565b610191610062565b91829182610156565b0390f35b610068565b5f80fd5b5f80fd5b5f80fd5b909182601f830112156101e95781359167ffffffffffffffff83116101e4576020019260a083028401116101df57565b6101ab565b6101a7565b6101a3565b9060208282031261021f575f82013567ffffffffffffffff811161021a5761021692016101af565b9091565b610070565b61006c565b5f0190565b61023d6102373660046101ee565b906106e6565b610245610062565b8061024f81610224565b0390f35b5190565b60209181520190565b60200190565b60018060a01b031690565b61027a90610266565b90565b61028690610271565b9052565b90565b6102969061028a565b9052565b906080806102f2936102b25f8201515f86019061027d565b6102c46020820151602086019061027d565b6102d66040820151604086019061028d565b6102e86060820151606086019061028d565b015191019061028d565b565b906103018160a09361029a565b0190565b60200190565b9061032861032261031b84610253565b8093610257565b92610260565b905f5b8181106103385750505090565b90919261035161034b60019286516102f4565b94610305565b910191909161032b565b6103709160208201915f81840391015261030b565b90565b346103a35761039f61038e61038936600461008b565b610a61565b610396610062565b9182918261035b565b0390f35b610068565b5f80fd5b5f90565b6103b98161028a565b036103c057565b5f80fd5b356103ce816103b0565b90565b90565b90565b6103eb6103e66103f0926103d1565b6103d4565b61028a565b90565b6103fd60206103d7565b90565b634e487b7160e01b5f52601160045260245ffd5b6104236104299193929361028a565b9261028a565b9161043583820261028a565b92818404149015171561044457565b610400565b61045861045e9193929361028a565b9261028a565b820180921161046957565b610400565b60200190565b61047e90516100a9565b90565b1b90565b61049f61049a61049483610103565b9261046e565b610474565b90602081106104ad575b5090565b6104bf905f1990602003600802610481565b165f6104a9565b610530610535916104d56103ac565b506104df81610d3e565b9061052a61051c61050e60806105076104f98287016103c4565b6105016103f3565b90610414565b94016103c4565b6105166103f3565b90610414565b6105246103f3565b90610449565b91610e8f565b610485565b90565b606090565b6105526105579161054c610538565b50610d3e565b610efa565b90565b5090565b5f90565b634e487b7160e01b5f52603260045260245ffd5b91908110156105865760a0020190565b610562565b61059481610271565b0361059b57565b5f80fd5b356105a98161058b565b90565b5f80fd5b634e487b7160e01b5f52604160045260245ffd5b906105ce9061011b565b810190811067ffffffffffffffff8211176105e857604052565b6105b0565b906106006105f9610062565b92836105c4565b565b9050359061060f8261058b565b565b9050359061061e826103b0565b565b919060a083820312610690576106899061063a60a06105ed565b93610647825f8301610602565b5f8601526106588260208301610602565b602086015261066a8260408301610611565b604086015261067c8260608301610611565b6060860152608001610611565b6080830152565b6105ac565b6106a0903690610620565b90565b6106b76106b26106bc92610266565b6103d4565b610266565b90565b6106c8906106a3565b90565b6106d4906106bf565b90565b60016106e3910161028a565b90565b9190916106f1610f2e565b6106fc82859061055a565b9261070561055e565b9360015b156107d0575b5f946107275f610721878a8591610576565b0161059f565b61073961073386610271565b91610271565b036107ad576107a7908461075f61075a610755898c8691610576565b610695565b611003565b9061079f61078d7f786f6c9fa380484e920dd424c96d0649b4a5abd7cee90c5c1fb6d4502abde81f926106cb565b92610796610062565b918291826100b9565b0390a26106d7565b94610709565b6107b5610062565b6310c74b0360e01b8152806107cc60048201610224565b0390fd5b846107e36107dd8361028a565b9161028a565b1061070f57509350505050565b606090565b634e487b7160e01b5f52601260045260245ffd5b61081561081b9161028a565b9161028a565b908115610826570490565b6107f5565b67ffffffffffffffff81116108435760208091020190565b6105b0565b9061085a6108558361082b565b6105ed565b918252565b61086960a06105ed565b90565b5f90565b5f90565b61087c61085f565b906020808080808661088c61086c565b81520161089761086c565b8152016108a2610870565b8152016108ad610870565b8152016108b8610870565b81525050565b6108c6610874565b90565b5f5b8281106108d757505050565b6020906108e26108be565b81840152016108cb565b906109116108f983610848565b92602080610907869361082b565b92019103906108c9565b565b9061091d9061028a565b9052565b5f1c90565b60018060a01b031690565b61093d61094291610921565b610926565b90565b61094f9054610931565b90565b61095b906106a3565b90565b61096790610952565b90565b610973906106bf565b90565b60e01b90565b151590565b61098a8161097c565b0361099157565b5f80fd5b905051906109a282610981565b565b906020828203126109bd576109ba915f01610995565b90565b61006c565b90608080610a1a936109da5f8201515f86019061027d565b6109ec6020820151602086019061027d565b6109fe6040820151604086019061028d565b610a106060820151606086019061028d565b015191019061028d565b565b9190610a2f905f60a085019401906109c2565b565b610a39610062565b3d5f823e3d90fd5b90610a4b82610253565b811015610a5c576020809102010190565b610562565b610a696107f0565b50610a94610a86610a81610a7c84610d3e565b610efa565b610103565b610a8e6103f3565b90610809565b90610a9e826108ec565b92610aa761055e565b9260015b15610b95575b610b115f94610abf85610695565b610acc8260808301610913565b6020610ae7610ae2610add5f610945565b61095e565b61096a565b631ff3434f90610b068492610afa610062565b97889485938493610976565b835260048301610a1c565b03915afa928315610b9057610b3d93610b32915f91610b62575b501561097c565b610b43575b506106d7565b93610aab565b610b5a90888391610b548383610a41565b52610a41565b51505f610b37565b610b83915060203d8111610b89575b610b7b81836105c4565b8101906109a4565b5f610b2b565b503d610b71565b610a31565b83610ba8610ba28361028a565b9161028a565b10610ab15750915050565b5f90565b90505190610bc48261058b565b565b90602082820312610bdf57610bdc915f01610bb7565b90565b61006c565b50610bf3906020810190610602565b90565b50610c05906020810190610611565b90565b906080610c81610c8993610c2a610c215f830183610be4565b5f86019061027d565b610c44610c3a6020830183610be4565b602086019061027d565b610c5e610c546040830183610bf6565b604086019061028d565b610c78610c6e6060830183610bf6565b606086019061028d565b82810190610bf6565b91019061028d565b565b9190610c9e905f60a08501940190610c08565b565b90565b610cb7610cb2610cbc92610ca0565b6103d4565b610266565b90565b610cc890610ca3565b90565b610cd7610cdd9161028a565b9161028a565b908115610ce8570490565b6107f5565b90565b610d04610cff610d0992610ced565b6103d4565b61028a565b90565b610d166001610cf0565b90565b610d28610d2e9193929361028a565b9261028a565b8203918211610d3957565b610400565b610d46610bb3565b50610d8f6020610d65610d60610d5b5f610945565b61095e565b61096a565b63870c096a90610d848592610d78610062565b95869485938493610976565b835260048301610c8b565b03915afa908115610e8a575f91610e5c575b509081610dbe610db8610db35f610cbf565b610271565b91610271565b14610e3957610dcb61055e565b50610e0e610e08610e03610df5610de66080873b96016103c4565b94610def6103f3565b90610ccb565b610dfd610d0c565b90610d19565b61028a565b9161028a565b11610e165790565b610e1e610062565b634e23d03560e01b815280610e3560048201610224565b0390fd5b610e41610062565b6321f9f13f60e11b815280610e5860048201610224565b0390fd5b610e7d915060203d8111610e83575b610e7581836105c4565b810190610bc6565b5f610da1565b503d610e6b565b610a31565b909291610e9a610538565b506040519380820361ffff16926001840182601f8801833c8386015160ff1615610ed7575b5010810283525f816020850101526040830101604052565b9060018194923b03918260401c3d3d3e828403838511029003911102915f610ebf565b90610f03610538565b506040519164ffffffffff6001823b0316905f6021830191601f8601903c8083526040830101604052565b610f36610bb3565b50335f526e2fd5aeb385d324b580fca7c83823a0803314610f88575b506dd9ecebf3c23529de49815dac1c4c803314610f70575b505f5190565b5f8060209238905afa15610f84575f610f6a565b3838fd5b5f8060209238905afa15610f9c575f610f52565b3838fd5b610faa9051610271565b90565b610fb6906106a3565b90565b610fcd610fc8610fd292610266565b6103d4565b61028a565b90565b5f1b90565b610fee610fe9610ff39261028a565b610fd5565b6100a9565b90565b611000905161028a565b90565b6110869061100f6103ac565b5061103361102e6110296110245f8501610fa0565b610fad565b610fb9565b610fda565b9061105861105361104e61104960208501610fa0565b610fad565b610fb9565b610fda565b61108061107b606061107461106f60408701610ff6565b610fda565b9401610ff6565b610fda565b92611089565b90565b91608093916110966103ac565b50604051938452602084015260408301526060820152209056fea2646970667358221220e220fb3c986142a4a9af69e02e246b7beff1fc0350a8956b247f32160896ae9f64736f6c63430008190033",
  "linkReferences": {},
  "deployedLinkReferences": {}
}