{
  "_format": "hh-sol-artifact-1",
  "contractName": "Random",
  "sourceName": "contracts/Random.sol",
  "abi": [
    {
      "inputs": [],
      "name": "Misconfigured",
      "type": "error"
    },
    {
      "inputs": [],
      "name": "MissingPayment",
      "type": "error"
    },
    {
      "inputs": [],
      "name": "NotInCohort",
      "type": "error"
    },
    {
      "inputs": [],
      "name": "SecretMismatch",
      "type": "error"
    },
    {
      "inputs": [],
      "name": "SignerMismatch",
      "type": "error"
    },
    {
      "inputs": [],
      "name": "UnableToService",
      "type": "error"
    },
    {
      "anonymous": false,
      "inputs": [
        {
          "indexed": true,
          "internalType": "address",
          "name": "provider",
          "type": "address"
        },
        {
          "indexed": false,
          "internalType": "bytes32",
          "name": "section",
          "type": "bytes32"
        }
      ],
      "name": "Bleach",
      "type": "event"
    },
    {
      "anonymous": false,
      "inputs": [
        {
          "indexed": false,
          "internalType": "bytes32",
          "name": "key",
          "type": "bytes32"
        },
        {
          "indexed": false,
          "internalType": "bytes32",
          "name": "seed",
          "type": "bytes32"
        }
      ],
      "name": "Cast",
      "type": "event"
    },
    {
      "anonymous": false,
      "inputs": [
        {
          "indexed": false,
          "internalType": "bytes32",
          "name": "key",
          "type": "bytes32"
        }
      ],
      "name": "Chop",
      "type": "event"
    },
    {
      "anonymous": false,
      "inputs": [
        {
          "indexed": true,
          "internalType": "address",
          "name": "recipient",
          "type": "address"
        },
        {
          "indexed": true,
          "internalType": "address",
          "name": "ender",
          "type": "address"
        },
        {
          "indexed": false,
          "internalType": "bytes32",
          "name": "key",
          "type": "bytes32"
        }
      ],
      "name": "Expired",
      "type": "event"
    },
    {
      "anonymous": false,
      "inputs": [
        {
          "indexed": true,
          "internalType": "address",
          "name": "provider",
          "type": "address"
        },
        {
          "indexed": false,
          "internalType": "bytes32",
          "name": "section",
          "type": "bytes32"
        },
        {
          "indexed": false,
          "internalType": "uint256",
          "name": "index",
          "type": "uint256"
        }
      ],
      "name": "Heat",
      "type": "event"
    },
    {
      "anonymous": false,
      "inputs": [
        {
          "indexed": true,
          "internalType": "address",
          "name": "provider",
          "type": "address"
        },
        {
          "indexed": false,
          "internalType": "uint256",
          "name": "offset",
          "type": "uint256"
        },
        {
          "indexed": false,
          "internalType": "address",
          "name": "pointer",
          "type": "address"
        }
      ],
      "name": "Ink",
      "type": "event"
    },
    {
      "anonymous": false,
      "inputs": [
        {
          "indexed": true,
          "internalType": "address",
          "name": "provider",
          "type": "address"
        },
        {
          "indexed": false,
          "internalType": "bytes32",
          "name": "location",
          "type": "bytes32"
        },
        {
          "indexed": false,
          "internalType": "bytes32",
          "name": "formerSecret",
          "type": "bytes32"
        }
      ],
      "name": "Reveal",
      "type": "event"
    },
    {
      "anonymous": false,
      "inputs": [
        {
          "indexed": true,
          "internalType": "address",
          "name": "owner",
          "type": "address"
        },
        {
          "indexed": false,
          "internalType": "bytes32",
          "name": "key",
          "type": "bytes32"
        }
      ],
      "name": "Start",
      "type": "event"
    },
    {
      "inputs": [
        {
          "internalType": "address",
          "name": "account",
          "type": "address"
        },
        {
          "internalType": "address",
          "name": "token",
          "type": "address"
        }
      ],
      "name": "balanceOf",
      "outputs": [
        {
          "internalType": "uint256",
          "name": "",
          "type": "uint256"
        }
      ],
      "stateMutability": "view",
      "type": "function"
    },
    {
      "inputs": [
        {
          "components": [
            {
              "internalType": "address",
              "name": "provider",
              "type": "address"
            },
            {
              "internalType": "address",
              "name": "token",
              "type": "address"
            },
            {
              "internalType": "uint256",
              "name": "price",
              "type": "uint256"
            },
            {
              "internalType": "uint256",
              "name": "offset",
              "type": "uint256"
            },
            {
              "internalType": "uint256",
              "name": "index",
              "type": "uint256"
            }
          ],
          "internalType": "struct PreimageLocation.Info",
          "name": "info",
          "type": "tuple"
        }
      ],
      "name": "bleach",
      "outputs": [],
      "stateMutability": "payable",
      "type": "function"
    },
    {
      "inputs": [
        {
          "internalType": "bytes32",
          "name": "key",
          "type": "bytes32"
        },
        {
          "components": [
            {
              "internalType": "address",
              "name": "provider",
              "type": "address"
            },
            {
              "internalType": "address",
              "name": "token",
              "type": "address"
            },
            {
              "internalType": "uint256",
              "name": "price",
              "type": "uint256"
            },
            {
              "internalType": "uint256",
              "name": "offset",
              "type": "uint256"
            },
            {
              "internalType": "uint256",
              "name": "index",
              "type": "uint256"
            }
          ],
          "internalType": "struct PreimageLocation.Info[]",
          "name": "preimageInfo",
          "type": "tuple[]"
        },
        {
          "internalType": "bytes32[]",
          "name": "revealed",
          "type": "bytes32[]"
        }
      ],
      "name": "cast",
      "outputs": [
        {
          "internalType": "bool",
          "name": "",
          "type": "bool"
        }
      ],
      "stateMutability": "payable",
      "type": "function"
    },
    {
      "inputs": [
        {
          "internalType": "bytes32",
          "name": "key",
          "type": "bytes32"
        },
        {
          "components": [
            {
              "internalType": "address",
              "name": "provider",
              "type": "address"
            },
            {
              "internalType": "address",
              "name": "token",
              "type": "address"
            },
            {
              "internalType": "uint256",
              "name": "price",
              "type": "uint256"
            },
            {
              "internalType": "uint256",
              "name": "offset",
              "type": "uint256"
            },
            {
              "internalType": "uint256",
              "name": "index",
              "type": "uint256"
            }
          ],
          "internalType": "struct PreimageLocation.Info[]",
          "name": "preimageInfo",
          "type": "tuple[]"
        }
      ],
      "name": "chop",
      "outputs": [],
      "stateMutability": "payable",
      "type": "function"
    },
    {
      "inputs": [
        {
          "components": [
            {
              "internalType": "address",
              "name": "provider",
              "type": "address"
            },
            {
              "internalType": "address",
              "name": "token",
              "type": "address"
            },
            {
              "internalType": "uint256",
              "name": "price",
              "type": "uint256"
            },
            {
              "internalType": "uint256",
              "name": "offset",
              "type": "uint256"
            },
            {
              "internalType": "uint256",
              "name": "index",
              "type": "uint256"
            }
          ],
          "internalType": "struct PreimageLocation.Info",
          "name": "nfo",
          "type": "tuple"
        }
      ],
      "name": "consumed",
      "outputs": [
        {
          "internalType": "bool",
          "name": "",
          "type": "bool"
        }
      ],
      "stateMutability": "view",
      "type": "function"
    },
    {
      "inputs": [
        {
          "internalType": "uint256",
          "name": "timeline",
          "type": "uint256"
        }
      ],
      "name": "expired",
      "outputs": [
        {
          "internalType": "bool",
          "name": "",
          "type": "bool"
        }
      ],
      "stateMutability": "view",
      "type": "function"
    },
    {
      "inputs": [
        {
          "internalType": "address",
          "name": "recipient",
          "type": "address"
        },
        {
          "internalType": "address",
          "name": "token",
          "type": "address"
        },
        {
          "internalType": "int256",
          "name": "amount",
          "type": "int256"
        }
      ],
      "name": "handoff",
      "outputs": [],
      "stateMutability": "payable",
      "type": "function"
    },
    {
      "inputs": [
        {
          "internalType": "uint256",
          "name": "required",
          "type": "uint256"
        },
        {
          "internalType": "uint256",
          "name": "expiryOffset",
          "type": "uint256"
        },
        {
          "internalType": "address",
          "name": "token",
          "type": "address"
        },
        {
          "components": [
            {
              "internalType": "address",
              "name": "provider",
              "type": "address"
            },
            {
              "internalType": "address",
              "name": "token",
              "type": "address"
            },
            {
              "internalType": "uint256",
              "name": "price",
              "type": "uint256"
            },
            {
              "internalType": "uint256",
              "name": "offset",
              "type": "uint256"
            },
            {
              "internalType": "uint256",
              "name": "index",
              "type": "uint256"
            }
          ],
          "internalType": "struct PreimageLocation.Info[]",
          "name": "potentialLocations",
          "type": "tuple[]"
        }
      ],
      "name": "heat",
      "outputs": [
        {
          "internalType": "bytes32",
          "name": "",
          "type": "bytes32"
        }
      ],
      "stateMutability": "payable",
      "type": "function"
    },
    {
      "inputs": [
        {
          "internalType": "address",
          "name": "token",
          "type": "address"
        },
        {
          "internalType": "uint256",
          "name": "price",
          "type": "uint256"
        },
        {
          "internalType": "bytes",
          "name": "data",
          "type": "bytes"
        }
      ],
      "name": "ink",
      "outputs": [],
      "stateMutability": "payable",
      "type": "function"
    },
    {
      "inputs": [
        {
          "internalType": "address",
          "name": "owner",
          "type": "address"
        },
        {
          "internalType": "bool",
          "name": "onlySameTx",
          "type": "bool"
        }
      ],
      "name": "latest",
      "outputs": [
        {
          "internalType": "bytes32",
          "name": "key",
          "type": "bytes32"
        }
      ],
      "stateMutability": "view",
      "type": "function"
    },
    {
      "inputs": [
        {
          "components": [
            {
              "internalType": "address",
              "name": "provider",
              "type": "address"
            },
            {
              "internalType": "address",
              "name": "token",
              "type": "address"
            },
            {
              "internalType": "uint256",
              "name": "price",
              "type": "uint256"
            },
            {
              "internalType": "uint256",
              "name": "offset",
              "type": "uint256"
            },
            {
              "internalType": "uint256",
              "name": "index",
              "type": "uint256"
            }
          ],
          "internalType": "struct PreimageLocation.Info",
          "name": "info",
          "type": "tuple"
        }
      ],
      "name": "pointer",
      "outputs": [
        {
          "internalType": "address",
          "name": "",
          "type": "address"
        }
      ],
      "stateMutability": "view",
      "type": "function"
    },
    {
      "inputs": [
        {
          "internalType": "bytes32",
          "name": "key",
          "type": "bytes32"
        }
      ],
      "name": "randomness",
      "outputs": [
        {
          "components": [
            {
              "internalType": "uint256",
              "name": "timeline",
              "type": "uint256"
            },
            {
              "internalType": "bytes32",
              "name": "seed",
              "type": "bytes32"
            }
          ],
          "internalType": "struct IRandom.Randomness",
          "name": "",
          "type": "tuple"
        }
      ],
      "stateMutability": "view",
      "type": "function"
    }
  ],
  "bytecode": "0x608060405234601c57600e6020565b61348961002b823961348990f35b6026565b60405190565b5f80fdfe60806040526004361015610013575b610914565b61001d5f356100dc565b806302a381bf146100d757806307bbadd7146100d25780630cf9dff7146100cd5780631ff3434f146100c85780635312f336146100c357806358e5abde146100be57806362fd0d1f146100b95780638492c30b146100b4578063870c096a146100af578063ba065e1f146100aa578063c464e628146100a55763f7888aec0361000e576108de565b610866565b61073e565b6106eb565b610693565b610616565b610556565b610487565b61040c565b6103a2565b6102fb565b61018f565b60e01c90565b60405190565b5f80fd5b5f80fd5b60018060a01b031690565b610104906100f0565b90565b610110816100fb565b0361011757565b5f80fd5b9050359061012882610107565b565b90565b6101368161012a565b0361013d57565b5f80fd5b9050359061014e8261012d565b565b90916060828403126101855761018261016b845f850161011b565b93610179816020860161011b565b93604001610141565b90565b6100e8565b5f0190565b6101a361019d366004610150565b91610a7d565b6101ab6100e2565b806101b58161018a565b0390f35b90565b6101c5816101b9565b036101cc57565b5f80fd5b905035906101dd826101bc565b565b5f80fd5b5f80fd5b5f80fd5b909182601f830112156102255781359167ffffffffffffffff8311610220576020019260a0830284011161021b57565b6101e7565b6101e3565b6101df565b909182601f830112156102645781359167ffffffffffffffff831161025f57602001926020830284011161025a57565b6101e7565b6101e3565b6101df565b6060818303126102cf5761027f825f83016101d0565b92602082013567ffffffffffffffff81116102ca57836102a09184016101eb565b929093604082013567ffffffffffffffff81116102c5576102c1920161022a565b9091565b6100ec565b6100ec565b6100e8565b151590565b6102e2906102d4565b9052565b91906102f9905f602085019401906102d9565b565b61032661031561030c366004610269565b93929092610bf3565b61031d6100e2565b918291826102e6565b0390f35b5f80fd5b9060208282031261034757610344915f016101d0565b90565b6100e8565b90565b6103589061034c565b9052565b610365906101b9565b9052565b9060208061038b936103815f8201515f86019061034f565b015191019061035c565b565b91906103a0905f60408501940190610369565b565b346103d2576103ce6103bd6103b836600461032e565b610d19565b6103c56100e2565b9182918261038d565b0390f35b61032a565b5f80fd5b908160a09103126103e95790565b6103d7565b9060a08282031261040757610404915f016103db565b90565b6100e8565b3461043c576104386104276104223660046103ee565b610d79565b61042f6100e2565b918291826102e6565b0390f35b61032a565b9190916040818403126104825761045a835f83016101d0565b92602082013567ffffffffffffffff811161047d5761047992016101eb565b9091565b6100ec565b6100e8565b61049b610495366004610441565b91610e7f565b6104a36100e2565b806104ad8161018a565b0390f35b6104ba8161034c565b036104c157565b5f80fd5b905035906104d2826104b1565b565b9060808282031261052f576104eb815f84016104c5565b926104f982602085016104c5565b92610507836040830161011b565b92606082013567ffffffffffffffff811161052a5761052692016101eb565b9091565b6100ec565b6100e8565b61053d906101b9565b9052565b9190610554905f60208501940190610534565b565b6105816105706105673660046104d4565b939290926111e0565b6105786100e2565b91829182610541565b0390f35b909182601f830112156105bf5781359167ffffffffffffffff83116105ba5760200192600183028401116105b557565b6101e7565b6101e3565b6101df565b91606083830312610611576105db825f850161011b565b926105e983602083016104c5565b92604082013567ffffffffffffffff811161060c576106089201610585565b9091565b6100ec565b6100e8565b61062d6106243660046105c4565b929190916117d7565b6106356100e2565b8061063f8161018a565b0390f35b61064c816102d4565b0361065357565b5f80fd5b9050359061066482610643565b565b919060408382031261068e578061068261068b925f860161011b565b93602001610657565b90565b6100e8565b346106c4576106c06106af6106a9366004610666565b9061199a565b6106b76100e2565b91829182610541565b0390f35b61032a565b6106d2906100fb565b9052565b91906106e9905f602085019401906106c9565b565b3461071b576107176107066107013660046103ee565b611a73565b61070e6100e2565b918291826106d6565b0390f35b61032a565b9060208282031261073957610736915f016104c5565b90565b6100e8565b3461076e5761076a610759610754366004610720565b611add565b6107616100e2565b918291826102e6565b0390f35b61032a565b5f80fd5b601f801991011690565b634e487b7160e01b5f52604160045260245ffd5b9061079f90610777565b810190811067ffffffffffffffff8211176107b957604052565b610781565b906107d16107ca6100e2565b9283610795565b565b919060a0838203126108435761083c906107ed60a06107be565b936107fa825f830161011b565b5f86015261080b826020830161011b565b602086015261081d82604083016104c5565b604086015261082f82606083016104c5565b60608601526080016104c5565b6080830152565b610773565b9060a0828203126108615761085e915f016107d3565b90565b6100e8565b610879610874366004610848565b611aff565b6108816100e2565b8061088b8161018a565b0390f35b91906040838203126108b757806108ab6108b4925f860161011b565b9360200161011b565b90565b6100e8565b6108c59061034c565b9052565b91906108dc905f602085019401906108bc565b565b3461090f5761090b6108fa6108f436600461088f565b90611c2b565b6109026100e2565b918291826108c9565b0390f35b61032a565b5f80fd5b90565b90565b61093261092d61093792610918565b61091b565b6100f0565b90565b6109439061091e565b90565b61095a61095561095f92610918565b61091b565b61012a565b90565b61097661097161097b9261012a565b61091b565b61034c565b90565b610989905f0361012a565b90565b6109a061099b6109a5926100f0565b61091b565b6100f0565b90565b6109b19061098c565b90565b6109bd906109a8565b90565b906109ca906109b4565b5f5260205260405f2090565b906109e0906109b4565b5f5260205260405f2090565b5f1c90565b90565b610a00610a05916109ec565b6109f1565b90565b610a1290546109f4565b90565b90610a20910161034c565b90565b5f1b90565b90610a345f1991610a23565b9181191691161790565b610a52610a4d610a579261034c565b61091b565b61034c565b90565b90565b90610a72610a6d610a7992610a3e565b610a5a565b8254610a28565b9055565b9091610a87611c53565b9180610aa3610a9d610a985f61093a565b6100fb565b916100fb565b145f14610b405750815b9181610ac1610abb5f610946565b9161012a565b125f14610b1857610b1593610afb610af3610b0f94610b009490610aed610ae8869261097e565b610962565b91611de9565b9460036109c0565b6109d6565b91610b0a83610a08565b610a15565b90610a5d565b5b565b9091610b3b93610b359193610b2f82949291610962565b91611cd3565b91611d75565b610b16565b610aad565b5f90565b610b5d610b58610b6292610918565b61091b565b61034c565b90565b610b6e5f610b49565b90565b67ffffffffffffffff8111610b895760208091020190565b610781565b90929192610ba3610b9e82610b71565b6107be565b9381855260208086019202830192818411610be057915b838310610bc75750505050565b60208091610bd584866101d0565b815201920191610bba565b6101e7565b610bf0913691610b8e565b90565b610c3694610c309194939294610c07610b45565b5034610c22610c1c610c17610b65565b61034c565b9161034c565b11610c39575b949293610be5565b92611f4f565b90565b610c49610c44611c53565b611ea0565b610c28565b610c5860406107be565b90565b5f90565b5f90565b610c6b610c4e565b9060208083610c78610c5b565b815201610c83610c5f565b81525050565b610c91610c63565b90565b610c9d906101b9565b90565b90610caa90610c94565b5f5260205260405f2090565b90610cc090610c94565b5f5260205260405f2090565b90565b610cdb610ce0916109ec565b610ccc565b90565b610ced9054610ccf565b90565b610cfa60406107be565b90565b90610d079061034c565b9052565b90610d15906101b9565b9052565b610d21610c89565b50610d68610d4b610d46610d3e610d395f8690610ca0565b610a08565b936001610cb6565b610ce3565b610d5f610d56610cf0565b935f8501610cfd565b60208301610d0b565b90565b610d769036906107d3565b90565b610d8e610d9391610d88610b45565b50610d6b565b612364565b90565b90565b610dad610da8610db292610d96565b61091b565b61034c565b90565b610dbf6060610d99565b90565b1c90565b610de590610ddf610dd9610dea9461034c565b9161034c565b90610dc2565b61034c565b90565b610e01610dfc610e069261034c565b61091b565b6100f0565b90565b610e1d610e18610e229261034c565b610a23565b6101b9565b90565b5f90565b5090565b634e487b7160e01b5f52603260045260245ffd5b9190811015610e515760a0020190565b610e2d565b35610e60816104b1565b90565b6001610e6f910161034c565b90565b35610e7c81610107565b90565b929190610e8a611c53565b9283610ed1610ecb610ec6610ec1610ebc610eae610ea95f8d90610ca0565b610a08565b610eb6610db5565b90610dc6565b610ded565b6109a8565b6100fb565b916100fb565b0361102957610edf84611ea0565b610ef3610eee60018790610cb6565b610ce3565b610f14610f0e610f09610f04610b65565b610e09565b6101b9565b916101b9565b03611022575f94939450610f26610e25565b93610f2f610e25565b95610f3b848690610e29565b60015b15610f7a575b610f71610f6b5f98610f656040610f5f8d8b908d9091610e41565b01610e56565b90610a15565b98610e63565b96979697610f3e565b87610f8d610f878361034c565b9161034c565b10610f44575092610fe1929650610fcc6020610fc6610fe797610fb6610fd2969a9860036109c0565b9490610fc0610b65565b91610e41565b01610e72565b906109d6565b91610fdc83610a08565b610a15565b90610a5d565b61101d7fa1470b3e580ca86a806ba4cff90a8a7327f837f862b313e7c406aa942d62997e916110146100e2565b91829182610541565b0390a1565b9350505050565b6110316100e2565b6310c74b0360e01b8152806110486004820161018a565b0390fd5b5f90565b9061106261105d83610b71565b6107be565b918252565b369037565b9061109161107983611050565b926020806110878693610b71565b9201910390611067565b565b90565b6110aa6110a56110af92611093565b61091b565b61034c565b90565b6110bc60ff611096565b90565b5190565b906110cd826110bf565b8110156110de576020809102010190565b610e2d565b1b90565b611106906111006110fa61110b9461034c565b9161034c565b906110e3565b61034c565b90565b67ffffffffffffffff811161112c57611128602091610777565b0190565b610781565b9061114361113e8361110e565b6107be565b918252565b5f7f72616e646f6d0000000000000000000000000000000000000000000000000000910152565b6111796006611131565b9061118660208301611148565b565b61119061116f565b90565b61119b611188565b90565b906111a8906109b4565b5f5260205260405f2090565b6111bd906109ec565b90565b906111d56111d06111dc92610c94565b6111b4565b8254610a28565b9055565b919290926111ec61104c565b506111f68361106c565b916111ff611c53565b9361120985611ea0565b8061122361121d611218610b65565b61034c565b9161034c565b148015611591575b801561156d575b61154a57611241828890610e29565b611249610e25565b97611252610e25565b9361125b610e25565b9260015b1561151c575b5f9a8761129061128a611285602061127f888a8891610e41565b01610e72565b6100fb565b916100fb565b14806114dd575b6112ab575b6112a590610e63565b9a61125f565b9593611303611309916112e66112d46112cf6112ca888d8b9091610e41565b610d6b565b612702565b6112e18d918a90926110c3565b610d0b565b6112fd60406112f787898d91610e41565b01610e56565b90610a15565b94610e63565b958561131d6113178961034c565b9161034c565b0361129c57505050509293949596509061133b611341915b9261034c565b9161034c565b106114ba578061136061135a611355610b65565b61034c565b9161034c565b11918261148f575b505061146c576113cd6113908261138a6113846113dd9561279d565b916110bf565b90612831565b9383906113a58161139f6110b2565b906110e7565b6113be6113b86113b3610b65565b61034c565b9161034c565b145f146114655743915b612923565b6113d85f8590610ca0565b610a5d565b6114096114026113fd6113f66113f1611193565b612999565b84906129ba565b6129d4565b83906129e9565b61141e826114196002849061119e565b6111c0565b819061145f61144d7f7a1cb491da9915d087844d867ad00ac476b12041d231adb7a04be595db91e44b926109b4565b926114566100e2565b91829182610541565b0390a290565b42916113c8565b6114746100e2565b631884a2c160e21b81528061148b6004820161018a565b0390fd5b8192506114a76114ac916114b2939487919091611cd3565b61034c565b9161034c565b115f80611368565b6114c26100e2565b63d3e0741d60e01b8152806114d96004820161018a565b0390fd5b506115176114ed84868491610e41565b61151261150c611507611502888a8891610e41565b610d6b565b6124f5565b91610d6b565b61259e565b611297565b8a61152f6115298361034c565b9161034c565b10611265575050509293949596509061133b61134191611335565b6115526100e2565b63d3e0741d60e01b8152806115696004820161018a565b0390fd5b508061158b611585611580858b90610e29565b61034c565b9161034c565b11611232565b50806115ac6115a66115a16110b2565b61034c565b9161034c565b1161122b565b5090565b90565b6115cd6115c86115d2926115b6565b61091b565b61034c565b90565b6115df60206115b9565b90565b634e487b7160e01b5f52601260045260245ffd5b6116026116089161034c565b9161034c565b908115611613570490565b6115e2565b61162461162a9161034c565b9161034c565b908115611635570690565b6115e2565b90611644906109b4565b5f5260205260405f2090565b9061165a906109b4565b5f5260205260405f2090565b9061167090610a3e565b5f5260205260405f2090565b5f80fd5b67ffffffffffffffff811161169e5761169a602091610777565b0190565b610781565b90825f939282370152565b909291926116c36116be82611680565b6107be565b938185526020850190828401116116df576116dd926116a3565b565b61167c565b6116ef9136916116ae565b90565b906116fc906109b4565b5f5260205260405f2090565b90611712906109b4565b5f5260205260405f2090565b9061172890610a3e565b5f5260205260405f2090565b9061173e90610a3e565b5f5260205260405f2090565b9061175b60018060a01b0391610a23565b9181191691161790565b90565b9061177d611778611784926109b4565b611765565b825461174a565b9055565b90565b61179f61179a6117a492611788565b61091b565b61034c565b90565b6117b1608061178b565b90565b9160206117d59294936117ce60408201965f8301906108bc565b01906106c9565b565b929190926117f76117e98385906115b2565b6117f16115d5565b906115f6565b926118038382906115b2565b61181c611816611811610b65565b61034c565b9161034c565b14801561195d575b61193a576118db6118f4926118d661187d611878611840611c53565b9561184a87611ea0565b61187261186d61186661185f60048b9061163a565b8890611650565b8d90611666565b610a08565b986116e4565b6129ec565b976118b1896118ac6118a561189e61189760058b906116f2565b8890611708565b859061171e565b8a90611734565b611768565b6118d16118bf888a90610a15565b936118cc6004889061163a565b611650565b611666565b610a5d565b926118ee836118e86117a7565b906110e7565b92610a15565b17916119207f4a9be6e850eedc66e4825f5b36116362dc33883bde2f20bfd7e22c8f6c871202926109b4565b9261193561192c6100e2565b928392836117b4565b0390a2565b6119426100e2565b6321f9f13f60e11b8152806119596004820161018a565b0390fd5b5061197a61196c8483906115b2565b6119746115d5565b90611618565b61199361198d611988610b65565b61034c565b9161034c565b1415611824565b9190916119a561104c565b506119d06119cb6119c66119bf6119ba611193565b612999565b84906129ba565b6129d4565b612a33565b92836119f36119ed6119e86119e3610b65565b610e09565b6101b9565b916101b9565b146119fd575b5050565b90919250611a2057611a13611a1891600261119e565b610ce3565b905f806119f9565b611a286100e2565b63d3e0741d60e01b815280611a3f6004820161018a565b0390fd5b5f90565b60018060a01b031690565b611a5e611a63916109ec565b611a47565b90565b611a709054611a52565b90565b611ad5611ada91611a82611a43565b50611acf6060611ac8611ab6611aa46005611a9e5f8801610e72565b906116f2565b611ab060208701610e72565b90611708565b611ac260408601610e56565b9061171e565b9201610e56565b90611734565b611a66565b90565b611aef90611ae9610b45565b50612a67565b90565b611afc90516100fb565b90565b90611b08611c53565b91611b1283611ea0565b82611b2f611b29611b245f8501611af2565b6100fb565b916100fb565b03611c0857611b5f611b51611b4383612b51565b611b4b6115d5565b906115f6565b611b596115d5565b906115f6565b91611b69826124f5565b938490611bab611b997fbd86c8c76936132dbc24244b04f4607b8bc2b75dd1cb36379bbedeee254b9260926109b4565b92611ba26100e2565b91829182610541565b0390a2611bb6610e25565b9260015b15611be9575b611be35f94611bd28160808701610cfd565b611bdd85889061259e565b50610e63565b93611bba565b83611bfc611bf68361034c565b9161034c565b10611bc0575092505050565b611c106100e2565b6310c74b0360e01b815280611c276004820161018a565b0390fd5b611c5091611c46611c4b92611c3e610e25565b5060036109c0565b6109d6565b610a08565b90565b611c5b611a43565b50335f526e2fd5aeb385d324b580fca7c83823a0803314611cad575b506dd9ecebf3c23529de49815dac1c4c803314611c95575b505f5190565b5f8060209238905afa15611ca9575f611c8f565b3838fd5b5f8060209238905afa15611cc1575f611c77565b3838fd5b90611cd0910361034c565b90565b929192611cde610e25565b50611cfd611cf8611cf1600384906109c0565b84906109d6565b610a08565b9380611d11611d0b8761034c565b9161034c565b115f14611d705750835b9384611d36611d30611d2b610b65565b61034c565b9161034c565b11611d41575b505050565b611d6892611d5e611d56611d63938890611cc5565b9360036109c0565b6109d6565b610a5d565b5f8080611d3c565b611d1b565b91909181611d92611d8c611d87610b65565b61034c565b9161034c565b14611dd85782611db2611dac611da75f61093a565b6100fb565b916100fb565b145f14611dc657611dc39250612c3d565b5b565b90611dd392919091612bff565b611dc4565b505050565b611de6906109a8565b90565b611df1610e25565b5081611e0d611e07611e025f61093a565b6100fb565b916100fb565b145f14611e55575050611e28611e223461034c565b9161034c565b11611e3257345b90565b611e3a6100e2565b631884a2c160e21b815280611e516004820161018a565b0390fd5b81611e87611e9692611e74611e9b9695611e6e30611ddd565b90612c5b565b948391611e8030611ddd565b9192612c89565b611e9030611ddd565b90612c5b565b611cc5565b611e2f565b34611eba611eb4611eaf610b65565b61034c565b9161034c565b11611ec3575b50565b611efd90611ef7611ee8611ed9349360036109c0565b611ee25f61093a565b906109d6565b91611ef283610a08565b610a15565b90610a5d565b5f611ec0565b611f0d90516101b9565b90565b611f24611f1f611f2992610918565b610a23565b6101b9565b90565b916020611f4d929493611f4660408201965f830190610534565b0190610534565b565b909192611f5a610b45565b50611f63610e25565b93611f6f848290610e29565b93611f84611f7f60018690610cb6565b610ce3565b611fa5611f9f611f9a611f95610b65565b610e09565b6101b9565b916101b9565b0361223257611fb38561106c565b93611fbc610e25565b95611fc5610b45565b50611fce610b45565b9060015b156120f5575b5f98611fed611fe88883906110c3565b611f03565b612007612001611ffc5f611f10565b6101b9565b916101b9565b14155f1461207a5761205061203a61202187898591610e41565b61203461202f8b86906110c3565b611f03565b90612df5565b61204b8b93929391859094926110c3565b610d0b565b612065575b61205f905b610e63565b98611fd2565b9761207261205f91610e63565b989050612055565b6120a361209161208c87898591610e41565b612d1c565b61209e89918490926110c3565b610d0b565b6120b66120b18883906110c3565b611f03565b6120d76120d16120cc6120c7610b65565b610e09565b6101b9565b916101b9565b146120e6575b61205f9061205a565b915061205f60019290506120dd565b886121086121028361034c565b9161034c565b10611fd857509093965094919390946122015761214961214361213e85936121386121328261279d565b916110bf565b90612831565b6101b9565b916101b9565b036121de576121d99461217c612181926121766121675f8790610ca0565b9161217183610a08565b610a15565b90610a5d565b61279d565b6121968161219160018590610cb6565b6111c0565b81907f46adc4912184d61bbcd0939b961e9388a3fa9122b827b48b36fdf552759f3e7d916121ce6121c56100e2565b92839283611f2c565b0390a1919091613076565b600190565b6121e66100e2565b635c49863b60e11b8152806121fd6004820161018a565b0390fd5b5061222e94506122199193506122289250925f610ca0565b9161222383610a08565b610a15565b90610a5d565b5f90565b5050505050505f90565b634e487b7160e01b5f52601160045260245ffd5b61225c6122629161034c565b9161034c565b90811561226d570490565b6115e2565b61227c905161034c565b90565b90612289906109b4565b5f5260205260405f2090565b9061229f906109b4565b5f5260205260405f2090565b906122b590610a3e565b5f5260205260405f2090565b6122d06122d69193929361034c565b9261034c565b82018092116122e157565b61223c565b90565b6122fd6122f8612302926122e6565b61091b565b61034c565b90565b6123106101006122e9565b90565b6123226123289193929361034c565b9261034c565b820391821161233357565b61223c565b90565b61234f61234a61235492612338565b61091b565b61034c565b90565b612361600161233b565b90565b61236c610b45565b5061238761237982612b51565b6123816115d5565b90612250565b6123a461239e61239960808501612272565b61034c565b9161034c565b11156124aa5761247f61248d916124796124376124326123fa6123e86123d660066123d05f8901611af2565b9061227f565b6123e260208801611af2565b90612295565b6123f460408701612272565b906122ab565b61242c61241e61240c60808801612272565b61241860608901612272565b906122c1565b612426612305565b90612250565b90611666565b610a08565b916124736124656124466110b2565b9261245f606061245860808401612272565b9201612272565b906122c1565b61246d612305565b90611618565b90612313565b906110e7565b6124876110b2565b90610dc6565b6124a66124a061249b612357565b61034c565b9161034c565b1490565b6124b26100e2565b6321f9f13f60e11b8152806124c96004820161018a565b0390fd5b6124d69061098c565b90565b6124ed6124e86124f2926100f0565b61091b565b61034c565b90565b6125789061250161104c565b5061252561252061251b6125165f8501611af2565b6124cd565b6124d9565b610e09565b9061254a61254561254061253b60208501611af2565b6124cd565b6124d9565b610e09565b61257261256d606061256661256160408701612272565b610e09565b9401612272565b610e09565b9261322e565b90565b91602061259c92949361259560408201965f830190610534565b01906108bc565b565b906125a7610b45565b506125b182612364565b6126fc576126876125fb6125c3612357565b6125f56125e76125d560608801612272565b6125e160808901612272565b90610a15565b6125ef612305565b90611618565b906110e7565b61267661263e61262c61261a60066126145f8a01611af2565b9061227f565b61262660208901611af2565b90612295565b61263860408801612272565b906122ab565b61267061266261265060608901612272565b61265c60808a01612272565b90610a15565b61266a612305565b906115f6565b90611666565b9061268082610a08565b1790610a5d565b6126b56126955f8401611af2565b91926126af60806126a860608401612272565b9201612272565b90610a15565b6126df7fed034d9d62bb699c05145f178d69dcac2bbbe1b6ab1bb196ac35b5d0bd00e2d0926109b4565b926126f46126eb6100e2565b9283928361257b565b0390a2600190565b50505f90565b61279a9061270e61104c565b5061273261272d6127286127235f8501611af2565b6124cd565b6124d9565b610e09565b9061275761275261274d61274860208501611af2565b6124cd565b6124d9565b610e09565b61276b61276660408401612272565b610e09565b9061279461278f608061278861278360608801612272565b610e09565b9501612272565b610e09565b93613255565b90565b6127a561104c565b506020815160051b91012090565b6127bf6127c4916109ec565b610a3e565b90565b90565b6127de6127d96127e3926127c7565b61091b565b61034c565b90565b6127f060086127ca565b90565b60ff1690565b61280d6128086128129261034c565b61091b565b6127f3565b90565b61282961282461282e926127f3565b61091b565b61034c565b90565b9061286961286461285e61285061286f9561284a61104c565b506127b3565b6128586127e6565b906110e7565b926127f9565b612815565b17610e09565b90565b65ffffffffffff1690565b61289161288c6128969261034c565b61091b565b612872565b90565b6128ad6128a86128b292612872565b61091b565b61034c565b90565b90565b6128cc6128c76128d1926128b5565b61091b565b61034c565b90565b6128de60306128b8565b90565b64ffffffffff1690565b6128ff6128fa6129049261034c565b61091b565b6128e1565b90565b61291b612916612920926128e1565b61091b565b61034c565b90565b612982612995929361297b61296d61296861296261295461294f61298798612949610e25565b506124cd565b6124d9565b61295c610db5565b906110e7565b9361287d565b612899565b6129756128d4565b906110e7565b17936128eb565b612907565b61298f6127e6565b906110e7565b1790565b6001906129a461104c565b5060208151910120035f5260ff1960205f201690565b906129c361104c565b505f5260205260405f2090565b5f90565b6129e6906129e06129d0565b50610c94565b90565b5d565b906129f5611a43565b5081518060401b6bfe61000180600a3d393df3000161fffe8211840152600b8101601584015ff0928315612a265752565b63301164255f526004601cfd5b612a3b61104c565b505c90565b612a5f90612a59612a53612a649461034c565b916128e1565b90610dc2565b6128e1565b90565b612a6f610b45565b50612aa4612a9682612a90612a826110b2565b612a8a6127e6565b90611cc5565b906110e7565b612a9e6110b2565b90610dc6565b612abd612ab7612ab2610b65565b61034c565b9161034c565b145f14612b3957612b35612b2f612b2a612b25612b06612b00435b612afa612af5612af08a612aea6128d4565b90610dc6565b61287d565b612899565b90611cc5565b956128eb565b612b1f612b116127e6565b612b19612357565b90610a15565b90612a40565b612907565b61034c565b9161034c565b1190565b612b35612b2f612b2a612b25612b06612b0042612ad8565b612bb3612bb891612b60610e25565b50612bad6060612ba6612b94612b826005612b7c5f8801611af2565b906116f2565b612b8e60208701611af2565b90611708565b612ba060408601612272565b9061171e565b9201612272565b90611734565b611a66565b80612bd3612bcd612bc85f61093a565b6100fb565b916100fb565b14612bdc573b90565b612be46100e2565b6321f9f13f60e11b815280612bfb6004820161018a565b0390fd5b60105f604492602095829560145260345263a9059cbb60601b82525af13d1560015f5114171615612c30575f603452565b6390b8ec185f526004601cfd5b905f8092389238915af115612c4e57565b63b12d13eb5f526004601cfd5b60246010602093928493612c6d610e25565b506014526370a0823160601b5f525afa601f3d11166020510290565b929091612ca3612c9d858584908692613283565b156102d4565b612cae575b50505050565b612cbb93929091926132ca565b5f808080612ca8565b90612cce906109b4565b5f5260205260405f2090565b90612ce4906109b4565b5f5260205260405f2090565b90612cfa90610a3e565b5f5260205260405f2090565b90612d1090610a3e565b5f5260205260405f2090565b612d94612d9991612d2b61104c565b50612d8e612d6f612d5d612d4b6007612d455f8701610e72565b90612cc4565b612d5760208601610e72565b90612cda565b612d6960408501610e56565b90612cf0565b91612d886080612d8160608401610e56565b9201610e56565b906122c1565b90612d06565b610ce3565b90565b90612da7910261034c565b90565b5190565b60200190565b612dce612dc9612dc383612daa565b92612dae565b611f03565b9060208110612ddc575b5090565b612dee905f19906020036008026110e3565b165f612dd8565b90612dfe61104c565b50612e07610b45565b50612e65612e60612e4e612e3c612e2a6005612e245f8901610e72565b906116f2565b612e3660208801610e72565b90611708565b612e4860408701610e56565b9061171e565b612e5a60608601610e56565b90611734565b611a66565b80612e80612e7a612e755f61093a565b6100fb565b916100fb565b1461303457612efc612ef6612ef1612eec612e9a86613357565b94612eb8612eaa60808a01610e56565b612eb26115d5565b90612d9c565b612ee6612ed8612eca60808c01610e56565b612ed26115d5565b90612d9c565b612ee06115d5565b90610a15565b9161336e565b612db4565b6101b9565b916101b9565b0361301157612f12612f0d83610d6b565b612702565b91612f1c81612d1c565b612f3d612f37612f32612f2d610b65565b610e09565b6101b9565b916101b9565b14612f49575050905f90565b5f612fc791612fc184612fbc612f95612f83612f716007612f6b898901610e72565b90612cc4565b612f7d60208801610e72565b90612cda565b612f8f60408701610e56565b90612cf0565b612fb6612fa460608701610e56565b612fb060808801610e56565b90610a15565b90612d06565b6111c0565b01610e72565b8291612ff37fa8080584ebb92497a93bf0923d88f7a218d6b2b12e73938ec37157d8df9c561e926109b4565b92613008612fff6100e2565b92839283611f2c565b0390a290600190565b6130196100e2565b63162c5b6560e01b8152806130306004820161018a565b0390fd5b61303c6100e2565b6321f9f13f60e11b8152806130536004820161018a565b0390fd5b90565b61306e61306961307392613057565b61091b565b61034c565b90565b9161309c90939193613089858290610e29565b94906130968587906133e6565b91610e41565b906130a5610e25565b926130ae610e25565b9460015b156130e1575b6130d86130d25f966130cc60408801610e56565b90610a15565b96610e63565b949594956130b2565b856130f46130ee8361034c565b9161034c565b106130b85750613161919450613167936131529161312361311e6131195f8490610ca0565b610a08565b612a67565b613169575b509261314c6020613145600361313f5f8601610e72565b906109c0565b9201610e72565b906109d6565b9161315c83610a08565b610a15565b90610a5d565b565b906131ce613175611c53565b9161318a81613184600261305a565b906115f6565b6131c8816131c26131b38b6131ad60206131a660038c906109c0565b9201610e72565b906109d6565b916131bd83610a08565b610a15565b90610a5d565b90611cc5565b916131da5f8701610e72565b91909161322561321361320d7f3781e851432a339d869c35381daaa3d38116d4c213be17a65bd47ca16c450409936109b4565b936109b4565b9361321c6100e2565b91829182610541565b0390a35f613128565b916080939161323b61104c565b506040519384526020840152604083015260608201522090565b92909160a0949261326461104c565b5060405194855260208501526040840152606083015260808201522090565b601c5f6064928194602096989798613299610b45565b506040519960605260405260601b602c526323b872dd60601b600c525af13d1560015f51141716915f606052604052565b916040519260601b60601c6074840152836054840152603483015260601b6020820152631b63c28b60611b81526e22d473030f116ddee9f6b43ac78ba39060014614908115613346575b60845f9293836010389401915af1161561332b5750565b600490677939f4248757f0fd5f5260a01c151560021b601801fd5b5f91506084833b1515925050613314565b61335f61104c565b505f5260205f2090565b606090565b909291613379613369565b506040519380820361ffff16926001840182601f8801833c8386015160ff16156133b6575b5010810283525f816020850101526040830101604052565b9060018194923b03918260401c3d3d3e828403838511029003911102915f61339e565b6133e360206107be565b90565b9061340e613409613404613427946133fc610e25565b506001610cb6565b610ce3565b6127b3565b6134226134196133d9565b915f8301610cfd565b61342a565b90565b613432610e25565b505b6020812080825282805f030681101561344d5750613434565b9050069056fea2646970667358221220465da8eeb7695e18cd7a7179f1f70cb5226d5cb328ff6c1a4a1dcff3cd4fca4964736f6c63430008190033",
  "linkReferences": {},
  "deployedLinkReferences": {}
}