{"abi":[{"type":"constructor","inputs":[{"name":"wordleRules_","type":"address","internalType":"address"},{"name":"dictRoot_","type":"uint256","internalType":"uint256"}],"stateMutability":"nonpayable"},{"type":"function","name":"challenges","inputs":[{"name":"challengeId","type":"uint256","internalType":"uint256"}],"outputs":[{"name":"commit","type":"uint256","internalType":"uint256"},{"name":"setter","type":"address","internalType":"address"},{"name":"openedAt","type":"uint256","internalType":"uint256"}],"stateMutability":"view"},{"type":"function","name":"dictRoot","inputs":[],"outputs":[{"name":"","type":"uint256","internalType":"uint256"}],"stateMutability":"view"},{"type":"function","name":"logSolve","inputs":[{"name":"challengeId","type":"uint256","internalType":"uint256"},{"name":"proof","type":"uint256[24]","internalType":"uint256[24]"},{"name":"guessesCommit","type":"uint256","internalType":"uint256"},{"name":"proofDictRoot","type":"uint256","internalType":"uint256"},{"name":"guessesUsed","type":"uint256","internalType":"uint256"}],"outputs":[],"stateMutability":"nonpayable"},{"type":"function","name":"logged","inputs":[{"name":"challengeId","type":"uint256","internalType":"uint256"},{"name":"guessesCommit","type":"uint256","internalType":"uint256"}],"outputs":[{"name":"","type":"bool","internalType":"bool"}],"stateMutability":"view"},{"type":"function","name":"openChallenge","inputs":[{"name":"challengeId","type":"uint256","internalType":"uint256"},{"name":"commit","type":"uint256","internalType":"uint256"}],"outputs":[],"stateMutability":"nonpayable"},{"type":"function","name":"wordleRules","inputs":[],"outputs":[{"name":"","type":"address","internalType":"contract WordleRules"}],"stateMutability":"view"},{"type":"event","name":"ChallengeOpened","inputs":[{"name":"challengeId","type":"uint256","indexed":true,"internalType":"uint256"},{"name":"setter","type":"address","indexed":true,"internalType":"address"},{"name":"commit","type":"uint256","indexed":false,"internalType":"uint256"},{"name":"openedAt","type":"uint256","indexed":false,"internalType":"uint256"}],"anonymous":false},{"type":"event","name":"Solved","inputs":[{"name":"challengeId","type":"uint256","indexed":true,"internalType":"uint256"},{"name":"solver","type":"address","indexed":true,"internalType":"address"},{"name":"guessesUsed","type":"uint256","indexed":false,"internalType":"uint256"},{"name":"guessesCommit","type":"uint256","indexed":false,"internalType":"uint256"},{"name":"solvedAt","type":"uint256","indexed":false,"internalType":"uint256"}],"anonymous":false},{"type":"error","name":"AlreadyLogged","inputs":[]},{"type":"error","name":"AlreadyOpened","inputs":[]},{"type":"error","name":"BadProof","inputs":[]},{"type":"error","name":"NotOpened","inputs":[]},{"type":"error","name":"WrongDictRoot","inputs":[]}],"bytecode":{"object":"0x60c03461008c57601f6105bf38819003918201601f19168301916001600160401b0383118484101761009057808492604094855283398101031261008c5780516001600160a01b038116919082900361008c57602001519060805260a05260405161051a90816100a582396080518181816101cb0152610315015260a051818181610206015261026c0152f35b5f80fd5b634e487b7160e01b5f52604160045260245ffdfe6080806040526004361015610012575f80fd5b5f3560e01c9081630c047cc01461022957508063236665c6146101ef578063277caf751461019f5780638f1d37761461014957806395b62776146100965763bd7168911461005e575f80fd5b346100925761006c366104ce565b905f52600160205260405f20905f52602052602060ff60405f2054166040519015158152f35b5f80fd5b34610092576100a4366104ce565b90805f525f60205260405f20600281019081546101215780846001925501337fffffffffffffffffffffffff00000000000000000000000000000000000000008254161790554290556040519182524260208301527f324840b0ce75af68c985bff497bad3ea097cc0979554516f75eb84ff3885c9e360403393a3005b7f1da42b26000000000000000000000000000000000000000000000000000000005f5260045ffd5b34610092576020366003190112610092576004355f525f602052606060405f20805490600273ffffffffffffffffffffffffffffffffffffffff6001830154169101549060405192835260208301526040820152f35b34610092575f36600319011261009257602060405173ffffffffffffffffffffffffffffffffffffffff7f0000000000000000000000000000000000000000000000000000000000000000168152f35b34610092575f3660031901126100925760206040517f00000000000000000000000000000000000000000000000000000000000000008152f35b3461009257610380366003190112610092576004353661032411610092576103243561034435926103643593835f525f60205260405f206002810154156104a6577f0000000000000000000000000000000000000000000000000000000000000000820361047e57845f52600160205260405f20845f5260205260ff60405f20541661045657547ffdae72a50000000000000000000000000000000000000000000000000000000083526103006024600485013761030483015282610324830152610344820152836103648201526020816103848173ffffffffffffffffffffffffffffffffffffffff7f0000000000000000000000000000000000000000000000000000000000000000165afa90811561044b575f916103cd575b50156103a557815f52600160205260405f20815f5260205260405f20600160ff1982541617905560405192835260208301524260408301527f21344dd1b5ac088b470d909454c56da938dff6da31204d1f13264ba4dc3c1cb760603393a3005b7f7ca55c77000000000000000000000000000000000000000000000000000000005f5260045ffd5b905060203d602011610444575b601f8101601f1916820167ffffffffffffffff81118382101761041757602091839160405281010312610092575180151581036100925784610345565b7f4e487b71000000000000000000000000000000000000000000000000000000005f52604160045260245ffd5b503d6103da565b6040513d5f823e3d90fd5b7f7f614397000000000000000000000000000000000000000000000000000000005f5260045ffd5b7f60322dbc000000000000000000000000000000000000000000000000000000005f5260045ffd5b7f6d36408a000000000000000000000000000000000000000000000000000000005f5260045ffd5b604090600319011261009257600435906024359056fea2646970667358221220eb814b58a31443e47640c260c583594506d97c677a10fec503ca8799ef008cf064736f6c634300081b0033","linkReferences":{}},"methodIdentifiers":{"challenges(uint256)":"8f1d3776","dictRoot()":"236665c6","logSolve(uint256,uint256[24],uint256,uint256,uint256)":"0c047cc0","logged(uint256,uint256)":"bd716891","openChallenge(uint256,uint256)":"95b62776","wordleRules()":"277caf75"},"id":40}