{"abi":[{"type":"constructor","inputs":[{"name":"major","type":"uint256","internalType":"uint256"},{"name":"minor","type":"uint256","internalType":"uint256"},{"name":"patch","type":"uint256","internalType":"uint256"}],"stateMutability":"nonpayable"},{"type":"function","name":"version","inputs":[],"outputs":[{"name":"","type":"string","internalType":"string"}],"stateMutability":"view"}],"bytecode":{"object":"0x60e034607957601f61042838819003918201601f19168301916001600160401b03831184841017607d57808492606094604052833981010312607957805190604060208201519101519160805260a05260c05260405161039690816100928239608051816040015260a05181606e015260c0518160980152f35b5f80fd5b634e487b7160e01b5f52604160045260245ffdfe60806040526004361015610011575f80fd5b5f3560e01c6354fd4d5014610024575f80fd5b3461014c575f36600319011261014c5761013e604060206100647f00000000000000000000000000000000000000000000000000000000000000006101dc565b61012360016100927f00000000000000000000000000000000000000000000000000000000000000006101dc565b816100bc7f00000000000000000000000000000000000000000000000000000000000000006101dc565b8751968793816100d5818701998a815193849201610150565b8501601760f91b838201526100f38251809385602185019101610150565b0101601760f91b83820152610112825180936020600285019101610150565b01010301601f198101845283610171565b82519384926020845251809281602086015285850190610150565b601f01601f19168101030190f35b5f80fd5b5f5b8381106101615750505f910152565b8181015183820152602001610152565b90601f8019910116810190811067ffffffffffffffff82111761019357604052565b7f4e487b71000000000000000000000000000000000000000000000000000000005f52604160045260245ffd5b67ffffffffffffffff811161019357601f01601f191660200190565b805f917a184f03e93ff9f4daa797ed6e38ed64bf6a1f010000000000000000821015610338575b806d04ee2d6d415b85acef8100000000600a92101561031d575b662386f26fc10000811015610309575b6305f5e1008110156102f8575b6127108110156102e9575b60648110156102db575b10156102d0575b600a60216001840193610268856101c0565b946102766040519687610171565b808652610285601f19916101c0565b013660208701378401015b5f1901917f30313233343536373839616263646566000000000000000000000000000000008282061a83530480156102cb57600a9091610290565b505090565b600190910190610256565b60646002910493019261024f565b61271060049104930192610245565b6305f5e1006008910493019261023a565b662386f26fc100006010910493019261022d565b6d04ee2d6d415b85acef81000000006020910493019261021d565b50604091507a184f03e93ff9f4daa797ed6e38ed64bf6a1f010000000000000000810461020356fea2646970667358221220ed4591c3bae92d5c59d161ae027c56b71917de1f4fc8b1299d15f99412a09afd64736f6c634300081b0033","linkReferences":{}},"methodIdentifiers":{"version()":"54fd4d50"},"id":52}