{
  "_format": "hh-sol-artifact-1",
  "contractName": "MulticallerWithSender",
  "sourceName": "multicaller/src/MulticallerWithSender.sol",
  "abi": [
    {
      "inputs": [],
      "stateMutability": "payable",
      "type": "constructor"
    },
    {
      "inputs": [],
      "name": "ArrayLengthsMismatch",
      "type": "error"
    },
    {
      "inputs": [],
      "name": "Reentrancy",
      "type": "error"
    },
    {
      "inputs": [
        {
          "internalType": "address[]",
          "name": "targets",
          "type": "address[]"
        },
        {
          "internalType": "bytes[]",
          "name": "data",
          "type": "bytes[]"
        },
        {
          "internalType": "uint256[]",
          "name": "values",
          "type": "uint256[]"
        }
      ],
      "name": "aggregateWithSender",
      "outputs": [
        {
          "internalType": "bytes[]",
          "name": "",
          "type": "bytes[]"
        }
      ],
      "stateMutability": "payable",
      "type": "function"
    },
    {
      "stateMutability": "payable",
      "type": "receive"
    }
  ],
  "bytecode": "0x60806040819052600160a01b3d556101ee908161001a8239f3fe604060808152600480361015610021575b5050361561001c575f80fd5b610199565b5f3560e01c63d985f1e8036100105760609060606003193601126101645767ffffffffffffffff81358181116101645761005e9036908401610168565b919093602435828111610164576100789036908601610168565b92909360443591821161016457610093849236908801610168565b94909794811491141615610158577401000000000000000000000000000000000000000094853d54161561014d5750602090813d52808252801561014957959392333d55879660051b9485858a37858901955b88518601925f80868d850196803591829101883786863585355af11561014157848080920193019982815201923d90523d5f8683013e3d01603f01601f191694868310156101385794979091976100e6565b8986895f55015ff35b3d5f803e3d5ffd5b873df35b63ab143c063d52601cfd5b84633b800a463d52601cfd5b5f80fd5b9181601f840112156101645782359167ffffffffffffffff8311610164576020808501948460051b01011161016457565b3d5473ffffffffffffffffffffffffffffffffffffffff163d5260203df3fea26469706673582212201021169c8f8b75d1fda54df28d92c42dc767a52d797c5160c6cc06b1fb25cde164736f6c63430008190033",
  "linkReferences": {},
  "deployedLinkReferences": {}
}