{"abi":[{"type":"constructor","inputs":[{"name":"eas","type":"address","internalType":"contract IEAS"},{"name":"wordleLog_","type":"address","internalType":"contract WordleLog"}],"stateMutability":"nonpayable"},{"type":"receive","stateMutability":"payable"},{"type":"function","name":"attest","inputs":[{"name":"attestation","type":"tuple","internalType":"struct Attestation","components":[{"name":"uid","type":"bytes32","internalType":"bytes32"},{"name":"schema","type":"bytes32","internalType":"bytes32"},{"name":"time","type":"uint64","internalType":"uint64"},{"name":"expirationTime","type":"uint64","internalType":"uint64"},{"name":"revocationTime","type":"uint64","internalType":"uint64"},{"name":"refUID","type":"bytes32","internalType":"bytes32"},{"name":"recipient","type":"address","internalType":"address"},{"name":"attester","type":"address","internalType":"address"},{"name":"revocable","type":"bool","internalType":"bool"},{"name":"data","type":"bytes","internalType":"bytes"}]}],"outputs":[{"name":"","type":"bool","internalType":"bool"}],"stateMutability":"payable"},{"type":"function","name":"attested","inputs":[{"name":"challengeId","type":"uint256","internalType":"uint256"},{"name":"guessesCommit","type":"uint256","internalType":"uint256"}],"outputs":[{"name":"","type":"bool","internalType":"bool"}],"stateMutability":"view"},{"type":"function","name":"isPayable","inputs":[],"outputs":[{"name":"","type":"bool","internalType":"bool"}],"stateMutability":"pure"},{"type":"function","name":"multiAttest","inputs":[{"name":"attestations","type":"tuple[]","internalType":"struct Attestation[]","components":[{"name":"uid","type":"bytes32","internalType":"bytes32"},{"name":"schema","type":"bytes32","internalType":"bytes32"},{"name":"time","type":"uint64","internalType":"uint64"},{"name":"expirationTime","type":"uint64","internalType":"uint64"},{"name":"revocationTime","type":"uint64","internalType":"uint64"},{"name":"refUID","type":"bytes32","internalType":"bytes32"},{"name":"recipient","type":"address","internalType":"address"},{"name":"attester","type":"address","internalType":"address"},{"name":"revocable","type":"bool","internalType":"bool"},{"name":"data","type":"bytes","internalType":"bytes"}]},{"name":"values","type":"uint256[]","internalType":"uint256[]"}],"outputs":[{"name":"","type":"bool","internalType":"bool"}],"stateMutability":"payable"},{"type":"function","name":"multiRevoke","inputs":[{"name":"attestations","type":"tuple[]","internalType":"struct Attestation[]","components":[{"name":"uid","type":"bytes32","internalType":"bytes32"},{"name":"schema","type":"bytes32","internalType":"bytes32"},{"name":"time","type":"uint64","internalType":"uint64"},{"name":"expirationTime","type":"uint64","internalType":"uint64"},{"name":"revocationTime","type":"uint64","internalType":"uint64"},{"name":"refUID","type":"bytes32","internalType":"bytes32"},{"name":"recipient","type":"address","internalType":"address"},{"name":"attester","type":"address","internalType":"address"},{"name":"revocable","type":"bool","internalType":"bool"},{"name":"data","type":"bytes","internalType":"bytes"}]},{"name":"values","type":"uint256[]","internalType":"uint256[]"}],"outputs":[{"name":"","type":"bool","internalType":"bool"}],"stateMutability":"payable"},{"type":"function","name":"revoke","inputs":[{"name":"attestation","type":"tuple","internalType":"struct Attestation","components":[{"name":"uid","type":"bytes32","internalType":"bytes32"},{"name":"schema","type":"bytes32","internalType":"bytes32"},{"name":"time","type":"uint64","internalType":"uint64"},{"name":"expirationTime","type":"uint64","internalType":"uint64"},{"name":"revocationTime","type":"uint64","internalType":"uint64"},{"name":"refUID","type":"bytes32","internalType":"bytes32"},{"name":"recipient","type":"address","internalType":"address"},{"name":"attester","type":"address","internalType":"address"},{"name":"revocable","type":"bool","internalType":"bool"},{"name":"data","type":"bytes","internalType":"bytes"}]}],"outputs":[{"name":"","type":"bool","internalType":"bool"}],"stateMutability":"payable"},{"type":"function","name":"version","inputs":[],"outputs":[{"name":"","type":"string","internalType":"string"}],"stateMutability":"view"},{"type":"function","name":"wordleLog","inputs":[],"outputs":[{"name":"","type":"address","internalType":"contract WordleLog"}],"stateMutability":"view"},{"type":"function","name":"wordleRules","inputs":[],"outputs":[{"name":"","type":"address","internalType":"contract WordleRules"}],"stateMutability":"view"},{"type":"error","name":"AccessDenied","inputs":[]},{"type":"error","name":"AlreadyAttested","inputs":[]},{"type":"error","name":"BadProof","inputs":[]},{"type":"error","name":"InsufficientValue","inputs":[]},{"type":"error","name":"InvalidEAS","inputs":[]},{"type":"error","name":"InvalidLength","inputs":[]},{"type":"error","name":"NotOpened","inputs":[]},{"type":"error","name":"NotPayable","inputs":[]},{"type":"error","name":"NotRevocable","inputs":[]},{"type":"error","name":"NotSelf","inputs":[]}],"bytecode":{"object":"0x610140806040523461012957604081610d228038038091610020828561014f565b8339810103126101295780516001600160a01b038116918282036101295760200151916001600160a01b03831690818403610129576001608052600360a0525f60c052156101405760049260209260e052610120526040519283809263277caf7560e01b82525afa908115610135575f916100ef575b5061010052604051610b9b908161018782396080518161023d015260a0518161026b015260c05181610295015260e0518161071f015261010051818181610368015261097601526101205181818160d001526108250152f35b90506020813d60201161012d575b8161010a6020938361014f565b8101031261012957516001600160a01b0381168103610129575f610096565b5f80fd5b3d91506100fd565b6040513d5f823e3d90fd5b6341bc07ff60e11b5f5260045ffd5b601f909101601f19168101906001600160401b0382119082101761017257604052565b634e487b7160e01b5f52604160045260245ffdfe6080806040526004361015610042575b50361561001a575f80fd5b7f1574f9f3000000000000000000000000000000000000000000000000000000005f5260045ffd5b5f3560e01c9081631845a4af1461038c57508063277caf751461034957806354fd4d501461022157806388e5b2d91461017757806391db0b7e14610158578063ce46e0461461013e578063e49617e11461011d578063e60c3505146100f85763faac6abc146100b1575f61000f565b346100f4575f3660031901126100f45760206040516001600160a01b037f0000000000000000000000000000000000000000000000000000000000000000168152f35b5f80fd5b602061011361010636610465565b61010e610715565b610783565b6040519015158152f35b61012636610465565b5061012f610715565b639414820d60e01b5f5260045ffd5b346100f4575f3660031901126100f45760206040515f8152f35b602061011361016636610413565b92610172929192610715565b610517565b61018036610413565b61018b939293610715565b8084036101f957835f106101a457602060405160018152f35b5f6101b09134936104d0565b35116101d1576101c1915f916104f4565b50639414820d60e01b5f5260045ffd5b7f11011294000000000000000000000000000000000000000000000000000000005f5260045ffd5b7f947d5a84000000000000000000000000000000000000000000000000000000005f5260045ffd5b346100f4575f3660031901126100f45761033b604060206102617f0000000000000000000000000000000000000000000000000000000000000000610591565b610320600161028f7f0000000000000000000000000000000000000000000000000000000000000000610591565b816102b97f0000000000000000000000000000000000000000000000000000000000000000610591565b8751968793816102d2818701998a8151938492016103c1565b8501601760f91b838201526102f082518093856021850191016103c1565b0101601760f91b8382015261030f8251809360206002850191016103c1565b01010301601f19810184528361049a565b825193849260208452518092816020860152858501906103c1565b601f01601f19168101030190f35b346100f4575f3660031901126100f45760206040516001600160a01b037f0000000000000000000000000000000000000000000000000000000000000000168152f35b346100f45760403660031901126100f4576020906004355f525f825260405f206024355f52825260ff60405f20541615158152f35b5f5b8381106103d25750505f910152565b81810151838201526020016103c3565b9181601f840112156100f45782359167ffffffffffffffff83116100f4576020808501948460051b0101116100f457565b60406003198201126100f45760043567ffffffffffffffff81116100f4578161043e916004016103e2565b929092916024359067ffffffffffffffff82116100f457610461916004016103e2565b9091565b60206003198201126100f4576004359067ffffffffffffffff82116100f4576101409082900360031901126100f45760040190565b90601f8019910116810190811067ffffffffffffffff8211176104bc57604052565b634e487b7160e01b5f52604160045260245ffd5b91908110156104e05760051b0190565b634e487b7160e01b5f52603260045260245ffd5b91908110156104e05760051b8101359061013e19813603018212156100f4570190565b929091928183036101f9575f91345b84841061053857505050505050600190565b6105438483886104d0565b358181116101d15761055961010e8688876104f4565b1561056a5760019103930192610526565b505050505050505f90565b67ffffffffffffffff81116104bc57601f01601f191660200190565b805f917a184f03e93ff9f4daa797ed6e38ed64bf6a1f0100000000000000008210156106ed575b806d04ee2d6d415b85acef8100000000600a9210156106d2575b662386f26fc100008110156106be575b6305f5e1008110156106ad575b61271081101561069e575b6064811015610690575b1015610685575b600a6021600184019361061d85610575565b9461062b604051968761049a565b80865261063a601f1991610575565b013660208701378401015b5f1901917f30313233343536373839616263646566000000000000000000000000000000008282061a835304801561068057600a9091610645565b505090565b60019091019061060b565b606460029104930192610604565b612710600491049301926105fa565b6305f5e100600891049301926105ef565b662386f26fc10000601091049301926105e2565b6d04ee2d6d415b85acef8100000000602091049301926105d2565b50604091507a184f03e93ff9f4daa797ed6e38ed64bf6a1f01000000000000000081046105b8565b6001600160a01b037f000000000000000000000000000000000000000000000000000000000000000016330361074757565b7f4ca88867000000000000000000000000000000000000000000000000000000005f5260045ffd5b356001600160a01b03811681036100f45790565b610120810135601e19823603018112156100f4578101803567ffffffffffffffff81116100f457602082019080360382136100f457820160208101919061036090849003126100f457359160608101359382609f830112156100f45760405192610300840184811067ffffffffffffffff8211176104bc576040528361038084019182116100f45760808401905b828210610b55575050506001600160a01b037f00000000000000000000000000000000000000000000000000000000000000001690604051907f8f1d3776000000000000000000000000000000000000000000000000000000008252856004830152606082602481865afa8015610a3b575f925f91610b08575b5015610ae057855f525f60205260405f20875f5260205260ff60405f205416610ab8576001600160a01b03806108cf60e06108c860c0860161076f565b940161076f565b16911603610a90576020600492604051938480927f236665c60000000000000000000000000000000000000000000000000000000082525afa918215610a3b575f92610a5c575b506040517ffdae72a5000000000000000000000000000000000000000000000000000000008152935f600486015b60188210610a4657505050610304840152610324830185905261034483015260400135610364820152602081610384817f00000000000000000000000000000000000000000000000000000000000000006001600160a01b03165afa908115610a3b575f91610a00575b50156109d8575f525f60205260405f20905f5260205260405f20600160ff19825416179055600190565b7f7ca55c77000000000000000000000000000000000000000000000000000000005f5260045ffd5b90506020813d602011610a33575b81610a1b6020938361049a565b810103126100f4575180151581036100f4575f6109ae565b3d9150610a0e565b6040513d5f823e3d90fd5b6020806001928551815201930191019091610944565b9091506020813d602011610a88575b81610a786020938361049a565b810103126100f45751905f610916565b3d9150610a6b565b7f29c3b7ee000000000000000000000000000000000000000000000000000000005f5260045ffd5b7f35d90805000000000000000000000000000000000000000000000000000000005f5260045ffd5b7f6d36408a000000000000000000000000000000000000000000000000000000005f5260045ffd5b9250506060823d606011610b4d575b81610b246060938361049a565b810103126100f45781519160208101516001600160a01b038116036100f457604001515f61088b565b3d9150610b17565b813581526020918201910161081156fea2646970667358221220a610b8d7811748bd2069b7dfc6a8bd4a01f60fae63aa1279de727c03cd7e42ef64736f6c634300081b0033","linkReferences":{}},"methodIdentifiers":{"attest((bytes32,bytes32,uint64,uint64,uint64,bytes32,address,address,bool,bytes))":"e60c3505","attested(uint256,uint256)":"1845a4af","isPayable()":"ce46e046","multiAttest((bytes32,bytes32,uint64,uint64,uint64,bytes32,address,address,bool,bytes)[],uint256[])":"91db0b7e","multiRevoke((bytes32,bytes32,uint64,uint64,uint64,bytes32,address,address,bool,bytes)[],uint256[])":"88e5b2d9","revoke((bytes32,bytes32,uint64,uint64,uint64,bytes32,address,address,bool,bytes))":"e49617e1","version()":"54fd4d50","wordleLog()":"faac6abc","wordleRules()":"277caf75"},"id":38}