{
  "_format": "hh-sol-artifact-1",
  "contractName": "MulticallerWithSigner",
  "sourceName": "multicaller/src/MulticallerWithSigner.sol",
  "abi": [
    {
      "inputs": [],
      "stateMutability": "payable",
      "type": "constructor"
    },
    {
      "inputs": [],
      "name": "ArrayLengthsMismatch",
      "type": "error"
    },
    {
      "inputs": [],
      "name": "InvalidSignature",
      "type": "error"
    },
    {
      "inputs": [],
      "name": "Reentrancy",
      "type": "error"
    },
    {
      "anonymous": false,
      "inputs": [
        {
          "indexed": true,
          "internalType": "address",
          "name": "signer",
          "type": "address"
        },
        {
          "indexed": false,
          "internalType": "uint256",
          "name": "newNonceSalt",
          "type": "uint256"
        }
      ],
      "name": "NonceSaltIncremented",
      "type": "event"
    },
    {
      "anonymous": false,
      "inputs": [
        {
          "indexed": true,
          "internalType": "address",
          "name": "signer",
          "type": "address"
        },
        {
          "indexed": false,
          "internalType": "uint256[]",
          "name": "nonces",
          "type": "uint256[]"
        }
      ],
      "name": "NoncesInvalidated",
      "type": "event"
    },
    {
      "inputs": [
        {
          "internalType": "address[]",
          "name": "targets",
          "type": "address[]"
        },
        {
          "internalType": "bytes[]",
          "name": "data",
          "type": "bytes[]"
        },
        {
          "internalType": "uint256[]",
          "name": "values",
          "type": "uint256[]"
        },
        {
          "internalType": "uint256",
          "name": "nonce",
          "type": "uint256"
        },
        {
          "internalType": "address",
          "name": "signer",
          "type": "address"
        },
        {
          "internalType": "bytes",
          "name": "signature",
          "type": "bytes"
        }
      ],
      "name": "aggregateWithSigner",
      "outputs": [
        {
          "internalType": "bytes[]",
          "name": "",
          "type": "bytes[]"
        }
      ],
      "stateMutability": "payable",
      "type": "function"
    },
    {
      "inputs": [],
      "name": "eip712Domain",
      "outputs": [
        {
          "internalType": "bytes1",
          "name": "fields",
          "type": "bytes1"
        },
        {
          "internalType": "string",
          "name": "name",
          "type": "string"
        },
        {
          "internalType": "string",
          "name": "version",
          "type": "string"
        },
        {
          "internalType": "uint256",
          "name": "chainId",
          "type": "uint256"
        },
        {
          "internalType": "address",
          "name": "verifyingContract",
          "type": "address"
        },
        {
          "internalType": "bytes32",
          "name": "salt",
          "type": "bytes32"
        },
        {
          "internalType": "uint256[]",
          "name": "extensions",
          "type": "uint256[]"
        }
      ],
      "stateMutability": "view",
      "type": "function"
    },
    {
      "inputs": [],
      "name": "incrementNonceSalt",
      "outputs": [
        {
          "internalType": "uint256",
          "name": "",
          "type": "uint256"
        }
      ],
      "stateMutability": "nonpayable",
      "type": "function"
    },
    {
      "inputs": [
        {
          "internalType": "address",
          "name": "signer",
          "type": "address"
        },
        {
          "internalType": "bytes",
          "name": "signature",
          "type": "bytes"
        }
      ],
      "name": "incrementNonceSaltForSigner",
      "outputs": [
        {
          "internalType": "uint256",
          "name": "",
          "type": "uint256"
        }
      ],
      "stateMutability": "nonpayable",
      "type": "function"
    },
    {
      "inputs": [
        {
          "internalType": "uint256[]",
          "name": "nonces",
          "type": "uint256[]"
        }
      ],
      "name": "invalidateNonces",
      "outputs": [],
      "stateMutability": "nonpayable",
      "type": "function"
    },
    {
      "inputs": [
        {
          "internalType": "uint256[]",
          "name": "nonces",
          "type": "uint256[]"
        },
        {
          "internalType": "address",
          "name": "signer",
          "type": "address"
        },
        {
          "internalType": "bytes",
          "name": "signature",
          "type": "bytes"
        }
      ],
      "name": "invalidateNoncesForSigner",
      "outputs": [],
      "stateMutability": "nonpayable",
      "type": "function"
    },
    {
      "inputs": [
        {
          "internalType": "address",
          "name": "signer",
          "type": "address"
        }
      ],
      "name": "nonceSaltOf",
      "outputs": [
        {
          "internalType": "uint256",
          "name": "",
          "type": "uint256"
        }
      ],
      "stateMutability": "view",
      "type": "function"
    },
    {
      "inputs": [
        {
          "internalType": "address",
          "name": "signer",
          "type": "address"
        },
        {
          "internalType": "uint256[]",
          "name": "nonces",
          "type": "uint256[]"
        }
      ],
      "name": "noncesInvalidated",
      "outputs": [
        {
          "internalType": "bool[]",
          "name": "",
          "type": "bool[]"
        }
      ],
      "stateMutability": "view",
      "type": "function"
    },
    {
      "stateMutability": "payable",
      "type": "receive"
    }
  ],
  "bytecode": "0x60808060405260013d55610b5b90816100168239f3fe604060806040526004361015610020575b50361561001b575f80fd5b610b1b565b5f3560e01c90816317447cf1146100a7575080632eb48a80146100a25780633aeb22061461009d57806356b1a87f1461009857806384b0196e1461009357806387ec11ca1461008e578063ad3aacb8146100895763f0c60f1a14610084575f610010565b6107ed565b610745565b6104fd565b6104a9565b610289565b610238565b61019d565b34610122576040366003190112610122576100c0610126565b60243567ffffffffffffffff8111610122576100e090369060040161016c565b915f528160051b925f5b8481036101015750505060205f526020526040015ff35b80602091840135808352603f5f20549060ff161c60011681840152016100ea565b5f80fd5b6004359073ffffffffffffffffffffffffffffffffffffffff8216820361012257565b6024359073ffffffffffffffffffffffffffffffffffffffff8216820361012257565b9181601f840112156101225782359167ffffffffffffffff8311610122576020808501948460051b01011161012257565b34610122576020806003193601126101225760043567ffffffffffffffff8111610122576101cf90369060040161016c565b90335f528160051b915f5b838103610219575082935060205f526020526040377fc45e3a0dd412bcad8d62398d74d66b1c8449f38beb10da275e4da0c6d3a811a433916040015fa2005b8085918401358083526001603f5f209160ff161b8154179055016101da565b3461012257602036600319011261012257610251610126565b3001543d5260203df35b9181601f840112156101225782359167ffffffffffffffff8311610122576020838186019501011161012257565b3461012257604080600319360112610122576102a3610126565b60249160243567ffffffffffffffff8111610122576102c8600491369060040161025b565b919094308501938454937ffa181078c7d1d4d369301511d3c5611e9367d0cebbf65eefdee9dfc75849c1d33d5282602098899289845287855260609460603d2081527f8b73c3c69bb8fe3d512ecc4cf759cc79239f7b179b0ffacaa9a75d522b39400f6060528460807f301013e8a31863902646dc218ecd889c37491c2967a8104d5ff1cf42af0f9ea46080527fc89efdaa54c0f20c7adf612882df0950f5a951637e0307cdcb4c672f298b8bc660a0524660c0523060e05260a060602082526119013d526042601e2097838514610454575b5060418414610415575b5050630b135d3f60e11b95865f528852835280604452806064928337015f895afa915114161561040a57506001905b5f1943014060e01c01018091555f527f997a42216df16c8b9e7caf2fc71c59dba956f1f2b12320f87a80a5879464217d825fa25ff35b638baa579f5f52601cfd5b909192939450863d528385843780513d1a82526001905f825afa518a183d1517156104455790859291845f6103a5565b505050505050506001906103d4565b91509192939450863d526001600160ff1b0386860135601b8160ff1c01885286358552169052846001825f825afa518b183d151715610499579084879493925f61039b565b50505050505050506001906103d4565b34610122575f36600319011261012257600f3d5360e060205275154d756c746963616c6c6572576974685369676e657260f55261012060405261013161012152466060523060805261016060c0526101803df35b346101225760608060031936011261012257600480359167ffffffffffffffff928381116101225761053390369060040161016c565b929061053d610149565b936044956044359081116101225761055990369060040161025b565b8260059592951b957f12b047058eea3df4085cdc159a103d9c100c4e78cfb7029cc39d02cb8b9e48f53d526020809989825260409789888a378989208952308b0154606052826080803d208b527f8b73c3c69bb8fe3d512ecc4cf759cc79239f7b179b0ffacaa9a75d522b39400f6060527f301013e8a31863902646dc218ecd889c37491c2967a8104d5ff1cf42af0f9ea46080527fc89efdaa54c0f20c7adf612882df0950f5a951637e0307cdcb4c672f298b8bc660a0524660c0523060e05260a060602082526119013d526042601e20958b88146106fc575b50604187146106cb575b5050630b135d3f60e11b93845f5286528460249586938b855252806064928337015f8b5afa915114161561040a57505b845f525f5b8481036106ac5750908391867fc45e3a0dd412bcad8d62398d74d66b1c8449f38beb10da275e4da0c6d3a811a496975f52528237015fa2005b8087918401358083526001603f5f209160ff161b815417905501610673565b853d5286838c3780513d1a82526001905f825afa518b183d1517156106f157825f61063e565b50505050505061066e565b909150853d526001600160ff1b0385840135601b8160ff1c01875284358d52169052836001825f825afa518c183d1517156107395783905f610634565b5050505050505061066e565b60c03660031901126101225767ffffffffffffffff6004358181116101225761077290369060040161016c565b90916024358181116101225761078c90369060040161016c565b604494919435838111610122576107a790369060040161016c565b916084359473ffffffffffffffffffffffffffffffffffffffff861686036101225760a435908111610122576107e190369060040161025b565b9790966064359561083e565b34610122575f36600319011261012257303301600181545f1943014060e01c01018091555f52337f997a42216df16c8b9e7caf2fc71c59dba956f1f2b12320f87a80a5879464217d60205fa260205ff35b979591949692909681148188141615610b0e573d5460011615610b015760051b9182843d37823d20903d5b848103610ae55750833d2091848a3d37843d209a7ffb989fd34c8af81a76f18167f528fc7315f92cacc19a0e63215abd54633f8a283d52602098838a5260409c8d5260609485526080926080528560a0523084015460c05260e03d208d527f8b73c3c69bb8fe3d512ecc4cf759cc79239f7b179b0ffacaa9a75d522b39400f85527f301013e8a31863902646dc218ecd889c37491c2967a8104d5ff1cf42af0f9ea46080527fc89efdaa54c0f20c7adf612882df0950f5a951637e0307cdcb4c672f298b8bc660a0524660c0523060e05260a085208a526119013d52898d6042601e2094818514610aa9575b848460418214610a7b575b505050630b135d3f60e11b92835f5260049586526024948592835280604452806064928337015f875afa915114161561040a57505b808752828a52603f92603f882090600182549160ff161b90808216610a6e57179055865f5260018752807fc45e3a0dd412bcad8d62398d74d66b1c8449f38beb10da275e4da0c6d3a811a4835fa28315610a6757819895981b5f55889280898b37808a01955b8a5f808a8d89510193860193803591829101853783603f19808b8d010135908b880101355af115610a5f578289918d9488523d90523d5f8683013e85601f19913d010116950199878b14610a5257999491506109fb565b82868b8b5260015f55015ff35b3d5f803e3d5ffd5b898488525ff35b638baa579f5f526004601cfd5b600193883d523780513d1a83525f825afa5184183d151715610aa157898d5f8484610960565b505050610995565b853d526001600160ff1b0383850135601b8160ff1c01855285358452168852826001825f825afa5187183d151761095557505050505050610995565b8060208092890135890180359182910183378120815201610869565b63ab143c063d526004601cfd5b633b800a463d526004601cfd5b3d54600c5260203df3fea264697066735822122086850f71d04fd3f8ac75147a218ed3387c698cb3539fa794b47bfa8b8ebadaf064736f6c63430008190033",
  "linkReferences": {},
  "deployedLinkReferences": {}
}