{
  "_format": "hh-sol-artifact-1",
  "contractName": "Multicaller",
  "sourceName": "multicaller/src/Multicaller.sol",
  "abi": [
    {
      "inputs": [],
      "name": "ArrayLengthsMismatch",
      "type": "error"
    },
    {
      "stateMutability": "payable",
      "type": "fallback"
    },
    {
      "inputs": [
        {
          "internalType": "address[]",
          "name": "targets",
          "type": "address[]"
        },
        {
          "internalType": "bytes[]",
          "name": "data",
          "type": "bytes[]"
        },
        {
          "internalType": "uint256[]",
          "name": "values",
          "type": "uint256[]"
        },
        {
          "internalType": "address",
          "name": "refundTo",
          "type": "address"
        }
      ],
      "name": "aggregate",
      "outputs": [
        {
          "internalType": "bytes[]",
          "name": "",
          "type": "bytes[]"
        }
      ],
      "stateMutability": "payable",
      "type": "function"
    },
    {
      "stateMutability": "payable",
      "type": "receive"
    }
  ],
  "bytecode": "0x6080806040523460155761029a908161001a8239f35b5f80fdfe60806040526004361015610015575b366101dd57005b5f3560e01c63991f255f0361000e5760803660031901126100ac5767ffffffffffffffff6004358181116100ac576100519036906004016100b0565b6024929192358281116100ac5761006c9036906004016100b0565b90926044359081116100ac576100869036906004016100b0565b9390926064359573ffffffffffffffffffffffffffffffffffffffff87168703156100e1575b5f80fd5b9181601f840112156100ac5782359167ffffffffffffffff83116100ac576020808501948460051b0101116100ac57565b9295939094861486861416156101d057859260409661014f575b5050505080610110575b5060205f526020525ff35b4715610105573381186001821402185f3881804785620186a0f1610105575f526073600b5360ff6020536016600b47f01561014b575f610105565b3838fd5b91939592839060051b9283868637838501935b82518701908681015f808435806020809701853783603f19808a8c010135908a8a0101355af1156101c8578185523d90523d5f606083013e603f601f19913d010116920195888588146101b757509591610162565b9650505091505001925f80806100fb565b3d5f803e3d5ffd5b633b800a463d526004601cfd5b3d356366e0daa08160e01c146101f1573d3dfd5b193d5260043d815b80923682101561024c578135831a60018093019481156102205750815301905b90916101f9565b3d19835260020194607f9150353d1a81811115610241575b16010190610219565b838101388439610238565b5f809181305af43d5f803e15610260573d5ff35b3d5ffdfea2646970667358221220327716b645b0e3d25956b90eb57d8b1e65df75475140427355416b586118410764736f6c63430008190033",
  "linkReferences": {},
  "deployedLinkReferences": {}
}