{"abi":[{"type":"function","name":"verifyProof","inputs":[{"name":"_proof","type":"uint256[24]","internalType":"uint256[24]"},{"name":"_pubSignals","type":"uint256[4]","internalType":"uint256[4]"}],"outputs":[{"name":"","type":"bool","internalType":"bool"}],"stateMutability":"view"}],"bytecode":{"object":"0x60808060405234601557611660908161001a8239f35b5f80fdfe600436101561000c575f80fd5b5f3560e01c636183f6b41461001f575f80fd5b346101f0576103803660031901126101f05736610304116101f05736610384116101f0576104206040526100516102f0565b610059610319565b610061610342565b61006961036b565b610071610394565b6100796103bf565b6100816103ea565b610089610415565b610091610440565b61009c6004356102d2565b6100a76024356102d2565b6100b26044356102d2565b6100bd6064356102d2565b6100c86084356102d2565b6100d360a4356102d2565b6100de60c4356102d2565b6100e960e4356102d2565b6100f5610104356102d2565b610101610124356102d2565b61010d610144356102d2565b610119610164356102d2565b610125610184356102d2565b6101316101a4356102d2565b61013d6101c4356102d2565b6101496101e4356102d2565b610155610204356102d2565b610161610224356102d2565b61016d610244356102d2565b610179610264356102d2565b610185610284356102d2565b6101916102a4356102d2565b61019d6102c4356102d2565b6101a96102e4356102d2565b6101b161046b565b6101b96109fe565b6101c1610b76565b6101c9610bc9565b6101d161103b565b6101d9611247565b6101e1611335565b6101e96113a3565b5f5260205ff35b5f80fd5b5f6001915f51602061160b5f395f51905f5290805b61023457506001919250116101f0575f81126102225790565b5f51602061160b5f395f51905f520190565b80820584810290930393929091908202900380610209565b6040519060a08101815160208301915b8083106102ac575061026d906101f4565b92601f1991820191015b8282116102845750905052565b5f51602061160b5f395f51905f5280825186099483519009938252601f199182019101610277565b91939060205f51602061160b5f395f51905f52828293855287519009920194019161025c565b5f51602061160b5f395f51905f5211156102e857565b5f805260205ff35b6004355f5160206115eb5f395f51905f526003818060243580099381818009900908036102e857565b6044355f5160206115eb5f395f51905f526003818060643580099381818009900908036102e857565b6084355f5160206115eb5f395f51905f526003818060a43580099381818009900908036102e857565b60c4355f5160206115eb5f395f51905f526003818060e43580099381818009900908036102e857565b610104355f5160206115eb5f395f51905f52600381806101243580099381818009900908036102e857565b610144355f5160206115eb5f395f51905f52600381806101643580099381818009900908036102e857565b610184355f5160206115eb5f395f51905f52600381806101a43580099381818009900908036102e857565b6101c4355f5160206115eb5f395f51905f52600381806101e43580099381818009900908036102e857565b610204355f5160206115eb5f395f51905f52600381806102243580099381818009900908036102e857565b6040517f23faa897acaa12577433436876c07d674cbd5c7dd99b1cd62119fb85ff19c2c98152602081017e3652a80b8e94aaf7c31e8ee4efab7a940fdda8f69390c25946ca563ae5d0fc8152604082017f27cccee0cd69d11b7944e625fac2d9c55a016f6aafa3d8d8eecadd77e891c9ef815260608301917f1f21e9d43850b42de4e9ee7210218d111676ca4bd177161f57c0d007bb8f1c148352608084017f2e4f646dab2cc03b053a50ed29f8dddb59eacdec19181492b04df86d3ec1441d815260a08501907f29ba39c79bf23870b80363240b3de807591e917f30fd7decbedd07c9e286b947825260c086017f123832484f57f264ec6d16e9f60fe0d9b1870c7350fb60c5fad30fdd230c6286815260e087017f29a7bb832ba1cf5b0f946c58b0c14f1337b3a5002dfee0638c240fc13025463a905261010087017f115cd8d8eac96c9a54e1815991faf2e79e6504d5f1b9e5724ff3128a0dc03ca6905261012087017f25af6dbb97ea30c6fcb08ae1c1d8d63dd43291fea08d9e27d7f00252440a3409905261014087017f15db4dc552e2aa7838dc3780fc2f777643b4f9cc6df7a9763efebe98c92b3152905261016087017f02a44ac0e99ee72ac2d484dafc8ba1019be2ad3d201fa43ec19be713edab079d905261018087017f02318e94e359268e7e92126628e982117463c81b60283c0507dde293f95a3bfe90526101a087017f0dbb02f94c1ad156de3ee87d8f9de4b15d59b1e471a537c9939388e7d016a92690526101c087017f2813a308480bd75e007729dd9c87dfe25590031e49a9c580d9d765cbfa91653d90526101e087017f1a9eeddbb95f071fed151aace6eba16266f68436ac65a1bbab274462e3fea4689052610304356102008801526103243561022088015261034435610240880152610364356102608801526004356102808801526024356102a08801526044356102c08801526064356102e088015260843561030088015260a43561032088015261034087205f51602061160b5f395f51905f529006928360a052602060a0205f51602061160b5f395f51905f52900660c05283885260c051855260c435865260e4358752608088205f51602061160b5f395f51905f529006806080525f51602061160b5f395f51905f528180096103405288526101043585526101243586526101443587526101643583526101843581526101a435825260e088205f51602061160b5f395f51905f529006928360e0528389526102443586526102643587526102843588526102a43590526102c43590526102e435905260e086205f51602061160b5f395f51905f529006918183610140525f51602061160b5f395f51905f52910961012052805f51602061160b5f395f51905f529109805f51602061160b5f395f51905f529109805f51602061160b5f395f51905f529109805f51602061160b5f395f51905f529109805f51602061160b5f395f51905f529109805f51602061160b5f395f51905f529109805f51602061160b5f395f51905f529109805f51602061160b5f395f51905f529109805f51602061160b5f395f51905f529109805f51602061160b5f395f51905f529109805f51602061160b5f395f51905f529109805f51602061160b5f395f51905f529109805f51602061160b5f395f51905f529109805f51602061160b5f395f51905f52910980610100527f30644e72e131a029b85045b68181585d2833e84879b9709143e1f593f0000000015f51602061160b5f395f51905f5290068061036052610380525f51602061160b5f395f51905f528180098181610160525f51602061160b5f395f51905f5291098181610180525f51602061160b5f395f51905f52910990816101a0525f51602061160b5f395f51905f5291096101c0526101c43584526101e4359052610204359052610224359052608090205f51602061160b5f395f51905f5290066101e052565b5f51602061160b5f395f51905f52807f0544bcba9399b918583ef3cd998dfd5456486036bb0f3067299d89ea39c2d8c560e05182807f30644e72e131a029b85045b68181585d2833e84879b9709143e1f593f0000000830106614000096103a05282807f02cdf8211357bba89901f3fe73a4afb4738aa9670598c5aa9637f3d18e83917c830106614000096103c05282807f2ff4a32928c7f1c7b8325aee08cef1e15517f465eb7f431af93d5a0654422cf1830106614000096103e05201066140000961040052610ad061038061024c565b5f51602061160b5f395f51905f52806103605181816103a051096103a0528180826103c051097f2d965651cdd9e4811f4e51b80ddca8a8b4a93ee17420aae6adaa01c2617c6e85096103c0528180826103e051097e6fab49b869ae62001deac878b2667bd31bf3e28e3a2d764aa49b8d9bbdd310096103e05261040051097f2b1f91b84d97e711601151e8e7f35b08d1eb8811beaa402a1a446ba9b63d273c0961040052565b5f51602061160b5f395f51905f528080808080808080610304356103a051095f03010681610324356103c051099003010681610344356103e0510990030106816103643561040051099003010661020052565b5f51602061160b5f395f51905f52610200518180610340516103a051099181808060a0518160c051918160805193816102e435938180846102843508938180808381806102c4358909610264350808946102a4359009610244350808090909098103069381030690080861022052565b608060409260208451918451835281850151828401528051868401520151606082015260066107cf195a01fa156102e857565b604051917f23faa897acaa12577433436876c07d674cbd5c7dd99b1cd62119fb85ff19c2c983527e3652a80b8e94aaf7c31e8ee4efab7a940fdda8f69390c25946ca563ae5d0fc60208401526040830190815260408360608160076107cf195a01fa156102e857815190526020810151606083015260409160809060066107cf195a01fa156102e857565b604051917f27cccee0cd69d11b7944e625fac2d9c55a016f6aafa3d8d8eecadd77e891c9ef83527f1f21e9d43850b42de4e9ee7210218d111676ca4bd177161f57c0d007bb8f1c1460208401526040830190815260408360608160076107cf195a01fa156102e857815190526020810151606083015260409160809060066107cf195a01fa156102e857565b604051917f2e4f646dab2cc03b053a50ed29f8dddb59eacdec19181492b04df86d3ec1441d83527f29ba39c79bf23870b80363240b3de807591e917f30fd7decbedd07c9e286b94760208401526040830190815260408360608160076107cf195a01fa156102e857815190526020810151606083015260409160809060066107cf195a01fa156102e857565b604051917f123832484f57f264ec6d16e9f60fe0d9b1870c7350fb60c5fad30fdd230c628683527f29a7bb832ba1cf5b0f946c58b0c14f1337b3a5002dfee0638c240fc13025463a60208401526040830190815260408360608160076107cf195a01fa156102e857815190526020810151606083015260409160809060066107cf195a01fa156102e857565b604051917f02318e94e359268e7e92126628e982117463c81b60283c0507dde293f95a3bfe83527f0dbb02f94c1ad156de3ee87d8f9de4b15d59b1e471a537c9939388e7d016a92660208401526040830190815260408360608160076107cf195a01fa156102e857815190526020810151606083015260409160809060066107cf195a01fa156102e857565b9192909260405193845260208401526040830190815260408360608160076107cf195a01fa156102e857815190526020810151606083015260409160809060066107cf195a01fa156102e857565b60606040928351907f2813a308480bd75e007729dd9c87dfe25590031e49a9c580d9d765cbfa91653d82527f1a9eeddbb95f071fed151aace6eba16266f68436ac65a1bbab274462e3fea46860208301528482015260076107cf195a01fa156102e857565b606060409283519060018252600260208301528482015260076107cf195a01fa156102e857565b9190604093606092855192835260208301528482015260076107cf195a01fa156102e857565b60208201519151611039939291611001565b565b61103960c05161123f5f51602061160b5f395f51905f526040519261010084016040526110af61024060207f25af6dbb97ea30c6fcb08ae1c1d8d63dd43291fea08d9e27d7f00252440a3409917f115cd8d8eac96c9a54e1815991faf2e79e6504d5f1b9e5724ff3128a0dc03ca681520152565b6110c482610264356102443509610240610c6c565b6110d361024435610240610cf7565b6110e261026435610240610d83565b6110f161028435610240610e0f565b61115b6101205183608051918180610340516103a051098160c08b01956111218760c4358152602060e435910152565b816101e0519581808c81806003860961028435080891818d8180828180600288096102643508089361024435080809090908089086611027565b8160a05181806102e43581846080510909938180808381806102c4358909610264350808946102a4359009610244350808090961119c604084019182610f75565b61123f60808401936111b985610104358152602061012435910152565b6111ce61010051610164356101443588610f27565b6111f35f51602061160b5f395f51905f526101005180096101a4356101843588610f27565b6103605161120960a08301918251885189611001565b606082015f5160206115eb5f395f51905f52815181030690525f5160206115eb5f395f51905f5281518103069052610240610c39565b610240610c39565b6102405161028052610260516102a05261126c61014051602435600435610280610f27565b61128161016051606435604435610280610f27565b6112966101805160a435608435610280610f27565b6101a051610280906040517f15db4dc552e2aa7838dc3780fc2f777643b4f9cc6df7a9763efebe98c92b315281527f02a44ac0e99ee72ac2d484dafc8ba1019be2ad3d201fa43ec19be713edab079d60208201526040810191825260408160608160076107cf195a01fa156102e85760808391604093835190526020830151606082015260066107cf195a01fa156102e8576101c05161103991610e9b565b6110395f51602061160b5f395f51905f5280808080808061022051810306816101405161024435099008816101605161026435099008816101805161028435099008816101a0516102a435099008816101c0516102c435099008816101e0516102e4350990086102c0610fda565b60405161024081016040526115386102c0610180830161150e6101c085016115086102008701916113df856101c435815260206101e435910152565b6102043581526102243560208201526113fc6101e051828a611027565b6114068589610c39565b602088015f5160206115eb5f395f51905f52815181030690527f26186a2d65ee4d2f9c9a5b91f86597d35f192cd120caf7e935d8443d1938e23d60408901527f30441fd1b5d3370482c42152a8899027716989a6996c2535bc9f7fee8aaef79e60608901527f1970ea81dd6992adfbc571effb03503adbbb6a857f578403c6c40e22d65b3c0260808901527f054793348f12c0cf5622c340573cb277586319de359ab9389778f689786b1e4860a08901526114c860e05160c08a019687611027565b5f51602061160b5f395f51905f527f2d965651cdd9e4811f4e51b80ddca8a8b4a93ee17420aae6adaa01c2617c6e858160e0516101e05109099083611027565b82610c39565b61151a61028082610c39565b5f5160206115eb5f395f51905f526102e0518103066102e052610c39565b7f198e9393920d483a7260bfb731fb5d25f1aa493335a9e71297e485b7aef312c26101008201527f1800deef121f1e76426a00665e5c4479674322d4f75edadd46debd5cd992f6ed6101208201527f090689d0585ff075ec9e99ad690c3395bc4b313370b38ef355acdadcd122975b6101408201527f12c85ea5db8c6deb4aab71808dcb408fe3d1e7690c43d37b4ce6cc0166fa7daa6101608201526020816101808160086107cf195a01fa9051169056fe30644e72e131a029b85045b68181585d97816a916871ca8d3c208c16d87cfd4730644e72e131a029b85045b68181585d2833e84879b9709143e1f593f0000001a2646970667358221220edd216bf3875885bea3f74ec0372d0fa8eec53084a5ac3fa68af88404dac187164736f6c634300081b0033","linkReferences":{}},"methodIdentifiers":{"verifyProof(uint256[24],uint256[4])":"6183f6b4"},"id":45}