{"abi":[{"type":"constructor","inputs":[{"name":"registry","type":"address","internalType":"contract ISchemaRegistry"}],"stateMutability":"nonpayable"},{"type":"function","name":"attest","inputs":[{"name":"request","type":"tuple","internalType":"struct AttestationRequest","components":[{"name":"schema","type":"bytes32","internalType":"bytes32"},{"name":"data","type":"tuple","internalType":"struct AttestationRequestData","components":[{"name":"recipient","type":"address","internalType":"address"},{"name":"expirationTime","type":"uint64","internalType":"uint64"},{"name":"revocable","type":"bool","internalType":"bool"},{"name":"refUID","type":"bytes32","internalType":"bytes32"},{"name":"data","type":"bytes","internalType":"bytes"},{"name":"value","type":"uint256","internalType":"uint256"}]}]}],"outputs":[{"name":"","type":"bytes32","internalType":"bytes32"}],"stateMutability":"payable"},{"type":"function","name":"attestByDelegation","inputs":[{"name":"delegatedRequest","type":"tuple","internalType":"struct DelegatedAttestationRequest","components":[{"name":"schema","type":"bytes32","internalType":"bytes32"},{"name":"data","type":"tuple","internalType":"struct AttestationRequestData","components":[{"name":"recipient","type":"address","internalType":"address"},{"name":"expirationTime","type":"uint64","internalType":"uint64"},{"name":"revocable","type":"bool","internalType":"bool"},{"name":"refUID","type":"bytes32","internalType":"bytes32"},{"name":"data","type":"bytes","internalType":"bytes"},{"name":"value","type":"uint256","internalType":"uint256"}]},{"name":"signature","type":"tuple","internalType":"struct Signature","components":[{"name":"v","type":"uint8","internalType":"uint8"},{"name":"r","type":"bytes32","internalType":"bytes32"},{"name":"s","type":"bytes32","internalType":"bytes32"}]},{"name":"attester","type":"address","internalType":"address"},{"name":"deadline","type":"uint64","internalType":"uint64"}]}],"outputs":[{"name":"","type":"bytes32","internalType":"bytes32"}],"stateMutability":"payable"},{"type":"function","name":"eip712Domain","inputs":[],"outputs":[{"name":"fields","type":"bytes1","internalType":"bytes1"},{"name":"name","type":"string","internalType":"string"},{"name":"version","type":"string","internalType":"string"},{"name":"chainId","type":"uint256","internalType":"uint256"},{"name":"verifyingContract","type":"address","internalType":"address"},{"name":"salt","type":"bytes32","internalType":"bytes32"},{"name":"extensions","type":"uint256[]","internalType":"uint256[]"}],"stateMutability":"view"},{"type":"function","name":"getAttestTypeHash","inputs":[],"outputs":[{"name":"","type":"bytes32","internalType":"bytes32"}],"stateMutability":"pure"},{"type":"function","name":"getAttestation","inputs":[{"name":"uid","type":"bytes32","internalType":"bytes32"}],"outputs":[{"name":"","type":"tuple","internalType":"struct Attestation","components":[{"name":"uid","type":"bytes32","internalType":"bytes32"},{"name":"schema","type":"bytes32","internalType":"bytes32"},{"name":"time","type":"uint64","internalType":"uint64"},{"name":"expirationTime","type":"uint64","internalType":"uint64"},{"name":"revocationTime","type":"uint64","internalType":"uint64"},{"name":"refUID","type":"bytes32","internalType":"bytes32"},{"name":"recipient","type":"address","internalType":"address"},{"name":"attester","type":"address","internalType":"address"},{"name":"revocable","type":"bool","internalType":"bool"},{"name":"data","type":"bytes","internalType":"bytes"}]}],"stateMutability":"view"},{"type":"function","name":"getDomainSeparator","inputs":[],"outputs":[{"name":"","type":"bytes32","internalType":"bytes32"}],"stateMutability":"view"},{"type":"function","name":"getName","inputs":[],"outputs":[{"name":"","type":"string","internalType":"string"}],"stateMutability":"view"},{"type":"function","name":"getNonce","inputs":[{"name":"account","type":"address","internalType":"address"}],"outputs":[{"name":"","type":"uint256","internalType":"uint256"}],"stateMutability":"view"},{"type":"function","name":"getRevokeOffchain","inputs":[{"name":"revoker","type":"address","internalType":"address"},{"name":"data","type":"bytes32","internalType":"bytes32"}],"outputs":[{"name":"","type":"uint64","internalType":"uint64"}],"stateMutability":"view"},{"type":"function","name":"getRevokeTypeHash","inputs":[],"outputs":[{"name":"","type":"bytes32","internalType":"bytes32"}],"stateMutability":"pure"},{"type":"function","name":"getSchemaRegistry","inputs":[],"outputs":[{"name":"","type":"address","internalType":"contract ISchemaRegistry"}],"stateMutability":"view"},{"type":"function","name":"getTimestamp","inputs":[{"name":"data","type":"bytes32","internalType":"bytes32"}],"outputs":[{"name":"","type":"uint64","internalType":"uint64"}],"stateMutability":"view"},{"type":"function","name":"increaseNonce","inputs":[{"name":"newNonce","type":"uint256","internalType":"uint256"}],"outputs":[],"stateMutability":"nonpayable"},{"type":"function","name":"isAttestationValid","inputs":[{"name":"uid","type":"bytes32","internalType":"bytes32"}],"outputs":[{"name":"","type":"bool","internalType":"bool"}],"stateMutability":"view"},{"type":"function","name":"multiAttest","inputs":[{"name":"multiRequests","type":"tuple[]","internalType":"struct MultiAttestationRequest[]","components":[{"name":"schema","type":"bytes32","internalType":"bytes32"},{"name":"data","type":"tuple[]","internalType":"struct AttestationRequestData[]","components":[{"name":"recipient","type":"address","internalType":"address"},{"name":"expirationTime","type":"uint64","internalType":"uint64"},{"name":"revocable","type":"bool","internalType":"bool"},{"name":"refUID","type":"bytes32","internalType":"bytes32"},{"name":"data","type":"bytes","internalType":"bytes"},{"name":"value","type":"uint256","internalType":"uint256"}]}]}],"outputs":[{"name":"","type":"bytes32[]","internalType":"bytes32[]"}],"stateMutability":"payable"},{"type":"function","name":"multiAttestByDelegation","inputs":[{"name":"multiDelegatedRequests","type":"tuple[]","internalType":"struct MultiDelegatedAttestationRequest[]","components":[{"name":"schema","type":"bytes32","internalType":"bytes32"},{"name":"data","type":"tuple[]","internalType":"struct AttestationRequestData[]","components":[{"name":"recipient","type":"address","internalType":"address"},{"name":"expirationTime","type":"uint64","internalType":"uint64"},{"name":"revocable","type":"bool","internalType":"bool"},{"name":"refUID","type":"bytes32","internalType":"bytes32"},{"name":"data","type":"bytes","internalType":"bytes"},{"name":"value","type":"uint256","internalType":"uint256"}]},{"name":"signatures","type":"tuple[]","internalType":"struct Signature[]","components":[{"name":"v","type":"uint8","internalType":"uint8"},{"name":"r","type":"bytes32","internalType":"bytes32"},{"name":"s","type":"bytes32","internalType":"bytes32"}]},{"name":"attester","type":"address","internalType":"address"},{"name":"deadline","type":"uint64","internalType":"uint64"}]}],"outputs":[{"name":"","type":"bytes32[]","internalType":"bytes32[]"}],"stateMutability":"payable"},{"type":"function","name":"multiRevoke","inputs":[{"name":"multiRequests","type":"tuple[]","internalType":"struct MultiRevocationRequest[]","components":[{"name":"schema","type":"bytes32","internalType":"bytes32"},{"name":"data","type":"tuple[]","internalType":"struct RevocationRequestData[]","components":[{"name":"uid","type":"bytes32","internalType":"bytes32"},{"name":"value","type":"uint256","internalType":"uint256"}]}]}],"outputs":[],"stateMutability":"payable"},{"type":"function","name":"multiRevokeByDelegation","inputs":[{"name":"multiDelegatedRequests","type":"tuple[]","internalType":"struct MultiDelegatedRevocationRequest[]","components":[{"name":"schema","type":"bytes32","internalType":"bytes32"},{"name":"data","type":"tuple[]","internalType":"struct RevocationRequestData[]","components":[{"name":"uid","type":"bytes32","internalType":"bytes32"},{"name":"value","type":"uint256","internalType":"uint256"}]},{"name":"signatures","type":"tuple[]","internalType":"struct Signature[]","components":[{"name":"v","type":"uint8","internalType":"uint8"},{"name":"r","type":"bytes32","internalType":"bytes32"},{"name":"s","type":"bytes32","internalType":"bytes32"}]},{"name":"revoker","type":"address","internalType":"address"},{"name":"deadline","type":"uint64","internalType":"uint64"}]}],"outputs":[],"stateMutability":"payable"},{"type":"function","name":"multiRevokeOffchain","inputs":[{"name":"data","type":"bytes32[]","internalType":"bytes32[]"}],"outputs":[{"name":"","type":"uint64","internalType":"uint64"}],"stateMutability":"nonpayable"},{"type":"function","name":"multiTimestamp","inputs":[{"name":"data","type":"bytes32[]","internalType":"bytes32[]"}],"outputs":[{"name":"","type":"uint64","internalType":"uint64"}],"stateMutability":"nonpayable"},{"type":"function","name":"revoke","inputs":[{"name":"request","type":"tuple","internalType":"struct RevocationRequest","components":[{"name":"schema","type":"bytes32","internalType":"bytes32"},{"name":"data","type":"tuple","internalType":"struct RevocationRequestData","components":[{"name":"uid","type":"bytes32","internalType":"bytes32"},{"name":"value","type":"uint256","internalType":"uint256"}]}]}],"outputs":[],"stateMutability":"payable"},{"type":"function","name":"revokeByDelegation","inputs":[{"name":"delegatedRequest","type":"tuple","internalType":"struct DelegatedRevocationRequest","components":[{"name":"schema","type":"bytes32","internalType":"bytes32"},{"name":"data","type":"tuple","internalType":"struct RevocationRequestData","components":[{"name":"uid","type":"bytes32","internalType":"bytes32"},{"name":"value","type":"uint256","internalType":"uint256"}]},{"name":"signature","type":"tuple","internalType":"struct Signature","components":[{"name":"v","type":"uint8","internalType":"uint8"},{"name":"r","type":"bytes32","internalType":"bytes32"},{"name":"s","type":"bytes32","internalType":"bytes32"}]},{"name":"revoker","type":"address","internalType":"address"},{"name":"deadline","type":"uint64","internalType":"uint64"}]}],"outputs":[],"stateMutability":"payable"},{"type":"function","name":"revokeOffchain","inputs":[{"name":"data","type":"bytes32","internalType":"bytes32"}],"outputs":[{"name":"","type":"uint64","internalType":"uint64"}],"stateMutability":"nonpayable"},{"type":"function","name":"timestamp","inputs":[{"name":"data","type":"bytes32","internalType":"bytes32"}],"outputs":[{"name":"","type":"uint64","internalType":"uint64"}],"stateMutability":"nonpayable"},{"type":"function","name":"version","inputs":[],"outputs":[{"name":"","type":"string","internalType":"string"}],"stateMutability":"view"},{"type":"event","name":"Attested","inputs":[{"name":"recipient","type":"address","indexed":true,"internalType":"address"},{"name":"attester","type":"address","indexed":true,"internalType":"address"},{"name":"uid","type":"bytes32","indexed":false,"internalType":"bytes32"},{"name":"schemaUID","type":"bytes32","indexed":true,"internalType":"bytes32"}],"anonymous":false},{"type":"event","name":"EIP712DomainChanged","inputs":[],"anonymous":false},{"type":"event","name":"NonceIncreased","inputs":[{"name":"oldNonce","type":"uint256","indexed":false,"internalType":"uint256"},{"name":"newNonce","type":"uint256","indexed":false,"internalType":"uint256"}],"anonymous":false},{"type":"event","name":"Revoked","inputs":[{"name":"recipient","type":"address","indexed":true,"internalType":"address"},{"name":"attester","type":"address","indexed":true,"internalType":"address"},{"name":"uid","type":"bytes32","indexed":false,"internalType":"bytes32"},{"name":"schemaUID","type":"bytes32","indexed":true,"internalType":"bytes32"}],"anonymous":false},{"type":"event","name":"RevokedOffchain","inputs":[{"name":"revoker","type":"address","indexed":true,"internalType":"address"},{"name":"data","type":"bytes32","indexed":true,"internalType":"bytes32"},{"name":"timestamp","type":"uint64","indexed":true,"internalType":"uint64"}],"anonymous":false},{"type":"event","name":"Timestamped","inputs":[{"name":"data","type":"bytes32","indexed":true,"internalType":"bytes32"},{"name":"timestamp","type":"uint64","indexed":true,"internalType":"uint64"}],"anonymous":false},{"type":"error","name":"AccessDenied","inputs":[]},{"type":"error","name":"AddressInsufficientBalance","inputs":[{"name":"account","type":"address","internalType":"address"}]},{"type":"error","name":"AlreadyRevoked","inputs":[]},{"type":"error","name":"AlreadyRevokedOffchain","inputs":[]},{"type":"error","name":"AlreadyTimestamped","inputs":[]},{"type":"error","name":"DeadlineExpired","inputs":[]},{"type":"error","name":"FailedInnerCall","inputs":[]},{"type":"error","name":"InsufficientValue","inputs":[]},{"type":"error","name":"InvalidAttestation","inputs":[]},{"type":"error","name":"InvalidAttestations","inputs":[]},{"type":"error","name":"InvalidExpirationTime","inputs":[]},{"type":"error","name":"InvalidLength","inputs":[]},{"type":"error","name":"InvalidNonce","inputs":[]},{"type":"error","name":"InvalidOffset","inputs":[]},{"type":"error","name":"InvalidRegistry","inputs":[]},{"type":"error","name":"InvalidRevocation","inputs":[]},{"type":"error","name":"InvalidRevocations","inputs":[]},{"type":"error","name":"InvalidSchema","inputs":[]},{"type":"error","name":"InvalidShortString","inputs":[]},{"type":"error","name":"InvalidSignature","inputs":[]},{"type":"error","name":"InvalidVerifier","inputs":[]},{"type":"error","name":"Irrevocable","inputs":[]},{"type":"error","name":"NotFound","inputs":[]},{"type":"error","name":"NotPayable","inputs":[]},{"type":"error","name":"StringTooLong","inputs":[{"name":"str","type":"string","internalType":"string"}]},{"type":"error","name":"WrongSchema","inputs":[]}],"bytecode":{"object":"0x6101e0806040523461032c5760208161425080380380916100208285610330565b83398101031261032c57516001600160a01b0381169081810361032c576040519161004c604084610330565b60038352602083016245415360e81b81526040519061006c604083610330565b600582526020820190640312e332e360dc1b82526001608052600360a0525f60c05261009786610353565b610180526100a4836104ef565b6101a05285519020918261014052519020806101605246610100526040519060208201927f8b73c3c69bb8fe3d512ecc4cf759cc79239f7b179b0ffacaa9a75d522b39400f8452604083015260608201524660808201523060a082015260a0815261011060c082610330565b51902060e052306101205282516001600160401b03811161031857600254600181811c9116801561030e575b60208210146102fa57601f8111610297575b506020601f821160011461023457819293945f92610229575b50508160011b915f199060031b1c1916176002555b1561021a576101c052604051613bce9081610682823960805181610862015260a05181610890015260c051816108bb015260e051816130a60152610100518161316301526101205181613077015261014051816130f50152610160518161311b015261018051816106e801526101a0518161071401526101c0518181816101d701528181611bac01528181611e5c015281816121fd01526128570152f35b6311a1e69760e01b5f5260045ffd5b015190505f80610167565b601f1982169060025f52805f20915f5b81811061027f57509583600195969710610267575b505050811b0160025561017c565b01515f1960f88460031b161c191690555f8080610259565b9192602060018192868b015181550194019201610244565b60025f527f405787fa12a823e0f2b7631cc41b3ba8828b3321ca811111fa75cd3aa3bb5ace601f830160051c810191602084106102f0575b601f0160051c01905b8181106102e5575061014e565b5f81556001016102d8565b90915081906102cf565b634e487b7160e01b5f52602260045260245ffd5b90607f169061013c565b634e487b7160e01b5f52604160045260245ffd5b5f80fd5b601f909101601f19168101906001600160401b0382119082101761031857604052565b908151602081105f146103e7575090601f81511161038d57602081519101516020821061037e571790565b5f198260200360031b1b161790565b6040519063305a27a960e01b825260206004830152818151918260248301525f5b8381106103cf575050815f6044809484010152601f80199101168101030190fd5b602082820181015160448784010152859350016103ae565b6001600160401b038111610318575f54600181811c911680156104e5575b60208210146102fa57601f81116104b3575b50602092601f821160011461045457928192935f92610449575b50508160011b915f199060031b1c1916175f5560ff90565b015190505f80610431565b601f198216935f8052805f20915f5b86811061049b5750836001959610610483575b505050811b015f5560ff90565b01515f1960f88460031b161c191690555f8080610476565b91926020600181928685015181550194019201610463565b5f8052601f60205f20910160051c810190601f830160051c015b8181106104da5750610417565b5f81556001016104cd565b90607f1690610405565b908151602081105f14610574575090601f81511161051a57602081519101516020821061037e571790565b6040519063305a27a960e01b825260206004830152818151918260248301525f5b83811061055c575050815f6044809484010152601f80199101168101030190fd5b6020828201810151604487840101528593500161053b565b6001600160401b03811161031857600154600181811c91168015610677575b60208210146102fa57601f8111610644575b50602092601f82116001146105e357928192935f926105d8575b50508160011b915f199060031b1c19161760015560ff90565b015190505f806105bf565b601f1982169360015f52805f20915f5b86811061062c5750836001959610610614575b505050811b0160015560ff90565b01515f1960f88460031b161c191690555f8080610606565b919260206001819286850151815501940192016105f3565b60015f52601f60205f20910160051c810190601f830160051c015b81811061066c57506105a5565b5f815560010161065f565b90607f169061059356fe6101206040526004361015610012575f80fd5b5f3560e01c80630eabf66014610dee57806312b11a1714610db457806313893f6114610d4557806317d7de7c14610c7b5780632d0335ab14610c435780633c04271514610b5357806344adc90e14610a755780634692626714610a355780634cb7e9e5146109845780634d0030701461095b57806354fd4d501461084a57806379f7573a146107b957806384b0196e146106d057806395411525146104c3578063a3112a6414610478578063a6d4dbc7146103a3578063b469318d14610356578063b83010d31461031c578063cf190f34146102f2578063d45c4435146102bf578063e30bb5631461028b578063e71ff3651461021d578063ed24911d146101fb578063f10b5cc8146101b85763f17325e71461012d575f80fd5b60203660031901126101b4576004356001600160401b0381116101b45780600401604060031983360301126101b45760206101a481936101ab9361018661017261155f565b926101816024369201846115c4565b6114a3565b61018f8361137d565b526101998261137d565b5034913391356121af565b015161137d565b51604051908152f35b5f80fd5b346101b4575f3660031901126101b45760206040516001600160a01b037f0000000000000000000000000000000000000000000000000000000000000000168152f35b346101b4575f3660031901126101b457602061021561306d565b604051908152f35b346101b45760203660031901126101b4576004356001600160401b0381116101b45761024d903690600401610fee565b906001600160401b034216915f5b81811061026d57602084604051908152f35b806102858561027f60019486886113bf565b35612e5e565b0161025b565b346101b45760203660031901126101b45760206102b56004355f52600460205260405f2054151590565b6040519015158152f35b346101b45760203660031901126101b4576004355f52600560205260206001600160401b0360405f205416604051908152f35b346101b45760203660031901126101b45760206001600160401b0342166102158160043533611fd4565b346101b4575f3660031901126101b45760206040517fb5d556f07587ec0f08cf386545cc4362c702a001650c2058002615ee5c9d1e758152f35b346101b45760403660031901126101b4576001600160a01b03610377611064565b165f52600660205260405f206024355f5260205260206001600160401b0360405f205416604051908152f35b6101003660031901126101b4576040516103bc816111c0565b6004358082526103cb36611294565b602083015260603660631901126101b4576040516103e88161120a565b60643560ff811681036101b4578152608435602082015260a4356040820152604083015260c4356001600160a01b03811681036101b45780606084015260e4356001600160401b03811681036101b4578361044a9160806104769601526118ab565b6104526116f8565b61045b36611294565b6104648261137d565b5261046e8161137d565b503492611b87565b005b346101b45760203660031901126101b4576104916117ab565b506004355f5260046020526104bf6104ab60405f206117f5565b6040519182916020835260208301906110fa565b0390f35b60203660031901126101b4576004356001600160401b0381116101b4576104ee903690600401610fee565b906104f8826115ed565b915f915f1982019083345b848210610523576104bf6105178789612df6565b6040519182918261108e565b610533828685999698979961119e565b946105416020870187611658565b939091841580156106b8575b610690575f9996604089019460608a01968a359960808c0135996001600160401b038b16809b14159e5b83811015610621578f908e61059c8c6105968d8560051b8101906115c4565b92611776565b83101561060d576105ac8e6115d9565b936101b4578f908f906001956105f26001600160a01b03926105e161060797604051976105d8896111c0565b885236906114a3565b60208701523690606089020161132b565b60408501521660608301526080820152612072565b01610577565b634e487b7160e01b5f52603260045260245ffd5b509a8d9e5061065e949c50839a50600198506106586106679698889f6106509060209a9d9796959d14966115d9565b93369161168d565b9061280c565b9586519061139e565b94018051610675898961138a565b52610680888861138a565b5051510195019093959291610503565b7f947d5a84000000000000000000000000000000000000000000000000000000005f5260045ffd5b506106c66040890189611776565b905085141561054d565b346101b4575f3660031901126101b45761078b61070c7f000000000000000000000000000000000000000000000000000000000000000061374b565b6104bf6107387f00000000000000000000000000000000000000000000000000000000000000006137c3565b6107996040519161074a60208461125c565b5f83525f3681376040519586957f0f00000000000000000000000000000000000000000000000000000000000000875260e0602088015260e087019061103f565b90858203604087015261103f565b904660608501523060808501525f60a085015283820360c08501526110c7565b346101b45760203660031901126101b457600435335f52600360205260405f20549081811115610822577f57b09af877df9068fd60a69d7b21f5576b8b38955812d6ae4ac52942f1e38fb791604091335f52600360205280835f205582519182526020820152a1005b7f756688fe000000000000000000000000000000000000000000000000000000005f5260045ffd5b346101b4575f3660031901126101b4576104bf6108867f0000000000000000000000000000000000000000000000000000000000000000612ee9565b61094760016108b47f0000000000000000000000000000000000000000000000000000000000000000612ee9565b92816108df7f0000000000000000000000000000000000000000000000000000000000000000612ee9565b602060405196846108f9899651809285808a01910161101e565b8501601760f91b83820152610917825180938560218501910161101e565b0101601760f91b8382015261093682518093602060028501910161101e565b01010301601f19810183528261125c565b60405191829160208352602083019061103f565b346101b45760203660031901126101b45760206001600160401b03421661021581600435612e5e565b60203660031901126101b4576004356001600160401b0381116101b4576109af903690600401610fee565b5f19810191905f90345b8183106109c257005b6109cd838386611636565b6020810135601e19823603018112156101b4578101918235926001600160401b0384116101b457602001928060061b360384136101b45760019382610a2792610a2d95610a208c8b1494339336916112bc565b9035611e36565b9061139e565b9201916109b9565b60603660031901126101b457610476610a4c6116f8565b610a5536611294565b610a5e8261137d565b52610a688161137d565b5034903390600435611b87565b60203660031901126101b4576004356001600160401b0381116101b457610aa0903690600401610fee565b90610aaa826115ed565b915f9134905f925f198101905b808510610acb576104bf6105178789612df6565b9091929394610adb868386611636565b906020820191610aeb8382611658565b90501561069057610b2b610b2289898885610b1b610b0d60019a602099611658565b93909514943393369161168d565b903561280c565b9788519061139e565b96018051610b39898b61138a565b52610b44888a61138a565b50515101950193929190610ab7565b60203660031901126101b4576004356001600160401b0381116101b457806004019060e060031982360301126101b457604051610b8f816111c0565b82359283825260248301938435946001600160401b0386116101b457610c3b6101ab95610c226101a495610c0f60209a98610bd18c9a600436918801016114a3565b8a820152610be2366044870161132b565b6040820152610c0560c460a4870196610bfa8861107a565b606085015201611369565b6080820152612072565b610181610c1a61155f565b9536926115c4565b610c2b8461137d565b52610c358361137d565b506115d9565b9034926121af565b346101b45760203660031901126101b4576001600160a01b03610c64611064565b165f526003602052602060405f2054604051908152f35b346101b4575f3660031901126101b4576040515f600254610c9b816113cf565b8084529060018116908115610d215750600114610cc3575b6104bf836109478185038261125c565b60025f9081527f405787fa12a823e0f2b7631cc41b3ba8828b3321ca811111fa75cd3aa3bb5ace939250905b808210610d0757509091508101602001610947610cb3565b919260018160209254838588010152019101909291610cef565b60ff191660208086019190915291151560051b840190910191506109479050610cb3565b346101b45760203660031901126101b4576004356001600160401b0381116101b457610d75903690600401610fee565b906001600160401b034216915f5b818110610d9557602084604051908152f35b80610dae85610da760019486886113bf565b3533611fd4565b01610d83565b346101b4575f3660031901126101b45760206040517ffeb2925a02bae3dae48d424a0437a2b6ac939aa9230ddc55a1a76f065d9880768152f35b60203660031901126101b4576004356001600160401b0381116101b457610e19903690600401610fee565b5f198101915f91345b818410610e2b57005b610e3684838561119e565b60a0813603126101b457604051610e4c816111c0565b8135815260208201356001600160401b0381116101b457820136601f820112156101b457610e819036906020813591016112bc565b906020810191825260408301356001600160401b0381116101b457830136601f820112156101b457803590610eb58261127d565b91610ec3604051938461125c565b808352602060608185019202830101913683116101b457602001905b828210610fd45750505060408201818152610f0f6080610f016060880161107a565b966060860197885201611369565b936080840194855251938451928315908115610fc8575b50610690575f5b838110610f635750505050610f5b928460019593610a279351906001600160a01b038c8c1494511691611e36565b930192610e22565b600190610fc28651610f75838a61138a565b51610f8184885161138a565b516001600160a01b038c5116906001600160401b038851169260405194610fa7866111c0565b855260208501526040840152606083015260808201526118ab565b01610f2d565b9050518314158c610f26565b6020606091610fe3368561132b565b815201910190610edf565b9181601f840112156101b4578235916001600160401b0383116101b4576020808501948460051b0101116101b457565b5f5b83811061102f5750505f910152565b8181015183820152602001611020565b906020916110588151809281855285808601910161101e565b601f01601f1916010190565b600435906001600160a01b03821682036101b457565b35906001600160a01b03821682036101b457565b60206040818301928281528451809452019201905f5b8181106110b15750505090565b82518452602093840193909201916001016110a4565b90602080835192838152019201905f5b8181106110e45750505090565b82518452602093840193909201916001016110d7565b9061014061012061119b9380518452602081015160208501526001600160401b0360408201511660408501526001600160401b0360608201511660608501526001600160401b03608082015116608085015260a081015160a08501526001600160a01b0360c08201511660c08501526001600160a01b0360e08201511660e0850152610100810151151561010085015201519181610120820152019061103f565b90565b919081101561060d5760051b81013590609e19813603018212156101b4570190565b60a081019081106001600160401b038211176111db57604052565b634e487b7160e01b5f52604160045260245ffd5b604081019081106001600160401b038211176111db57604052565b606081019081106001600160401b038211176111db57604052565b60c081019081106001600160401b038211176111db57604052565b61014081019081106001600160401b038211176111db57604052565b90601f801991011681019081106001600160401b038211176111db57604052565b6001600160401b0381116111db5760051b60200190565b60409060231901126101b457604051906112ad826111ef565b60243582526044356020830152565b9291926112c88261127d565b936112d6604051958661125c565b602085848152019260061b8201918183116101b457925b8284106112fa5750505050565b6040848303126101b45760206040918251611314816111ef565b8635815282870135838201528152019301926112ed565b91908260609103126101b4576040516113438161120a565b8092803560ff811681036101b45760409182918452602081013560208501520135910152565b35906001600160401b03821682036101b457565b80511561060d5760200190565b805182101561060d5760209160051b010190565b919082039182116113ab57565b634e487b7160e01b5f52601160045260245ffd5b919081101561060d5760051b0190565b90600182811c921680156113fd575b60208310146113e957565b634e487b7160e01b5f52602260045260245ffd5b91607f16916113de565b5f9291815491611416836113cf565b808352926001811690811561146b575060011461143257505050565b5f9081526020812093945091925b838310611451575060209250010190565b600181602092949394548385870101520191019190611440565b915050602093945060ff929192191683830152151560051b010190565b6001600160401b0381116111db57601f01601f191660200190565b919060c0838203126101b457604051906114bc82611225565b81936114c78161107a565b83526114d560208201611369565b6020840152604081013580151581036101b45760408401526060810135606084015260808101356001600160401b0381116101b45781019082601f830112156101b45781359261152484611488565b90611532604051928361125c565b848252602085850101116101b4575f60208560a09682889701838601378301015260808501520135910152565b60408051909190611570838261125c565b6001815291601f1901825f5b82811061158857505050565b60209060405161159781611225565b5f81525f838201525f60408201525f6060820152606060808201525f60a08201528282850101520161157c565b90359060be19813603018212156101b4570190565b356001600160a01b03811681036101b45790565b906115f78261127d565b611604604051918261125c565b8281528092611615601f199161127d565b01905f5b82811061162557505050565b806060602080938501015201611619565b919081101561060d5760051b81013590603e19813603018212156101b4570190565b903590601e19813603018212156101b457018035906001600160401b0382116101b457602001918160051b360383136101b457565b9291906116998161127d565b936116a7604051958661125c565b602085838152019160051b8101918383116101b45781905b8382106116cd575050505050565b81356001600160401b0381116101b4576020916116ed87849387016114a3565b8152019101906116bf565b60408051909190611709838261125c565b6001815291601f1901825f5b82811061172157505050565b602090604051611730816111ef565b5f81525f8382015282828501015201611715565b9061174e8261127d565b61175b604051918261125c565b828152809261176c601f199161127d565b0190602036910137565b903590601e19813603018212156101b457018035906001600160401b0382116101b4576020019160608202360383136101b457565b604051906117b882611240565b6060610120835f81525f60208201525f60408201525f838201525f60808201525f60a08201525f60c08201525f60e08201525f6101008201520152565b90600661012060405161180781611240565b611899819580548352600181015460208401526001600160401b0360028201548181166040860152818160401c16606086015260801c166080840152600381015460a08401526001600160a01b0360048201541660c084015260ff60058201546001600160a01b03811660e086015260a01c1615156101008401526118926040518096819301611407565b038461125c565b0152565b5f1981146113ab5760010190565b608081016001600160401b038151168015159081611a46575b50611a1e57816001600160a01b0361197f60206119ef9501519260408101519460608201948486511692519160208251920151845f5260036020526001600160401b0360405f20928354936119188561189d565b90555116926040519460208601967fb5d556f07587ec0f08cf386545cc4362c702a001650c2058002615ee5c9d1e75885260408701526060860152608085015260a084015260c083015260e082015260e081526119776101008261125c565b519020613189565b9151166119ea60208401516119dc60ff60408701519651166040519687936020850191926041937fff00000000000000000000000000000000000000000000000000000000000000928452602084015260f81b1660408201520190565b03601f19810185528461125c565b6131ca565b156119f657565b7f8baa579f000000000000000000000000000000000000000000000000000000005f5260045ffd5b7f1ab7da6b000000000000000000000000000000000000000000000000000000005f5260045ffd5b90506001600160401b034216115f6118c4565b519081151582036101b457565b6020818303126101b4578051906001600160401b0382116101b45701906080828203126101b45760405191608083018381106001600160401b038211176111db576040528051835260208101516001600160a01b03811681036101b4576020840152611ad460408201611a59565b60408401526060810151906001600160401b0382116101b4570181601f820112156101b4578051611b0481611488565b92611b12604051948561125c565b818452602082840101116101b457611b30916020808501910161101e565b606082015290565b90611b428261127d565b611b4f604051918261125c565b8281528092611b60601f199161127d565b01905f5b828110611b7057505050565b602090611b7b6117ab565b82828501015201611b64565b9190604051906351753e3760e11b82528360048301525f826024816001600160a01b037f0000000000000000000000000000000000000000000000000000000000000000165afa918215611e2b575f92611e07575b50815115611db75792835190611bf182611b38565b93611bfb83611744565b95426001600160401b0316905f5b858110611c24575050505050509161119b9391600193613326565b611c2e818361138a565b519081515f52600460205260405f2091825415611ddf5786600184015403611db75760058301546001600160a01b03871690816001600160a01b03821603611d8f5760a01c60ff1615611d675760028401916001600160401b03835460801c16611d3f577ff930a6e2523c9cc298691873087a740550b8fc85a0680830414c148ed927f61560206001600160a01b038f8f88611d2c918f9993611d028f9d611cfd60019f60c0989067ffffffffffffffff60801b1967ffffffffffffffff60801b83549260801b169116179055565b6117f5565b611d0c848461138a565b52611d17838361138a565b50611d2683888b01519261138a565b5261138a565b510151169251604051908152a401611c09565b7f905e7107000000000000000000000000000000000000000000000000000000005f5260045ffd5b7f157bd4c3000000000000000000000000000000000000000000000000000000005f5260045ffd5b7f4ca88867000000000000000000000000000000000000000000000000000000005f5260045ffd5b7fbf37b20e000000000000000000000000000000000000000000000000000000005f5260045ffd5b7fc5723b51000000000000000000000000000000000000000000000000000000005f5260045ffd5b611e249192503d805f833e611e1c818361125c565b810190611a66565b905f611bdc565b6040513d5f823e3d90fd5b949392916040516351753e3760e11b81528660048201525f816024816001600160a01b037f0000000000000000000000000000000000000000000000000000000000000000165afa908115611e2b575f91611fba575b50805115611db7578251611e9f81611b38565b92611ea982611744565b94426001600160401b0316905f5b848110611ece57505050505061119b959650613326565b611ed8818361138a565b519081515f52600460205260405f20805415611ddf578d600182015403611db75760058101546001600160a01b03871690816001600160a01b03821603611d8f5760a01c60ff1615611d675760028201936001600160401b03855460801c16611d3f578f9260206001600160a01b0360c08f8f8990611fa792611d028f98611cfd60019f9a7ff930a6e2523c9cc298691873087a740550b8fc85a0680830414c148ed927f6159b9067ffffffffffffffff60801b1967ffffffffffffffff60801b83549260801b169116179055565b510151169251604051908152a401611eb7565b611fce91503d805f833e611e1c818361125c565b5f611e8c565b6001600160a01b031691825f52600660205260405f2090825f52816020526001600160401b0360405f20541661204a576001600160401b0391835f5260205260405f20828216831982541617905516917f92a1f7a41a7c585a8b09e25b195e225b1d43248daca46b0faf9e0792777a22295f80a4565b7fec9d6eeb000000000000000000000000000000000000000000000000000000005f5260045ffd5b608081016001600160401b038151168015159081612183575b50611a1e57816001600160a01b0361197f60206119ef9501519260408101519460608201948486511692519185825116916001600160401b03602082015116906040810151151560608201519060a060808401516020815191012093015193885f5260036020526001600160401b0360405f209687549761210b8961189d565b90555116966040519860208a019a7ffeb2925a02bae3dae48d424a0437a2b6ac939aa9230ddc55a1a76f065d9880768c5260408b015260608a0152608089015260a088015260c087015260e086015261010085015261012084015261014083015261016082015261016081526119776101808261125c565b90506001600160401b034216115f61208b565b604051906121a3826111ef565b60606020835f81520152565b919260c0526121bc612196565b508051906121c8612196565b60e0526121d482611744565b602060e05101526040516351753e3760e11b81528360048201525f816024816001600160a01b037f0000000000000000000000000000000000000000000000000000000000000000165afa8015611e2b575f6080526127f0575b506080515115611db757909161224383611b38565b6101005261225083611744565b60a0525f915b838310612283575050505050612279600160c05160a05161010051608051613573565b60e0515260e05190565b612293838297939495969761138a565b51916001600160401b0360208401511680151590816127dc575b506127b4576040608051015115806127a7575b611d67576060830151956001600160401b03602085015116966001600160a01b0385511660408601511515906080870151926040519a6122ff8c611240565b5f8c528960208d01526001600160401b03421660408d015260608c01525f60808c015260a08b015260c08a01526001600160a01b038a1660e08a01526101008901526101208801525f5b602088015160c089015161244e6004609960e08d0151938d60408101519060608101517fffffffffffffffff0000000000000000000000000000000000000000000000006101008301511515918161012060a0860151950151956040519b8c9860208a019e8f526bffffffffffffffffffffffff199060601b1660408a01526bffffffffffffffffffffffff199060601b16605489015260c01b16606887015260c01b16607085015260f81b60788401526079830152612412815180926020868601910161101e565b81017fffffffff000000000000000000000000000000000000000000000000000000008860e01b16838201520301601b1981018452018261125c565b519020805f52600460205260405f205415612472575060010163ffffffff16612349565b9050979692939094959197808452805f52600460205260405f2091845183556020850151600184015561252a600284016001600160401b0380604089015116166001600160401b031982541617815560608701516fffffffffffffffff0000000000000000196fffffffffffffffff000000000000000083549260401b1691161781556001600160401b0360808801511667ffffffffffffffff60801b1967ffffffffffffffff60801b83549260801b169116179055565b60a085015160038401556001600160a01b0360c0860151166001600160a01b0360048501911673ffffffffffffffffffffffffffffffffffffffff19825416179055600583016001600160a01b038060e0880151161673ffffffffffffffffffffffffffffffffffffffff19825416178155610100860151151560ff60a01b1960ff60a01b83549260a01b1691161790556101208501519283516001600160401b0381116111db5789946125e160068401546113cf565b601f811161274f575b50602090601f83116001146126e157600692915f91836126d6575b50508160011b915f199060031b1c1916179101555b6060810151806126b2575b506001600160a01b039060019561263f866101005161138a565b5261264d856101005161138a565b5060a081015161265f8660a05161138a565b528261267186602060e051015161138a565b5251166040519182527f8bf46bf4cfd674fa735a3d63ec1c9ad4153f033c290341f3a588b75685141b3560206001600160a01b038b1693a401919290612256565b6126c99193505f52600460205260405f2054151590565b15611ddf5786915f612625565b015190505f80612605565b90600684015f52805f20915f5b601f19851681106127345750918391600193600695601f1981161061271c575b505050811b0191015561261a565b01515f1960f88460031b161c191690555f808061270e565b8183015184558d9850600190930192602092830192016126ee565b90919293949550600684015f5260205f20601f840160051c8101602085106127a0575b908c979695949392915b601f830160051c820181106127925750506125ea565b5f81558d985060010161277c565b5080612772565b50604083015115156122c0565b7f08e8b937000000000000000000000000000000000000000000000000000000005f5260045ffd5b90506001600160401b03421610155f6122ad565b612803903d805f833e611e1c818361125c565b6080525f61222e565b9290949391612819612196565b50855193612825612196565b9461282f81611744565b6020870152604051906351753e3760e11b82528260048301525f826024816001600160a01b037f0000000000000000000000000000000000000000000000000000000000000000165afa918215611e2b575f92612dda575b50815115611db7579297909161289c84611b38565b986128a685611744565b945f935b8185106128c7575050505050956128c2949596613573565b815290565b919593989496999092976128db8a8461138a565b519a6001600160401b0360208d0151168015159081612dc6575b506127b45760408901511580612db9575b611d6757899860608d01518d60208101516001600160401b03169181516001600160a01b031690604083015115159260800151936040519e8f9061294982611240565b5f82526020820152426001600160401b03166040820152606001528d608081015f905260a0015260c08d01526001600160a01b038b1660e08d01526101008c01526101208b01525f5b60208b01518b612a5b6004609960c084015160e08501519460408101519060608101517fffffffffffffffff0000000000000000000000000000000000000000000000006101008301511515918161012060a0860151950151956040519b8c9860208a019e8f526bffffffffffffffffffffffff199060601b1660408a01526bffffffffffffffffffffffff199060601b16605489015260c01b16606887015260c01b16607085015260f81b60788401526079830152612412815180926020868601910161101e565b519020805f52600460205260405f205415612a7f575060010163ffffffff16612992565b90509d979b9199929a949d9c909698939c808452805f52600460205260405f20918451835560208501516001840155612b3d600284016001600160401b0380604089015116166001600160401b031982541617815560608701516fffffffffffffffff0000000000000000196fffffffffffffffff000000000000000083549260401b1691161781556001600160401b0360808801511667ffffffffffffffff60801b1967ffffffffffffffff60801b83549260801b169116179055565b60a085015160038401556001600160a01b0360c0860151166001600160a01b0360048501911673ffffffffffffffffffffffffffffffffffffffff19825416179055600583016001600160a01b038060e0880151161673ffffffffffffffffffffffffffffffffffffffff19825416178155610100860151151560ff60a01b1960ff60a01b83549260a01b1691161790556101208501519283516001600160401b0381116111db578894612bf460068401546113cf565b601f8111612d61575b50602090601f8311600114612cf357600692915f9183612ce8575b50508160011b915f199060031b1c1916179101555b8d8b8b606084015180612cbd575b508660206001600160a01b0395948794612c60848660019e611d2683612c789a61138a565b50612c708460a08901519261138a565b52015161138a565b5251166040519182527f8bf46bf4cfd674fa735a3d63ec1c9ad4153f033c290341f3a588b75685141b3560206001600160a01b03881693a40193949a929091926128aa565b92505050612cd89193505f52600460205260405f2054151590565b15611ddf5785918d8b8b5f612c3b565b015190505f80612c18565b90600684015f52805f20915f5b601f1985168110612d465750918391600193600695601f19811610612d2e575b505050811b01910155612c2d565b01515f1960f88460031b161c191690555f8080612d20565b8183015184558c985060019093019260209283019201612d00565b90919293949550600684015f5260205f20601f840160051c810160208510612db2575b908b979695949392915b601f830160051c82018110612da4575050612bfd565b5f81558c9850600101612d8e565b5080612d84565b5060408c01511515612906565b90506001600160401b03421610155f6128f5565b612def9192503d805f833e611e1c818361125c565b905f612887565b90612e0090611744565b905f8151915f5b838110612e15575050505090565b612e1f818361138a565b5180515f915b818310612e3757505050600101612e07565b90919460018091612e48888561138a565b51612e53828c61138a565b520195019190612e25565b90815f5260056020526001600160401b0360405f205416612ec1576001600160401b0390825f52600560205260405f20828216831982541617905516907f5aafceeb1c7ad58e4a84898bdee37c02c0fc46e7d24e6b60e8209449f183459f5f80a3565b7f2e267946000000000000000000000000000000000000000000000000000000005f5260045ffd5b805f917a184f03e93ff9f4daa797ed6e38ed64bf6a1f010000000000000000821015613045575b806d04ee2d6d415b85acef8100000000600a92101561302a575b662386f26fc10000811015613016575b6305f5e100811015613005575b612710811015612ff6575b6064811015612fe8575b1015612fdd575b600a60216001840193612f7585611488565b94612f83604051968761125c565b808652612f92601f1991611488565b013660208701378401015b5f1901917f30313233343536373839616263646566000000000000000000000000000000008282061a8353048015612fd857600a9091612f9d565b505090565b600190910190612f63565b606460029104930192612f5c565b61271060049104930192612f52565b6305f5e10060089104930192612f47565b662386f26fc1000060109104930192612f3a565b6d04ee2d6d415b85acef810000000060209104930192612f2a565b50604091507a184f03e93ff9f4daa797ed6e38ed64bf6a1f0100000000000000008104612f10565b6001600160a01b037f000000000000000000000000000000000000000000000000000000000000000016301480613160575b156130c8577f000000000000000000000000000000000000000000000000000000000000000090565b60405160208101907f8b73c3c69bb8fe3d512ecc4cf759cc79239f7b179b0ffacaa9a75d522b39400f82527f000000000000000000000000000000000000000000000000000000000000000060408201527f000000000000000000000000000000000000000000000000000000000000000060608201524660808201523060a082015260a0815261315a60c08261125c565b51902090565b507f0000000000000000000000000000000000000000000000000000000000000000461461309f565b60429061319461306d565b90604051917f19010000000000000000000000000000000000000000000000000000000000008352600283015260228201522090565b906131d583826137fa565b5060048195929510156132a55715938461328f575b5083156131f8575b50505090565b5f93509061323061323e8594936040519283916020830195630b135d3f60e11b8752602484015260406044840152606483019061103f565b03601f19810183528261125c565b51915afa61324a613834565b81613281575b8161325f575b505f80806131f2565b90506020818051810103126101b45760200151630b135d3f60e11b145f613256565b905060208151101590613250565b6001600160a01b0384811691161493505f6131ea565b634e487b7160e01b5f52602160045260245ffd5b929160408401936040815282518095526060810194602060608260051b8401019401905f5b8181106132fb5750505061119b93945060208184039101526110c7565b909194602080613317600193605f19888203018c5289516110fa565b970198019101969190966132de565b9391908051946001861461354d57602001516001600160a01b031690811561350e575f95604051636723702360e11b8152602081600481875afa908115611e2b575f916134d4575b50905f915b81831061344657505050916020916133bb93876040518096819582947f88e5b2d9000000000000000000000000000000000000000000000000000000008452600484016132b9565b03925af1908115611e2b575f9161340c575b50156133e4576133db575090565b61119b90613a9b565b7fbf2f3a8b000000000000000000000000000000000000000000000000000000005f5260045ffd5b90506020813d60201161343e575b816134276020938361125c565b810103126101b45761343890611a59565b5f6133cd565b3d915061341a565b90919796613454898761138a565b5180156134c95782156134a1578181116134795780600192039801985b019190613373565b7f11011294000000000000000000000000000000000000000000000000000000005f5260045ffd5b7f1574f9f3000000000000000000000000000000000000000000000000000000005f5260045ffd5b509697600190613471565b90506020813d602011613506575b816134ef6020938361125c565b810103126101b45761350090611a59565b5f61336e565b3d91506134e2565b50505f939192935b8281106135365750505061352957505f90565b61353290613a9b565b5f90565b613540818361138a565b516134a157600101613516565b9061119b95509161356c61356560019496959661137d565b519161137d565b5191613863565b9391908051946001861461373457602001516001600160a01b0316908115613702575f95604051636723702360e11b8152602081600481875afa908115611e2b575f916136c8575b50905f915b81831061368a575050509160209161360893876040518096819582947f91db0b7e000000000000000000000000000000000000000000000000000000008452600484016132b9565b03925af1908115611e2b575f91613650575b5015613628576133db575090565b7fe8bee839000000000000000000000000000000000000000000000000000000005f5260045ffd5b90506020813d602011613682575b8161366b6020938361125c565b810103126101b45761367c90611a59565b5f61361a565b3d915061365e565b90919796613698898761138a565b5180156136bd5782156134a1578181116134795780600192039801985b0191906135c0565b5096976001906136b5565b90506020813d6020116136fa575b816136e36020938361125c565b810103126101b4576136f490611a59565b5f6135bb565b3d91506136d6565b50505f939192935b82811061371d5750505061352957505f90565b613727818361138a565b516134a15760010161370a565b9061119b95509161356c6135655f9496959661137d565b60ff81146137aa5760ff811690601f8211613782576040519161376f60408461125c565b6020808452838101919036833783525290565b7fb3512b0c000000000000000000000000000000000000000000000000000000005f5260045ffd5b5060405161119b816137bc815f611407565b038261125c565b60ff81146137e75760ff811690601f8211613782576040519161376f60408461125c565b5060405161119b816137bc816001611407565b815191906041830361382a576138239250602082015190606060408401519301515f1a90613b16565b9192909190565b50505f9160029190565b3d1561385e573d9061384582611488565b91613853604051938461125c565b82523d5f602084013e565b606090565b6020015191949290916001600160a01b0316908115613a89579085929183613a0c575b602092919015613953576138d0916040519485809481937fe49617e100000000000000000000000000000000000000000000000000000000835287600484015260248301906110fa565b03925af1908115611e2b575f91613919575b50156138f1575b6133db575090565b7fccf3bb27000000000000000000000000000000000000000000000000000000005f5260045ffd5b90506020813d60201161394b575b816139346020938361125c565b810103126101b45761394590611a59565b5f6138e2565b3d9150613927565b613993916040519485809481937fe60c350500000000000000000000000000000000000000000000000000000000835287600484015260248301906110fa565b03925af1908115611e2b575f916139d2575b506138e9577fbd8ba84d000000000000000000000000000000000000000000000000000000005f5260045ffd5b90506020813d602011613a04575b816139ed6020938361125c565b810103126101b4576139fe90611a59565b5f6139a5565b3d91506139e0565b9491909250604051636723702360e11b8152602081600481875afa908115611e2b575f91613a4f575b50156134a157818611613479579085900393859290613886565b90506020813d602011613a81575b81613a6a6020938361125c565b810103126101b457613a7b90611a59565b5f613a35565b3d9150613a5d565b50505090916134a15761352957505f90565b80613aa35750565b804710613aea575f80808093335af1613aba613834565b5015613ac257565b7f1425ea42000000000000000000000000000000000000000000000000000000005f5260045ffd5b7fcd786059000000000000000000000000000000000000000000000000000000005f523060045260245ffd5b91907f7fffffffffffffffffffffffffffffff5d576e7357a4501ddfe92f46681b20a08411613b8d579160209360809260ff5f9560405194855216868401526040830152606082015282805260015afa15611e2b575f516001600160a01b03811615613b8357905f905f90565b505f906001905f90565b5050505f916003919056fea264697066735822122036a1c2d078ed4b3e065b38f5686c573d5cf691000f3474f06984be1bf9169d8b64736f6c634300081b0033","linkReferences":{}},"methodIdentifiers":{"attest((bytes32,(address,uint64,bool,bytes32,bytes,uint256)))":"f17325e7","attestByDelegation((bytes32,(address,uint64,bool,bytes32,bytes,uint256),(uint8,bytes32,bytes32),address,uint64))":"3c042715","eip712Domain()":"84b0196e","getAttestTypeHash()":"12b11a17","getAttestation(bytes32)":"a3112a64","getDomainSeparator()":"ed24911d","getName()":"17d7de7c","getNonce(address)":"2d0335ab","getRevokeOffchain(address,bytes32)":"b469318d","getRevokeTypeHash()":"b83010d3","getSchemaRegistry()":"f10b5cc8","getTimestamp(bytes32)":"d45c4435","increaseNonce(uint256)":"79f7573a","isAttestationValid(bytes32)":"e30bb563","multiAttest((bytes32,(address,uint64,bool,bytes32,bytes,uint256)[])[])":"44adc90e","multiAttestByDelegation((bytes32,(address,uint64,bool,bytes32,bytes,uint256)[],(uint8,bytes32,bytes32)[],address,uint64)[])":"95411525","multiRevoke((bytes32,(bytes32,uint256)[])[])":"4cb7e9e5","multiRevokeByDelegation((bytes32,(bytes32,uint256)[],(uint8,bytes32,bytes32)[],address,uint64)[])":"0eabf660","multiRevokeOffchain(bytes32[])":"13893f61","multiTimestamp(bytes32[])":"e71ff365","revoke((bytes32,(bytes32,uint256)))":"46926267","revokeByDelegation((bytes32,(bytes32,uint256),(uint8,bytes32,bytes32),address,uint64))":"a6d4dbc7","revokeOffchain(bytes32)":"cf190f34","timestamp(bytes32)":"4d003070","version()":"54fd4d50"},"id":47}