{"abi":[{"type":"constructor","inputs":[{"name":"verifier_","type":"address","internalType":"address"}],"stateMutability":"nonpayable"},{"type":"function","name":"checkSolve","inputs":[{"name":"proof","type":"uint256[24]","internalType":"uint256[24]"},{"name":"puzzle","type":"uint256[81]","internalType":"uint256[81]"},{"name":"player","type":"uint256","internalType":"uint256"},{"name":"nullifier","type":"uint256","internalType":"uint256"}],"outputs":[{"name":"","type":"bool","internalType":"bool"}],"stateMutability":"view"},{"type":"function","name":"packPuzzle","inputs":[{"name":"puzzle","type":"uint256[81]","internalType":"uint256[81]"}],"outputs":[{"name":"lo","type":"uint256","internalType":"uint256"},{"name":"hi","type":"uint256","internalType":"uint256"}],"stateMutability":"pure"},{"type":"function","name":"verifier","inputs":[],"outputs":[{"name":"","type":"address","internalType":"contract SudokuSolvePlonkVerifier"}],"stateMutability":"view"},{"type":"function","name":"verifySolve","inputs":[{"name":"proof","type":"uint256[24]","internalType":"uint256[24]"},{"name":"pub","type":"uint256[4]","internalType":"uint256[4]"}],"outputs":[{"name":"","type":"bool","internalType":"bool"}],"stateMutability":"view"}],"bytecode":{"object":"0x60a034607657601f6104f538819003918201601f19168301916001600160401b03831184841017607a57808492602094604052833981010312607657516001600160a01b03811690819003607657608052604051610466908161008f82396080518181816101c80152818161032401526103a60152f35b5f80fd5b634e487b7160e01b5f52604160045260245ffdfe6080806040526004361015610012575f80fd5b5f3560e01c90816322623a5d14610348575080632b7ac3f3146102f857806396f97ee9146102575763a0d9a93c14610048575f80fd5b3461025357610d603660031901126102535736610304116102535736610d2411610253575f80805b6051821015610155578160051b610304013590600982116100f757603f8310156100ca576001600160fe1b03831683036100b6576001918360021b1b17915b0190610070565b634e487b7160e01b5f52601160045260245ffd5b9192603e198401918483116100b6576001600160fe1b03831683036100b65760019260021b1b17926100af565b60646040517f08c379a000000000000000000000000000000000000000000000000000000000815260206004820152601560248201527f5375646f6b7552756c65733a2063656c6c203e203900000000000000000000006044820152fd5b82604051916101656080846103e2565b6080368437610d4435835260208301526040820152610d2435606082015260405190631860fdad60e21b82526103006004808401375f61030483015b6004821061023d57836020816103848173ffffffffffffffffffffffffffffffffffffffff7f0000000000000000000000000000000000000000000000000000000000000000165afa8015610232576020915f91610205575b506040519015158152f35b6102259150823d841161022b575b61021d81836103e2565b810190610418565b826101fa565b503d610213565b6040513d5f823e3d90fd5b60208060019285518152019301910190916101a1565b5f80fd5b3461025357610a203660031901126102535736610a2411610253575f80805b60518210156102e8578160051b6004013590600982116100f757603f8310156102bb576001600160fe1b03831683036100b6576001918360021b1b17915b0190610276565b9192603e198401918483116100b6576001600160fe1b03831683036100b65760019260021b1b17926102b4565b6040908382519182526020820152f35b34610253575f36600319011261025357602060405173ffffffffffffffffffffffffffffffffffffffff7f0000000000000000000000000000000000000000000000000000000000000000168152f35b346102535761038036600319011261025357366103041161025357366103841161025357631860fdad60e21b81526103006004808301376080610304808301376020816103848173ffffffffffffffffffffffffffffffffffffffff7f0000000000000000000000000000000000000000000000000000000000000000165afa8015610232576020915f9161020557506040519015158152f35b90601f8019910116810190811067ffffffffffffffff82111761040457604052565b634e487b7160e01b5f52604160045260245ffd5b9081602091031261025357518015158103610253579056fea2646970667358221220ada35ec2c22ef26b673107d39cbd8693b4466e7441e07ec957ce278b6fdd386364736f6c634300081b0033","linkReferences":{}},"methodIdentifiers":{"checkSolve(uint256[24],uint256[81],uint256,uint256)":"a0d9a93c","packPuzzle(uint256[81])":"96f97ee9","verifier()":"2b7ac3f3","verifySolve(uint256[24],uint256[4])":"22623a5d"},"id":41}