{
  "_format": "hh-sol-artifact-1",
  "contractName": "Reader",
  "sourceName": "contracts/Reader.sol",
  "abi": [
    {
      "inputs": [
        {
          "internalType": "address",
          "name": "_rand",
          "type": "address"
        }
      ],
      "stateMutability": "payable",
      "type": "constructor"
    },
    {
      "inputs": [],
      "name": "IndexOutOfBounds",
      "type": "error"
    },
    {
      "inputs": [],
      "name": "Misconfigured",
      "type": "error"
    },
    {
      "inputs": [],
      "name": "SignerMismatch",
      "type": "error"
    },
    {
      "anonymous": false,
      "inputs": [
        {
          "indexed": true,
          "internalType": "address",
          "name": "provider",
          "type": "address"
        },
        {
          "indexed": false,
          "internalType": "bytes32",
          "name": "section",
          "type": "bytes32"
        }
      ],
      "name": "Ok",
      "type": "event"
    },
    {
      "anonymous": false,
      "inputs": [
        {
          "indexed": true,
          "internalType": "address",
          "name": "provider",
          "type": "address"
        },
        {
          "indexed": false,
          "internalType": "bytes32",
          "name": "location",
          "type": "bytes32"
        },
        {
          "indexed": false,
          "internalType": "bytes32",
          "name": "formerSecret",
          "type": "bytes32"
        }
      ],
      "name": "Reveal",
      "type": "event"
    },
    {
      "inputs": [
        {
          "components": [
            {
              "internalType": "address",
              "name": "provider",
              "type": "address"
            },
            {
              "internalType": "bool",
              "name": "durationIsTimestamp",
              "type": "bool"
            },
            {
              "internalType": "uint256",
              "name": "duration",
              "type": "uint256"
            },
            {
              "internalType": "address",
              "name": "token",
              "type": "address"
            },
            {
              "internalType": "uint256",
              "name": "price",
              "type": "uint256"
            },
            {
              "internalType": "uint256",
              "name": "offset",
              "type": "uint256"
            },
            {
              "internalType": "uint256",
              "name": "index",
              "type": "uint256"
            }
          ],
          "internalType": "struct PreimageLocation.Info",
          "name": "info",
          "type": "tuple"
        }
      ],
      "name": "at",
      "outputs": [
        {
          "internalType": "bytes32",
          "name": "",
          "type": "bytes32"
        }
      ],
      "stateMutability": "view",
      "type": "function"
    },
    {
      "inputs": [
        {
          "components": [
            {
              "internalType": "address",
              "name": "provider",
              "type": "address"
            },
            {
              "internalType": "bool",
              "name": "durationIsTimestamp",
              "type": "bool"
            },
            {
              "internalType": "uint256",
              "name": "duration",
              "type": "uint256"
            },
            {
              "internalType": "address",
              "name": "token",
              "type": "address"
            },
            {
              "internalType": "uint256",
              "name": "price",
              "type": "uint256"
            },
            {
              "internalType": "uint256",
              "name": "offset",
              "type": "uint256"
            },
            {
              "internalType": "uint256",
              "name": "index",
              "type": "uint256"
            }
          ],
          "internalType": "struct PreimageLocation.Info",
          "name": "section",
          "type": "tuple"
        }
      ],
      "name": "consumed",
      "outputs": [
        {
          "internalType": "uint256",
          "name": "len",
          "type": "uint256"
        },
        {
          "internalType": "bytes",
          "name": "indices",
          "type": "bytes"
        }
      ],
      "stateMutability": "view",
      "type": "function"
    },
    {
      "inputs": [
        {
          "components": [
            {
              "internalType": "address",
              "name": "provider",
              "type": "address"
            },
            {
              "internalType": "bool",
              "name": "durationIsTimestamp",
              "type": "bool"
            },
            {
              "internalType": "uint256",
              "name": "duration",
              "type": "uint256"
            },
            {
              "internalType": "address",
              "name": "token",
              "type": "address"
            },
            {
              "internalType": "uint256",
              "name": "price",
              "type": "uint256"
            },
            {
              "internalType": "uint256",
              "name": "offset",
              "type": "uint256"
            },
            {
              "internalType": "uint256",
              "name": "index",
              "type": "uint256"
            }
          ],
          "internalType": "struct PreimageLocation.Info[]",
          "name": "infos",
          "type": "tuple[]"
        }
      ],
      "name": "ok",
      "outputs": [],
      "stateMutability": "payable",
      "type": "function"
    },
    {
      "inputs": [
        {
          "components": [
            {
              "internalType": "address",
              "name": "provider",
              "type": "address"
            },
            {
              "internalType": "bool",
              "name": "durationIsTimestamp",
              "type": "bool"
            },
            {
              "internalType": "uint256",
              "name": "duration",
              "type": "uint256"
            },
            {
              "internalType": "address",
              "name": "token",
              "type": "address"
            },
            {
              "internalType": "uint256",
              "name": "price",
              "type": "uint256"
            },
            {
              "internalType": "uint256",
              "name": "offset",
              "type": "uint256"
            },
            {
              "internalType": "uint256",
              "name": "index",
              "type": "uint256"
            }
          ],
          "internalType": "struct PreimageLocation.Info",
          "name": "info",
          "type": "tuple"
        }
      ],
      "name": "pointer",
      "outputs": [
        {
          "internalType": "bytes",
          "name": "",
          "type": "bytes"
        }
      ],
      "stateMutability": "view",
      "type": "function"
    },
    {
      "inputs": [
        {
          "components": [
            {
              "internalType": "address",
              "name": "provider",
              "type": "address"
            },
            {
              "internalType": "bool",
              "name": "durationIsTimestamp",
              "type": "bool"
            },
            {
              "internalType": "uint256",
              "name": "duration",
              "type": "uint256"
            },
            {
              "internalType": "address",
              "name": "token",
              "type": "address"
            },
            {
              "internalType": "uint256",
              "name": "price",
              "type": "uint256"
            },
            {
              "internalType": "uint256",
              "name": "offset",
              "type": "uint256"
            },
            {
              "internalType": "uint256",
              "name": "index",
              "type": "uint256"
            }
          ],
          "internalType": "struct PreimageLocation.Info",
          "name": "info",
          "type": "tuple"
        },
        {
          "internalType": "bytes32",
          "name": "formerSecret",
          "type": "bytes32"
        }
      ],
      "name": "reveal",
      "outputs": [],
      "stateMutability": "payable",
      "type": "function"
    }
  ],
  "bytecode": "0x6080601f610b1f38819003918201601f19168301916001600160401b03831184841017606f57808492602094604052833981010312606b57516001600160a01b03811690819003606b575f80546001600160a01b031916919091179055604051610a9b90816100848239f35b5f80fd5b634e487b7160e01b5f52604160045260245ffdfe604060808152600480361015610013575f80fd5b60e05f35811c80633af299ee146103e2578063705b013c146103a657806398e0e11414610383578063f16df391146101675763f19275a714610053575f80fd5b3660031901610100811261015057126101505760e4359061007261088e565b835160208101908482526020815285810181811067ffffffffffffffff821117610154578652519020146100a257005b35916001600160a01b038316809303610150577fa8080584ebb92497a93bf0923d88f7a218d6b2b12e73938ec37157d8df9c561e916100e036610694565b60c0610136826080906001600160a01b0390818151169164ffffffffff60a01b6040830151916060840151169160a01b16179060a084820151910151916040519384526020840152604083015260608201522090565b910151905f52602052815f209082519182526020820152a2005b5f80fd5b604185634e487b7160e01b5f525260245ffd5b5082602091826003193601126101505783359267ffffffffffffffff92838511610150573660238601121561015057848601359384116101505760248501946024369185870201011161015057335f52816e2fd5aeb385d324b580fca7c83823a0803314610371575b506dd9ecebf3c23529de49815dac1c4c80331461035b575b50505f51935f95600197889660016001600160a01b03809216985b61020957005b15610352575b5f61021b8a868661072d565b3582811680910361015057890361032a576102378a868661072d565b88813603126101505786519a61024c8c610612565b61025582610680565b8c52888201358015158103610150578c8a015287820135888d01528c9b8c928c917f786f6c9fa380484e920dd424c96d0649b4a5abd7cee90c5c1fb6d4502abde81f918c9161031d9160606102ab818301610680565b908301526080808201359083015260a0808201359083015260c080910135908201526080906001600160a01b0390818151169164ffffffffff60a01b6040830151916060840151169160a01b16179060a084820151910151916040519384526020840152604083015260608201522090565b8b51908152a20199610203565b8286517f10c74b03000000000000000000000000000000000000000000000000000000008152fd5b83891061020f57005b5f8080925afa1561036d5781876101e8565b3838fd5b5f8080925afa1561036d5781876101d0565b838234610150573660031901126101505760209061039f61088e565b9051908152f35b83823461015057366003190112610150576103de906103cb6103c661073d565b610864565b90519182916020835260208301906105ee565b0390f35b5082903461015057366003190112610150576103ff6103c661073d565b51918260051c9160016007948160078616115f146105e0578190959493959291925b60081c019161044761043284610664565b9361043f84519586610642565b808552610664565b60209590601f19013685880137815f9781906001600160a01b0391825f5416935b610485575b8651898152808b01889052806103de818a018b6105ee565b156105d3575b5f61049536610694565b9a60c08c018181528851809d7f3af299ee00000000000000000000000000000000000000000000000000000000825286815116868301528d810151151560248301528a81015160448301528660608201511660648301526080810151608483015260a001519060a401525160c48d01528a8c86815a9160e492fa80156105c9578798999a9b9c5f9161058d575b50908791610536575b019a99989796610468565b8a6105877fff000000000000000000000000000000000000000000000000000000000000006105698460031c8094610708565b5160f890811c858c168c0387901b60ff1617901b165f1a918d610708565b5361052b565b809298508d8092503d83116105c2575b6105a78183610642565b81010312610150575180151581036101505787969087610522565b503d61059d565b88513d5f823e3d90fd5b878a1061048b578061046d565b5f9095949395929192610421565b805180835260209291819084018484015e5f828201840152601f01601f1916010190565b60e0810190811067ffffffffffffffff82111761062e57604052565b634e487b7160e01b5f52604160045260245ffd5b90601f8019910116810190811067ffffffffffffffff82111761062e57604052565b67ffffffffffffffff811161062e57601f01601f191660200190565b35906001600160a01b038216820361015057565b60e090600319011261015057604051906106ad82610612565b816001600160a01b036004358181168103610150578252602435801515810361015057602083015260443560408301526064359081168103610150576060820152608435608082015260a43560a082015260c060c435910152565b908151811015610719570160200190565b634e487b7160e01b5f52603260045260245ffd5b91908110156107195760e0020190565b6001600160a01b03805f541660405191631c16c04f60e21b83526004358181168091036101505760048401526024358015158091036101505760248401526044356044840152606435818116809103610150576064840152608435608484015260a43560a484015260208360e48160c435958660c48301525afa928315610859575f9361081c575b5082161561080b57813b60051c905f1982019182116107f757116107e65790565b6004604051634e23d03560e01b8152fd5b634e487b7160e01b5f52601160045260245ffd5b60046040516321f9f13f60e11b8152fd5b9092506020813d602011610851575b8161083860209383610642565b810103126101505751828116810361015057915f6107c5565b3d915061082b565b6040513d5f823e3d90fd5b9060408051809364ffffffffff5f19823b0116905f6021830191601f8501903c8082520101604052565b6001600160a01b03805f5416604091825192631c16c04f60e21b8452600490813583811680910361015057828601526024358015158091036101505760248601526044356044860152606435928084168094036101505785936064850152608435608485015260a43560a485015260c435948560c48601528460e460209889935afa938415610a5b575f94610a23575b50831615610a16575f1993833b60051c858101908111610a035781116109f5578060051b908082048714901517156109e257858101928382116109cf575081908151938791602181601f8801893c88860196875160ff16156109ab575b50108102845283015f878201520190525190519280821061099d575b50505090565b0360031b1b165f8080610997565b9092503b8260218983019283871c3d3d3e820301828411028a03911102915f61097b565b601190634e487b7160e01b5f525260245ffd5b601183634e487b7160e01b5f525260245ffd5b5051634e23d03560e01b8152fd5b601184634e487b7160e01b5f525260245ffd5b516321f9f13f60e11b8152fd5b9093508581813d8311610a54575b610a3b8183610642565b810103126101505751838116810361015057925f61091e565b503d610a31565b82513d5f823e3d90fdfea26469706673582212206331f0a5dd675a20d0094ed0bee5ef1cc6767b94880d30395bc7323341a98b3064736f6c63430008190033",
  "linkReferences": {},
  "deployedLinkReferences": {}
}