{"abi":[{"type":"constructor","inputs":[{"name":"eas","type":"address","internalType":"contract IEAS"},{"name":"sudokuLog_","type":"address","internalType":"contract SudokuLog"}],"stateMutability":"nonpayable"},{"type":"receive","stateMutability":"payable"},{"type":"function","name":"attest","inputs":[{"name":"attestation","type":"tuple","internalType":"struct Attestation","components":[{"name":"uid","type":"bytes32","internalType":"bytes32"},{"name":"schema","type":"bytes32","internalType":"bytes32"},{"name":"time","type":"uint64","internalType":"uint64"},{"name":"expirationTime","type":"uint64","internalType":"uint64"},{"name":"revocationTime","type":"uint64","internalType":"uint64"},{"name":"refUID","type":"bytes32","internalType":"bytes32"},{"name":"recipient","type":"address","internalType":"address"},{"name":"attester","type":"address","internalType":"address"},{"name":"revocable","type":"bool","internalType":"bool"},{"name":"data","type":"bytes","internalType":"bytes"}]}],"outputs":[{"name":"","type":"bool","internalType":"bool"}],"stateMutability":"payable"},{"type":"function","name":"attestedNullifier","inputs":[{"name":"nullifier","type":"uint256","internalType":"uint256"}],"outputs":[{"name":"","type":"bool","internalType":"bool"}],"stateMutability":"view"},{"type":"function","name":"isPayable","inputs":[],"outputs":[{"name":"","type":"bool","internalType":"bool"}],"stateMutability":"pure"},{"type":"function","name":"multiAttest","inputs":[{"name":"attestations","type":"tuple[]","internalType":"struct Attestation[]","components":[{"name":"uid","type":"bytes32","internalType":"bytes32"},{"name":"schema","type":"bytes32","internalType":"bytes32"},{"name":"time","type":"uint64","internalType":"uint64"},{"name":"expirationTime","type":"uint64","internalType":"uint64"},{"name":"revocationTime","type":"uint64","internalType":"uint64"},{"name":"refUID","type":"bytes32","internalType":"bytes32"},{"name":"recipient","type":"address","internalType":"address"},{"name":"attester","type":"address","internalType":"address"},{"name":"revocable","type":"bool","internalType":"bool"},{"name":"data","type":"bytes","internalType":"bytes"}]},{"name":"values","type":"uint256[]","internalType":"uint256[]"}],"outputs":[{"name":"","type":"bool","internalType":"bool"}],"stateMutability":"payable"},{"type":"function","name":"multiRevoke","inputs":[{"name":"attestations","type":"tuple[]","internalType":"struct Attestation[]","components":[{"name":"uid","type":"bytes32","internalType":"bytes32"},{"name":"schema","type":"bytes32","internalType":"bytes32"},{"name":"time","type":"uint64","internalType":"uint64"},{"name":"expirationTime","type":"uint64","internalType":"uint64"},{"name":"revocationTime","type":"uint64","internalType":"uint64"},{"name":"refUID","type":"bytes32","internalType":"bytes32"},{"name":"recipient","type":"address","internalType":"address"},{"name":"attester","type":"address","internalType":"address"},{"name":"revocable","type":"bool","internalType":"bool"},{"name":"data","type":"bytes","internalType":"bytes"}]},{"name":"values","type":"uint256[]","internalType":"uint256[]"}],"outputs":[{"name":"","type":"bool","internalType":"bool"}],"stateMutability":"payable"},{"type":"function","name":"revoke","inputs":[{"name":"attestation","type":"tuple","internalType":"struct Attestation","components":[{"name":"uid","type":"bytes32","internalType":"bytes32"},{"name":"schema","type":"bytes32","internalType":"bytes32"},{"name":"time","type":"uint64","internalType":"uint64"},{"name":"expirationTime","type":"uint64","internalType":"uint64"},{"name":"revocationTime","type":"uint64","internalType":"uint64"},{"name":"refUID","type":"bytes32","internalType":"bytes32"},{"name":"recipient","type":"address","internalType":"address"},{"name":"attester","type":"address","internalType":"address"},{"name":"revocable","type":"bool","internalType":"bool"},{"name":"data","type":"bytes","internalType":"bytes"}]}],"outputs":[{"name":"","type":"bool","internalType":"bool"}],"stateMutability":"payable"},{"type":"function","name":"sudokuLog","inputs":[],"outputs":[{"name":"","type":"address","internalType":"contract SudokuLog"}],"stateMutability":"view"},{"type":"function","name":"sudokuRules","inputs":[],"outputs":[{"name":"","type":"address","internalType":"contract SudokuRules"}],"stateMutability":"view"},{"type":"function","name":"version","inputs":[],"outputs":[{"name":"","type":"string","internalType":"string"}],"stateMutability":"view"},{"type":"error","name":"AccessDenied","inputs":[]},{"type":"error","name":"BadProof","inputs":[]},{"type":"error","name":"BadPuzzle","inputs":[]},{"type":"error","name":"InsufficientValue","inputs":[]},{"type":"error","name":"InvalidEAS","inputs":[]},{"type":"error","name":"InvalidLength","inputs":[]},{"type":"error","name":"NotOpened","inputs":[]},{"type":"error","name":"NotPayable","inputs":[]},{"type":"error","name":"NotRevocable","inputs":[]},{"type":"error","name":"NullifierSpent","inputs":[]}],"bytecode":{"object":"0x610140806040523461012a57604081610cc980380380916100208285610150565b83398101031261012a5780516001600160a01b0381169182820361012a5760200151916001600160a01b0383169081840361012a576001608052600360a0525f60c052156101415760049260209260e0526101205260405192838092631194379960e01b82525afa908115610136575f916100f0575b5061010052604051610b4190816101888239608051816101fa015260a05181610228015260c05181610252015260e05181610716015261010051818181610394015261096601526101205181818161035301526108870152f35b90506020813d60201161012e575b8161010b60209383610150565b8101031261012a57516001600160a01b038116810361012a575f610096565b5f80fd5b3d91506100fe565b6040513d5f823e3d90fd5b6341bc07ff60e11b5f5260045ffd5b601f909101601f19168101906001600160401b0382119082101761017357604052565b634e487b7160e01b5f52604160045260245ffdfe6080806040526004361015610042575b50361561001a575f80fd5b7f1574f9f3000000000000000000000000000000000000000000000000000000005f5260045ffd5b5f3560e01c90816311943799146103775750806315f987bf146103345780634be216d01461030657806354fd4d50146101de57806388e5b2d91461013457806391db0b7e14610115578063ce46e046146100f7578063e49617e1146100d65763e60c3505146100b1575f61000f565b60206100cc6100bf3661045c565b6100c761070c565b61078d565b6040519015158152f35b6100df3661045c565b506100e861070c565b639414820d60e01b5f5260045ffd5b34610111575f3660031901126101115760206040515f8152f35b5f80fd5b60206100cc6101233661040a565b9261012f92919261070c565b61050e565b61013d3661040a565b61014893929361070c565b8084036101b657835f1061016157602060405160018152f35b5f61016d9134936104c7565b351161018e5761017e915f916104eb565b50639414820d60e01b5f5260045ffd5b7f11011294000000000000000000000000000000000000000000000000000000005f5260045ffd5b7f947d5a84000000000000000000000000000000000000000000000000000000005f5260045ffd5b34610111575f366003190112610111576102f86040602061021e7f0000000000000000000000000000000000000000000000000000000000000000610588565b6102dd600161024c7f0000000000000000000000000000000000000000000000000000000000000000610588565b816102767f0000000000000000000000000000000000000000000000000000000000000000610588565b87519687938161028f818701998a8151938492016103b8565b8501601760f91b838201526102ad82518093856021850191016103b8565b0101601760f91b838201526102cc8251809360206002850191016103b8565b01010301601f198101845283610491565b825193849260208452518092816020860152858501906103b8565b601f01601f19168101030190f35b34610111576020366003190112610111576004355f525f602052602060ff60405f2054166040519015158152f35b34610111575f3660031901126101115760206040516001600160a01b037f0000000000000000000000000000000000000000000000000000000000000000168152f35b34610111575f366003190112610111576020906001600160a01b037f0000000000000000000000000000000000000000000000000000000000000000168152f35b5f5b8381106103c95750505f910152565b81810151838201526020016103ba565b9181601f840112156101115782359167ffffffffffffffff8311610111576020808501948460051b01011161011157565b60406003198201126101115760043567ffffffffffffffff81116101115781610435916004016103d9565b929092916024359067ffffffffffffffff821161011157610458916004016103d9565b9091565b6020600319820112610111576004359067ffffffffffffffff8211610111576101409082900360031901126101115760040190565b90601f8019910116810190811067ffffffffffffffff8211176104b357604052565b634e487b7160e01b5f52604160045260245ffd5b91908110156104d75760051b0190565b634e487b7160e01b5f52603260045260245ffd5b91908110156104d75760051b8101359061013e1981360301821215610111570190565b929091928183036101b6575f91345b84841061052f57505050505050600190565b61053a8483886104c7565b3581811161018e576105506100c78688876104eb565b15610561576001910393019261051d565b505050505050505f90565b67ffffffffffffffff81116104b357601f01601f191660200190565b805f917a184f03e93ff9f4daa797ed6e38ed64bf6a1f0100000000000000008210156106e4575b806d04ee2d6d415b85acef8100000000600a9210156106c9575b662386f26fc100008110156106b5575b6305f5e1008110156106a4575b612710811015610695575b6064811015610687575b101561067c575b600a602160018401936106148561056c565b946106226040519687610491565b808652610631601f199161056c565b013660208701378401015b5f1901917f30313233343536373839616263646566000000000000000000000000000000008282061a835304801561067757600a909161063c565b505090565b600190910190610602565b6064600291049301926105fb565b612710600491049301926105f1565b6305f5e100600891049301926105e6565b662386f26fc10000601091049301926105d9565b6d04ee2d6d415b85acef8100000000602091049301926105c9565b50604091507a184f03e93ff9f4daa797ed6e38ed64bf6a1f01000000000000000081046105af565b6001600160a01b037f000000000000000000000000000000000000000000000000000000000000000016330361073e57565b7f4ca88867000000000000000000000000000000000000000000000000000000005f5260045ffd5b905f905b6051821061077757505050565b602080600192855181520193019101909161076a565b61012081013590601e19813603018212156101115701803567ffffffffffffffff81116101115760208201908036038213610111578201602081019290610d8090829003126101115760608101359280609f8301121561011157604051926107f761030085610491565b610380830191848184116101115760808501905b848210610afb5750508061039f850112156101115760405192610830610a2085610491565b8390610da0860192831161011157905b828210610aeb57505050604051907f90ba26520000000000000000000000000000000000000000000000000000000082523560048201526040816024816001600160a01b037f0000000000000000000000000000000000000000000000000000000000000000165afa8015610a19575f915f91610ab2575b5015610a8a5760405160208101906108d08285610766565b610a2081526108e1610a4082610491565b51902003610a6257835f525f60205260ff60405f205416610a3a576040517fa0d9a93c000000000000000000000000000000000000000000000000000000008152925f600485015b60188210610a245750505090610946604092610304850190610766565b0135610d2482015281610d44820152602081610d64816001600160a01b037f0000000000000000000000000000000000000000000000000000000000000000165afa908115610a19575f916109de575b50156109b6575f525f60205260405f20600160ff19825416179055600190565b7f7ca55c77000000000000000000000000000000000000000000000000000000005f5260045ffd5b90506020813d602011610a11575b816109f960209383610491565b8101031261011157518015158103610111575f610996565b3d91506109ec565b6040513d5f823e3d90fd5b6020806001928551815201930191019091610929565b7f63734faa000000000000000000000000000000000000000000000000000000005f5260045ffd5b7f11753d81000000000000000000000000000000000000000000000000000000005f5260045ffd5b7f6d36408a000000000000000000000000000000000000000000000000000000005f5260045ffd5b9150506040813d604011610ae3575b81610ace60409383610491565b8101031261011157602081519101515f6108b8565b3d9150610ac1565b8135815260209182019101610840565b813581526020918201910161080b56fea264697066735822122023b71a5f56ff71020056dfbcc2d263b4e7edf379973b422a669faff1af031ea664736f6c634300081b0033","linkReferences":{}},"methodIdentifiers":{"attest((bytes32,bytes32,uint64,uint64,uint64,bytes32,address,address,bool,bytes))":"e60c3505","attestedNullifier(uint256)":"4be216d0","isPayable()":"ce46e046","multiAttest((bytes32,bytes32,uint64,uint64,uint64,bytes32,address,address,bool,bytes)[],uint256[])":"91db0b7e","multiRevoke((bytes32,bytes32,uint64,uint64,uint64,bytes32,address,address,bool,bytes)[],uint256[])":"88e5b2d9","revoke((bytes32,bytes32,uint64,uint64,uint64,bytes32,address,address,bool,bytes))":"e49617e1","sudokuLog()":"15f987bf","sudokuRules()":"11943799","version()":"54fd4d50"},"id":37}