{"abi":[{"type":"constructor","inputs":[],"stateMutability":"nonpayable"},{"type":"function","name":"getSchema","inputs":[{"name":"uid","type":"bytes32","internalType":"bytes32"}],"outputs":[{"name":"","type":"tuple","internalType":"struct SchemaRecord","components":[{"name":"uid","type":"bytes32","internalType":"bytes32"},{"name":"resolver","type":"address","internalType":"contract ISchemaResolver"},{"name":"revocable","type":"bool","internalType":"bool"},{"name":"schema","type":"string","internalType":"string"}]}],"stateMutability":"view"},{"type":"function","name":"register","inputs":[{"name":"schema","type":"string","internalType":"string"},{"name":"resolver","type":"address","internalType":"contract ISchemaResolver"},{"name":"revocable","type":"bool","internalType":"bool"}],"outputs":[{"name":"","type":"bytes32","internalType":"bytes32"}],"stateMutability":"nonpayable"},{"type":"function","name":"version","inputs":[],"outputs":[{"name":"","type":"string","internalType":"string"}],"stateMutability":"view"},{"type":"event","name":"Registered","inputs":[{"name":"uid","type":"bytes32","indexed":true,"internalType":"bytes32"},{"name":"registerer","type":"address","indexed":true,"internalType":"address"},{"name":"schema","type":"tuple","indexed":false,"internalType":"struct SchemaRecord","components":[{"name":"uid","type":"bytes32","internalType":"bytes32"},{"name":"resolver","type":"address","internalType":"contract ISchemaResolver"},{"name":"revocable","type":"bool","internalType":"bool"},{"name":"schema","type":"string","internalType":"string"}]}],"anonymous":false},{"type":"error","name":"AlreadyExists","inputs":[]}],"bytecode":{"object":"0x60e08060405234603e576001608052600360a0525f60c05261089990816100438239608051816104bd015260a051816104eb015260c051816105160152f35b5f80fdfe60806040526004361015610011575f80fd5b5f3560e01c806354fd4d50146104a557806360d7a278146101705763a2ea7c6e1461003a575f80fd5b3461016c57602036600319011261016c5760608060405161005a8161064d565b5f81525f60208201525f604082015201526004355f525f60205260405f206002604051916100878361064d565b8054835260ff600182015473ffffffffffffffffffffffffffffffffffffffff8116602086015260a01c161515604084015201906040515f928054906100cc826106a7565b8084529160018116908115610144575060011461010a575b50506100f581610106940382610669565b6060820152604051918291826105fc565b0390f35b9093505f5260205f205f905b84821061012e5750810160200192506100f5816100e4565b6001816020925483858701015201910190610116565b610106965084925060209150926100f59360ff191682840152151560051b82010194506100e4565b5f80fd5b3461016c57606036600319011261016c5760043567ffffffffffffffff811161016c573660238201121561016c5780600401359067ffffffffffffffff821161016c57366024838301011161016c576024359073ffffffffffffffffffffffffffffffffffffffff821680920361016c576044359182151580930361016c57604051916101fc8361064d565b5f835260208301918252604083019384525f60206102198761068b565b966102276040519889610669565b808852806024838a0195018537870101526060830194808652610299601560208551938851151594604051958692610267858501998a92519283916105b6565b8301916bffffffffffffffffffffffff199060601b168483015260f81b60348201520301600a19810184520182610669565b51902092835f525f60205260405f205461047d57600291848452845f525f60205260405f20918451835573ffffffffffffffffffffffffffffffffffffffff600184019251167fffffffffffffffffffffff00000000000000000000000000000000000000000074ff000000000000000000000000000000000000000084549351151560a01b1692161717905501925192835167ffffffffffffffff81116104695761034582546106a7565b601f8111610424575b50806020958690601f83116001146103c2575f926103b7575b50508160011b915f199060031b1c19161790555b817fd0b86852e21f9e5fa4bc3b0cff9757ffe243d50c4b43968a42202153d651ea5e604051806103ac3395826105fc565b0390a3604051908152f35b015190508680610367565b5f8581528281209350601f198516905b81811061040d57509084600195949392106103f5575b505050811b01905561037b565b01515f1960f88460031b161c191690558680806103e8565b9293896001819287860151815501950193016103d2565b825f5260205f20601f830160051c8101916020841061045f575b601f0160051c01905b818110610454575061034e565b5f8155600101610447565b909150819061043e565b634e487b7160e01b5f52604160045260245ffd5b7f23369fa6000000000000000000000000000000000000000000000000000000005f5260045ffd5b3461016c575f36600319011261016c576101066104e17f00000000000000000000000000000000000000000000000000000000000000006106df565b6105a2600161050f7f00000000000000000000000000000000000000000000000000000000000000006106df565b928161053a7f00000000000000000000000000000000000000000000000000000000000000006106df565b60206040519684610554899651809285808a0191016105b6565b8501601760f91b8382015261057282518093856021850191016105b6565b0101601760f91b838201526105918251809360206002850191016105b6565b01010301601f198101835282610669565b6040519182916020835260208301906105d7565b5f5b8381106105c75750505f910152565b81810151838201526020016105b8565b906020916105f0815180928185528580860191016105b6565b601f01601f1916010190565b60a0606061064a93602084528051602085015273ffffffffffffffffffffffffffffffffffffffff6020820151166040850152604081015115158285015201519160808082015201906105d7565b90565b6080810190811067ffffffffffffffff82111761046957604052565b90601f8019910116810190811067ffffffffffffffff82111761046957604052565b67ffffffffffffffff811161046957601f01601f191660200190565b90600182811c921680156106d5575b60208310146106c157565b634e487b7160e01b5f52602260045260245ffd5b91607f16916106b6565b805f917a184f03e93ff9f4daa797ed6e38ed64bf6a1f01000000000000000082101561083b575b806d04ee2d6d415b85acef8100000000600a921015610820575b662386f26fc1000081101561080c575b6305f5e1008110156107fb575b6127108110156107ec575b60648110156107de575b10156107d3575b600a6021600184019361076b8561068b565b946107796040519687610669565b808652610788601f199161068b565b013660208701378401015b5f1901917f30313233343536373839616263646566000000000000000000000000000000008282061a83530480156107ce57600a9091610793565b505090565b600190910190610759565b606460029104930192610752565b61271060049104930192610748565b6305f5e1006008910493019261073d565b662386f26fc1000060109104930192610730565b6d04ee2d6d415b85acef810000000060209104930192610720565b50604091507a184f03e93ff9f4daa797ed6e38ed64bf6a1f010000000000000000810461070656fea264697066735822122034c620c0d9f6abc241c701d9328d26e0a58563e1048c61037212c62d6932402864736f6c634300081b0033","linkReferences":{}},"methodIdentifiers":{"getSchema(bytes32)":"a2ea7c6e","register(string,address,bool)":"60d7a278","version()":"54fd4d50"},"id":51}