{
  "_format": "hh-sol-artifact-1",
  "contractName": "Reader",
  "sourceName": "contracts/Reader.sol",
  "abi": [
    {
      "inputs": [
        {
          "internalType": "address",
          "name": "_rand",
          "type": "address"
        }
      ],
      "stateMutability": "payable",
      "type": "constructor"
    },
    {
      "inputs": [],
      "name": "IndexOutOfBounds",
      "type": "error"
    },
    {
      "inputs": [],
      "name": "Misconfigured",
      "type": "error"
    },
    {
      "inputs": [],
      "name": "SignerMismatch",
      "type": "error"
    },
    {
      "anonymous": false,
      "inputs": [
        {
          "indexed": true,
          "internalType": "address",
          "name": "provider",
          "type": "address"
        },
        {
          "indexed": false,
          "internalType": "bytes32",
          "name": "section",
          "type": "bytes32"
        }
      ],
      "name": "Ok",
      "type": "event"
    },
    {
      "inputs": [
        {
          "components": [
            {
              "internalType": "address",
              "name": "provider",
              "type": "address"
            },
            {
              "internalType": "bool",
              "name": "durationIsTimestamp",
              "type": "bool"
            },
            {
              "internalType": "uint256",
              "name": "duration",
              "type": "uint256"
            },
            {
              "internalType": "address",
              "name": "token",
              "type": "address"
            },
            {
              "internalType": "uint256",
              "name": "price",
              "type": "uint256"
            },
            {
              "internalType": "uint256",
              "name": "offset",
              "type": "uint256"
            },
            {
              "internalType": "uint256",
              "name": "index",
              "type": "uint256"
            }
          ],
          "internalType": "struct PreimageLocation.Info",
          "name": "info",
          "type": "tuple"
        }
      ],
      "name": "at",
      "outputs": [
        {
          "internalType": "bytes32",
          "name": "",
          "type": "bytes32"
        }
      ],
      "stateMutability": "view",
      "type": "function"
    },
    {
      "inputs": [
        {
          "components": [
            {
              "internalType": "address",
              "name": "provider",
              "type": "address"
            },
            {
              "internalType": "bool",
              "name": "durationIsTimestamp",
              "type": "bool"
            },
            {
              "internalType": "uint256",
              "name": "duration",
              "type": "uint256"
            },
            {
              "internalType": "address",
              "name": "token",
              "type": "address"
            },
            {
              "internalType": "uint256",
              "name": "price",
              "type": "uint256"
            },
            {
              "internalType": "uint256",
              "name": "offset",
              "type": "uint256"
            },
            {
              "internalType": "uint256",
              "name": "index",
              "type": "uint256"
            }
          ],
          "internalType": "struct PreimageLocation.Info",
          "name": "section",
          "type": "tuple"
        }
      ],
      "name": "consumed",
      "outputs": [
        {
          "internalType": "uint256",
          "name": "len",
          "type": "uint256"
        },
        {
          "internalType": "bytes",
          "name": "indices",
          "type": "bytes"
        }
      ],
      "stateMutability": "view",
      "type": "function"
    },
    {
      "inputs": [
        {
          "components": [
            {
              "internalType": "address",
              "name": "provider",
              "type": "address"
            },
            {
              "internalType": "bool",
              "name": "durationIsTimestamp",
              "type": "bool"
            },
            {
              "internalType": "uint256",
              "name": "duration",
              "type": "uint256"
            },
            {
              "internalType": "address",
              "name": "token",
              "type": "address"
            },
            {
              "internalType": "uint256",
              "name": "price",
              "type": "uint256"
            },
            {
              "internalType": "uint256",
              "name": "offset",
              "type": "uint256"
            },
            {
              "internalType": "uint256",
              "name": "index",
              "type": "uint256"
            }
          ],
          "internalType": "struct PreimageLocation.Info[]",
          "name": "infos",
          "type": "tuple[]"
        }
      ],
      "name": "ok",
      "outputs": [],
      "stateMutability": "payable",
      "type": "function"
    },
    {
      "inputs": [
        {
          "components": [
            {
              "internalType": "address",
              "name": "provider",
              "type": "address"
            },
            {
              "internalType": "bool",
              "name": "durationIsTimestamp",
              "type": "bool"
            },
            {
              "internalType": "uint256",
              "name": "duration",
              "type": "uint256"
            },
            {
              "internalType": "address",
              "name": "token",
              "type": "address"
            },
            {
              "internalType": "uint256",
              "name": "price",
              "type": "uint256"
            },
            {
              "internalType": "uint256",
              "name": "offset",
              "type": "uint256"
            },
            {
              "internalType": "uint256",
              "name": "index",
              "type": "uint256"
            }
          ],
          "internalType": "struct PreimageLocation.Info",
          "name": "info",
          "type": "tuple"
        }
      ],
      "name": "pointer",
      "outputs": [
        {
          "internalType": "bytes",
          "name": "",
          "type": "bytes"
        }
      ],
      "stateMutability": "view",
      "type": "function"
    }
  ],
  "bytecode": "0x6080601f6108db38819003918201601f19168301916001600160401b03831184841017606f57808492602094604052833981010312606b57516001600160a01b03811690819003606b575f80546001600160a01b03191691909117905560405161085790816100848239f35b5f80fd5b634e487b7160e01b5f52604160045260245ffdfe60806040526004361015610011575f80fd5b60e05f35811c80633af299ee14610358578063705b013c1461031d57806398e0e114146102575763f16df39114610046575f80fd5b6020806003193601126101f85760043567ffffffffffffffff928382116101f857366023830112156101f85781600401359384116101f8576024820191602436918387020101116101f857335f52826e2fd5aeb385d324b580fca7c83823a0803314610245575b506dd9ecebf3c23529de49815dac1c4c80331461022f575b50505f51925f93600195869460016001600160a01b03809416965b6100e657005b15610226575b5f6100f8888484610694565b358481168091036101f85787036101fc57610114888484610694565b86813603126101f8576040519861012a8a6105ed565b6101338261065b565b808b52878301359283151584036101f85788888c938f9e938f97947f786f6c9fa380484e920dd424c96d0649b4a5abd7cee90c5c1fb6d4502abde81f9585820152604082013580604083015260609178ffffffffff00000000000000000000000000000000000000006101a784860161065b565b9283858401526080978887013594858a86015260a0948589013598898783015260c080910135910152816040519916895216921b161786850152604084015282015220604051908152a201976100e0565b5f80fd5b60046040517f10c74b03000000000000000000000000000000000000000000000000000000008152fd5b8187106100ec57005b5f8080925afa1561024157825f6100c5565b3838fd5b5f8080925afa1561024157825f6100ad565b50346101f8573660031901126101f85761026f6106a4565b60c435908160051b906020928083048414901517156103095782820191828111610309576040908151938591602181601f8801873c86860194855160ff16156102e4575b50108102845283015f85820152019182604052519051908381106102d657508152f35b5f1990840360031b1b168152f35b9092503b8260215f1983019283871c3d3d3e820301828411028803911102915f6102b3565b634e487b7160e01b5f52601160045260245ffd5b50346101f8573660031901126101f85761035461034061033b6106a4565b6107f7565b6040519182916020835260208301906105c9565b0390f35b50346101f857806003193601126101f85761037461033b6106a4565b5190600160078360051c16115f146105c35760015b8260081c016103b061039a8261063f565b916103a8604051938461061d565b80835261063f565b601f19013660208301375f916001936001600160a01b035f5416945b15610598575b5f93826003193601126101f857604051906103ec826105ed565b6001600160a01b0360043516600435036101f85760043582526024351515602435036101f857602435602083015260443560408301526001600160a01b0360643516606435036101f8576064356060830152608435608083015260a43560a08301528060c083015260c0604051927f3af299ee0000000000000000000000000000000000000000000000000000000084526001600160a01b038151166004850152602081015115156024850152604081015160448501526001600160a01b0360608201511660648501526080810151608485015260a081015160a4850152015160c483015260208260e4818a5afa801561058d575f9061054f575b600192506104f7575b01936103cc565b8060031c6105497fff00000000000000000000000000000000000000000000000000000000000000610529838961066f565b5160f89060ff87600788166007031b1690821c17901b165f1a918761066f565b536104f0565b50906020813d602011610585575b8161056a6020938361061d565b810103126101f857519081151582036101f8576001916104e7565b3d915061055d565b6040513d5f823e3d90fd5b8060051c84106103d257905061035460405192839260051c83526040602084015260408301906105c9565b5f610389565b805180835260209291819084018484015e5f828201840152601f01601f1916010190565b60e0810190811067ffffffffffffffff82111761060957604052565b634e487b7160e01b5f52604160045260245ffd5b90601f8019910116810190811067ffffffffffffffff82111761060957604052565b67ffffffffffffffff811161060957601f01601f191660200190565b35906001600160a01b03821682036101f857565b908151811015610680570160200190565b634e487b7160e01b5f52603260045260245ffd5b91908110156106805760e0020190565b6001600160a01b03805f5416604051917f705b013c0000000000000000000000000000000000000000000000000000000083526004358181168091036101f85760048401526024358015158091036101f857602484015260443560448401526064358181168091036101f8576064840152608435608484015260a43560a484015260208360e48160c435958660c48301525afa92831561058d575f936107ba575b5082161561079057813b60051c905f19820191821161030957116107665790565b60046040517f4e23d035000000000000000000000000000000000000000000000000000000008152fd5b60046040517f43f3e27e000000000000000000000000000000000000000000000000000000008152fd5b9092506020813d6020116107ef575b816107d66020938361061d565b810103126101f8575182811681036101f857915f610745565b3d91506107c9565b9060408051809364ffffffffff5f19823b0116905f6021830191601f8501903c808252010160405256fea2646970667358221220f5719d8249b4bf17ac35c7b3d62d9a2669615e7094b4684109862659745db11c64736f6c63430008190033",
  "linkReferences": {},
  "deployedLinkReferences": {}
}