{"abi":[{"type":"constructor","inputs":[{"name":"sudokuRules_","type":"address","internalType":"address"}],"stateMutability":"nonpayable"},{"type":"function","name":"cancelOwnershipHandover","inputs":[],"outputs":[],"stateMutability":"payable"},{"type":"function","name":"completeOwnershipHandover","inputs":[{"name":"pendingOwner","type":"address","internalType":"address"}],"outputs":[],"stateMutability":"payable"},{"type":"function","name":"logSolve","inputs":[{"name":"puzzleId","type":"uint256","internalType":"uint256"},{"name":"proof","type":"uint256[24]","internalType":"uint256[24]"},{"name":"puzzle","type":"uint256[81]","internalType":"uint256[81]"},{"name":"player","type":"uint256","internalType":"uint256"},{"name":"nullifier","type":"uint256","internalType":"uint256"}],"outputs":[],"stateMutability":"nonpayable"},{"type":"function","name":"openPuzzle","inputs":[{"name":"puzzleId","type":"uint256","internalType":"uint256"},{"name":"puzzle","type":"uint256[81]","internalType":"uint256[81]"}],"outputs":[],"stateMutability":"nonpayable"},{"type":"function","name":"owner","inputs":[],"outputs":[{"name":"result","type":"address","internalType":"address"}],"stateMutability":"view"},{"type":"function","name":"ownershipHandoverExpiresAt","inputs":[{"name":"pendingOwner","type":"address","internalType":"address"}],"outputs":[{"name":"result","type":"uint256","internalType":"uint256"}],"stateMutability":"view"},{"type":"function","name":"puzzles","inputs":[{"name":"puzzleId","type":"uint256","internalType":"uint256"}],"outputs":[{"name":"puzzleHash","type":"bytes32","internalType":"bytes32"},{"name":"openedAt","type":"uint256","internalType":"uint256"}],"stateMutability":"view"},{"type":"function","name":"renounceOwnership","inputs":[],"outputs":[],"stateMutability":"payable"},{"type":"function","name":"requestOwnershipHandover","inputs":[],"outputs":[],"stateMutability":"payable"},{"type":"function","name":"spentNullifier","inputs":[{"name":"nullifier","type":"uint256","internalType":"uint256"}],"outputs":[{"name":"","type":"bool","internalType":"bool"}],"stateMutability":"view"},{"type":"function","name":"sudokuRules","inputs":[],"outputs":[{"name":"","type":"address","internalType":"contract SudokuRules"}],"stateMutability":"view"},{"type":"function","name":"transferOwnership","inputs":[{"name":"newOwner","type":"address","internalType":"address"}],"outputs":[],"stateMutability":"payable"},{"type":"event","name":"OwnershipHandoverCanceled","inputs":[{"name":"pendingOwner","type":"address","indexed":true,"internalType":"address"}],"anonymous":false},{"type":"event","name":"OwnershipHandoverRequested","inputs":[{"name":"pendingOwner","type":"address","indexed":true,"internalType":"address"}],"anonymous":false},{"type":"event","name":"OwnershipTransferred","inputs":[{"name":"oldOwner","type":"address","indexed":true,"internalType":"address"},{"name":"newOwner","type":"address","indexed":true,"internalType":"address"}],"anonymous":false},{"type":"event","name":"PuzzleOpened","inputs":[{"name":"puzzleId","type":"uint256","indexed":true,"internalType":"uint256"},{"name":"openedAt","type":"uint256","indexed":false,"internalType":"uint256"}],"anonymous":false},{"type":"event","name":"Solved","inputs":[{"name":"puzzleId","type":"uint256","indexed":true,"internalType":"uint256"},{"name":"player","type":"uint256","indexed":true,"internalType":"uint256"},{"name":"nullifier","type":"uint256","indexed":false,"internalType":"uint256"},{"name":"solvedAt","type":"uint256","indexed":false,"internalType":"uint256"},{"name":"elapsed","type":"uint256","indexed":false,"internalType":"uint256"}],"anonymous":false},{"type":"error","name":"AlreadyInitialized","inputs":[]},{"type":"error","name":"AlreadyOpened","inputs":[]},{"type":"error","name":"BadProof","inputs":[]},{"type":"error","name":"BadPuzzle","inputs":[]},{"type":"error","name":"NewOwnerIsZeroAddress","inputs":[]},{"type":"error","name":"NoHandoverRequest","inputs":[]},{"type":"error","name":"NotOpened","inputs":[]},{"type":"error","name":"NullifierSpent","inputs":[]},{"type":"error","name":"Unauthorized","inputs":[]}],"bytecode":{"object":"0x60a034609d57601f6107c238819003918201601f19168301916001600160401b0383118484101760a157808492602094604052833981010312609d57516001600160a01b03811690819003609d5760805233638b78c6d81955335f7f8be0079c531659141344cd1fd0a4f28419497f9722a3daafe3b4186f6b6457e08180a360405161070c90816100b6823960805181818161043201526106220152f35b5f80fd5b634e487b7160e01b5f52604160045260245ffdfe6080806040526004361015610012575f80fd5b5f3560e01c90816311943799146106055750806325692962146105bc578063264859e31461035157806330fb12f31461029957806354d1f13d14610255578063715018a61461020c5780638da5cb5b146101e257806390ba2652146101b0578063bed9222b14610181578063f04e283e14610129578063f2fde38b146100e15763fee81cf4146100a0575f80fd5b346100dd5760203660031901126100dd576004356001600160a01b03811681036100dd5763389a75e1600c525f52602080600c2054604051908152f35b5f80fd5b60203660031901126100dd576004356001600160a01b03811681036100dd5761010861067c565b8060601b1561011c5761011a90610698565b005b637448fbae5f526004601cfd5b60203660031901126100dd576004356001600160a01b03811681036100dd5761015061067c565b63389a75e1600c52805f526020600c209081544211610174575f61011a9255610698565b636f5e88185f526004601cfd5b346100dd5760203660031901126100dd576004355f526001602052602060ff60405f2054166040519015158152f35b346100dd5760203660031901126100dd576004355f525f6020526040805f206001815491015482519182526020820152f35b346100dd575f3660031901126100dd576020638b78c6d819546001600160a01b0360405191168152f35b5f3660031901126100dd5761021f61067c565b5f638b78c6d819547f8be0079c531659141344cd1fd0a4f28419497f9722a3daafe3b4186f6b6457e08280a35f638b78c6d81955005b5f3660031901126100dd5763389a75e1600c52335f525f6020600c2055337ffa7b8eab7da67f412cc9575ed43464468f9bfbae89d1675917346ca6d8fe3c925f80a2005b346100dd57610a403660031901126100dd5760043536610a44116100dd576102bf61067c565b805f525f60205260405f2060018101908154610329576040516020810190610a2060248337610a2081526102f5610a4082610646565b51902090554290557f69a9db94b17d2be34c69dfb38b76229cab3d80e26d1e31a7d24e5a334f18738f6020604051428152a2005b7f1da42b26000000000000000000000000000000000000000000000000000000005f5260045ffd5b346100dd57610d803660031901126100dd5760043536610324116100dd5736610d44116100dd57610d443590610d6435815f525f60205260405f206001810190815415610594576040516020810190610a206103248337610a2081526103b9610a4082610646565b51902090540361056c57815f52600160205260ff60405f205416610544576040517fa0d9a93c00000000000000000000000000000000000000000000000000000000815261030060246004830137610a2061032461030483013784610d2482015282610d44820152602081610d64816001600160a01b037f0000000000000000000000000000000000000000000000000000000000000000165afa908115610539575f916104fe575b50156104d657815f52600160205260405f20600160ff198254161790555442034281116104c2577fa2c3660bf77b9b96b33969b0525c896bb417c276d3c139be9f547fb67615e478916060916040519182524260208301526040820152a3005b634e487b7160e01b5f52601160045260245ffd5b7f7ca55c77000000000000000000000000000000000000000000000000000000005f5260045ffd5b90506020813d602011610531575b8161051960209383610646565b810103126100dd575180151581036100dd5785610462565b3d915061050c565b6040513d5f823e3d90fd5b7f63734faa000000000000000000000000000000000000000000000000000000005f5260045ffd5b7f11753d81000000000000000000000000000000000000000000000000000000005f5260045ffd5b7f6d36408a000000000000000000000000000000000000000000000000000000005f5260045ffd5b5f3660031901126100dd5763389a75e1600c52335f526202a30042016020600c2055337fdbf36a107da19e49527a7176a1babf963b4b0ff8cde35ee35d6cd8f1f9ac7e1d5f80a2005b346100dd575f3660031901126100dd576020906001600160a01b037f0000000000000000000000000000000000000000000000000000000000000000168152f35b90601f8019910116810190811067ffffffffffffffff82111761066857604052565b634e487b7160e01b5f52604160045260245ffd5b638b78c6d81954330361068b57565b6382b429005f526004601cfd5b6001600160a01b031680638b78c6d819547f8be0079c531659141344cd1fd0a4f28419497f9722a3daafe3b4186f6b6457e05f80a3638b78c6d8195556fea26469706673582212202714281ec65dd45476801bd7ce5ce2ae1732d22eea7946beed3f6d5c56e5e61d64736f6c634300081b0033","linkReferences":{}},"methodIdentifiers":{"cancelOwnershipHandover()":"54d1f13d","completeOwnershipHandover(address)":"f04e283e","logSolve(uint256,uint256[24],uint256[81],uint256,uint256)":"264859e3","openPuzzle(uint256,uint256[81])":"30fb12f3","owner()":"8da5cb5b","ownershipHandoverExpiresAt(address)":"fee81cf4","puzzles(uint256)":"90ba2652","renounceOwnership()":"715018a6","requestOwnershipHandover()":"25692962","spentNullifier(uint256)":"bed9222b","sudokuRules()":"11943799","transferOwnership(address)":"f2fde38b"},"id":39}